:020000040800F2
:100000008806002089010008A90A0008A50A00083E
:10001000A70A00088F020008130B00080000000068
:10002000000000000000000000000000AD0A000811
:100030009102000800000000AB0A0008AF0A0008A7
:10004000A3010008A3010008A3010008A301000800
:10005000A3010008A3010008A3010008A3010008F0
:10006000A3010008A3010008A3010008A3010008E0
:10007000A3010008A3010008A3010008A3010008D0
:10008000A3010008A3010008A3010008A3010008C0
:10009000A3010008A3010008A3010008A3010008B0
:1000A000A3010008A3010008A3010008A3010008A0
:1000B000A3010008A3010008A3010008A301000890
:1000C000A3010008A3010008A3010008A301000880
:1000D000A3010008A3010008A3010008A301000870
:1000E00093020008A3010008A301000800F002F831
:1000F00000F03AF80AA090E8000C82448344AAF188
:100100000107DA4501D100F02FF8AFF2090EBAE885
:100110000F0013F0010F18BFFB1A43F0010318473B
:10012000DC130000FC130000103A24BF78C878C12B
:10013000FAD8520724BF30C830C144BF04680C60ED
:10014000704700000023002400250026103A28BF35
:1001500078C1FBD8520728BF30C148BF0B60704739
:100160001FB51FBD10B510BD00F058F81146FFF7C0
:10017000F7FF00F0DFFC00F076F803B4FFF7F2FFC2
:1001800003BC00F07DF8000009488047094800479B
:10019000FEE7FEE7FEE7FEE7FEE7FEE7FEE7FEE737
:1001A000FEE7FEE704480549054A064B7047000094
:1001B000110B0008ED0000088800002088060020D0
:1001C00088020020880200204FF0000200B513468C
:1001D00094469646203922BFA0E80C50A0E80C5067
:1001E000B1F12001BFF4F7AF090728BFA0E80C5018
:1001F00048BF0CC05DF804EB890028BF40F8042B11
:1002000008BF704748BF20F8022B11F0804F18BF7D
:1002100000F8012B7047704770477047754600F033
:100220002BF8AE4605006946534620F00700854688
:1002300018B020B5FFF7B6FFBDE820404FF000062C
:100240004FF000074FF000084FF0000B21F00701BE
:10025000AC46ACE8C009ACE8C009ACE8C009ACE801
:10026000C0098D46704710B50446AFF300802046A4
:10027000BDE81040FFF781BF00487047280000200C
:1002800001491820ABBEFEE7260002007047FEE7DA
:1002900070474FF4004000F00BB80000B0F5004F7D
:1002A00003D102480168491C01607047000000202A
:1002B000044910B50A68024202D00860FFF7EEFF59
:1002C00010BD0000140401402DE9F84FDFF8B8918B
:1002D0000024A9F1040B23460F2709F1040AABF10E
:1002E000040EC9E00125A5402A40AA427DD1674EEF
:1002F000D1F804C0ACEB0608B44532D014DCBCF134
:10030000030F3AD009DCBCF1000F2AD0BCF1010F79
:100310001CD0BCF1020F31D11DE0BCF1110F17D080
:10032000BCF1120F2AD119E0B8F5881F19D006DCEC
:10033000B8F5803F15D0B8F5801F1FD111E0B8F592
:10034000001F0ED0B8F5041F18D10AE0CB6815E0E5
:10035000CB681B1D12E0CB6808330FE0CB680C3371
:100360000CE08B682BB1012B4FF0080303D04561E3
:1003700004E0042302E0056100E00023FF2A01D825
:10038000064601E000F104064FEA840501D9A5F113
:100390002005D6F8008007FA05FC28EA0C0803FAC5
:1003A00005F548EA0508C6F800804D68ED0062D5FD
:1003B000374DAE6946F00106AE61AD6924F0030623
:1003C00005F001050095334D06EB050CDCF80850EF
:1003D000A607360F07FA06F825EA0805DFF8B88001
:1003E000404503D14FF0000817E044E0DFF8AC804F
:1003F000404502D14FF001080FE0DFF8A4804045EE
:1004000002D14FF0020808E0DFF89880404502D1A1
:100410004FF0030801E04FF0040808FA06F848EA34
:100420000508CCF808804D68D9F80060ED024D460B
:1004300001D5164300E096432E604D68DAF800605F
:10044000AD02554601D5164300E096432E604D6837
:10045000DBF80060AD035D4601D5164300E096432E
:100460002E604D68DEF80060ED03754601D5164339
:1004700000E096432E60641C0D682A46E5407FF438
:1004800031AFBDE8F88F00000804014000001110F2
:10049000001002400000014000080140000C014033
:1004A00000100140001401400148806870470000BE
:1004B000180000200248816802781144816070476A
:1004C00018000020074810B5016841F010010160D4
:1004D000032000F075F80F2000F006F800F024F873
:1004E000002010BD0020024070B50D4D04464FF4B1
:1004F0007A712878B1FBF0F00A490968B1FBF0F095
:1005000000F0BCFA48B9102C07D200222146501E38
:1005100000F036F800206C6070BD012070BD000056
:1005200018000020240000200C4808B5816941F023
:1005300001018161816901F001010091C16941F00E
:100540008051C161C06900F080500090044841684A
:1005500021F0E06141F00071416008BD00100240EF
:1005600000000140002809DB00F01F02012191403A
:100570004009800000F1E020C0F800117047000041
:10058000F0B40E4B1B680C46C3F30223C3F10705FE
:10059000042D00D90425191D072901D2002300E0EC
:1005A000DB1E012606FA05F1491E214099409E40B6
:1005B000761E16403143F0BC00F0ACBA0CED00E002
:1005C000064900F0070208684FF6FF03184040EAAA
:1005D0000220034A10430860704700000CED00E061
:1005E0000000FA052DE9F0470F46050061D0434EA3
:1005F000306800F00700B84209D2306820F00700E8
:1006000038433060306800F00700B84251D12868A4
:100610003B4C810712D5400703D5606840F4E06089
:1006200060602878000703D5606840F4605060601F
:100630006068A96820F0F000084360602878C0076F
:1006400028D06868012810D02168022810D08907B6
:1006500000292EDA616821F0030101436160FFF790
:1006600023FF804641F288390DE021688903EFE7D6
:100670008901EDE7FFF718FFA0EB0801494502D912
:100680000320BDE8F0876068696800F00C00B0EBFB
:10069000810FEFD1306800F00700B8420BD9306805
:1006A00020F0070038433060306800F00700B8429F
:1006B00001D00120E5E72878400705D56068E968A2
:1006C00020F4E060084360602878000706D5606881
:1006D000296920F4605040EAC100606000F018F819
:1006E0006168084AC1F30311515CC84006490860BB
:1006F00006480068FFF7F8FE0020C2E7002002402D
:1007000000100240EA140008240000201C00002011
:100710000E4A51680E4801F00C03042B11D0082B2F
:100720000FD10C48C1F38343C903C05C0AD551689B
:10073000084AC1F34041921E515C054A5043B0FB48
:10074000F1F0704704494843704700000010024030
:1007500000127A00DA14000800093D002DE9F84F74
:10076000040070D02078C04DC00749D06868C0F33D
:100770008100012807D06868C0F38100022809D1F0
:100780006868C00306D52868800339D560680028EA
:10079000E7D035E06068B0F5803F0BD010B1B0F520
:1007A000A02F11D0286820F480302860286820F419
:1007B000802002E0286840F480302860606890B1B2
:1007C000FFF772FE06460AE0286840F480202860A1
:1007D000F0E700BFFFF768FE801B642873D8286825
:1007E0008003F7D50CE0FFF75FFE064605E000BF8B
:1007F000FFF75AFE801B6428F0D828688003F7D4DE
:1008000020789A4E80074FF001094FF0000839D543
:10081000686810F00C0F07D06868C0F381000228E8
:1008200009D16868C00306D42868800714D52069F8
:10083000012808D110E02069B0B1C6F80090FFF798
:1008400033FE074605E00AE1FFF72EFEC01B022833
:10085000C4D828688007F7D52868616920F0F800B7
:1008600040EAC10028600DE0C6F80080FFF71CFEDA
:10087000074604E0FFF718FEC01B022823D82868AB
:100880008007F7D4207800072CD57948A169D9B121
:10089000C0F80090FFF708FE074604E0FFF704FEEB
:1008A000C01B02280FD8686A8007F7D571484FF43B
:1008B000FA510068B0FBF1F0009000BF0098411EB3
:1008C0000091FAD20EE080E0C0F80080FFF7ECFD66
:1008D000074604E0FFF7E8FDC01B022875D8686AE8
:1008E0008007F7D42078400760D5E8690027C0006A
:1008F00008D4E86940F08050E861E869012700F019
:10090000805000905C480168C90513D40168834693
:1009100041F480710160FFF7C7FD824606E000BF29
:10092000FFF7C2FDA0EB0A0064284ED8DBF80000F8
:10093000C005F5D5E06801280AD008B1052813D014
:10094000286A20F001002862286A20F0040002E0F2
:10095000286A40F001002862E06841F2883B98B1C3
:10096000FFF7A2FD82460BE0286A40F004002862EF
:10097000EEE700BFFFF798FDA0EB0A0159455AD8F2
:10098000286A8007F6D50CE0FFF78EFD824605E069
:10099000FFF78AFDA0EB0A0159454CD8286A800769
:1009A000F6D41FB1E86920F08050E861E06988B3AF
:1009B0006968C1F38101022944D00228C6F8608029
:1009C00004D0FFF771FD044638E034E0FFF76CFD1A
:1009D000074604E0FFF768FDC01B02282BD82868F3
:1009E0008001F7D4206AB0F5803F05D16868A1681E
:1009F00020F4003008436860D4E9080108436968BE
:100A000021F4741108436860C6F86090FFF74CFD4C
:100A1000044606E025E000BFFFF746FD001B022864
:100A200009D828688001F7D51BE000BFFFF73CFD1F
:100A3000001B022802D90320BDE8F88F2868800136
:100A4000F4D40EE00128F7D06868226A00F48031FF
:100A5000914204D1616A00F47010884201D00120F3
:100A6000EAE70020E8E700000010024000004242F0
:100A700080044242240000200070004010B5401E57
:100A8000B0F1807F01D3012010BD4FF0E024606100
:100A90000F21601700F03EF80020A06107202061C0
:100AA000002010BDFEE7FEE7FEE770477047FFF746
:100AB00001BD30B58FB028216846FFF785FB1421B2
:100AC0000AA8FFF781FB01210804CDE900100024EA
:100AD000029402250491CDE907504FF4E0100990EB
:100AE0006846FFF73BFE08B172B6FEE70F20CDE97E
:100AF0000A054FF48060CDE90C4002210AA80E944B
:100B0000FFF770FD002801D072B6FEE70FB030BDD0
:100B10007047FEE70907090E002804DB00F1E0201A
:100B200080F80014704700F00F0000F1E02080F81A
:100B3000141D704786B0FFF7C5FCFFF7BAFF2E48BB
:100B400000270397816941F020018161816901F0EB
:100B500020010491816941F0040181618069694645
:100B600000F0040004904FF40040009023480190EE
:100B7000022002902248FFF7A7FB002211462820FE
:100B8000FFF7FEFC2820FFF7EDFC1E4CFFF78CFC66
:100B90006168401AA1688842F8D9206800F0C6F957
:100BA00005460E46FFF780FC6168401A00F0D5F953
:100BB00002460B460020144900F060F82A463346EE
:100BC00000F0DEF90022114B00F058F800F024F894
:100BD000E060FFF769FC60600D49E06800F0CEFA64
:100BE0000C4900F0ADFB00F08BFB206161692760D0
:100BF00008446061CAE700000010024000001110C4
:100C0000000801400000002000408F40000012401A
:100C10000000704200007A4421F00042A2F16052CC
:100C2000B2F5801F01F0004328BFD2F17F6C0BD9D1
:100C30005FEA001C43EAC20242EB507018BF7047E3
:100C400028BF20F001007047B2F5801FBCBF1846D6
:100C500070474FEA410C1CF5001F02D2084600F015
:100C600036BC70B500F036FA00000089FFF7F6BF19
:100C70004FF00040A0F58000704700002DE9C04112
:100C800030B4DFF8A0C23CEA111418BF3CEA1314D8
:100C900000F0EC8081EA03051CEA111444EAD574E3
:100CA00018BF1CEA131500F0C780A4EB05044FF031
:100CB000004545EAC12145EAC32341EA505143EAD0
:100CC000525304F17F74994204F500344FEAC02076
:100CD0004FEAC22208BF904200F09C804FEA1365A1
:100CE0000FF24016765D4FEA134506FB05F7C7F194
:100CF000807706FB07F74FEAD737A7FB03687642F2
:100D0000C8F58038A7FB06CE38BFA8F1010807FB5D
:100D100008E64FF0000EA6FB028CE6FB03CEDCF1EA
:100D2000000CCEF1004E38BFAEF1010EA6FB0C5800
:100D30004FF000074FF00005E6FB0E87A1FB08C649
:100D4000A0FB07CE16EB0E0645F10005E1FB07659B
:100D500015F1E04E7EBFA4F580345FEA46066D4192
:100D600016F1800745F100054FEA17274FEA06669E
:100D700047EA0567A6F1DE46B6F1805F4FEA152522
:100D80001FD9384624F0010C05EBC471BCF1FE6F8D
:100D900001EB0C1102D8F0BCBDE8008124425CBF1D
:100DA00001F5801E9EEAC47F02D4F0BCBDE800813C
:100DB000244238D4F0BCA1F1C041BDE8004100F0AC
:100DC000D7B94FEAD22242EA43524FEAD323A7FBD4
:100DD00002864FEAD02040EA415007FB03661EEA34
:100DE0000E0F4FEAD12105FB026658BFA6EB005655
:100DF000B6EB00564FEA520E4EEAC37E18EB0E0ECB
:100E000056EB530EBDD518EB02085E417F1C55F121
:100E10000005B6E74FF480154FF000074FF00006CD
:100E20004FF00008ADE7F0BC4FF0000001F1C04109
:100E300001F00041BDE8008111EA0C1F0CEA131516
:100E400000D00CE013EA0C1F00F025804FF00000EA
:100E5000F0BC81EA030101F00041BDE80081F0BC73
:100E6000BDE8004181EA030100F082B9F0BCBDE8B1
:100E7000004170B500F02EF9097EFC3E00F007B885
:100E800081EA03014FF0000001F00041704781EA60
:100E9000030100F06DB9F0BCBDE800414FF0000067
:100EA00021497047FFFDFBF9F7F5F4F2F0EEEDEBA9
:100EB000E9E8E6E4E3E1E0DEDDDBDAD8D7D5D4D358
:100EC000D1D0CFCDCCCBCAC8C7C6C5C4C2C1C0BFA4
:100ED000BEBDBCBBBAB9B8B7B6B5B4B3B2B1B0AFAA
:100EE000AEADACABAAA9A8A8A7A6A5A4A3A3A2A18E
:100EF000A09F9F9E9D9C9C9B9A9999989797969549
:100F000095949393929191908F8F8E8E8D8C8C8BE4
:100F10008B8A89898888878786858584848383826C
:100F2000828181800000FF070000F87F10F00042FE
:100F300048BF4042B0FA80F310FA03F10AD0C3F17F
:100F40001D0303F580634FEA415002EB035202EBAD
:100F5000D12170474FF000007047B0FA80F310FACB
:100F600003F10AD0C3F11D0303F580634FEA41503A
:100F70004FEA035202EBD12170474FF00000704757
:100F8000DFF848C170B51CEA111E1EBF1CEA13151C
:100F90009EEA0C0F95EA0C0F00F06F8081EA0304C3
:100FA00023EA4C134EEAD47E21EA4C1141F480111D
:100FB00043F48013AE44A1FB024CA0FB0365AEF1E9
:100FC0007F7E361955EB0C05A1FB034C4CF1000359
:100FD000A0FB021C16EB0C06654153F1000309420D
:100FE00018BF46F0010613F4007F0BD14FEA03311E
:100FF0004FEA0530340341EA155140EA16506FF0CC
:1010000003020AE04FEAC3214FEAC520F40241EA95
:10101000555140EA56506FF0020202EB2E4201EBAE
:10102000025585EACE710AD05FEA440C18BF24F05D
:10103000004450F1000041F1000120EAD47040F278
:10104000FE7C624500D270BDA84214BF4FF08044C0
:101050004FF04044002E08BF0024BEF1806FA8BFAF
:10106000A1F1C041BDE8704080F282804FF00000E5
:1010700001F1C04101F0004170479EEA0C0F0CEAFB
:10108000131518BF95EA0C0F06D04FF0000081EA47
:10109000030E0EF0004170BD00F01CF88900013E07
:1010A00000F007B800F009B84FEA430C5FEA5C5C57
:1010B00008D081EA030100F05BB84FEA410C5FEA17
:1010C0005C5CF6D14FF00000014970470000FF075B
:1010D0000000F87F0EF1020E2EF0030E5EF8046B96
:1010E000364205D4012A43EB030515F5001F12D83B
:1010F000012841EB010C1CF5001F0CD80ED14FEA62
:10110000D17C15F5001F0CEB4C0C0CF1020C08BF48
:101110004CEBD37C04E04FF0080C01E04FEAD37CA9
:101120000CEB4C0526FA05F606F00706B6F1040CA2
:1011300006D20EEB860CBDE870404CF0010C604707
:10114000DFE80CF0090B02024FF000414FF0000005
:10115000A1F5002170BD19461046012851EB01048C
:1011600018BFD4F5001484BF002001F0004170BD09
:101170000808A0F500114FEA310170474FF47F0CC9
:101180001CEAD0121EBF1CEAD11392EA0C0F93EA9C
:101190000C0F00F0858090EA010F48BF42F4807286
:1011A00040F4000C41F400002CF07F4120F07F401F
:1011B00000B58142A2EB03020FF2081CACEB504ECB
:1011C000C0F100009EF800E04FEA4E0E00FB0EFC5E
:1011D00038BF49004FEA2C1C02F5FA020CFB0EF353
:1011E0004FEACE1E4FEA112C4FEAC1210EEB635E8F
:1011F00042EB22420EFB0CFC4FEA1C5300FB031196
:101200004FEA112C4FEA01310EFB0CFC4FEADC4C8B
:1012100000FB0C11C14228BF09184CEB03335DF8E9
:1012200004EB10EB410143EBC250B2F57C0F38BF29
:10123000704729D512F0F00F1CBF00F1C04000F03C
:1012400000407047008182838485868788898B8CE3
:101250008D8E8F919293959697999A9C9D9FA0A21F
:10126000A3A5A7A8AAACAEB0B2B3B5B7B9BCBEC06F
:10127000C2C5C7C9CCCED1D4D7D9DCDFE2E6E9EC10
:10128000F0F3F7FAFE0000004FEA400C0CF1807C0E
:10129000BCF17E4F28BF7047B0F1C04000F017B9D5
:1012A00090EA010F0CEAD11348BF42F48072624504
:1012B00038BF634507D213F47F0F16D080EA0100D0
:1012C00000F00040704710B500F0BBF8097EFC3E0E
:1012D00000F005B880EA010000F00040704780EAA5
:1012E000010000F0004000F0F2B812F47F0F04BFDC
:1012F0000248704780EA010000F0E9B80000C07FB2
:10130000C10DD1F19E0206DB4FEA002343F00043FA
:1013100023FA02F07047004207D54FEA4001B1F1CD
:10132000FE4F02D24FF00000704710B500F089F870
:1013300049922480002070476FEA20007047000027
:101340004FF47F0C1CEAD0121EBF1CEAD11392EAA4
:101350000C0F93EA0C0F00F0478090EA010F48BF92
:1013600042F480724FF0004C4CEA00204CEA01211C
:1013700002EB0302A0FB0113A2F50002002918BF33
:1013800043F001035B0028BF4FEA330342EB2242E4
:101390005FEA132C4CEBC2502EBFBCEB436FB2F58F
:1013A0007C0F70474FEA036CBCF1004F08BF20F080
:1013B0000100B2F57C0F38BF70470BD582F0FF02F9
:1013C00012F5803FC8BF704700F1C040D8BF00F0A1
:1013D0000040704700F5000C5FEA4C0C48BF7047B6
:1013E000B0F1C04000F073B890EA010F0CEAD113DD
:1013F00048BF42F48072624538BF634504D280EA38
:10140000010000F00040704710B500F01AF800BF6E
:101410008900013E00F007B800F009B85FEA410C0E
:101420005FEA1C6C08D080EA010000F050B85FEA67
:10143000400C5FEA1C6CF6D14FF00040A0F5800034
:1014400070470EF1020E2EF0030E5EF8044B24429C
:1014500004D44FEA4102B2F17F4F11D84FEA400362
:10146000B3F17F4F0CD80ED14FEAD07CB2F17F4F51
:101470000CEB4C0C0CF1020C08BF4CEBD17C04E0E3
:101480004FF0080C01E04FEAD17C0CEB4C0324FA3E
:1014900003F404F00704B4F1040C06D20EEB840C40
:1014A000BDE810404CF0010C6047DFE80CF0070885
:1014B00002024FF00040A0F5800010BD0846420037
:1014C00018BFD2F1807288BF00F0004010BDFF212C
:1014D00041EAD050C0057047010202030405060727
:1014E00008090A0B0C0D0E0F101000000000000080
:1014F0000000010203040607080900001C1500088B
:101500000000002028000000280100084415000801
:1015100028000020600600004401000800000000D0
:1015200000000000E80300000000000000000000D0
:10153000000000000100000010000000000000009A
:041540000024F4008F
:04000005080000ED02
:00000001FF
