:020000040800F2
:10000000D008002091010008B3200008631A0008FE
:10001000B1200008DB0400089D2300080000000058
:10002000000000000000000000000000ED210008BA
:10003000DD04000800000000B5200008EF210008E2
:10004000AB010008AB010008AB010008AB010008E0
:10005000AB010008AB010008AB010008AB010008D0
:10006000AB010008AB010008AB010008AB010008C0
:10007000AB010008AB010008AB010008AB010008B0
:10008000AB010008AB010008AB010008AB010008A0
:10009000AB010008AB010008AB010008AB01000890
:1000A000AB010008AB010008AB010008AB01000880
:1000B000AB010008AB010008AB010008AB01000870
:1000C000AB010008AB010008AB010008AB01000860
:1000D000AB010008AB010008AB010008AB01000850
:1000E000AB010008AB010008AB01000800F002F80A
:1000F00000F03FF80AA090E8000C82448344AAF183
:100100000107DA4501D100F034F8AFF2090EBAE880
:100110000F0013F0010F18BFFB1A43F0010318473B
:100120000029000020290000103A24BF78C878C1B7
:10013000FAD8520724BF30C830C144BF04680C60ED
:10014000704700000023002400250026103A28BF35
:1001500078C1FBD8520728BF30C148BF0B60704739
:10016000732900F05081002070471FB51FBD10B5E6
:1001700010BD00F04CF91146FFF7F7FF02F020F92F
:1001800000F06AF903B4FFF7F2FF03BC00F072F964
:100190000948804709480047FEE7FEE7FEE7FEE71B
:1001A000FEE7FEE7FEE7FEE7FEE7FEE70448054957
:1001B000054A064B704700006B220008ED0000085E
:1001C000D0020020D0080020D0040020D00400205D
:1001D0000FB41CB5074B06AA7B44694600900598EE
:1001E00000F0E7F80020694600F0F6F81CBC5DF866
:1001F00014FB0000FD0100002DE9F0410E4604460D
:10020000002020622046E168884730B3252805D0C9
:10021000D4E901219047206A401CF2E7E1682046BA
:1002200000278847050018D0A5F14100192802D8F9
:1002300020354FF400673246294620462760FFF7F5
:100240008FFF40B1012804D0F61D26F007060836BE
:10025000D8E7361DD6E72846DAE7206ABDE8F08100
:1002600070B50C460546012A05D02878800600D5D1
:10027000EA69002302E0012305E05B1C934202D2FD
:10028000E05C0028F9D1A869E618C01AA861286ABC
:10029000184428622846AFF3008004E0D5E9012124
:1002A00014F8010B9047B442F8D32846AFF300800E
:1002B00070BD10B5431C02E010F8011B71B181073D
:1002C000FAD14FF0013202C88C1A8C4314EAC211E1
:1002D000F9D0C01A0A0603D0C01E10BDC01A10BD46
:1002E0000A0401D0801E10BD0902FCD0401E10BDC2
:1002F00010B5203AC0F00B80B1E81850203AA0E8C1
:100300001850B1E81850A0E81850BFF4F5AF5FEAF4
:10031000027C24BFB1E81850A0E8185044BF18C9A7
:1003200018C0BDE810405FEA827C24BF51F8043B4E
:1003300040F8043B08BF7047D20728BF31F8023BA2
:1003400048BF11F8012B28BF20F8023B48BF00F836
:10035000012B70474FF0000200B5134694469646B5
:10036000203922BFA0E80C50A0E80C50B1F12001C8
:10037000BFF4F7AF090728BFA0E80C5048BF0CC076
:100380005DF804EB890028BF40F8042B08BF7047D4
:1003900048BF20F8022B11F0804F18BF00F8012B46
:1003A000704770477047704701694A1C02610878BE
:1003B000704700B58FB0CDE90131002105910549A5
:1003C0007944CDE9031011466846FFF715FF0FB0D9
:1003D00000BD0000E5FFFFFF0A6802F8010B0A609C
:1003E000704710B5436913B1AFF3008001E0FFF728
:1003F00037FF012010BD127800F124010A7000229D
:100400004A700122EDE711684FF0FF32E9E77546C7
:1004100000F02CF8AE4605006946534620F0070070
:10042000854618B020B5FFF7C1FEBDE820404FF06B
:1004300000064FF000074FF000084FF0000B21F0CE
:100440000701AC46ACE8C009ACE8C009ACE8C0099B
:10045000ACE8C0098D46704710B50446AFF3008084
:100460002046BDE81040FFF78DBE000000487047F1
:100470006C02002001491820ABBEFEE726000200F6
:100480007047000070B5044600688168C943C90719
:1004900017D1816821F00101816000F089FA0546D9
:1004A0000AE000BF00F084FA401B022804D920684B
:1004B0008068C043C00706D020688068C043C0077A
:1004C000F0D0002070BDA06A40F01000A062E06A89
:1004D00040F00100E062012070BDFEE770470000BF
:1004E000F8B50024009490F824202546012A12D063
:1004F000012280F824204A681F23072A0DD20668AB
:10050000776B521E02EB820293409F430B6893402D
:100510001F43776319E00220F8BD06680D2A0AD24E
:10052000376BD21F02EB820293409F430B689340CC
:100530001F43376309E0F76A0D3A02EB82029340EA
:100540009F430B6893401F43F7620A6807230668BE
:100550000A2A0AD3F7680A3A02EB420293409F4301
:100560008B6893401F43F76008E0376902EB420253
:1005700093409F438B6893401F4337610A68102A5A
:1005800001D0112A20D1124B02689A4217D19368E8
:100590001B0219D4936843F400039360096810297F
:1005A00012D10C490C4A0968B1FBF2F101EB81014F
:1005B000490000E0491E00910029FBD104E0816A56
:1005C00041F020018162012480F824502046F8BDCA
:1005D000002401400C00002040420F002DE9F041B2
:1005E0004FF0000704003D467ED0A06A002628B9DF
:1005F000E66284F82460204600F07EF82046FFF78B
:1006000041FFA16AC90600D420B1A06A40F01000E1
:10061000A06269E0A16A21F4885141F00201A1625F
:100620006268E169237B0A4347EA43010A43A16800
:100630004FF48077B94209D0012907D05FF000015B
:1006400094F814C0BCF1010F02D00AE03946F7E774
:10065000F3B1A36A43F02003A362E36A43F001030A
:10066000E3622368D3F804C02CF4694C4CEA010C13
:10067000C3F804C021688B68DFF870C003EA0C037C
:1006800013438B60A168B9420BD0012909D00CE05B
:10069000DFF85CC0A3690CEB43330B4343F4006108
:1006A000DFE7218A0D05A5F580152168CB6A23F4C3
:1006B00070032B43CB62216889680E4B194091422D
:1006C00008D1E662A16A21F0020141F00101A162B4
:1006D000BDE8F081A06A20F0020040F01000A062A6
:1006E000E06A40F00100E0620120F1E7FDF7E1FF80
:1006F00000E0FFFFFE0E1FFF30B585B00021009126
:10070000019102910391214B026821490324214860
:1007100002259A4220D18A6942F400728A618A696C
:1007200002F4007204928A6942F004028A618A69C2
:1007300002F0040204928A6942F008028A6189691F
:1007400001F0080104910121CDE90014694600F08F
:1007500039F86946104813E0104B9A4214D18A695F
:1007600042F480628A618A6902F4806204928A6932
:1007700042F004028A61896901F00401049169462A
:10078000CDE9005400F01EF805B030BD0024014052
:100790000010024000080140000C01400028014008
:1007A00070B5044600F004F90546601C02D0044808
:1007B0000078044400F0FCF8401BA042FAD370BD5E
:1007C000000000202DE9F84FDFF8B8910024A9F1CE
:1007D000040B23460F2709F1040AABF1040EC9E00C
:1007E0000125A5402A40AA427DD1674ED1F804C018
:1007F000ACEB0608B44532D014DCBCF1030F3AD0A0
:1008000009DCBCF1000F2AD0BCF1010F1CD0BCF1F7
:10081000020F31D11DE0BCF1110F17D0BCF1120F46
:100820002AD119E0B8F5881F19D006DCB8F5803F49
:1008300015D0B8F5801F1FD111E0B8F5001F0ED0FC
:10084000B8F5041F18D10AE0CB6815E0CB681B1D72
:1008500012E0CB6808330FE0CB680C330CE08B68F8
:100860002BB1012B4FF0080303D0456104E00423B2
:1008700002E0056100E00023FF2A01D8064601E0FE
:1008800000F104064FEA840501D9A5F12005D6F848
:10089000008007FA05FC28EA0C0803FA05F548EA87
:1008A0000508C6F800804D68ED0062D5374DAE6989
:1008B00046F00106AE61AD6924F0030605F00105BE
:1008C0000095334D06EB050CDCF80850A607360FF3
:1008D00007FA06F825EA0805DFF8B880404503D195
:1008E0004FF0000817E044E0DFF8AC80404502D14B
:1008F0004FF001080FE0DFF8A480404502D14FF02F
:10090000020808E0DFF89880404502D14FF0030864
:1009100001E04FF0040808FA06F848EA0508CCF8A8
:1009200008804D68D9F80060ED024D4601D51643A8
:1009300000E096432E604D68DAF80060AD0255463F
:1009400001D5164300E096432E604D68DBF8006049
:10095000AD035D4601D5164300E096432E604D6819
:10096000DEF80060ED03754601D5164300E09643BE
:100970002E60641C0D682A46E5407FF431AFBDE867
:10098000F88F000008040140000011100010024020
:100990000000014000080140000C0140001001402F
:1009A000001401400AB1016170470904FBE700002F
:1009B00001488068704700000000002070B5040006
:1009C00025D094F83D00002520B984F83C502046FD
:1009D00000F0B8F8242084F83D002068016821F078
:1009E000010101602068016841F400410160206854
:1009F000016821F40041016000F086FA4D4A616807
:100A0000914201D84C4900E04C49884201D2012072
:100A100070BD4B492368B0FBF1F15E6826F03F06DC
:100A20000E435E606368934206D94FF49673594350
:100A30004FF47A73B1FBF3F12368491C1E6A26F068
:100A40003F06314319626168914210D84900401E47
:100A5000B0FBF1F2521CC2F30B02042A01D20420B3
:100A600022E0B0FBF1F0401CC0F30B001CE0A268D8
:100A7000F2B301EBC10303EB0116431EB3FBF6F324
:100A80005B1C43F480431B0549D092B301EBC102C8
:100A900002EB0111401EB0FBF1F0401CC0F30B0053
:100AA00040F4804040F400402168CA694CF6FF736E
:100AB0009A431043C861D4E90710014320680268D3
:100AC00022F0C00211430160D4E903010143206810
:100AD000826848F2FF339A4311438160D4E90501EB
:100AE00008432168CA6822F0FF021043C86001E091
:100AF0000EE016E02068016841F001010160256404
:100B0000202084F83D00256384F83E50002070BD0D
:100B100001EB4106431EB3FBF6F35B1CB3E7012078
:100B2000C2E701EB4101401EB0FBF1F0401CC0F3F5
:100B30000B00B7E7A086010080841E0000093D007D
:100B400040420F0030B585B0002100910191029123
:100B500003911E4D03681E4C122103221D48AB4217
:100B600016D1A36943F00803A361A369039203F0BC
:100B700008030493C023CDE900316946FFF722FE44
:100B8000E06940F40010E061E06900F4001019E051
:100B9000114DAB4217D1A36943F00803A361A369C8
:100BA000039203F0080304934FF44063CDE900314E
:100BB0006946FFF707FEE06940F48000E061E06904
:100BC00000F48000049005B030BD000000540040E7
:100BD00000100240000C01400058004002488168AB
:100BE000027811448160704700000020074810B56A
:100BF000016841F010010160032000F067F80F2048
:100C000000F006F800F024F8002010BD002002409B
:100C100070B50D4D04464FF47A712878B1FBF0F0B1
:100C20000A490968B1FBF0F000F031FE48B9102C18
:100C300007D200222146501E00F028F800206C60E8
:100C400070BD012070BD0000000000200C000020DD
:100C50000C4808B5816941F001018161816901F0A9
:100C600001010091C16941F08051C161C06900F08A
:100C7000805000900448416821F0E06141F000712B
:100C8000416008BD0010024000000140F0B40E4B6E
:100C90001B680C46C3F30223C3F10705042D00D9DA
:100CA0000425191D072901D2002300E0DB1E0126BF
:100CB00006FA05F1491E214099409E40761E1640D5
:100CC0003143F0BC01F06BBB0CED00E0064900F0D5
:100CD000070208684FF6FF03184040EA0220034A63
:100CE00010430860704700000CED00E00000FA05BA
:100CF0002DE9F84305460078354CC00754D0E0692B
:100D00000026C00008D4E06940F08050E061E0694E
:100D1000012600F0805000902E480168C90512D4C9
:100D20000168804641F480710160FFF741FE07468B
:100D300005E000BFFFF73CFEC01B642823D8D8F8AD
:100D40000000C005F6D5206A10F4407021D0A988B3
:100D500001F4407181421CD0206A1F49012220F415
:100D600040700A6000220A602062C00711D0FFF7BD
:100D70001FFE074641F2883808E000BFFFF718FE63
:100D8000C11B414502D90320BDE8F883206A8007D2
:100D9000F4D5206A696820F44070084320621EB1CF
:100DA000E06920F08050E0612878800705D5606810
:100DB000A96820F44040084360602878C00605D543
:100DC0006068E96820F48000084360600020DBE789
:100DD0000010024000700040400442422DE9F047FC
:100DE0000F46050061D0434E306800F00700B8425E
:100DF00009D2306820F0070038433060306800F0D6
:100E00000700B84251D128683B4C810712D54007F2
:100E100003D5606840F4E06060602878000703D57F
:100E2000606840F4605060606068A96820F0F0007D
:100E3000084360602878C00728D06868012810D06F
:100E40002168022810D0890700292EDA616821F074
:100E5000030101436160FFF7ABFD804641F2883931
:100E60000DE021688903EFE78901EDE7FFF7A0FDB9
:100E7000A0EB0801494502D90320BDE8F08760686E
:100E8000696800F00C00B0EB810FEFD1306800F022
:100E90000700B8420BD9306820F0070038433060B3
:100EA000306800F00700B84201D00120E5E728785B
:100EB000400705D56068E96820F4E0600843606099
:100EC0002878000706D56068296920F4605040EA58
:100ED000C100606000F038F86168084AC1F303118E
:100EE000515CC8400649086006480068FFF790FE5C
:100EF0000020C2E70020024000100240B62900088E
:100F00000C000020040000200448054900684968DE
:100F1000044AC1F30221515CC84070470C00002014
:100F200000100240C62900080448054900684968C5
:100F3000044AC1F3C221515CC84070470C00002034
:100F400000100240C62900080E4A51680E4801F000
:100F50000C03042B11D0082B0FD10C48C1F3834391
:100F6000C903C05C0AD55168084AC1F34041921ECA
:100F7000515C054A5043B0FBF1F0704704494843C7
:100F8000704700000010024000127A00A6290008F5
:100F900000093D002DE9F84F040070D02078C04DC5
:100FA000C00749D06868C0F38100012807D068688D
:100FB000C0F38100022809D16868C00306D52868FB
:100FC000800339D560680028E7D035E06068B0F567
:100FD000803F0BD010B1B0F5A02F11D0286820F4BD
:100FE00080302860286820F4802002E0286840F4DF
:100FF00080302860606890B1FFF7DAFC06460AE0AE
:10100000286840F480202860F0E700BFFFF7D0FC9C
:10101000801B642873D828688003F7D50CE0FFF79D
:10102000C7FC064605E000BFFFF7C2FC801B642832
:10103000F0D828688003F7D420789A4E80074FF0C4
:1010400001094FF0000839D5686810F00C0F07D07F
:101050006868C0F38100022809D16868C00306D41B
:101060002868800714D52069012808D110E020697C
:10107000B0B1C6F80090FFF79BFC074605E00AE117
:10108000FFF796FCC01B0228C4D828688007F7D554
:101090002868616920F0F80040EAC10028600DE08E
:1010A000C6F80080FFF784FC074604E0FFF780FCE9
:1010B000C01B022823D828688007F7D420780007AF
:1010C0002CD57948A169D9B1C0F80090FFF770FC20
:1010D000074604E0FFF76CFCC01B02280FD8686AC3
:1010E0008007F7D571484FF4FA510068B0FBF1F072
:1010F000009000BF0098411E0091FAD20EE080E0FF
:10110000C0F80080FFF754FC074604E0FFF750FCEE
:10111000C01B022875D8686A8007F7D4207840077A
:1011200060D5E8690027C00008D4E86940F0805025
:10113000E861E869012700F0805000905C48016890
:10114000C90513D40168834641F480710160FFF73B
:101150002FFC824606E000BFFFF72AFCA0EB0A0046
:1011600064284ED8DBF80000C005F5D5E0680128FA
:101170000AD008B1052813D0286A20F0010028629F
:10118000286A20F0040002E0286A40F0010028628A
:10119000E06841F2883B98B1FFF70AFC82460BE019
:1011A000286A40F004002862EEE700BFFFF700FC69
:1011B000A0EB0A0159455AD8286A8007F6D50CE0F9
:1011C000FFF7F6FB824605E0FFF7F2FBA0EB0A0112
:1011D00059454CD8286A8007F6D41FB1E86920F039
:1011E0008050E861E06988B36968C1F38101022930
:1011F00044D00228C6F8608004D0FFF7D9FB04462B
:1012000038E034E0FFF7D4FB074604E0FFF7D0FBFB
:10121000C01B02282BD828688001F7D4206AB0F5BB
:10122000803F05D16868A16820F4003008436860F9
:10123000D4E908010843696821F47411084368601F
:10124000C6F86090FFF7B4FB044606E025E000BF57
:10125000FFF7AEFB001B022809D828688001F7D5EC
:101260001BE000BFFFF7A4FB001B022802D90320EC
:10127000BDE8F88F28688001F4D40EE00128F7D08B
:101280006868226A00F48031914204D1616A00F4F6
:101290007010884201D00120EAE70020E8E7000052
:1012A0000010024000004242800442420C00002034
:1012B0000070004090F85100704770B5040009D0EC
:1012C000606A002540B125616561A56294F851000E
:1012D00040B10CE0012070BD6068B0F5827FF4D0B1
:1012E000E561F2E784F85050204600F03FF8022014
:1012F00084F851002068016821F040010160A08855
:10130000218900F4827001F404410843A18901F4A9
:1013100000610843217C01F002010843217D01F0B6
:1013200001010843218B01F400710843217F01F082
:101330003801084394F8201001F080010843218D02
:1013400001F40051084321680860A069042101EA02
:101350001040216848602068C16921F40061C161C2
:101360006565012084F85100002070BD30B585B05E
:101370000024009401940294039400681449884264
:1013800023D11448816941F480518161816901F45C
:1013900080510491816941F00401816180690E4DA1
:1013A00000F004000490A02000900220019003208F
:1013B000039069462846FFF705FA4020CDE900046E
:1013C000694628460294FFF7FDF905B030BD0000DC
:1013D0000030014000100240000801402DE9F84FA4
:1013E000044690F85100984616460F4600250128FD
:1013F00001D0022598E060684FF0040BB0F5827FC1
:1014000001D1A068F8B194F85000012826D04FF01F
:10141000010984F85090FFF7CBFA8246002F7FD065
:10142000002E7DD084F851B000206065A763A687A8
:10143000E6872063A086E08620646064A068B0F53B
:10144000004F0DD016E084F851B013460A462046EE
:10145000CDF8008000F024F9BDE8F88F0220FBE70A
:101460002068016821F0400101602068016821F4D2
:101470008041016020680168490603D4016841F099
:1014800040010160E068D8B13BE020688168C9078D
:1014900009D0007BA16B0870A06B401CA063E08F9B
:1014A000401EE0870CE0FFF783FAA0EB0A014145FC
:1014B00003D3B8F1FF3F03D006E0B8F1000F03D02B
:1014C000E08F0028E1D11FE003252BE02068816830
:1014D000C90709D0C068A16B0880A06B801CA063FD
:1014E000E08F401EE0870CE0FFF762FAA0EB0A01F4
:1014F000414503D3B8F1FF3F03D0E5E7B8F1000F52
:10150000E2D0E08F0028E1D152464146204600F06B
:10151000D2FD08B120206065606D00E000E008B1F8
:10152000012501E084F85190002084F850002846FD
:1015300092E72DE9F84F044690F8500000269846AF
:1015400015468A4601280CD0012784F85070FFF711
:101550002FFA814694F85100B346012804D00226A0
:101560009AE00220BDE8F88FBAF1000F6FD0002D8D
:101570006DD0032084F85100C4F854B0C4F830A0F2
:10158000A586E586C4F838B0A4F83CB0A4F83EB00F
:10159000C4F844B0C4F840B0A068B0F5004F09D119
:1015A0002068016821F0400101602068016841F471
:1015B0008041016020680168490603D4016841F058
:1015C00040010160E068B0F5006F606803D058B377
:1015D000012D29D049E008B1012D1FD1206B2168D0
:1015E0000088C86006E020688168890709D5216BFA
:1015F0000988C160206B801C2063E08E401EE0865D
:101600000CE0FFF7D5F9A0EB0901414503D3B8F190
:10161000FF3F03D006E0B8F1000F03D0E08E0028B2
:10162000E1D125E0032635E0206B216800780873BE
:1016300006E02068816889070AD5216B0978017363
:10164000206B401C2063E08E401EE0860DE01FE012
:10165000FFF7AEF9A0EB0901414503D3B8F1FF3F15
:1016600003D0DFE7B8F1000FDCD0E08E0028E0D136
:101670004A464146204600F04CFD08B120206065F6
:10168000A06818B92068C16880680090606D08B1D2
:10169000012601E084F8517084F850B0304661E7CB
:1016A0002DE9FF4F81B0044690F8500000260E9FB0
:1016B0001D4693464FF0010901280FD04FF0010A53
:1016C00084F850A0FFF774F9804694F851006168DF
:1016D00001280DD0B1F5827F08D103E0022005B0CA
:1016E000BDE8F08FA16809B9042801D00226C9E03D
:1016F0000298002865D0BBF1000FFBD0002DF9D077
:1017000094F85100042802D0052084F851000020EC
:101710006065C4F838B0E587A58702992163E5863E
:10172000A5862064606420680168490603D40168C6
:1017300041F040010160E068B0F5006F606803D0DF
:10174000F0B3012D47D081E008B1012D3CD1206BD1
:1017500021680088C860206B801C2063E08E401EDA
:10176000E08631E02068816889070FD5E18E69B194
:10177000B9F1010F0AD1216B0988C160206B801C6F
:101780002063E08E401EE0864FF0000920688168EB
:10179000C9070CD0E18F51B1C068A16B0880A06B64
:1017A000801CA063E08F401EE0874FF00109FFF727
:1017B000FFF8A0EB0800B84206D3781C04D001E083
:1017C00009E05BE003265BE0E08E0028CAD1E08FF1
:1017D0000028C7D140E0206B216800780873206B97
:1017E000401C2063E08E401EE0862FE02068816868
:1017F00089070FD5E18E69B1B9F1010F0AD1216BCB
:1018000009780173206B401C2063E08E401EE08647
:101810004FF0000920688168C9070CD0E18F51B1F1
:10182000C068A16B0870A06B401CA063E08F401ED5
:10183000E0874FF00109FFF7BBF8A0EB0800B842C2
:1018400002D3781C02D0BAE7002FB8D0E08E00286F
:10185000CCD1E08F0028C9D142463946204600F05D
:1018600058FC18B10126202060650BE0A06818B96B
:101870002068C16880680090606D08B1012601E0B1
:1018800084F851A0002084F85000304627E710B5B6
:10189000401EB0F1807F01D3012010BD4FF0E02445
:1018A00060610F21601700F07AFD0020A061072021
:1018B0002061002010BD70B5040004D094F84100F0
:1018C000002510B106E0012070BD84F8405020468C
:1018D00000F024F8242084F841002068C16821F435
:1018E0000051C160204600F0C1FC2068016921F46C
:1018F000904101612068416921F02A01416120681D
:10190000C16841F40051C1606564202084F8410041
:1019100084F842006563002070BD000070B586B099
:1019200000240094019402940394234E03682349F5
:1019300002200322224DB34219D18B6943F4804324
:101940008B618B6903F4804304938B6943F0040338
:101950008B618969039201F0040104910102CDE9D0
:10196000001069462846FEF72DFF28151BE0154E8E
:10197000B3421FD1CB6943F40033CB61CB6903F48D
:10198000003304938B6943F004038B6189690392EC
:1019900001F0040104910421CDE9001069462846B4
:1019A000FEF710FF0820CDE900046946284602949E
:1019B000FEF708FF06B070BD00380140001002407D
:1019C00000080140004400402DE9F843044690F827
:1019D00041001F4616460D46202802D00220BDE8D1
:1019E000F8837DB176B100206064212084F8410045
:1019F000FEF7DEFFA6848046E684A068B0F5805F2F
:101A000002D003E00120EAE7206910B12E4600254C
:101A10000EE000260CE08021204600F083FCA0B9F7
:101A2000AEB116F8010B21684860E08C401EE084DE
:101A3000E08C43464FF0000200970028EBD14FF0B6
:101A40004001204600F06EFC30B10320C7E735F8B6
:101A5000020BC0F30800E6E7202084F841000020D4
:101A6000BDE7FEE7F8B5044641F080008DF80000C0
:101A700017461E46A18800222068FEF793FF4FF408
:101A8000FA652B4601226946A069FFF752FDA0695D
:101A9000FFF710FC0128FAD12B4632463946A069DF
:101AA000FFF747FDA069FFF705FC0128FAD1A188DF
:101AB00001222068FEF776FFF8BD70B50C4605469A
:101AC000012100F09FF8024644B1012C0BD0032CF9
:101AD0000FD0052C13D0062C17D01BE0002002F0ED
:101AE000F802E86116E0012002F0F802521CE861F9
:101AF00010E0032002F0F802D21CE8610AE00520A1
:101B000002F0F802521DE86104E0062002F0F8023B
:101B1000921DE8612846BDE87040012100F0BBB984
:101B200070B504460021FFF7C8FF0A20FEF738FE13
:101B30000121204600F066F805460A20FEF730FE37
:101B400045F080020121204600F0A5F96420FEF74F
:101B500027FE2046216A00F0CBF894F82A10204690
:101B600000F01AF994F82B10204600F0F6F8232222
:101B70000C21204600F08FF9204600F037F994F848
:101B80002410204600F012F9FF221F21204600F009
:101B900082F994F8250094F82610000100EB41002A
:101BA000C2B21D21204600F076F9204600F07AF8F6
:101BB000208D2021020A204600F06DF994F828209B
:101BC0002121204600F067F94021204600F01AF854
:101BD00040F03F024021204600F05DF901212046FF
:101BE000FFF76BFF0120E0610A20FEF7D9FD4221DB
:101BF000204600F007F8122802D04FF4CA7070BDDA
:101C0000C82070BD0EB501F07F018DF808100121CC
:101C10000A46009101AB02A900F003F89DF8040008
:101C20000EBD2DE9F0470E461546044681889846BC
:101C3000DDF8209000680022FEF7B4FE4FF4FA674A
:101C40003B462A463146A069FFF773FCA069FFF7BF
:101C500031FB0128FAD13B464A464146A069FFF7CD
:101C6000BDFBA069FFF726FB0128FAD1A1882068F7
:101C7000BDE8F0470122FEF795BE10B50446818904
:101C800080680022FEF78EFE0120FEF789FDA18903
:101C90000122A068FEF786FEBDE810406420FEF732
:101CA0007FBD000010B594B0044650220F4968462D
:101CB000FEF71EFB94F824100120884000F007FE78
:101CC00094F825206B4603EBC203D3E9002300F010
:101CD00077FC00F0CDFD102801DD012100E000219E
:101CE000204600F025F814B010BD0000D0290008EF
:101CF00070B50546C8044411C4F3074206212846BE
:101D000000F0C9F80520FEF74BFDC4F307220721B8
:101D1000284600F0C0F80520FEF742FDE2B2082197
:101D2000284600F0B8F8BDE870400520FEF738BD41
:101D300070B50C4605462621FFF764FF14B140F04C
:101D4000080201E000F0F7022621284600F0A3F87F
:101D5000BDE870400A20FEF723BD10B52D2901D241
:101D60002D2105E0F02901D9F02106E0782904D8D9
:101D700005222D3991FBF2F103E00A221E31B1FB5D
:101D8000F2F1C9B22031CAB20B2100F084F8BDE8EB
:101D900010400A20FEF704BD10B50A46092100F0E4
:101DA0007AF8BDE810400A20FEF7FABC70B50C4680
:101DB00006460C2901DD0C2402E0072C00DA07247A
:101DC0001E21FFF71FFF05460A20FEF7E9FC64F31A
:101DD0001F15EAB21E21304600F05DF80A20FEF71A
:101DE000DFFC3046BDE87040FFF75CBF10B504462D
:101DF0001E21FFF707FF40F007021E21204600F0DA
:101E00004AF8BDE810400A20FEF7CABC0521FFF7DA
:101E100054BE2DE9F0410F461C461646804601216E
:101E2000C569FFF74AFE0E214046FFF7EBFE02466A
:101E30000D21404600F02FF832462221404600F0A6
:101E40002AF833463A4600214046FFF70BFE0321AD
:101E50004046FFF732FE12214046FFF7D3FE00074F
:101E60000BD5FF221221404600F015F829464046C6
:101E7000FFF723FE0120BDE8F081641E2404240C3A
:101E800003D00120FEF78CFCE5E729464046FFF72A
:101E900014FE0020EFE70EB541F080018DF8081028
:101EA00001218DF804200A46009101AB02A900F03F
:101EB00001F80EBD2DE9F0470E461546044681880F
:101EC0009846DDF8209000680022FEF76BFD4FF485
:101ED000FA673B462A463146A069FFF72AFBA0690C
:101EE000FFF7E8F90128FAD13B464A464146A06986
:101EF000FFF71FFBA069FFF7DDF90128FAD1A188E0
:101F00002068BDE8F0470122FEF74CBD3EB5002435
:101F100010480094019402940D4984600160047398
:101F20000475012505614FF460214460C161FEF72D
:101F300055FB08B172B6FEE7CDE900456946054894
:101F40000294FEF7CDFA002801D072B6FEE73EBD3E
:101F500000240140100000203EB5002410480094E9
:101F6000019402940D498460016004730475012595
:101F700005614FF460214460C161FEF72FFB08B199
:101F800072B6FEE70095CDE9015469460448FEF7B4
:101F9000A7FA002801D072B6FEE73EBD0028014036
:101FA000400000202DE9F04186B000242B48009429
:101FB000019402940394816941F020018161816957
:101FC00001F020010491816941F00401816181697E
:101FD00001F004010491816941F008018161806987
:101FE0001F4F00F008000490012210213846FEF730
:101FF000D9FCDFF87080012211464046FEF7D2FC82
:1020000000224FF460414046FEF7CCFC0022B91597
:102010003846FEF7C7FC4FF4887001250226CDE94B
:102020000005CDE9024669463846FEF7CBFB4EF285
:102030000100CDE90005CDE9024669464046FEF7BC
:10204000C1FB042000900848CDE9010469464046E0
:10205000FEF7B8FB06B0BDE8F081000000100240BA
:1020600000080140000C0140000011100F4810B59D
:102070000D4901604FF48271416000218160C160AF
:102080004FF400720161C0E905121022C0E9072176
:10209000416281620A21C162FFF70FF9002801D075
:1020A00072B6FEE710BD00000030014018010020AC
:1020B000FEE7FEE77047F8B5044640684FF48273C8
:1020C000984217D1A0684FF48065B0F5004F01D059
:1020D000A8420FD12068066826F0400606606068B6
:1020E000984207D1A068A84204D100920B46002272
:1020F000012103E000920B4600228021204600F0DF
:1021000019F8002804D0606D40F0200060650320BD
:10211000F8BD38B50B46009204460022802100F03D
:1021200009F8002804D0606D40F0200060650320AD
:1021300038BD00002DE9F8431E4691468846044606
:10214000089DFEF735FC401B351AFEF731FC0746AB
:1021500025480068C0F3CB30684338E0701C37D0A6
:10216000FEF726FCC01BA84203D215B1009860B34D
:102170002CE02068416821F0E00141606068B0F522
:10218000827F0BD1A068B0F5004F02D0B0F5806F10
:1021900004D12068016821F040010160A06AB0F517
:1021A000005F09D12068016821F4005101602068B6
:1021B000016841F400510160012084F851000020C1
:1021C00084F850000320BDE8F8830025401E0090ED
:1021D0002068816838EA010004D000214945BDD15A
:1021E0000020F0E70121F9E70C0000207047FEF71E
:1021F000F5BC30B593B028216846FEF7ABF8142142
:102200000AA8FEF7A7F8002501200F951095119553
:10221000010412958DE8230004904FF4E010CDE9FD
:102220000810022407946846FEF7B4FE08B172B69F
:10223000FEE70AA90F2081E831004FF48060CDE964
:102240000D0502210AA8FEF7C9FD08B172B6FEE726
:102250004FF4404011900F940FA8FEF749FD00285D
:1022600001D072B6FEE713B030BD704770B50446BA
:1022700000680169E26821F440511143016121695C
:10228000A0680843616908432168CA6841F20C6389
:102290009A430243CA6020684169A26921F44071EF
:1022A000114341611E492068884202D1FEF73CFE7D
:1022B00001E0FEF729FE00EBC00101EB00126068AF
:1022C00064218000B2FBF0F3B3FBF1F36FF018066A
:1022D0007343B2FBF0F5B2FBF0F605EB8305322356
:1022E00003EB0515B5FBF1F5B6FBF1F605F0F005CE
:1022F00005EB0615B2FBF0F6B2FBF0F0B0FBF1F027
:102300006FF01802504306EB800003EB0010B0FBA7
:10231000F1F0216800F00F002844886070BD0000D3
:10232000003801402DE9F041984617460E46044614
:10233000069D27E0681C25D02DB1FEF739FBA0EBE8
:102340000800A8421ED920680C3050E8001F21F474
:10235000D07140E80012002AF5D12068143050E80E
:10236000001F21F0010140E80012002AF5D12020D1
:1023700084F8410084F84200002084F840000320E3
:10238000BDE8F0812068006836EA000004D0002033
:10239000B842CFD00020F3E70120F9E7FEE70907B4
:1023A000090E002804DB00F1E02080F800147047DB
:1023B00000F00F0000F1E02080F8141D70470000CD
:1023C00090B0FEF713FCFFF714FFFFF7EBFDFFF7EC
:1023D0004DFE594857494FF4E13500240160C0E9EA
:1023E00001544FF00C08C460C0E904488461C46122
:1023F000FFF761FA08B172B6FEE7FFF787FDFFF756
:10240000ABFD4F484D494F4F0160C0E901740E14B8
:10241000C0E9034644618461C4610462FEF7CEFAF8
:1024200008B172B6FEE74648474954300160C0E93A
:102430000174C0E9034644618461C4610462FEF72B
:10244000BDFA08B172B6FEE73B484049483001602A
:10245000C0E90154C460C0E904488461C461FFF765
:102460002AFA08B172B6FEE7684600F08DF83248E5
:102470002C2269469030FDF73BFF2F49354A5839E9
:1024800001F1E8008161324902C0102120F8041BEB
:10249000012104C0018042600422028140F2B11295
:1024A00042610722027642768176FF218177782188
:1024B000C1770A21818320489030FFF7DEFB1E4858
:1024C0009030FFF72DFB1C489030FFF79FFC1A4817
:1024D00021A1BC30FDF77CFE1748BC30FDF7E9FEBA
:1024E000154982B24FF47A742346BC311248FFF783
:1024F0006BFA21A10BA8FDF76BFE65100E482B4669
:1025000080220BA99030FFF784FC0B480BAA1CA17A
:10251000BC30FDF75DFE0848BC30FDF7CAFE064939
:1025200082B22346BC310448FFF74EFA2046FEF73C
:1025300037F9E3E700380140700100200054004003
:1025400070000020A08601000058004000440040B8
:1025500000080140000C0140446F6E6520636F6EFF
:102560006669677572696E67204C6F52614D6F6462
:10257000756C650D0A0000004C4F4F4400000000D0
:1025800025730D0A0000000000B58BB040F2B111B8
:10259000089107218DF824108DF8251001218DF860
:1025A0002610FF218DF82A1064218DF82B100821A8
:1025B000ADF828102C226946FDF79AFE0BB000BD3D
:1025C0002DE9C04130B4DFF8A0C23CEA111418BFB5
:1025D0003CEA131400F0EC8081EA03051CEA1114B4
:1025E00044EAD57418BF1CEA131500F0C780A4EBA9
:1025F00005044FF0004545EAC12145EAC32341EAFD
:10260000505143EA525304F17F74994204F5003467
:102610004FEAC0204FEAC22208BF904200F09C80DF
:102620004FEA13650FF24016765D4FEA134506FB3D
:1026300005F7C7F1807706FB07F74FEAD737A7FB07
:1026400003687642C8F58038A7FB06CE38BFA8F1EC
:10265000010807FB08E64FF0000EA6FB028CE6FB24
:1026600003CEDCF1000CCEF1004E38BFAEF1010E0E
:10267000A6FB0C584FF000074FF00005E6FB0E8755
:10268000A1FB08C6A0FB07CE16EB0E0645F1000520
:10269000E1FB076515F1E04E7EBFA4F580345FEAEB
:1026A00046066D4116F1800745F100054FEA1727F0
:1026B0004FEA066647EA0567A6F1DE46B6F1805F97
:1026C0004FEA15251FD9384624F0010C05EBC471DB
:1026D000BCF1FE6F01EB0C1102D8F0BCBDE800812B
:1026E00024425CBF01F5801E9EEAC47F02D4F0BC88
:1026F000BDE80081244238D4F0BCA1F1C041BDE85E
:10270000004100F049B94FEAD22242EA43524FEA6F
:10271000D323A7FB02864FEAD02040EA415007FBB3
:1027200003661EEA0E0F4FEAD12105FB026658BF71
:10273000A6EB0056B6EB00564FEA520E4EEAC37EA9
:1027400018EB0E0E56EB530EBDD518EB02085E418A
:102750007F1C55F10005B6E74FF480154FF00007D8
:102760004FF000064FF00008ADE7F0BC4FF000005E
:1027700001F1C04101F00041BDE8008111EA0C1FE8
:102780000CEA131500D00CE013EA0C1F00F02580B2
:102790004FF00000F0BC81EA030101F00041BDE808
:1027A0000081F0BCBDE8004181EA030100F0F4B80B
:1027B000F0BCBDE8004170B500F0A0F8097EFC3E19
:1027C00000F007B881EA03014FF0000001F000417A
:1027D000704781EA030100F0DFB8F0BCBDE80041BA
:1027E0004FF0000021497047FFFDFBF9F7F5F4F2C7
:1027F000F0EEEDEBE9E8E6E4E3E1E0DEDDDBDAD89C
:10280000D7D5D4D3D1D0CFCDCCCBCAC8C7C6C5C4F9
:10281000C2C1C0BFBEBDBCBBBAB9B8B7B6B5B4B310
:10282000B2B1B0AFAEADACABAAA9A8A8A7A6A5A4FB
:10283000A3A3A2A1A09F9F9E9D9C9C9B9A999998BF
:102840009797969595949393929191908F8F8E8E62
:102850008D8C8C8B8B8A89898888878786858584EF
:1028600084838382828181800000FF070000F87FDB
:102870004FEA41034FEA5353A3F58063D3F11E039C
:10288000C8BFD3F1210C0CDD4FF0004242EAC12257
:1028900042EA505232FA03FC8CEAE17CACEBE17084
:1028A0007047102BC4BF0020704703F5787CBCF143
:1028B000FF3F04D06FF0004282EA2100704770B5FC
:1028C00000F01CF84992248000207047F2E710F0D5
:1028D000004248BF4042B0FA80F310FA03F10AD038
:1028E000C3F11D0303F580634FEA415002EB03522D
:1028F00002EBD12170474FF0000070470EF1020E3D
:102900002EF0030E5EF8046B364205D4012A43EB29
:10291000030515F5001F12D8012841EB010C1CF529
:10292000001F0CD80ED14FEAD17C15F5001F0CEB1F
:102930004C0C0CF1020C08BF4CEBD37C04E04FF0C4
:10294000080C01E04FEAD37C0CEB4C0526FA05F6A7
:1029500006F00706B6F1040C06D20EEB860CBDE8B5
:1029600070404CF0010C6047DFE80CF0090B0202EC
:102970004FF000414FF00000A1F5002170BD194655
:102980001046012851EB010418BFD4F5001484BF90
:10299000002001F0004170BD0808A0F500114FEAC9
:1029A00031017047010202030405060708090A0BFA
:1029B0000C0D0E0F101000000000000000000102BE
:1029C00003040607080900000000010203040000D8
:1029D0003333333333331F40CDCCCCCCCCCC244039
:1029E0003333333333332F40CDCCCCCCCCCC344009
:1029F0000000000000403F409A99999999D94440BD
:102A00000000000000404F400000000000405F4018
:102A10000000000000406F400000000000407F40C8
:102A2000402A0008000000201000000028010008D3
:102A3000502A000810000020C008000044010008CF
:102A40000100000010000000000000000024F4005D
:04000005080000ED02
:00000001FF
