:020000040800F2
:10000000801A002031020008CB2D0008C32300080D
:10001000C92D00087B0700086532000800000000B9
:10002000000000000000000000000000990100082E
:100030007D07000800000000DD010008852F000892
:100040004B0200084B0200084B0200084B0200085C
:100050004B0200084B0200084B0200084B0200084C
:100060004B0200084B0200084B0200084B0200083C
:100070004B0200084B0200084B0200084B0200082C
:100080004B0200084B0200084B0200084B0200081C
:100090004B0200084B0200084B0200087F070008D3
:1000A0004B0200084B0200084B0200084B020008FC
:1000B0004B0200084B0200082D3000084B020008DC
:1000C0004B0200084B0200084B0200084B020008DC
:1000D0004B0200084B0200084B0200084B020008CC
:1000E0004B0200084B0200084B02000800F002F827
:1000F00000F042F80AA090E8000C82448344AAF180
:100100000107DA4501D100F037F8AFF2090EBAE87D
:100110000F0013F0010F18BFFB1A43F0010318473B
:1001200080420000A0420000103A24BF78C878C185
:10013000FAD8520724BF30C830C144BF04680C60ED
:10014000704700000023002400250026103A28BF35
:1001500078C1FBD8520728BF30C148BF0B60704739
:10016000642900F0C580732900F09D82002070474B
:100170001FB51FBD10B510BD00F09FFA1146FFF767
:10018000F7FF03F009F900F0BDFA03B4FFF7F2FF3F
:1001900003BC00F0C1FA0000224B19680868B0E8FF
:1001A000F00F80F30988BFF36F8F4FF0000080F3EA
:1001B00011884EF00D0E70470000000006480068E0
:1001C000006880F3088862B661B6BFF34F8FBFF353
:1001D0006F8F00DF00BF00BF08ED00E0EFF3098084
:1001E000BFF36F8F0F4B1A6820E9F00F106008B54E
:1001F0004FF0500080F31188BFF34F8FBFF36F8F24
:1002000003F0E0FC4FF0000080F31188BDE80840E7
:1002100019680868B0E8F00F80F30988BFF36F8FA2
:10022000704700BF24000020EFF3058070470000F6
:100230000948804709480047FEE7FEE7FEE7FEE77A
:10024000FEE7FEE7FEE7FEE7FEE7FEE704480549B6
:10025000054A064B7047000029300008ED000008F1
:1002600080140020801A00208016002080160020B4
:100270000FB41CB5084B06AA7B446946009005984C
:1002800000F0E7F904460020694600F0F5F9204641
:100290001CBC5DF814FB0000FD03000070B50C46AB
:1002A0000546012A05D02878800600D5EA69002392
:1002B00002E0012305E05B1C934202D2E05C0028CF
:1002C000F9D1A869E618C01AA861286A18442862FA
:1002D0002846AFF3008004E0D5E9012114F8010BB2
:1002E0009047B442F8D32846AFF3008070BD0000B9
:1002F0002DE9F0410646002410687529314616A5FF
:1003000010D0AFF30080002802DA404213A507E0C6
:1003100031688A0701D512A502E0490704D511A565
:10032000012401E0AFF3008000210A2206F1240736
:1003300009E0B0FBF2FCB0FBF2F302FB1C00303032
:1003400078541846491C0028F3D123462A463046E3
:10035000BDE8F04100F01FB9000000002D000000D2
:100360002B000000200000002DE9F05F89460446C4
:100370004FF0000ADFF824B1FB44C0F820A020466B
:10038000E168884700287DD0252806D0D4E90121DE
:100390009047206A401C2062F1E700255F46204616
:1003A000E16888472028064607DB312E05D2B819B8
:1003B00010F8200C08B10543F1E7A80701D525F096
:1003C0000405C4F81CA00027C4F818A02A2E09D0E0
:1003D000304602F058FF38B304EB8708303EC8F8C7
:1003E000186019E059F8041B204604EB870291615C
:1003F000E1688847012F064618D1E069002820DA15
:1004000025F020051DE0D8F8180000EB800006EB71
:1004100040003038C8F818002046E1688847064692
:1004200002F031FF0028EED1012F0AD02E2E08D184
:100430002046E16888477F1C0646022F45F02005CC
:10044000C4DBA069002803DA404245F00105A06141
:10045000E80701D025F01005A6B1A6F14100192842
:1004600002D8203645F400654A46314620462560CC
:100470004D46FFF775FE60B1012807D0ED1D25F050
:10048000070000E007E000F1080978E705F104093A
:1004900075E730467AE7206ABDE8F09F0440000027
:1004A00010B5431C02E010F8011B71B18107FAD1AD
:1004B0004FF0013202C88C1A8C4314EAC211F9D0F1
:1004C000C01A0A0603D0C01E10BDC01A10BD0A040F
:1004D00001D0801E10BD0902FCD0401E10BD10B519
:1004E000203AC0F00B80B1E81850203AA0E818502C
:1004F000B1E81850A0E81850BFF4F5AF5FEA027CED
:1005000024BFB1E81850A0E8185044BF18C918C05B
:10051000BDE810405FEA827C24BF51F8043B40F8FC
:10052000043B08BF7047D20728BF31F8023B48BFE1
:1005300011F8012B28BF20F8023B48BF00F8012B1F
:1005400070474FF0000200B5134694469646203996
:1005500022BFA0E80C50A0E80C50B1F12001BFF47C
:10056000F7AF090728BFA0E80C5048BF0CC05DF8E2
:1005700004EB890028BF40F8042B08BF704748BF30
:1005800020F8022B11F0804F18BF00F8012B7047A4
:100590007047704770472DE9F0470D4699469246DF
:1005A000044600F124080168880604D5E06921F0BA
:1005B0001001216000E00120A84201DD471B00E09E
:1005C0000027A1697A1902EB0900081AA0612078B6
:1005D000C00602D42046AFF30080002608E0D4E92C
:1005E00001211AF806009047206A401C761C206200
:1005F0004E45F4DB2078C0060AD52046AFF30080D4
:1006000006E0D4E9012130209047206A401C206296
:10061000381EA7F10107F4DC07E0D4E9012118F83E
:1006200005009047206A401C2062281EA5F10105A4
:10063000F3DC2046AFF300802078000602D50220CC
:10064000BDE8F0870120FBE701694A1C02610878D8
:10065000704700B58FB0CDE9013100210591054902
:100660007944CDE9031011466846FFF77DFE0FB0CF
:1006700000BD0000E5FFFFFF0A6802F8010B0A60F9
:10068000704710B5436913B1AFF3008001E0FFF785
:1006900005FE012010BD127800F124010A7000222D
:1006A0004A700122EDE711684FF0FF32E9E70000E0
:1006B000004870472014002070477546FFF7F8FF88
:1006C000AE4605006946534620F00700854618B03F
:1006D00020B5FFF7BBFDBDE820404FF000064FF00E
:1006E00000074FF000084FF0000B21F00701AC4667
:1006F000ACE8C009ACE8C009ACE8C009ACE8C00986
:100700008D46704710B50446AFF300802046BDE823
:100710001040FFF73ABD000001491820ABBEFEE7CC
:100720002600020070B5044600688168C943C90705
:1007300017D1816821F00101816000F0C1FA0546FE
:100740000AE000BF00F0BCFA401B022804D9206870
:100750008068C043C00706D020688068C043C007D7
:10076000F0D0002070BDA06A40F01000A062E06AE6
:1007700040F00100E062012070BDFEE770472020DC
:1007800000F09CB9F8B50024009490F82420254688
:10079000012A12D0012280F824204A681F23072A48
:1007A0000DD20668776B521E02EB820293409F4384
:1007B0000B6893401F43776319E00220F8BD066879
:1007C0000D2A0AD2376BD21F02EB820293409F435D
:1007D0000B6893401F43376309E0F76A0D3A02EB59
:1007E000820293409F430B6893401F43F7620A685D
:1007F000072306680A2A0AD3F7680A3A02EB42027C
:1008000093409F438B6893401F43F76008E037692C
:1008100002EB420293409F438B6893401F43376132
:100820000A68102A01D0112A20D1124B02689A427C
:1008300017D193681B0219D4936843F400039360A3
:100840000968102912D10C490C4A0968B1FBF2F170
:1008500001EB8101490000E0491E00910029FBD114
:1008600004E0816A41F020018162012480F8245073
:100870002046F8BD002401402000002040420F0027
:100880002DE9F0414FF0000704003D467ED0A06AFC
:10089000002628B9E66284F82460204600F07EF83D
:1008A0002046FFF73FFFA16AC90600D420B1A06A25
:1008B00040F01000A06269E0A16A21F4885141F083
:1008C0000201A1626268E169237B0A4347EA4301AE
:1008D0000A43A1684FF48077B94209D0012907D0B3
:1008E0005FF0000194F814C0BCF1010F02D00AE0DF
:1008F0003946F7E7F3B1A36A43F02003A362E36A42
:1009000043F00103E3622368D3F804C02CF4694C7C
:100910004CEA010CC3F804C021688B68DFF870C092
:1009200003EA0C0313438B60A168B9420BD0012981
:1009300009D00CE0DFF85CC0A3690CEB43330B4338
:1009400043F40061DFE7218A0D05A5F580152168D4
:10095000CB6A23F470032B43CB62216889680E4B6A
:100960001940914208D1E662A16A21F0020141F0EA
:100970000101A162BDE8F081A06A20F0020040F010
:100980001000A062E06A40F00100E0620120F1E79F
:10099000FDF7E1FF00E0FFFFFE0E1FFF30B585B061
:1009A00000210091019102910391214B026821499C
:1009B0000324214802259A4220D18A6942F4007218
:1009C0008A618A6902F4007204928A6942F0040220
:1009D0008A618A6902F0040204928A6942F008027C
:1009E0008A61896901F0080104910121CDE90014AF
:1009F000694600F06FF86946104813E0104B9A42C0
:100A000014D18A6942F480628A618A6902F4806240
:100A100004928A6942F004028A61896901F0040142
:100A200004916946CDE9005400F054F805B030BD9A
:100A3000002401400010024000080140000C014069
:100A40000028014070B5044600F03AF90546601CE4
:100A500002D004480078044400F032F9401BA04260
:100A6000FAD370BD1400002010B520281FD1104902
:100A70008022A1F1EC0001F013FF0D4A0DA1A2F1BB
:100A80004000FFF7F5FB0A484038FFF709FD084929
:100A900082B240394FF47A73A1F59E7001F044FCA4
:100AA0000020034902460A54401C6428FBDB10BDA9
:100AB000A803002025730D0A00000000044910B5AA
:100AC0000A68024202D00860FFF7CEFF10BD0000A6
:100AD000140401402DE9F84FDFF8B8910024A9F182
:100AE000040B23460F2709F1040AABF1040EC9E0F9
:100AF0000125A5402A40AA427DD1674ED1F804C005
:100B0000ACEB0608B44532D014DCBCF1030F3AD08C
:100B100009DCBCF1000F2AD0BCF1010F1CD0BCF1E4
:100B2000020F31D11DE0BCF1110F17D0BCF1120F33
:100B30002AD119E0B8F5881F19D006DCB8F5803F36
:100B400015D0B8F5801F1FD111E0B8F5001F0ED0E9
:100B5000B8F5041F18D10AE0CB6815E0CB681B1D5F
:100B600012E0CB6808330FE0CB680C330CE08B68E5
:100B70002BB1012B4FF0080303D0456104E004239F
:100B800002E0056100E00023FF2A01D8064601E0EB
:100B900000F104064FEA840501D9A5F12005D6F835
:100BA000008007FA05FC28EA0C0803FA05F548EA74
:100BB0000508C6F800804D68ED0062D5374DAE6976
:100BC00046F00106AE61AD6924F0030605F00105AB
:100BD0000095334D06EB050CDCF80850A607360FE0
:100BE00007FA06F825EA0805DFF8B880404503D182
:100BF0004FF0000817E044E0DFF8AC80404502D138
:100C00004FF001080FE0DFF8A480404502D14FF01B
:100C1000020808E0DFF89880404502D14FF0030851
:100C200001E04FF0040808FA06F848EA0508CCF895
:100C300008804D68D9F80060ED024D4601D5164395
:100C400000E096432E604D68DAF80060AD0255462C
:100C500001D5164300E096432E604D68DBF8006036
:100C6000AD035D4601D5164300E096432E604D6806
:100C7000DEF80060ED03754601D5164300E09643AB
:100C80002E60641C0D682A46E5407FF431AFBDE854
:100C9000F88F00000804014000001110001002400D
:100CA0000000014000080140000C0140001001401C
:100CB000001401400AB1016170470904FBE700001C
:100CC00001488068704700001400002070B50400DF
:100CD00025D094F83D00002520B984F83C502046EA
:100CE00000F04EF9242084F83D002068016821F0CE
:100CF000010101602068016841F400410160206841
:100D0000016821F40041016000F07CFB4D4A6168FC
:100D1000914201D84C4900E04C49884201D201205F
:100D200070BD4B492368B0FBF1F15E6826F03F06C9
:100D30000E435E606368934206D94FF4967359433D
:100D40004FF47A73B1FBF3F12368491C1E6A26F055
:100D50003F06314319626168914210D84900401E34
:100D6000B0FBF1F2521CC2F30B02042A01D20420A0
:100D700022E0B0FBF1F0401CC0F30B001CE0A268C5
:100D8000F2B301EBC10303EB0116431EB3FBF6F311
:100D90005B1C43F480431B0549D092B301EBC102B5
:100DA00002EB0111401EB0FBF1F0401CC0F30B0040
:100DB00040F4804040F400402168CA694CF6FF735B
:100DC0009A431043C861D4E90710014320680268C0
:100DD00022F0C00211430160D4E9030101432068FD
:100DE000826848F2FF339A4311438160D4E90501D8
:100DF00008432168CA6822F0FF021043C86001E07E
:100E00000EE016E02068016841F0010101602564F0
:100E1000202084F83D00256384F83E50002070BDFA
:100E200001EB4106431EB3FBF6F35B1CB3E7012065
:100E3000C2E701EB4101401EB0FBF1F0401CC0F3E2
:100E40000B00B7E7A086010080841E0000093D006A
:100E500040420F002DE9F84F1F4690468A4604464F
:100E6000DDF82890FFF72CFF054694F83D00202878
:100E70007FD11923012240492046009501F034FB1F
:100E8000002876D194F83C00012872D0012084F823
:100E90003C0020680168C90703D1016841F00101E5
:100EA00001602068016821F400610160212084F85C
:100EB0003D00102084F83E0000262664C4F82480FB
:100EC0006785608D20852D48E0622B464A46514655
:100ED000204601F08FFA90B920684169806900903E
:100EE00036E02A464946204601F0A4FB50B1206C6A
:100EF000042804D12068016841F4007101600120D8
:100F0000BDE8F88F606A216800780861606A401C5B
:100F10006062618D491E6185218D491E89B22185DE
:100F200022685369DB435B070BD451B10078106131
:100F3000606A401C6062608D401E6085208D401E8E
:100F400020852A464946204601F0A2FA0028CED143
:100F5000208D0028C5D154F83D0B016841F4007183
:100F60000160202004F81E09E67766770020C7E7B5
:100F7000FFE70220C4E70000020010000000FFFFAE
:100F800030B585B0002100910191029103911E4D71
:100F900003681E4C122103221D48AB4216D1A369DF
:100FA00043F00803A361A369039203F008030493C9
:100FB000C023CDE900316946FFF78CFDE06940F4BC
:100FC0000010E061E06900F4001019E0114DAB423F
:100FD00017D1A36943F00803A361A369039203F047
:100FE000080304934FF44063CDE900316946FFF7ED
:100FF00071FDE06940F48000E061E06900F4800088
:10100000049005B030BD00000054004000100240C4
:10101000000C0140005800400248816802781144E9
:101020008160704714000020074810B5016841F046
:1010300010010160032000F0A7F80F2000F006F86F
:1010400000F050F8002010BD0020024030B50546E9
:101050001F4887B0C16941F00401C161C06906A998
:1010600000F00400009001A800F0ACF90498B0B1C1
:1010700000F0C8F940001749174AB0FBF1F11748D2
:10108000491E0260416040F2E7320021C0E90321BD
:101090008160816100F0B0FE040003D015E000F033
:1010A000B1F9E8E70D4800F0D5FE04000DD11E208F
:1010B00000F03CF8102D07D2002229461E2000F037
:1010C00043F80748056000E0012407B0204630BD22
:1010D0000010024040420F0000080040E8060020D7
:1010E000180000200F4808B5816941F001018161B5
:1010F000816901F001010091C16941F08051C16134
:10110000C069002200F0805000900F21901E00F076
:101110001BF80548416821F0E06141F00071416031
:1011200008BD00000010024000000140002809DB5B
:1011300000F01F02012191404009800000F1E020F1
:10114000C0F8001170470000F0B40E4B1B680C464D
:10115000C3F30223C3F10705042D00D90425191D8B
:10116000072901D2002300E0DB1E012606FA05F163
:10117000491E214099409E40761E16403143F0BCE6
:1011800002F071B80CED00E0064900F007020868B3
:101190004FF6FF03184040EA0220034A104308605C
:1011A000704700000CED00E00000FA052DE9F8435F
:1011B00005460078354CC00754D0E0690026C000D1
:1011C00008D4E06940F08050E061E069012600F059
:1011D000805000902E480168C90512D401688046ED
:1011E00041F480710160FFF76BFD074605E000BF29
:1011F000FFF766FDC01B642823D8D8F80000C0059F
:10120000F6D5206A10F4407021D0A98801F440710D
:1012100081421CD0206A1F49012220F440700A60DC
:1012200000220A602062C00711D0FFF749FD07467F
:1012300041F2883808E000BFFFF742FDC11B41457D
:1012400002D90320BDE8F883206A8007F4D5206A1C
:10125000696820F44070084320621EB1E06920F004
:101260008050E0612878800705D56068A96820F47F
:101270004040084360602878C00605D56068E9688A
:1012800020F48000084360600020DBE7001002408B
:1012900000700040400442422DE9F0470F4605002F
:1012A00061D0434E306800F00700B84209D2306880
:1012B00020F0070038433060306800F00700B84283
:1012C00051D128683B4C810712D5400703D560688F
:1012D00040F4E06060602878000703D5606840F45F
:1012E000605060606068A96820F0F00008436060AA
:1012F0002878C00728D06868012810D02168022803
:1013000010D0890700292EDA616821F0030101431A
:101310006160FFF7D5FC804641F288390DE0216815
:101320008903EFE78901EDE7FFF7CAFCA0EB0801AD
:10133000494502D90320BDE8F0876068696800F07C
:101340000C00B0EB810FEFD1306800F00700B8421D
:101350000BD9306820F0070038433060306800F067
:101360000700B84201D00120E5E72878400705D5FD
:101370006068E96820F4E06008436060287800074E
:1013800006D56068296920F4605040EAC1006060B9
:1013900000F058F86168084AC1F30311515CC84075
:1013A0000649086006480068FFF750FE0020C2E7C3
:1013B00000200240001002401643000820000020D8
:1013C000180000200F2202600C4A536803F0030348
:1013D0004360536803F0F0038360536803F4E063F1
:1013E000C36052684FF4E06303EAD202026104482A
:1013F000006800F00700086070470000001002401D
:10140000002002400448054900684968044AC1F3C5
:101410000221515CC84070472000002000100240AB
:10142000264300080448054900684968044AC1F396
:10143000C221515CC84070472000002000100240CB
:10144000264300080E4A51680E4801F00C03042B95
:1014500011D0082B0FD10C48C1F38343C903C05CE2
:101460000AD55168084AC1F34041921E515C054AB1
:101470005043B0FBF1F07047044948437047000007
:101480000010024000127A000643000800093D00E7
:101490002DE9F84F040070D02078C04DC00749D026
:1014A0006868C0F38100012807D06868C0F3810034
:1014B000022809D16868C00306D52868800339D599
:1014C00060680028E7D035E06068B0F5803F0BD059
:1014D00010B1B0F5A02F11D0286820F4803028601A
:1014E000286820F4802002E0286840F480302860DA
:1014F000606890B1FFF7E4FB06460AE0286840F414
:1015000080202860F0E700BFFFF7DAFB801B64282B
:1015100073D828688003F7D50CE0FFF7D1FB0646A7
:1015200005E000BFFFF7CCFB801B6428F0D82868DB
:101530008003F7D420789A4E80074FF001094FF0CE
:10154000000839D5686810F00C0F07D06868C0F340
:101550008100022809D16868C00306D42868800782
:1015600014D52069012808D110E02069B0B1C6F86F
:101570000090FFF7A5FB074605E00AE1FFF7A0FB97
:10158000C01B0228C4D828688007F7D5286861697D
:1015900020F0F80040EAC10028600DE0C6F80080A5
:1015A000FFF78EFB074604E0FFF78AFBC01B02280B
:1015B00023D828688007F7D4207800072CD57948ED
:1015C000A169D9B1C0F80090FFF77AFB074604E0A3
:1015D000FFF776FBC01B02280FD8686A8007F7D593
:1015E00071484FF4FA510068B0FBF1F0009000BF71
:1015F0000098411E0091FAD20EE080E0C0F8008011
:10160000FFF75EFB074604E0FFF75AFBC01B02280A
:1016100075D8686A8007F7D42078400760D5E869F4
:101620000027C00008D4E86940F08050E861E8690C
:10163000012700F0805000905C480168C90513D470
:101640000168834641F480710160FFF739FB8246EF
:1016500006E000BFFFF734FBA0EB0A0064284ED879
:10166000DBF80000C005F5D5E06801280AD008B114
:10167000052813D0286A20F001002862286A20F08B
:10168000040002E0286A40F001002862E06841F2AC
:10169000883B98B1FFF714FB82460BE0286A40F0C4
:1016A00004002862EEE700BFFFF70AFBA0EB0A0187
:1016B00059455AD8286A8007F6D50CE0FFF700FB99
:1016C000824605E0FFF7FCFAA0EB0A0159454CD829
:1016D000286A8007F6D41FB1E86920F08050E861DD
:1016E000E06988B36968C1F38101022944D0022806
:1016F000C6F8608004D0FFF7E3FA044638E034E02F
:10170000FFF7DEFA074604E0FFF7DAFAC01B02280B
:101710002BD828688001F7D4206AB0F5803F05D126
:101720006868A16820F4003008436860D4E90801C3
:101730000843696821F4741108436860C6F8609032
:10174000FFF7BEFA044606E025E000BFFFF7B8FA4F
:10175000001B022809D828688001F7D51BE000BFCC
:10176000FFF7AEFA001B022802D90320BDE8F88F6C
:1017700028688001F4D40EE00128F7D06868226A56
:1017800000F48031914204D1616A00F47010884203
:1017900001D00120EAE70020E8E700000010024045
:1017A00000004242800442422000002000700040BD
:1017B00090F85100704770B5040009D0606A0025A8
:1017C00040B125616561A56294F8510040B10CE01B
:1017D000012070BD6068B0F5827FF4D0E561F2E76A
:1017E00084F85050204600F03FF8022084F8510061
:1017F0002068016821F040010160A088218900F47F
:10180000827001F404410843A18901F40061084396
:10181000217C01F002010843217D01F00101084310
:10182000218B01F400710843217F01F03801084346
:1018300094F8201001F080010843218D01F400513B
:10184000084321680860A069042101EA104021686A
:1018500048602068C16921F40061C16165650120AB
:1018600084F85100002070BD30B585B0002400948C
:1018700001940294039400681449884223D11448C7
:10188000816941F480518161816901F48051049141
:10189000816941F00401816180690E4D00F004000E
:1018A0000490A0200090022001900320039069463C
:1018B0002846FFF70FF94020CDE900046946284685
:1018C0000294FFF707F905B030BD00000030014079
:1018D00000100240000801402DE9F84F044690F83E
:1018E0005100984616460F460025012801D00225D2
:1018F00098E060684FF0040BB0F5827F01D1A068DA
:10190000F8B194F85000012826D04FF0010984F86E
:101910005090FFF7D5F98246002F7FD0002E7DD062
:1019200084F851B000206065A763A687E68720632E
:10193000A086E08620646064A068B0F5004F0DD0FA
:1019400016E084F851B013460A462046CDF80080D0
:1019500000F024F9BDE8F88F0220FBE72068016859
:1019600021F0400101602068016821F4804101609C
:1019700020680168490603D4016841F04001016014
:10198000E068D8B13BE020688168C90709D0007BD6
:10199000A16B0870A06B401CA063E08F401EE08725
:1019A0000CE0FFF78DF9A0EB0A01414503D3B8F134
:1019B000FF3F03D006E0B8F1000F03D0E08F00280E
:1019C000E1D11FE003252BE020688168C90709D019
:1019D000C068A16B0880A06B801CA063E08F401ED4
:1019E000E0870CE0FFF76CF9A0EB0A01414503D357
:1019F000B8F1FF3F03D0E5E7B8F1000FE2D0E08F88
:101A00000028E1D152464146204601F0DFF908B1F5
:101A100020206065606D00E000E008B1012501E074
:101A200084F85190002084F85000284692E72DE970
:101A3000F84F044690F850000026984615468A460E
:101A400001280CD0012784F85070FFF739F981463E
:101A500094F85100B346012804D002269AE00220EF
:101A6000BDE8F88FBAF1000F6FD0002D6DD00320C4
:101A700084F85100C4F854B0C4F830A0A586E586B7
:101A8000C4F838B0A4F83CB0A4F83EB0C4F844B0F0
:101A9000C4F840B0A068B0F5004F09D120680168D3
:101AA00021F0400101602068016841F4804101603B
:101AB00020680168490603D4016841F040010160D3
:101AC000E068B0F5006F606803D058B3012D29D0ED
:101AD00049E008B1012D1FD1206B21680088C86042
:101AE00006E020688168890709D5216B0988C160F3
:101AF000206B801C2063E08E401EE0860CE0FFF728
:101B0000DFF8A0EB0901414503D3B8F1FF3F03D053
:101B100006E0B8F1000F03D0E08E0028E1D125E007
:101B2000032635E0206B21680078087306E0206802
:101B3000816889070AD5216B09780173206B401CE5
:101B40002063E08E401EE0860DE01FE0FFF7B8F84E
:101B5000A0EB0901414503D3B8F1FF3F03D0DFE714
:101B6000B8F1000FDCD0E08E0028E0D14A464146B3
:101B7000204601F059F908B120206065A06818B925
:101B80002068C16880680090606D08B1012601E09E
:101B900084F8517084F850B0304661E72DE9FF4F6A
:101BA00081B0044690F8500000260E9F1D469346D3
:101BB0004FF0010901280FD04FF0010A84F850A01E
:101BC000FFF77EF8804694F85100616801280DD037
:101BD000B1F5827F08D103E0022005B0BDE8F08FA7
:101BE000A16809B9042801D00226C9E0029800289A
:101BF00065D0BBF1000FFBD0002DF9D094F8510057
:101C0000042802D0052084F8510000206065C4F843
:101C100038B0E587A58702992163E586A58620640B
:101C2000606420680168490603D4016841F04001FE
:101C30000160E068B0F5006F606803D0F0B3012D7B
:101C400047D081E008B1012D3CD1206B216800888C
:101C5000C860206B801C2063E08E401EE08631E06F
:101C60002068816889070FD5E18E69B1B9F1010F4C
:101C70000AD1216B0988C160206B801C2063E08E33
:101C8000401EE0864FF0000920688168C9070CD02B
:101C9000E18F51B1C068A16B0880A06B801CA0636C
:101CA000E08F401EE0874FF00109FFF709F8A0EB35
:101CB0000800B84206D3781C04D001E009E05BE0DC
:101CC00003265BE0E08E0028CAD1E08F0028C7D150
:101CD00040E0206B216800780873206B401C206373
:101CE000E08E401EE0862FE02068816889070FD5CE
:101CF000E18E69B1B9F1010F0AD1216B0978017345
:101D0000206B401C2063E08E401EE0864FF00009EF
:101D100020688168C9070CD0E18F51B1C068A16B00
:101D20000870A06B401CA063E08F401EE0874FF05E
:101D30000109FEF7C5FFA0EB0800B84202D3781CEA
:101D400002D0BAE7002FB8D0E08E0028CCD1E08FC7
:101D50000028C9D142463946204601F065F818B13D
:101D60000126202060650BE0A06818B92068C168D2
:101D700080680090606D08B1012601E084F851A0F0
:101D8000002084F85000304627E770477047000075
:101D900070B590F83C20012A26D0012480F83C4000
:101DA000022280F83D2003685A689D6822F0700680
:101DB0000A6832435A600D4B02689A4208D0B2F169
:101DC000804F05D00A4B9A4202D00A4B9A4204D166
:101DD000496825F080031943916080F83D40002157
:101DE00080F83C10084670BD022070BD002C0140F8
:101DF000000400400008004010B5040003D094F82F
:101E00003D0010B107E0012010BD002084F83C0027
:101E1000204600F01EF8022084F83D00211D2068B5
:101E200001F00AF9012084F8460084F83E0084F8A5
:101E30003F0084F8400084F8410084F8420084F8B0
:101E4000430084F8440084F8450084F83D000020F5
:101E500010BD704790F83D10012901D00120704756
:101E6000022180F83D100168CA6842F00102CA6090
:101E700000680B49884208D0B0F1804F05D009496D
:101E8000884202D00849884204D1816801F00701E4
:101E9000062903D0016841F001010160002070476C
:101EA000002C0140000400400008004070472DE96C
:101EB000F041054690F83C0000260C46012810D061
:101EC000012085F83C0072B1042A1CD0082A2CD0CD
:101ED0000C2A50D00126002085F83C003046BDE891
:101EE000F0810220FBE7D4E90012E368286801F0E2
:101EF000D9F82868816921F00C018161286881691D
:101F0000A26811430FE0D4E90012E368286801F0E9
:101F1000F5F82868816921F4406181612868816948
:101F2000A26841EA02218161D5E72868D4E9002C42
:101F3000277B036A016A21F480710162C16923F47D
:101F4000007321F0030141EA0C0121F0F00C390784
:101F50004FF400774CEA116107EA02221A43C1618B
:101F600002622868C16921F00C01C1612868C16959
:101F7000A26811432BE02868D4E90021E768036ACE
:101F8000D0F820C02CF4805CC0F820C0D0F81CC071
:101F900023F400532CF4407C4CEA012121F4704CD2
:101FA0004FF6FF7101EA07314FF4005741EA0C0187
:101FB00007EA02321A43C16102622868C16921F44A
:101FC0004061C1612868C169A26841EA0221C1611A
:101FD00081E710B5040003D094F83D0010B107E08C
:101FE000012010BD002084F83C00204600F01EF8BF
:101FF000022084F83D00211D206801F01DF8012019
:1020000084F8460084F83E0084F83F0084F84000DD
:1020100084F8410084F8420084F8430084F84400C6
:1020200084F8450084F83D00002010BD00B585B05F
:10203000002100910191029103910068B0F1804F5D
:102040001FD11148C16941F00101C161C16901F0AD
:1020500001010491816941F008018161806969464B
:1020600000F008000490082000900848FEF732FDB8
:102070000748416821F4407141F0E06141F480710A
:10208000416005B000BD000000100240000C01409E
:102090000000014070B50446006801694FF000057A
:1020A000C943890715D4C168C943890711D4E91EFA
:1020B000016101202077206880698007204602D0D6
:1020C000FFF7F4FE04E000F098F8204600F096F8E0
:1020D000257720680169C943490717D4C168C943F6
:1020E000490713D46FF004010161022020772068B2
:1020F000806910F4407F204602D0FFF7D7FE04E04D
:1021000000F07BF8204600F079F825772068016917
:10211000C943090716D4C168C943090712D46FF02F
:1021200008010161042020772068C06980072046EB
:1021300002D0FFF7BBFE04E000F05FF8204600F09D
:102140005DF8257720680169C943C90617D4C168BD
:10215000C943C90613D46FF010010161082020772C
:102160002068C06910F4407F204602D0FFF79EFE31
:1021700004E000F042F8204600F040F8257720689F
:102180000169C943C90708D1C168C943C90704D156
:10219000891E0161204600F033F820680169C943B7
:1021A000090609D4C168C943090605D46FF0800146
:1021B00001612046FFF7E9FD20680169C94349062E
:1021C00009D4C168C943490605D46FF040010161D3
:1021D000204600F01FF820680169C94389060BD426
:1021E000C168C943890607D46FF020010161204608
:1021F000BDE87040FFF7CABD70BD70477047000072
:1022000000680349884201D1FEF706BF704700000D
:1022100000080040704770B5040004D094F84100F5
:10222000002510B106E0012070BD84F84050204622
:1022300000F024F8242084F841002068C16821F4CB
:102240000051C160204600F075FF2068016921F44B
:10225000904101612068416921F02A0141612068B3
:10226000C16841F40051C1606564202084F84100D8
:1022700084F842006563002070BD000070B586B030
:1022800000240094019402940394234E036823498C
:1022900002200322224DB34219D18B6943F48043BB
:1022A0008B618B6903F4804304938B6943F00403CF
:1022B0008B618969039201F0040104910102CDE967
:1022C000001069462846FEF705FC28151BE0154E50
:1022D000B3421FD1CB6943F40033CB61CB6903F424
:1022E000003304938B6943F004038B618969039283
:1022F00001F0040104910421CDE90010694628464B
:10230000FEF7E8FB0820CDE9000469462846029460
:10231000FEF7E0FB06B070BD00380140001002403F
:1023200000080140004400402DE9F843044690F8BD
:1023300041001F4616460D46202802D00220BDE867
:10234000F8837DB176B100206064212084F84100DB
:10235000FEF7B6FCA6848046E684A068B0F5805FF0
:1023600002D003E00120EAE7206910B12E460025E3
:102370000EE000260CE08021204600F037FFA0B9D7
:10238000AEB116F8010B21684860E08C401EE08475
:10239000E08C43464FF0000200970028EBD14FF04D
:1023A0004001204600F022FF30B10320C7E735F896
:1023B000020BC0F30800E6E7202084F8410000206B
:1023C000BDE7FEE701684A69D24352050FD46FF4B6
:1023D00080624A61002140F8301F202242738173DD
:1023E000026942F00402026101730120704700207B
:1023F00070470000F8B50446C06A1E460D461746F1
:10240000082807D0012805D010F5803F02D0206BA6
:10241000122804D12068016841F4807101601346DC
:1024200000224FF001112046009600F05DF840B107
:1024300020680068C00502D54FF4007020640320B6
:10244000F8BD2069B0F5804F0ED00620216800EA63
:10245000D51040F0F000086133463A460B4920465B
:1024600000F08AF878B902E005F0FE0000E0E8B27A
:1024700021680861054933463A46891F204600F025
:102480007BF80028DCD00120F8BD00000800010026
:1024900070B516460D4604461EE02046FFF792FF33
:1024A00008B1012070BD681C16D0FEF709FC801B26
:1024B000A84200D885B920684069C04340070BD5C1
:1024C000002044F8300F20216173A073216941F08E
:1024D000200121612073E4E720684069C043400780
:1024E000DBD4002070BD00002DE9F0479846174668
:1024F0000D460446C1F30746DDF820902AE000BFF0
:10250000B8F1FF3F26D0FEF7DBFBA0EB0901414508
:1025100002D8B8F1000F1DD12068012E16D08069B5
:1025200025EA00000004000C12D00020B84211D1AE
:10253000002044F8300F20216173A073216941F01D
:102540002001216120730120BDE8F0874069E7E7A1
:102550000120EBE72068012E0AD0806925EA0000FF
:102560000004000C06D00020B842C9D00020EBE7E0
:102570004069F3E70120F7E72DE9F0479846164652
:102580000D4604464FF000094FF0200AC1F30747FB
:1025900023E020684069C043400515D420680168E5
:1025A00041F40071016021686FF480604861C4F8F3
:1025B000309084F83DA084F83E90216C41F00401F5
:1025C000216484F83C9021E0701C06D0FEF778FB73
:1025D000A0EB0800B04203D816B1012F1FD021E0B4
:1025E0002068012F15D0806925EA00000004000C46
:1025F00018D000BF44F8309F84F80DA084F80E90E6
:10260000216941F02001216184F80C900120BDE88E
:10261000F087406925EA00000004000CEAD1206838
:10262000406901E02068806925EA00000004000C90
:10263000AFD1ECE770B516460D4604461EE02046C5
:10264000FFF7C0FE08B1012070BD681C16D0FEF770
:1026500037FB801BA84200D885B920684069C04379
:1026600000060BD5002044F8300F20216173A073C1
:10267000216941F0200121612073E4E7206840696D
:10268000C0430006DBD4002070BDF8B5044641F01D
:1026900080008DF8000017461E46A18800222068A1
:1026A000FEF708FB4FF4FA652B4601226946A06944
:1026B000FFF7BDF9A069FFF77BF80128FAD12B4697
:1026C00032463946A069FFF7B2F9A069FFF770F802
:1026D0000128FAD1A18801222068FEF7EBFAF8BDA3
:1026E00070B50C460546012100F09FF8024644B142
:1026F000012C0BD0032C0FD0052C13D0062C17D097
:102700001BE0002002F0F802E86116E0012002F070
:10271000F802521CE86110E0032002F0F802D21C1B
:10272000E8610AE0052002F0F802521DE86104E0C9
:10273000062002F0F802921DE8612846BDE87040CC
:10274000012100F0F8B970B504460021FFF7C8FF79
:102750000A20FEF777F90121204600F066F80546C9
:102760000A20FEF76FF945F080020121204600F0B3
:10277000E2F96420FEF766F92046216A00F008F9C4
:1027800094F82A10204600F057F994F82B102046B0
:1027900000F033F923220C21204600F0CCF920462A
:1027A00000F074F994F82410204600F04FF9FF224D
:1027B0001F21204600F0BFF994F8250094F8261058
:1027C000000100EB4100C2B21D21204600F0B3F928
:1027D000204600F0B7F8208D2021020A204600F0A4
:1027E000AAF994F828202121204600F0A4F94021DC
:1027F000204600F01AF840F03F024021204600F049
:102800009AF901212046FFF76BFF0120E0610A20C1
:10281000FEF718F94221204600F007F8122802D0EE
:102820004FF4CA7070BDC82070BD0EB501F07F01B5
:102830008DF8081001210A46009101AB02A900F0B1
:1028400003F89DF804000EBD2DE9F0470E4615462D
:10285000044681889846DDF8209000680022FEF743
:1028600029FA4FF4FA673B462A463146A069FFF73A
:10287000DEF8A069FEF79CFF0128FAD13B464A46E4
:102880004146A069FFF728F8A069FEF791FF0128EB
:10289000FAD1A1882068BDE8F0470122FEF70ABA04
:1028A0002DE9F04100250E460746144628462946E4
:1028B00001E03154401CA042FBDB01213846FFF708
:1028C0000FFF12213846FFF7B0FF40061FD5FF2249
:1028D0001221384600F02FF913213846FFF7A5FFE3
:1028E000054610213846FFF7A0FF02460D21384665
:1028F00000F021F9AC4200D22546002405E0002179
:102900003846FFF792FF3055641CAC42F7DB0521D7
:102910003846FFF7E5FE2846BDE8F08110B50446CD
:10292000818980680022FEF7C5F90120FEF78AF848
:10293000A1890122A068FEF7BDF9BDE8104064201E
:10294000FEF780B810B594B0044650220F4968468F
:10295000FDF7C5FD94F824100120884001F059FCD2
:1029600094F825206B4603EBC203D3E9002301F062
:10297000C9FA01F01FFC102801DD012100E000214F
:10298000204600F025F814B010BD000030430008C8
:1029900070B50546C8044411C4F307420621284611
:1029A00000F0C9F80520FEF74DF8C4F3072207210F
:1029B000284600F0C0F80520FEF744F8E2B20821EE
:1029C000284600F0B8F8BDE870400520FEF73AB898
:1029D00070B50C4605462621FFF727FF14B140F0DD
:1029E000080201E000F0F7022621284600F0A3F8D3
:1029F000BDE870400A20FEF725B810B52D2901D298
:102A00002D2105E0F02901D9F02106E0782904D82C
:102A100005222D3991FBF2F103E00A221E31B1FBB0
:102A2000F2F1C9B22031CAB20B2100F084F8BDE83E
:102A300010400A20FEF706B810B50A46092100F03A
:102A40007AF8BDE810400A20FDF7FCBF70B50C46CF
:102A500006460C2901DD0C2402E0072C00DA0724CD
:102A60001E21FFF7E2FE05460A20FDF7EBFF64F3A7
:102A70001F15EAB21E21304600F05DF80A20FDF76E
:102A8000E1FF3046BDE87040FFF75CBF10B504467B
:102A90001E21FFF7CAFE40F007021E21204600F06B
:102AA0004AF8BDE810400A20FDF7CCBF0521FFF72A
:102AB00017BE2DE9F0410F461C46164680460121FF
:102AC000C569FFF70DFE0E214046FFF7AEFE024638
:102AD0000D21404600F02FF832462221404600F0FA
:102AE0002AF833463A4600214046FFF7CEFD03213F
:102AF0004046FFF7F5FD12214046FFF796FE00071E
:102B00000BD5FF221221404600F015F82946404619
:102B1000FFF7E6FD0120BDE8F081641E2404240CCB
:102B200003D00120FDF78EFFE5E729464046FFF779
:102B3000D7FD0020EFE70EB541F080018DF80810B9
:102B400001218DF804200A46009101AB02A900F092
:102B500001F80EBD2DE9F0470E4615460446818862
:102B60009846DDF8209000680022FEF7A3F84FF4A5
:102B7000FA673B462A463146A069FEF758FFA0692E
:102B8000FEF716FE0128FAD13B464A464146A069A7
:102B9000FEF74DFFA069FEF70BFE0128FAD1A188D0
:102BA0002068BDE8F0470122FEF784B83EB5002456
:102BB00010480094019402940D49846001600473EC
:102BC0000475012505614FF460214460C161FDF782
:102BD00057FE08B172B6FEE7CDE9004569460548E3
:102BE0000294FDF7CFFD002801D072B6FEE73EBD8E
:102BF00000240140840000203EB5002410480094C9
:102C0000019402940D4984600160047304750125E8
:102C100005614FF460214460C161FDF731FE08B1E8
:102C200072B6FEE70095CDE9015469460448FDF708
:102C3000A9FD002801D072B6FEE73EBD0028014084
:102C4000B40000202DE9F04186B000242F48009404
:102C5000019402940394816941F0200181618169AA
:102C600001F020010491816941F0040181618169D1
:102C700001F004010491816941F0080181618069DA
:102C8000234F00F008000490012210213846FEF77F
:102C900011F8DFF88080012211464046FEF70AF85D
:102CA00000224FF460414046FEF704F80022B915B7
:102CB0003846FDF7FFFF4FF4887001250226CDE965
:102CC0000005CDE9024669463846FDF703FF4EF29E
:102CD0000100CDE90005CDE9024669464046FDF711
:102CE000F9FE202000900C48CDE9010469464046D9
:102CF000FDF7F0FE002206211720FEF725FA172027
:102D0000FEF714FA06B0BDE8F081000000100240A2
:102D100000080140000C0140000011100F4810B5E0
:102D20000D4901604FF48271416000218160C160F2
:102D30004FF400720161C0E905121022C0E90721B9
:102D4000416281620A21C162FEF735FD002801D08F
:102D500072B6FEE710BD0000003001408C0100207B
:102D600010B586B00024174805940494009401948B
:102D700002944FF080410394C0E900144FF6FF71B4
:102D8000C0E9024104618461FFF723F908B172B61A
:102D9000FEE7049404A90B480594FEF7F9FF08B177
:102DA00072B6FEE70120CDE9004002940422694694
:102DB00004480394FFF77BF8002801D072B6FEE7C1
:102DC00006B010BDE4010020FEE7FEE7F8B50446BA
:102DD00040684FF48273984217D1A0684FF4806521
:102DE000B0F5004F01D0A8420FD12068066826F048
:102DF000400606606068984207D1A068A84204D1E6
:102E000000920B460022012103E000920B460022B3
:102E10008021204600F018F8002804D0606D40F0B2
:102E2000200060650320F8BD38B50B4600920446CB
:102E30000022802100F008F8002804D0606D40F0E6
:102E400020006065032038BD2DE9F8431E469146F9
:102E500088460446089DFDF733FF401B351AFDF7F1
:102E60002FFF074625480068C0F3CB30684338E0A1
:102E7000701C37D0FDF724FFC01BA84203D215B148
:102E8000009860B32CE02068416821F0E0014160C7
:102E90006068B0F5827F0BD1A068B0F5004F02D01A
:102EA000B0F5806F04D12068016821F04001016015
:102EB000A06AB0F5005F09D12068016821F40051D3
:102EC00001602068016841F400510160012084F82C
:102ED0005100002084F850000320BDE8F88300254D
:102EE000401E00902068816838EA010004D000216B
:102EF0004945BDD10020F0E70121F9E7200000207D
:102F0000184C19A119482268FDF7B2F900210120D7
:102F10001AE02846FDF7C4FAC2B2144864232946D1
:102F2000AC38FFF7C6FDFDF7CBFE60600021012045
:102F300000F0B0F90D4800F025FA0DA10B48226908
:102F4000FDF796F90021022000F0A4F9074800F0EF
:102F500019FA0AA5FDF7B4FE6168401AA168884213
:102F6000E4D9D6E7000000202564000068030020B3
:102F7000525353493A2025640D0A00004E44373914
:102F80003639000010B5502080F31188BFF34F8F01
:102F9000BFF36F8F00F0F0FE18B104494FF080507E
:102FA0000860002080F3118810BD000004ED00E0EF
:102FB00030B593B028216846FDF7C3FA14210AA85A
:102FC000FDF7BFFA002501200F951095119501041A
:102FD00012958DE8230004904FF4E010CDE908101D
:102FE000022407946846FEF753FA08B172B6FEE76A
:102FF0000AA90F2081E831004FF48060CDE90D056A
:1030000002210AA8FEF748F908B172B6FEE74FF4AC
:10301000404011900F940FA8FEF7C8F8002801D087
:1030200072B6FEE713B030BD704700000148FFF7ED
:1030300031B80000E8060020F0B50268164B174CC6
:10304000174D4FF08047984205D0B84203D0A042B8
:1030500001D0A84203D122F070064A683243984258
:1030600005D0B84203D0A04201D0A84203D122F437
:103070004074CA6822434C6922F0800222430260F5
:103080008A68C2620A688262984201D10969016352
:1030900001214161F0BD0000002C0140000400400E
:1030A0000008004070B5056A046A24F00104046257
:1030B00084690F4EB04208D0B0F1804F05D00D4E5C
:1030C000B04202D00C4EB04203D124F003041443AA
:1030D00001E044F001041A0724F0F00444EA12620B
:1030E00025F00A0301F00A0119438261016270BDF3
:1030F000002C0140000400400008004030B5046A84
:10310000056A25F010050562856925F4407545EAD4
:10311000022222F470454FF6FF7202EA033224F0D5
:10312000A0032A43A02404EA011119438261016229
:1031300030BD000070B5044600680169E26821F402
:103140004051114301612169A06808436169084346
:103150002168CA6841F20C639A430243CA6020683E
:103160004169A26921F44071114341611E492068FF
:10317000884202D1FEF756F901E0FEF743F900EB71
:10318000C00101EB0012606864218000B2FBF0F323
:10319000B3FBF1F36FF018067343B2FBF0F5B2FB2B
:1031A000F0F605EB8305322303EB0515B5FBF1F5CE
:1031B000B6FBF1F605F0F00505EB0615B2FBF0F6EF
:1031C000B2FBF0F0B0FBF1F06FF01802504306EBE9
:1031D000800003EB0010B0FBF1F0216800F00F005D
:1031E0002844886070BD0000003801402DE9F0419E
:1031F000984617460E460446069D27E0681C25D0D3
:103200002DB1FDF75DFDA0EB0800A8421ED9206896
:103210000C3050E8001F21F4D07140E80012002A61
:10322000F5D12068143050E8001F21F0010140E87A
:103230000012002AF5D1202084F8410084F84200D1
:10324000002084F840000320BDE8F0812068006879
:1032500036EA000004D00020B842CFD00020F3E7C7
:103260000120F9E7FEE70907090E002804DB00F159
:10327000E02080F80014704700F00F0000F1E0201B
:1032800080F8141D704730380A2801D20120704799
:1032900000207047012805D04031C8B240F08000BE
:1032A00000F030B88031C8B2FAE710B5332000F032
:1032B00029F8322000F026F83220FDF7C3FB282041
:1032C00000F020F83220FDF7BDFB012000F01AF8D5
:1032D0003220FDF7B7FB062000F014F83220FDF78E
:1032E000B1FB0C2000F00EF83220FDF7ABFB022002
:1032F00000F008F83220FDF7A5FBBDE81040802063
:10330000AFF300801CB500F0F00141F00C028DF825
:10331000042041F0080100018DF8051040F00C0177
:103320008DF8061040F008008DF80700642000902A
:10333000042301AA4E210248FDF78CFD1CBD0000AC
:10334000E40000201CB500F0F00141F00D028DF802
:10335000042041F0090100018DF8051040F00D0135
:103360008DF8061040F009008DF8070064200090E9
:10337000042301AA4E210248FDF76CFD1CBD00008C
:10338000E400002010B5044602E0641CFFF7DAFFF9
:1033900020780028F9D110BD92B0FDF745FEFFF767
:1033A00007FEFFF74FFCFFF7B9FC594857494FF4A8
:1033B000E13500240160C0E901544FF00C08C460FD
:1033C000C0E904488461C461FEF725FF08B172B604
:1033D000FEE7FFF7EBFBFFF70FFC4F484D494F4F60
:1033E0000160C0E901740E14C0E9034644618461C0
:1033F000C4610462FDF76AFC08B172B6FEE7464894
:10340000474954300160C0E90174C0E90346446192
:103410008461C4610462FDF759FC08B172B6FEE72D
:103420003B48404948300160C0E90154C460C0E9EC
:1034300004488461C461FEF7EEFE08B172B6FEE78F
:10344000FFF78EFC684600F09FF831482C22694651
:103450009030FDF744F82E49344AA03901F59870B0
:103460008161314902C0102120F8041B012104C0F0
:10347000018042602022028140F2B11242610722A3
:10348000027642768176FF2181777821C1770A2101
:1034900081831F489030FFF741FA1D489030FFF7B5
:1034A00052F904461A489030FFF700FB4FF47A7542
:1034B000C82C1DD022461EA12748FCF7D9FE26485D
:1034C000FCF7EEFF82B22B4623491148FEF72CFF92
:1034D000FFF7EBFE1C2221490BA8FDF700F80021A5
:1034E0000BA800F072F81E49C86000F069F8FEE70A
:1034F0001CA11948FCF7BCFE1749642380397822C7
:10350000A1F12C00FFF7D5FAD9E7000000380140FF
:103510002C02002000540040E4000020A08601009E
:10352000005800400044004000080140000C0140E9
:103530000A0D204C6F5261206661696C6564203A07
:1035400028200A0D204572726F7220636F64653AFD
:10355000202564200A0D000068030020E8420008CE
:10356000000000204C6F52612069732072756E6EEE
:10357000696E672E2E2E0A0D000000000146002005
:10358000842900D0C81C704700B58BB040F2B1113F
:10359000089107218DF824108DF8251001218DF850
:1035A0002610FF218DF82A1064218DF82B10082198
:1035B000ADF828102C226946FCF791FF0BB000BD36
:1035C00010B500F0C1FA002010BD7FB50D460446CD
:1035D0004169B0F9080081B1A16971B1FFF7CEFF6F
:1035E000D4E905128DE80700D4E900102B462269C2
:1035F00000F097FB039004B070BDFFF7BFFF03A975
:10360000CDE90001208A2B4682B2D4E9001000F0F7
:103610005BFB012801D00020EDE70398EBE70000F9
:103620002DE9F041054600F01BFA2E4C2069401CA4
:10363000206120682C4F10B1E06940B32DE0256077
:103640002069012829D1002606EB860007EB8000BF
:1036500000F0ECF9761C072EF6D323488C3000F0EE
:10366000E5F92148A03000F0E1F91F48B43000F03E
:10367000DDF91D48C83000F0D9F91B48DC3000F0F6
:10368000D5F919488C3060601430A06005E02068DE
:10369000E96AC06A884200D82560E06A401CE0629E
:1036A000E96A0120A26988401043A06101EB810012
:1036B00007EB8000291D00F0C7F900F0F1F9E0697F
:1036C00000280CD02068E96AC06A884207D20749FE
:1036D0004FF080500860BFF34F8FBFF36F8FBDE88E
:1036E000F0810000240000203007002004ED00E0FD
:1036F00010B5044690F8510058B101280CD00228AA
:103700000FD0502080F31188BFF34F8FBFF36F8F1E
:10371000FEE7206B00F0D8F92046BDE8104000F02D
:10372000D3B910BD10484FF44061420706D0C01D08
:103730000D4920F00700411AC1F540610B4A0023F2
:103740000144C2E900030839103A21F00701116071
:103750004B600B600B1AC0E9001393604FF0004000
:103760005360D060704700002008002070000020E7
:10377000144E154CA6F1C8074FF08058DFF84C9056
:1037800012E000BF00F06CF9F068C568281D00F079
:103790002FF92069401E2061E068401EE06000F0C3
:1037A0007FF92846FFF7A4FFE0680028EAD13868CF
:1037B0000128F9D9C9F80080BFF34F8FBFF36F8F8D
:1037C000F2E70000F80700202400002004ED00E0EC
:1037D0002DE9F0479A46DDE9098481466FF003033D
:1037E000206B03EB82021044089D20F0070670074F
:1037F00007D0502080F31188BFF34F8FBFF36F8F36
:10380000FEE723180A5C83F834200A5C12B1401CDE
:103810001028F6D3002784F84370072D00D306251F
:10382000E562C4E91157201D00F00BF904F11800FE
:1038300000F007F92461C5F107006462A061E76444
:1038400084F8507052464946304600F0BFF8206078
:10385000B8F1000F01D0C8F80040BDE8F0870000C3
:1038600030B5114900E011460A688242FBD34B682B
:103870005C18844203D14068184448600846436895
:103880001C18944209D1084C103C2468A24209D06B
:1038900052681A4442600A6812680260814200D08D
:1038A000086030BD0460F9E77000002006484168F8
:1038B000096829B14168C968C968496801637047E6
:1038C0004FF0FF31FAE7000024000020084840686C
:1038D000401C4FF0500080F3118804D0BFF34F8F8D
:1038E000BFF36F8FFEE7BFF34F8FBFF36F8FFEE71E
:1038F000780000202DE9F0410546002700F05AF934
:10390000314E306808B9FFF70DFFF06805424BD122
:10391000C5B3083568070ED005F00700C0F10800F0
:103920000544680707D0502080F31188BFF34F8FFC
:10393000BFF36F8FFEE72DB37068854234D82248FD
:10394000103001460C6801E020460C466168A9422F
:1039500002D221680029F7D131688C4224D007684F
:103960002168016060680837411B10290FD9601970
:10397000420708D0502080F31188BFF34F8FBFF368
:103980006F8FFEE710E041606560FFF769FF6168D7
:103990007068401A7060B268904200D2B060F068FF
:1039A00001430020C4E9000100F04AFA780707D07B
:1039B000502080F31188BFF34F8FBFF36F8FFEE766
:1039C0003846BDE8F08100006000002010B5031FFC
:1039D0004FF080741C601B1F21F001011960191F3A
:1039E000024B0B60143940380A6010BDCD38000816
:1039F000D0E9013201699A60D0E901235A604A682E
:103A0000824201D182684A60002202610868401E39
:103A10000860086870470000034B036003F154001E
:103A200008608020106070479404002000F10801B5
:103A30004FF0FF32C0E90112C16001610021016055
:103A4000704700210161704742684A6093688B604B
:103A500093685960916008610168491C0160704772
:103A6000502080F31188BFF34F8FBFF36F8F0A4947
:103A70004868401C486001280CD10848006810F0D4
:103A8000FF0F07D0502080F31188BFF34F8FBFF393
:103A90006F8FFEE7704700007800002004ED00E023
:103AA0000849486828B1401E486001D180F3118858
:103AB0007047502080F31188BFF34F8FBFF36F8F93
:103AC000FEE700007800002070B5002827D0144DD4
:103AD000A0F108046168E868014207D1502080F332
:103AE0001188BFF34F8FBFF36F8FFEE722683AB1A3
:103AF000502080F31188BFF34F8FBFF36F8FFEE725
:103B00008143616000F056F8606869680844686045
:103B10002046FFF7A5FEBDE8704000F091B970BDEA
:103B2000600000204FF0E020002101618161054923
:103B30004FF47A720968B1FBF2F1491E4161072125
:103B4000016170472000002010B586B00024039466
:103B500005AA04A903A80494FFF75EFFDDE90301A9
:103B60000094CDE9011000230EA11048059A00F041
:103B7000D8F80F490028486311D0502080F31188ED
:103B8000BFF34F8FBFF36F8F4FF0FF3008630120FB
:103B9000C8614C6106B0BDE8104000F041B806B005
:103BA00010BD000049444C4500000000713700087A
:103BB000240000200248816B491C8163704700008B
:103BC000240000201448816B11B10121416270472B
:103BD000002141628169B1FA81F1C1F11F0101EB5C
:103BE00081020E4951F822306BB101EB820101F1E3
:103BF00008034A6852684A609A4201D152684A6092
:103C0000D16801607047502080F31188BFF34F8F57
:103C1000BFF36F8FFEE70000240000203007002074
:103C20001CB5264908780190FF20087008788DF8A7
:103C300000009DF800009DF8002000F0F000904288
:103C400007D0502080F31188BFF34F8FBFF36F8FE1
:103C5000FEE79DF800001A4B00F050001870072096
:103C6000986005E09DF8002052008DF80020401E6D
:103C70009DF800201206F5D49860032807D0502044
:103C800080F31188BFF34F8FBFF36F8FFEE74FF4C0
:103C900040709860019808700A48016841F470010A
:103CA0000160016841F070410160FFF73BFF0020B7
:103CB0005860FCF783FA00201CBD000000E400E01F
:103CC0007800002020ED00E02DE9FF5F8346DDE96C
:103CD0000E87994616468A469000FFF70BFE0500B0
:103CE0001CD05420FFF706FE040014D000202563EA
:103CF00084F85100CDE90240CDE900874B463246B9
:103D000051465846FFF764FD2046FFF789FC012025
:103D100004B0BDE8F09F2846FFF7D6FE4FF0FF3015
:103D2000F6E7F0B585B0DDE90B640A9DA6B1DCB11C
:103D3000542700972663022684F85160002604AFBA
:103D4000CDE90246CDE90057FFF742FD2046FFF7D7
:103D500067FC049805B0F0BD502080F31188BFF3D4
:103D60004F8FBFF36F8FFEE7502080F31188BFF3B2
:103D70004F8FBFF36F8FFEE72DE9F0412E4C0027E8
:103D8000A06B40B1206A401C2062606A00B101272C
:103D90003846BDE8F0816669761C666113D16068BB
:103DA000006838B1502080F31188BFF34F8FBFF304
:103DB0006F8FFEE76068A1686160A060A06A401C28
:103DC000A062FFF773FD206BDFF87080864209D395
:103DD0006068006880B16068C068C56868688642CD
:103DE0000DD220632068C06A00EB800158F82100E2
:103DF0000128CAD90127C8E74FF0FF30F1E7281D95
:103E0000FFF7F6FDA86A18B105F11800FFF7F0FDFD
:103E1000E86A0121A26981401143A16100EB8001A0
:103E200008EB8100291DFFF70FFEE86A2168C96AC7
:103E30008842CDD30127CBE72400002030070020A3
:103E40002DE9F0472C4D00242746A86B38B1FFF729
:103E500007FEA86B401EA863A86B40B146E0502047
:103E600080F31188BFF34F8FBFF36F8FFEE729698F
:103E7000224E0120D1B3A6F1B40980463068E8B1E2
:103E8000F068C46804F11800FFF7B2FD201DFFF7C9
:103E9000AFFDE06AAA6908FA00F11143A96100EBDD
:103EA000800109EB8100211DFFF7CEFDE06A296842
:103EB000C96A8842E2D3C5F82480DFE70CB1FFF776
:103EC000F5FC2C6A44B14646FFF756FF00B16E621E
:103ED000641EF9D100202862686A38B108490127B8
:103EE00038070860BFF34F8FBFF36F8FFFF7D8FD20
:103EF0003846BDE8F087000024000020E4070020D9
:103F000004ED00E02DE9C04130B4DFF8A0C23CEA86
:103F1000111418BF3CEA131400F0EC8081EA030589
:103F20001CEA111444EAD57418BF1CEA131500F0FA
:103F3000C780A4EB05044FF0004545EAC12145EADE
:103F4000C32341EA505143EA525304F17F7499422A
:103F500004F500344FEAC0204FEAC22208BF904265
:103F600000F09C804FEA13650FF24016765D4FEA31
:103F7000134506FB05F7C7F1807706FB07F74FEA05
:103F8000D737A7FB03687642C8F58038A7FB06CE73
:103F900038BFA8F1010807FB08E64FF0000EA6FBAA
:103FA000028CE6FB03CEDCF1000CCEF1004E38BFF4
:103FB000AEF1010EA6FB0C584FF000074FF00005C4
:103FC000E6FB0E87A1FB08C6A0FB07CE16EB0E068C
:103FD00045F10005E1FB076515F1E04E7EBFA4F554
:103FE00080345FEA46066D4116F1800745F1000511
:103FF0004FEA17274FEA066647EA0567A6F1DE464D
:10400000B6F1805F4FEA15251FD9384624F0010C20
:1040100005EBC471BCF1FE6F01EB0C1102D8F0BCD2
:10402000BDE8008124425CBF01F5801E9EEAC47F8A
:1040300002D4F0BCBDE80081244238D4F0BCA1F128
:10404000C041BDE8004100F049B94FEAD22242EA3E
:1040500043524FEAD323A7FB02864FEAD02040EA1F
:10406000415007FB03661EEA0E0F4FEAD12105FB04
:10407000026658BFA6EB0056B6EB00564FEA520E4A
:104080004EEAC37E18EB0E0E56EB530EBDD518EB61
:1040900002085E417F1C55F10005B6E74FF480151C
:1040A0004FF000074FF000064FF00008ADE7F0BCFE
:1040B0004FF0000001F1C04101F00041BDE8008176
:1040C00011EA0C1F0CEA131500D00CE013EA0C1FC8
:1040D00000F025804FF00000F0BC81EA030101F000
:1040E0000041BDE80081F0BCBDE8004181EA030168
:1040F00000F0F4B8F0BCBDE8004170B500F0A0F8E5
:10410000097EFC3E00F007B881EA03014FF0000091
:1041100001F00041704781EA030100F0DFB8F0BC14
:10412000BDE800414FF0000021497047FFFDFBF959
:10413000F7F5F4F2F0EEEDEBE9E8E6E4E3E1E0DEDA
:10414000DDDBDAD8D7D5D4D3D1D0CFCDCCCBCAC84C
:10415000C7C6C5C4C2C1C0BFBEBDBCBBBAB9B8B773
:10416000B6B5B4B3B2B1B0AFAEADACABAAA9A8A866
:10417000A7A6A5A4A3A3A2A1A09F9F9E9D9C9C9B34
:104180009A999998979796959594939392919190DF
:104190008F8F8E8E8D8C8C8B8B8A89898888878770
:1041A0008685858484838382828181800000FF07E5
:1041B0000000F87F4FEA41034FEA5353A3F58063B1
:1041C000D3F11E03C8BFD3F1210C0CDD4FF0004228
:1041D00042EAC12242EA505232FA03FC8CEAE17C04
:1041E000ACEBE1707047102BC4BF0020704703F5A3
:1041F000787CBCF1FF3F04D06FF0004282EA2100DE
:10420000704770B500F01CF8499224800020704778
:10421000F2E710F0004248BF4042B0FA80F310FAD3
:1042200003F10AD0C3F11D0303F580634FEA415047
:1042300002EB035202EBD12170474FF000007047B0
:104240000EF1020E2EF0030E5EF8046B364205D41A
:10425000012A43EB030515F5001F12D8012841EB95
:10426000010C1CF5001F0CD80ED14FEAD17C15F5BE
:10427000001F0CEB4C0C0CF1020C08BF4CEBD37C78
:1042800004E04FF0080C01E04FEAD37C0CEB4C0546
:1042900026FA05F606F00706B6F1040C06D20EEB78
:1042A000860CBDE870404CF0010C6047DFE80CF074
:1042B000090B02024FF000414FF00000A1F5002170
:1042C00070BD19461046012851EB010418BFD4F502
:1042D000001484BF002001F0004170BD0808A0F563
:1042E00000114FEA3101704794430008012F000884
:1042F000000000000000000080000000000000003E
:1043000000000000010202030405060708090A0B69
:104310000C0D0E0F10100000000000000000010244
:10432000030406070809000000000102030400005E
:104330003333333333331F40CDCCCCCCCCCC2440BF
:104340003333333333332F40CDCCCCCCCCCC34408F
:104350000000000000403F409A99999999D9444043
:104360000000000000404F400000000000405F409F
:104370000000000000406F400000000000407F404F
:10438000040000080000000000000002000100001E
:104390001000000073656E64546F4761746500001F
:1043A000C04300080000002084000000280100082D
:1043B0004444000884000020FC1900004401000867
:1043C0000000000000000000881300000000000052
:1043D00000000000010000001000000000000000CC
:1043E0000024F400000000000000000000000000B5
:1043F00000000000000000000000000000000000BD
:1044000000000000000000000000000000000000AC
:10441000000000000000000000000000000000009C
:10442000000000000000000000000000000000008C
:10443000000000000000000000000000AAAAAAAAD4
:044440000000000078
:04000005080000ED02
:00000001FF
