:020000040800F2
:10000000B009002099010008C3260008AF1D0008B0
:10001000C1260008FB060008AD290008000000000A
:10002000000000000000000000000000FD270008A4
:10003000FD06000800000000C5260008FF27000894
:10004000B3010008B3010008B3010008B3010008C0
:10005000B3010008B3010008B3010008B3010008B0
:10006000B3010008B3010008B3010008B3010008A0
:10007000B3010008B3010008B3010008B301000890
:10008000B3010008B3010008B3010008B301000880
:10009000B3010008B3010008B3010008B301000870
:1000A000B3010008B3010008B3010008B301000860
:1000B000B3010008B3010008B3010008B301000850
:1000C000B3010008B3010008B3010008B301000840
:1000D000B3010008B3010008B3010008B301000830
:1000E000B3010008B3010008B301000800F002F8F2
:1000F00000F042F80AA090E8000C82448344AAF180
:100100000107DA4501D100F037F8AFF2090EBAE87D
:100110000F0013F0010F18BFFB1A43F0010318473B
:100120009C310000BC310000103A24BF78C878C16F
:10013000FAD8520724BF30C830C144BF04680C60ED
:10014000704700000023002400250026103A28BF35
:1001500078C1FBD8520728BF30C148BF0B60704739
:10016000642900F07980732900F05D8200207047D7
:100170001FB51FBD10B510BD00F05FFA1146FFF7A7
:10018000F7FF02F055FD00F07DFA03B4FFF7F2FF30
:1001900003BC00F081FA0000094880470948004785
:1001A000FEE7FEE7FEE7FEE7FEE7FEE7FEE7FEE727
:1001B000FEE7FEE704480549054A064B7047000084
:1001C0007B280008ED000008B0030020B0090020E3
:1001D000B0050020B00500200FB41CB5084B06AADE
:1001E0007B4469460090059800F0F3F9044600202E
:1001F000694600F001FA20461CBC5DF814FB0000C3
:100200001504000070B50C460546012A05D0287873
:10021000800600D5EA69002302E0012305E05B1CAB
:10022000934202D2E05C0028F9D1A869E618C01A0E
:10023000A861286A184428622846AFF3008004E0C9
:10024000D5E9012114F8010B9047B442F8D32846B0
:10025000AFF3008070BD00002DE9F0410646002498
:1002600010687529314616A510D0AFF3008000281C
:1002700002DA404213A507E031688A0701D512A5CA
:1002800002E0490704D511A5012401E0AFF3008085
:1002900000210A2206F1240709E0B0FBF2FCB0FBC2
:1002A000F2F302FB1C00303078541846491C002839
:1002B000F3D123462A463046BDE8F04100F02BB981
:1002C000000000002D0000002B00000020000000B6
:1002D0002DE9F05F894604464FF0000ADFF824B1AB
:1002E000FB44C0F820A02046E168884700287DD064
:1002F000252806D0D4E901219047206A401C2062BD
:10030000F1E700255F462046E16888472028064639
:1003100007DB312E05D2B81910F8200C08B10543BF
:10032000F1E7A80701D525F00405C4F81CA00027B3
:10033000C4F818A02A2E09D0304602F048FB38B382
:1003400004EB8708303EC8F8186019E059F8041B20
:10035000204604EB87029161E1688847012F064639
:1003600018D1E069002820DA25F020051DE0D8F832
:10037000180000EB800006EB40003038C8F8180089
:100380002046E1688847064602F021FB0028EED1AE
:10039000012F0AD02E2E08D12046E16888477F1C05
:1003A0000646022F45F02005C4DBA069002803DAC9
:1003B000404245F00105A061E80701D025F0100595
:1003C000A6B1A6F14100192802D8203645F40065EF
:1003D0004A463146204625604D46FFF7C1FE60B1D2
:1003E000012807D0ED1D25F0070000E007E000F12F
:1003F000080978E705F1040975E730467AE7206ACD
:10040000BDE8F09FC42F000010B5431C02E010F8B7
:10041000011B71B18107FAD14FF0013202C88C1A69
:100420008C4314EAC211F9D0C01A0A0603D0C01EC8
:1004300010BDC01A10BD0A0401D0801E10BD0902F3
:10044000FCD0401E10BD421E12F8013F002BFBD114
:1004500011F8013B002B02F8013BF9D1704710B5B0
:10046000203AC0F00B80B1E81850203AA0E81850AC
:10047000B1E81850A0E81850BFF4F5AF5FEA027C6D
:1004800024BFB1E81850A0E8185044BF18C918C0DC
:10049000BDE810405FEA827C24BF51F8043B40F87D
:1004A000043B08BF7047D20728BF31F8023B48BF62
:1004B00011F8012B28BF20F8023B48BF00F8012BA0
:1004C00070474FF0000200B5134694469646203917
:1004D00022BFA0E80C50A0E80C50B1F12001BFF4FD
:1004E000F7AF090728BFA0E80C5048BF0CC05DF863
:1004F00004EB890028BF40F8042B08BF704748BFB1
:1005000020F8022B11F0804F18BF00F8012B704724
:100510007047704770472DE9F0470D46994692465F
:10052000044600F124080168880604D5E06921F03A
:100530001001216000E00120A84201DD471B00E01E
:100540000027A1697A1902EB0900081AA061207836
:10055000C00602D42046AFF30080002608E0D4E9AC
:1005600001211AF806009047206A401C761C206280
:100570004E45F4DB2078C0060AD52046AFF3008054
:1005800006E0D4E9012130209047206A401C206217
:10059000381EA7F10107F4DC07E0D4E9012118F8BF
:1005A00005009047206A401C2062281EA5F1010525
:1005B000F3DC2046AFF300802078000602D502204D
:1005C000BDE8F0870120FBE701694A1C0261087859
:1005D000704700B58FB0CDE9013100210591054983
:1005E0007944CDE9031011466846FFF771FE0FB05C
:1005F00000BD0000E5FFFFFF0A6802F8010B0A607A
:10060000704710B5436913B1AFF3008001E0FFF705
:10061000F9FD012010BD127800F124010A700022BA
:100620004A700122EDE711684FF0FF32E9E7000060
:10063000004870474C03002070477546FFF7F8FFED
:10064000AE4605006946534620F00700854618B0BF
:1006500020B5FFF7AFFDBDE820404FF000064FF09A
:1006600000074FF000084FF0000B21F00701AC46E7
:10067000ACE8C009ACE8C009ACE8C009ACE8C00906
:100680008D46704710B50446AFF300802046BDE8A4
:100690001040FFF77ABD000001491820ABBEFEE70D
:1006A0002600020070B5044600688168C943C90786
:1006B00017D1816821F00101816000F089FA0546B7
:1006C0000AE000BF00F084FA401B022804D9206829
:1006D0008068C043C00706D020688068C043C00758
:1006E000F0D0002070BDA06A40F01000A062E06A67
:1006F00040F00100E062012070BDFEE7704700009D
:10070000F8B50024009490F824202546012A12D040
:10071000012280F824204A681F23072A0DD2066888
:10072000776B521E02EB820293409F430B6893400B
:100730001F43776319E00220F8BD06680D2A0AD22C
:10074000376BD21F02EB820293409F430B689340AA
:100750001F43376309E0F76A0D3A02EB82029340C8
:100760009F430B6893401F43F7620A68072306689C
:100770000A2A0AD3F7680A3A02EB420293409F43DF
:100780008B6893401F43F76008E0376902EB420231
:1007900093409F438B6893401F4337610A68102A38
:1007A00001D0112A20D1124B02689A4217D19368C6
:1007B0001B0219D4936843F400039360096810295D
:1007C00012D10C490C4A0968B1FBF2F101EB81012D
:1007D000490000E0491E00910029FBD104E0816A34
:1007E00041F020018162012480F824502046F8BDA8
:1007F000002401400C00002040420F002DE9F04190
:100800004FF0000704003D467ED0A06A002628B9BC
:10081000E66284F82460204600F07EF82046FFF768
:1008200041FFA16AC90600D420B1A06A40F01000BF
:10083000A06269E0A16A21F4885141F00201A1623D
:100840006268E169237B0A4347EA43010A43A168DE
:100850004FF48077B94209D0012907D05FF0000139
:1008600094F814C0BCF1010F02D00AE03946F7E752
:10087000F3B1A36A43F02003A362E36A43F00103E8
:10088000E3622368D3F804C02CF4694C4CEA010CF1
:10089000C3F804C021688B68DFF870C003EA0C035A
:1008A00013438B60A168B9420BD0012909D00CE039
:1008B000DFF85CC0A3690CEB43330B4343F40061E6
:1008C000DFE7218A0D05A5F580152168CB6A23F4A1
:1008D00070032B43CB62216889680E4B194091420B
:1008E00008D1E662A16A21F0020141F00101A16292
:1008F000BDE8F081A06A20F0020040F01000A06284
:10090000E06A40F00100E0620120F1E7FDF7E1FF5D
:1009100000E0FFFFFE0E1FFF30B585B00021009103
:10092000019102910391214B02682149032421483E
:1009300002259A4220D18A6942F400728A618A694A
:1009400002F4007204928A6942F004028A618A69A0
:1009500002F0040204928A6942F008028A618969FD
:1009600001F0080104910121CDE90014694600F06D
:1009700039F86946104813E0104B9A4214D18A693D
:1009800042F480628A618A6902F4806204928A6910
:1009900042F004028A61896901F004010491694608
:1009A000CDE9005400F01EF805B030BD0024014030
:1009B0000010024000080140000C014000280140E6
:1009C00070B5044600F004F90546601C02D00448E6
:1009D0000078044400F0FCF8401BA042FAD370BD3C
:1009E000000000202DE9F84FDFF8B8910024A9F1AC
:1009F000040B23460F2709F1040AABF1040EC9E0EA
:100A00000125A5402A40AA427DD1674ED1F804C0F5
:100A1000ACEB0608B44532D014DCBCF1030F3AD07D
:100A200009DCBCF1000F2AD0BCF1010F1CD0BCF1D5
:100A3000020F31D11DE0BCF1110F17D0BCF1120F24
:100A40002AD119E0B8F5881F19D006DCB8F5803F27
:100A500015D0B8F5801F1FD111E0B8F5001F0ED0DA
:100A6000B8F5041F18D10AE0CB6815E0CB681B1D50
:100A700012E0CB6808330FE0CB680C330CE08B68D6
:100A80002BB1012B4FF0080303D0456104E0042390
:100A900002E0056100E00023FF2A01D8064601E0DC
:100AA00000F104064FEA840501D9A5F12005D6F826
:100AB000008007FA05FC28EA0C0803FA05F548EA65
:100AC0000508C6F800804D68ED0062D5374DAE6967
:100AD00046F00106AE61AD6924F0030605F001059C
:100AE0000095334D06EB050CDCF80850A607360FD1
:100AF00007FA06F825EA0805DFF8B880404503D173
:100B00004FF0000817E044E0DFF8AC80404502D128
:100B10004FF001080FE0DFF8A480404502D14FF00C
:100B2000020808E0DFF89880404502D14FF0030842
:100B300001E04FF0040808FA06F848EA0508CCF886
:100B400008804D68D9F80060ED024D4601D5164386
:100B500000E096432E604D68DAF80060AD0255461D
:100B600001D5164300E096432E604D68DBF8006027
:100B7000AD035D4601D5164300E096432E604D68F7
:100B8000DEF80060ED03754601D5164300E096439C
:100B90002E60641C0D682A46E5407FF431AFBDE845
:100BA000F88F0000080401400000111000100240FE
:100BB0000000014000080140000C0140001001400D
:100BC000001401400AB1016170470904FBE700000D
:100BD00001488068704700000000002070B50400E4
:100BE00025D094F83D00002520B984F83C502046DB
:100BF00000F04EF9242084F83D002068016821F0BF
:100C0000010101602068016841F400410160206831
:100C1000016821F40041016000F01CFB4D4A61684D
:100C2000914201D84C4900E04C49884201D2012050
:100C300070BD4B492368B0FBF1F15E6826F03F06BA
:100C40000E435E606368934206D94FF4967359432E
:100C50004FF47A73B1FBF3F12368491C1E6A26F046
:100C60003F06314319626168914210D84900401E25
:100C7000B0FBF1F2521CC2F30B02042A01D2042091
:100C800022E0B0FBF1F0401CC0F30B001CE0A268B6
:100C9000F2B301EBC10303EB0116431EB3FBF6F302
:100CA0005B1C43F480431B0549D092B301EBC102A6
:100CB00002EB0111401EB0FBF1F0401CC0F30B0031
:100CC00040F4804040F400402168CA694CF6FF734C
:100CD0009A431043C861D4E90710014320680268B1
:100CE00022F0C00211430160D4E9030101432068EE
:100CF000826848F2FF339A4311438160D4E90501C9
:100D000008432168CA6822F0FF021043C86001E06E
:100D10000EE016E02068016841F0010101602564E1
:100D2000202084F83D00256384F83E50002070BDEB
:100D300001EB4106431EB3FBF6F35B1CB3E7012056
:100D4000C2E701EB4101401EB0FBF1F0401CC0F3D3
:100D50000B00B7E7A086010080841E0000093D005B
:100D600040420F002DE9F84F1F4690468A46044640
:100D7000DDF82890FFF72CFF054694F83D00202869
:100D80007FD11923012240492046009501F0A2F8A5
:100D9000002876D194F83C00012872D0012084F814
:100DA0003C0020680168C90703D1016841F00101D6
:100DB00001602068016821F400610160212084F84D
:100DC0003D00102084F83E0000262664C4F82480EC
:100DD0006785608D20852D48E0622B464A46514646
:100DE000204600F0FDFF90B92068416980690090BD
:100DF00036E02A464946204601F012F950B1206CEF
:100E0000042804D12068016841F4007101600120C8
:100E1000BDE8F88F606A216800780861606A401C4C
:100E20006062618D491E6185218D491E89B22185CF
:100E300022685369DB435B070BD451B10078106122
:100E4000606A401C6062608D401E6085208D401E7F
:100E500020852A464946204601F010F80028CED1C8
:100E6000208D0028C5D154F83D0B016841F4007174
:100E70000160202004F81E09E67766770020C7E7A6
:100E8000FFE70220C4E70000020010000000FFFF9F
:100E900030B585B0002100910191029103911E4D62
:100EA00003681E4C122103221D48AB4216D1A369D0
:100EB00043F00803A361A369039203F008030493BA
:100EC000C023CDE900316946FFF78CFDE06940F4AD
:100ED0000010E061E06900F4001019E0114DAB4230
:100EE00017D1A36943F00803A361A369039203F038
:100EF000080304934FF44063CDE900316946FFF7DE
:100F000071FDE06940F48000E061E06900F4800078
:100F1000049005B030BD00000054004000100240B5
:100F2000000C0140005800400248816802781144DA
:100F30008160704700000020074810B5016841F04B
:100F400010010160032000F067F80F2000F006F8A0
:100F500000F024F8002010BD0020024070B50D4DB7
:100F600004464FF47A712878B1FBF0F00A49096819
:100F7000B1FBF0F000F031FE48B9102C07D200228E
:100F80002146501E00F028F800206C6070BD012042
:100F900070BD0000000000200C0000200C4808B5C7
:100FA000816941F001018161816901F001010091D4
:100FB000C16941F08051C161C06900F0805000906A
:100FC0000448416821F0E06141F00071416008BDD2
:100FD0000010024000000140F0B40E4B1B680C46AC
:100FE000C3F30223C3F10705042D00D90425191DFD
:100FF000072901D2002300E0DB1E012606FA05F1D5
:10100000491E214099409E40761E16403143F0BC57
:1010100001F0CDBC0CED00E0064900F007020868C5
:101020004FF6FF03184040EA0220034A10430860CD
:10103000704700000CED00E00000FA052DE9F843D0
:1010400005460078354CC00754D0E0690026C00042
:1010500008D4E06940F08050E061E069012600F0CA
:10106000805000902E480168C90512D4016880465E
:1010700041F480710160FFF7ABFD074605E000BF5A
:10108000FFF7A6FDC01B642823D8D8F80000C005D0
:10109000F6D5206A10F4407021D0A98801F440717F
:1010A00081421CD0206A1F49012220F440700A604E
:1010B00000220A602062C00711D0FFF789FD0746B1
:1010C00041F2883808E000BFFFF782FDC11B4145AF
:1010D00002D90320BDE8F883206A8007F4D5206A8E
:1010E000696820F44070084320621EB1E06920F076
:1010F0008050E0612878800705D56068A96820F4F1
:101100004040084360602878C00605D56068E968FB
:1011100020F48000084360600020DBE700100240FC
:1011200000700040400442422DE9F0470F460500A0
:1011300061D0434E306800F00700B84209D23068F1
:1011400020F0070038433060306800F00700B842F4
:1011500051D128683B4C810712D5400703D5606800
:1011600040F4E06060602878000703D5606840F4D0
:10117000605060606068A96820F0F000084360601B
:101180002878C00728D06868012810D02168022874
:1011900010D0890700292EDA616821F0030101438C
:1011A0006160FFF715FD804641F288390DE0216846
:1011B0008903EFE78901EDE7FFF70AFDA0EB0801DE
:1011C000494502D90320BDE8F0876068696800F0EE
:1011D0000C00B0EB810FEFD1306800F00700B8428F
:1011E0000BD9306820F0070038433060306800F0D9
:1011F0000700B84201D00120E5E72878400705D56F
:101200006068E96820F4E0600843606028780007BF
:1012100006D56068296920F4605040EAC10060602A
:1012200000F038F86168084AC1F30311515CC84006
:101230000649086006480068FFF790FE0020C2E7F4
:1012400000200240001002403A3200080C0000204A
:10125000040000200448054900684968044AC1F3B5
:101260000221515CC84070470C0000200010024071
:101270004A3200080448054900684968044AC1F335
:10128000C221515CC84070470C0000200010024091
:101290004A3200080E4A51680E4801F00C03042B34
:1012A00011D0082B0FD10C48C1F38343C903C05C94
:1012B0000AD55168084AC1F34041921E515C054A63
:1012C0005043B0FBF1F070470449484370470000B9
:1012D0000010024000127A002A32000800093D0086
:1012E0002DE9F84F040070D02078C04DC00749D0D8
:1012F0006868C0F38100012807D06868C0F38100E6
:10130000022809D16868C00306D52868800339D54A
:1013100060680028E7D035E06068B0F5803F0BD00A
:1013200010B1B0F5A02F11D0286820F480302860CB
:10133000286820F4802002E0286840F4803028608B
:10134000606890B1FFF744FC06460AE0286840F464
:1013500080202860F0E700BFFFF73AFC801B64287C
:1013600073D828688003F7D50CE0FFF731FC0646F8
:1013700005E000BFFFF72CFC801B6428F0D828682C
:101380008003F7D420789A4E80074FF001094FF080
:10139000000839D5686810F00C0F07D06868C0F3F2
:1013A0008100022809D16868C00306D42868800734
:1013B00014D52069012808D110E02069B0B1C6F821
:1013C0000090FFF705FC074605E00AE1FFF700FC87
:1013D000C01B0228C4D828688007F7D5286861692F
:1013E00020F0F80040EAC10028600DE0C6F8008057
:1013F000FFF7EEFB074604E0FFF7EAFBC01B0228FD
:1014000023D828688007F7D4207800072CD579489E
:10141000A169D9B1C0F80090FFF7DAFB074604E0F4
:10142000FFF7D6FBC01B02280FD8686A8007F7D5E4
:1014300071484FF4FA510068B0FBF1F0009000BF22
:101440000098411E0091FAD20EE080E0C0F80080C2
:10145000FFF7BEFB074604E0FFF7BAFBC01B0228FC
:1014600075D8686A8007F7D42078400760D5E869A6
:101470000027C00008D4E86940F08050E861E869BE
:10148000012700F0805000905C480168C90513D422
:101490000168834641F480710160FFF799FB824641
:1014A00006E000BFFFF794FBA0EB0A0064284ED8CB
:1014B000DBF80000C005F5D5E06801280AD008B1C6
:1014C000052813D0286A20F001002862286A20F03D
:1014D000040002E0286A40F001002862E06841F25E
:1014E000883B98B1FFF774FB82460BE0286A40F016
:1014F00004002862EEE700BFFFF76AFBA0EB0A01D9
:1015000059455AD8286A8007F6D50CE0FFF760FBEA
:10151000824605E0FFF75CFBA0EB0A0159454CD879
:10152000286A8007F6D41FB1E86920F08050E8618E
:10153000E06988B36968C1F38101022944D00228B7
:10154000C6F8608004D0FFF743FB044638E034E07F
:10155000FFF73EFB074604E0FFF73AFBC01B0228FB
:101560002BD828688001F7D4206AB0F5803F05D1D8
:101570006868A16820F4003008436860D4E9080175
:101580000843696821F4741108436860C6F86090E4
:10159000FFF71EFB044606E025E000BFFFF718FB3F
:1015A000001B022809D828688001F7D51BE000BF7E
:1015B000FFF70EFB001B022802D90320BDE8F88FBD
:1015C00028688001F4D40EE00128F7D06868226A08
:1015D00000F48031914204D1616A00F470108842B5
:1015E00001D00120EAE70020E8E7000000100240F7
:1015F00000004242800442420C0000200070004083
:1016000090F85100704770B5040009D0606A002559
:1016100040B125616561A56294F8510040B10CE0CC
:10162000012070BD6068B0F5827FF4D0E561F2E71B
:1016300084F85050204600F03FF8022084F8510012
:101640002068016821F040010160A088218900F430
:10165000827001F404410843A18901F40061084348
:10166000217C01F002010843217D01F001010843C2
:10167000218B01F400710843217F01F038010843F8
:1016800094F8201001F080010843218D01F40051ED
:10169000084321680860A069042101EA104021681C
:1016A00048602068C16921F40061C161656501205D
:1016B00084F85100002070BD30B585B0002400943E
:1016C00001940294039400681449884223D1144879
:1016D000816941F480518161816901F480510491F3
:1016E000816941F00401816180690E4D00F00400C0
:1016F0000490A020009002200190032003906946EE
:101700002846FFF76FF94020CDE9000469462846D6
:101710000294FFF767F905B030BD000000300140CA
:1017200000100240000801402DE9F84F044690F8EF
:101730005100984616460F460025012801D0022583
:1017400098E060684FF0040BB0F5827F01D1A0688B
:10175000F8B194F85000012826D04FF0010984F820
:101760005090FFF735FA8246002F7FD0002E7DD0B3
:1017700084F851B000206065A763A687E6872063E0
:10178000A086E08620646064A068B0F5004F0DD0AC
:1017900016E084F851B013460A462046CDF8008082
:1017A00000F024F9BDE8F88F0220FBE7206801680B
:1017B00021F0400101602068016821F4804101604E
:1017C00020680168490603D4016841F040010160C6
:1017D000E068D8B13BE020688168C90709D0007B88
:1017E000A16B0870A06B401CA063E08F401EE087D7
:1017F0000CE0FFF7EDF9A0EB0A01414503D3B8F186
:10180000FF3F03D006E0B8F1000F03D0E08F0028BF
:10181000E1D11FE003252BE020688168C90709D0CA
:10182000C068A16B0880A06B801CA063E08F401E85
:10183000E0870CE0FFF7CCF9A0EB0A01414503D3A8
:10184000B8F1FF3F03D0E5E7B8F1000FE2D0E08F39
:101850000028E1D152464146204600F034FF08B14D
:1018600020206065606D00E000E008B1012501E026
:1018700084F85190002084F85000284692E72DE922
:10188000F84F044690F850000026984615468A46C0
:1018900001280CD0012784F85070FFF799F9814690
:1018A00094F85100B346012804D002269AE00220A1
:1018B000BDE8F88FBAF1000F6FD0002D6DD0032076
:1018C00084F85100C4F854B0C4F830A0A586E58669
:1018D000C4F838B0A4F83CB0A4F83EB0C4F844B0A2
:1018E000C4F840B0A068B0F5004F09D12068016885
:1018F00021F0400101602068016841F480410160ED
:1019000020680168490603D4016841F04001016084
:10191000E068B0F5006F606803D058B3012D29D09E
:1019200049E008B1012D1FD1206B21680088C860F3
:1019300006E020688168890709D5216B0988C160A4
:10194000206B801C2063E08E401EE0860CE0FFF7D9
:101950003FF9A0EB0901414503D3B8F1FF3F03D0A4
:1019600006E0B8F1000F03D0E08E0028E1D125E0B9
:10197000032635E0206B21680078087306E02068B4
:10198000816889070AD5216B09780173206B401C97
:101990002063E08E401EE0860DE01FE0FFF718F99F
:1019A000A0EB0901414503D3B8F1FF3F03D0DFE7C6
:1019B000B8F1000FDCD0E08E0028E0D14A46414665
:1019C000204600F0AEFE08B120206065A06818B97E
:1019D0002068C16880680090606D08B1012601E050
:1019E00084F8517084F850B0304661E72DE9FF4F1C
:1019F00081B0044690F8500000260E9F1D46934685
:101A00004FF0010901280FD04FF0010A84F850A0CF
:101A1000FFF7DEF8804694F85100616801280DD088
:101A2000B1F5827F08D103E0022005B0BDE8F08F58
:101A3000A16809B9042801D00226C9E0029800284B
:101A400065D0BBF1000FFBD0002DF9D094F8510008
:101A5000042802D0052084F8510000206065C4F8F5
:101A600038B0E587A58702992163E586A5862064BD
:101A7000606420680168490603D4016841F04001B0
:101A80000160E068B0F5006F606803D0F0B3012D2D
:101A900047D081E008B1012D3CD1206B216800883E
:101AA000C860206B801C2063E08E401EE08631E021
:101AB0002068816889070FD5E18E69B1B9F1010FFE
:101AC0000AD1216B0988C160206B801C2063E08EE5
:101AD000401EE0864FF0000920688168C9070CD0DD
:101AE000E18F51B1C068A16B0880A06B801CA0631E
:101AF000E08F401EE0874FF00109FFF769F8A0EB87
:101B00000800B84206D3781C04D001E009E05BE08D
:101B100003265BE0E08E0028CAD1E08F0028C7D101
:101B200040E0206B216800780873206B401C206324
:101B3000E08E401EE0862FE02068816889070FD57F
:101B4000E18E69B1B9F1010F0AD1216B09780173F6
:101B5000206B401C2063E08E401EE0864FF00009A1
:101B600020688168C9070CD0E18F51B1C068A16BB2
:101B70000870A06B401CA063E08F401EE0874FF010
:101B80000109FFF725F8A0EB0800B84202D3781C42
:101B900002D0BAE7002FB8D0E08E0028CCD1E08F79
:101BA0000028C9D142463946204600F0BAFD18B196
:101BB0000126202060650BE0A06818B92068C16884
:101BC00080680090606D08B1012601E084F851A0A2
:101BD000002084F85000304627E710B5401EB0F1D1
:101BE000807F01D3012010BD4FF0E02460610F2100
:101BF000601700F0DCFE0020A061072020610020BB
:101C000010BD70B5040004D094F84100002510B157
:101C100006E0012070BD84F84050204600F024F812
:101C2000242084F841002068C16821F40051C1607B
:101C3000204600F023FE2068016921F490410161F3
:101C40002068416921F02A0141612068C16841F49E
:101C50000051C1606564202084F8410084F842008E
:101C60006563002070BD000070B586B0002400944C
:101C7000019402940394234E036823490220032213
:101C8000224DB34219D18B6943F480438B618B6938
:101C900003F4804304938B6943F004038B618969E7
:101CA000039201F0040104910102CDE9001069469C
:101CB0002846FEF797FE28151BE0154EB3421FD1AC
:101CC000CB6943F40033CB61CB6903F40033049355
:101CD0008B6943F004038B618969039201F004016D
:101CE00004910421CDE9001069462846FEF77AFEEA
:101CF0000820CDE90004694628460294FEF772FEEA
:101D000006B070BD003801400010024000080140DC
:101D1000004400402DE9F843044690F841001F4676
:101D200016460D46202802D00220BDE8F8837DB17A
:101D300076B100206064212084F84100FEF748FF5E
:101D4000A6848046E684A068B0F5805F02D003E0F8
:101D50000120EAE7206910B12E4600250EE000269A
:101D60000CE08021204600F0E5FDA0B9AEB116F8E8
:101D7000010B21684860E08C401EE084E08C434603
:101D80004FF0000200970028EBD14FF040012046B1
:101D900000F0D0FD30B10320C7E735F8020BC0F3E7
:101DA0000800E6E7202084F841000020BDE7FEE7B8
:101DB00001684A69D24352050FD46FF480624A61C8
:101DC000002140F8301F202242738173026942F0E3
:101DD0000402026101730120704700207047000077
:101DE000F8B50446C06A1E460D461746082807D0B7
:101DF000012805D010F5803F02D0206B122804D1B5
:101E00002068016841F480710160134600224FF0A0
:101E100001112046009600F05DF840B1206800688E
:101E2000C00502D54FF4007020640320F8BD20697E
:101E3000B0F5804F0ED00620216800EAD51040F0A2
:101E4000F000086133463A460B49204600F08AF814
:101E500078B902E005F0FE0000E0E8B22168086110
:101E6000054933463A46891F204600F07BF8002892
:101E7000DCD00120F8BD00000800010070B5164656
:101E80000D4604461EE02046FFF792FF08B10120F0
:101E900070BD681C16D0FEF79BFE801BA84200D8C0
:101EA00085B920684069C04340070BD5002044F83D
:101EB000300F20216173A073216941F0200121615D
:101EC0002073E4E720684069C0434007DBD400206A
:101ED00070BD00002DE9F047984617460D460446B0
:101EE000C1F30746DDF820902AE000BFB8F1FF3FBC
:101EF00026D0FEF76DFEA0EB0901414502D8B8F1EE
:101F0000000F1DD12068012E16D0806925EA00003F
:101F10000004000C12D00020B84211D1002044F877
:101F2000300F20216173A073216941F020012161EC
:101F300020730120BDE8F0874069E7E70120EBE767
:101F40002068012E0AD0806925EA00000004000CF8
:101F500006D00020B842C9D00020EBE74069F3E783
:101F60000120F7E72DE9F047984616460D4604464E
:101F70004FF000094FF0200AC1F3074723E0206823
:101F80004069C043400515D42068016841F40071E0
:101F9000016021686FF480604861C4F8309084F873
:101FA0003DA084F83E90216C41F00401216484F846
:101FB0003C9021E0701C06D0FEF70AFEA0EB080062
:101FC000B04203D816B1012F1FD021E02068012FA5
:101FD00015D0806925EA00000004000C18D000BF6D
:101FE00044F8309F84F80DA084F80E90216941F0E8
:101FF0002001216184F80C900120BDE8F087406940
:1020000025EA00000004000CEAD12068406901E0E4
:102010002068806925EA00000004000CAFD1ECE7DD
:1020200070B516460D4604461EE02046FFF7C0FE7A
:1020300008B1012070BD681C16D0FEF7C9FD801BD9
:10204000A84200D885B920684069C04300060BD576
:10205000002044F8300F20216173A073216941F002
:10206000200121612073E4E720684069C043000635
:10207000DBD4002070BDF8B5044641F080008DF837
:10208000000017461E46A18800222068FEF79AFD30
:102090004FF4FA652B4601226946A069FFF7EFFB72
:1020A000A069FFF7ADFA0128FAD12B46324639462E
:1020B000A069FFF7E4FBA069FFF7A2FA0128FAD1B3
:1020C000A18801222068FEF77DFDF8BD70B50C46A1
:1020D0000546012100F09FF8024644B1012C0BD0C7
:1020E000032C0FD0052C13D0062C17D01BE000209A
:1020F00002F0F802E86116E0012002F0F802521C3A
:10210000E86110E0032002F0F802D21CE8610AE066
:10211000052002F0F802521DE86104E0062002F0FA
:10212000F802921DE8612846BDE87040012100F0E8
:10213000BAB970B504460021FFF7C8FF0A20FEF7C0
:102140003FFC0121204600F066F805460A20FEF714
:1021500037FC45F080020121204600F0A4F96420FC
:10216000FEF72EFC2046216A00F0CAF894F82A10E7
:10217000204600F019F994F82B10204600F0F5F8ED
:1021800023220C21204600F08EF9204600F036F97B
:1021900094F82410204600F011F9FF221F21204658
:1021A00000F081F994F8250094F82610000100EB66
:1021B0004100C2B21D21204600F075F9204600F012
:1021C00079F8208D2021020A204600F06CF994F85D
:1021D00028202121204600F066F94021204600F009
:1021E0001AF840F03F024021204600F05CF901213E
:1021F0002046FFF76BFF0120E0610A20FEF7E0FBBD
:102200004221204600F007F8122802D04FF4CA708D
:1022100070BDC82070BD0EB501F07F018DF80810AB
:1022200001210A46009101AB02A900F003F89DF8D4
:1022300004000EBD2DE9F0470E4615460446818880
:102240009846DDF8209000680022FEF7BBFC4FF4B2
:10225000FA673B462A463146A069FFF710FBA069A2
:10226000FFF7CEF90128FAD13B464A464146A0691C
:10227000FFF75AFAA069FFF7C3F90128FAD1A1883C
:102280002068BDE8F0470122FEF79CBC10B504466B
:10229000818980680022FEF795FC0120FEF790FB03
:1022A000A1890122A068FEF78DFCBDE810406420E2
:1022B000FEF786BB10B594B0044650220F4968461D
:1022C000FEF7CDF894F824100120884000F041FF7B
:1022D00094F825206B4603EBC203D3E9002300F0FA
:1022E000B1FD00F007FF102801DD012100E0002111
:1022F000204600F025F814B010BD00005832000848
:1023000070B50546C8044411C4F3074206212846A7
:1023100000F0C9F80520FEF753FBC4F3072207219C
:10232000284600F0C0F80520FEF74AFBE2B208217B
:10233000284600F0B8F8BDE870400520FEF740BB25
:1023400070B50C4605462621FFF765FF14B140F035
:10235000080201E000F0F7022621284600F0A3F869
:10236000BDE870400A20FEF72BBB10B52D2901D225
:102370002D2105E0F02901D9F02106E0782904D8C3
:1023800005222D3991FBF2F103E00A221E31B1FB47
:10239000F2F1C9B22031CAB20B2100F084F8BDE8D5
:1023A00010400A20FEF70CBB10B50A46092100F0C8
:1023B0007AF8BDE810400A20FEF702BB70B50C4663
:1023C00006460C2901DD0C2402E0072C00DA072464
:1023D0001E21FFF720FF05460A20FEF7F1FA64F3FD
:1023E0001F15EAB21E21304600F05DF80A20FEF704
:1023F000E7FA3046BDE87040FFF75CBF10B5044611
:102400001E21FFF708FF40F007021E21204600F0C2
:102410004AF8BDE810400A20FEF7D2BA0521FFF7BE
:1024200055BE2DE9F0410F461C4616468046012157
:10243000C569FFF74BFE0E214046FFF7ECFE024652
:102440000D21404600F02FF832462221404600F090
:102450002AF833463A4600214046FFF70CFE032196
:102460004046FFF733FE12214046FFF7D4FE000737
:102470000BD5FF221221404600F015F829464046B0
:10248000FFF724FE0120BDE8F081641E2404240C23
:1024900003D00120FEF794FAE5E729464046FFF70E
:1024A00015FE0020EFE70EB541F080018DF8081011
:1024B00001218DF804200A46009101AB02A900F029
:1024C00001F80EBD2DE9F0470E46154604468188F9
:1024D0009846DDF8209000680022FEF773FB4FF469
:1024E000FA673B462A463146A069FFF7C8F9A0695A
:1024F000FFF786F80128FAD13B464A464146A069D3
:10250000FFF7BDF9A069FFF77BF80128FAD1A18890
:102510002068BDE8F0470122FEF754BB3EB5002419
:1025200010480094019402940D4984600160047382
:102530000475012505614FF460214460C161FEF717
:102540005DF908B172B6FEE7CDE900456946054878
:102550000294FEF7D5F8002801D072B6FEE73EBD22
:1025600000240140100000203EB5002410480094D3
:10257000019402940D49846001600473047501257F
:1025800005614FF460214460C161FEF737F908B17D
:1025900072B6FEE70095CDE9015469460448FEF79E
:1025A000AFF8002801D072B6FEE73EBD002801401A
:1025B000400000202DE9F04186B000242B48009413
:1025C000019402940394816941F020018161816941
:1025D00001F020010491816941F004018161816968
:1025E00001F004010491816941F008018161806971
:1025F0001F4F00F008000490012210213846FEF71A
:10260000E1FADFF87080012211464046FEF7DAFA5F
:1026100000224FF460414046FEF7D4FA0022B9157B
:102620003846FEF7CFFA4FF4887001250226CDE92F
:102630000005CDE9024669463846FEF7D3F94EF269
:102640000100CDE90005CDE9024669464046FEF7A6
:10265000C9F9042000900848CDE9010469464046C4
:10266000FEF7C0F906B0BDE8F0810000001002409E
:1026700000080140000C0140000011100F4810B587
:102680000D4901604FF48271416000218160C16099
:102690004FF400720161C0E905121022C0E9072160
:1026A000416281620A21C162FEF7ADFF002801D0BC
:1026B00072B6FEE710BD0000003001401801002096
:1026C000FEE7FEE77047F8B5044640684FF48273B2
:1026D000984217D1A0684FF48065B0F5004F01D043
:1026E000A8420FD12068066826F0400606606068A0
:1026F000984207D1A068A84204D100920B4600225C
:10270000012103E000920B4600228021204600F0C8
:1027100019F8002804D0606D40F0200060650320A7
:10272000F8BD38B50B46009204460022802100F027
:1027300009F8002804D0606D40F020006065032097
:1027400038BD00002DE9F8431E46914688460446F0
:10275000089DFEF73DFA401B351AFEF739FA074689
:1027600025480068C0F3CB30684338E0701C37D090
:10277000FEF72EFAC01BA84203D215B1009860B331
:102780002CE02068416821F0E00141606068B0F50C
:10279000827F0BD1A068B0F5004F02D0B0F5806FFA
:1027A00004D12068016821F040010160A06AB0F501
:1027B000005F09D12068016821F4005101602068A0
:1027C000016841F400510160012084F851000020AB
:1027D00084F850000320BDE8F8830025401E0090D7
:1027E0002068816838EA010004D000214945BDD144
:1027F0000020F0E70121F9E70C0000207047FEF708
:1028000093BB30B593B028216846FDF75AFE1421DA
:102810000AA8FDF756FE002501200F951095119589
:10282000010412958DE8230004904FF4E010CDE9E7
:102830000810022407946846FEF752FD08B172B6EC
:10284000FEE70AA90F2081E831004FF48060CDE94E
:102850000D0502210AA8FEF767FC08B172B6FEE773
:102860004FF4404011900F940FA8FEF7E7FB0028AB
:1028700001D072B6FEE713B030BD704770B50446A4
:1028800000680169E26821F4405111430161216946
:10289000A0680843616908432168CA6841F20C6373
:1028A0009A430243CA6020684169A26921F44071D9
:1028B000114341611E492068884202D1FEF7DAFCCB
:1028C00001E0FEF7C7FC00EBC00101EB00126068FD
:1028D00064218000B2FBF0F3B3FBF1F36FF0180654
:1028E0007343B2FBF0F5B2FBF0F605EB8305322340
:1028F00003EB0515B5FBF1F5B6FBF1F605F0F005B8
:1029000005EB0615B2FBF0F6B2FBF0F0B0FBF1F010
:102910006FF01802504306EB800003EB0010B0FB91
:10292000F1F0216800F00F002844886070BD0000BD
:10293000003801402DE9F041984617460E460446FE
:10294000069D27E0681C25D02DB1FEF741F9A0EBCC
:102950000800A8421ED920680C3050E8001F21F45E
:10296000D07140E80012002AF5D12068143050E8F8
:10297000001F21F0010140E80012002AF5D12020BB
:1029800084F8410084F84200002084F840000320CD
:10299000BDE8F0812068006836EA000004D000201D
:1029A000B842CFD00020F3E70120F9E7FEE709079E
:1029B000090E002804DB00F1E02080F800147047C5
:1029C00000F00F0000F1E02080F8141D704730384F
:1029D0000A2801D201207047002070472DE9F84FE6
:1029E00004460022544D1046A118A85408710875D9
:1029F00081F8300081F83A0081F8440081F84E00F7
:102A0000521C81F85C000A2AEEDB4CA1201D2268D2
:102A1000FDF7E2FB04F1140048A183462269FDF7AB
:102A2000DBFB04F1300045A18246226AFDF7D4FBAE
:102A300004F13A0041A18146626AFDF7CDFB04F141
:102A400044003EA18046A26AFDF7C6FB04F14E0099
:102A50003AA10746E26AFDF7BFFB04F15C0037A12B
:102A60000646A26DFDF7B8FB35A13348FDF7EBFC38
:102A7000211D3148FDF7E7FC34A12F48FDF7E3FCA9
:102A800033A12D48FDF7DFFC59462B48FDF7DBFC51
:102A90002EA12948FDF7D7FC2FA12748FDF7D3FC2D
:102AA00051462548FDF7CFFC28A12348FDF7CBFC74
:102AB0002BA12148FDF7C7FC49461F48FDF7C3FC81
:102AC00022A11D48FDF7BFFC27A11B48FDF7BBFC59
:102AD00041461948FDF7B7FC1CA11748FDF7B3FCA8
:102AE00024A11548FDF7AFFC39461348FDF7ABFCB0
:102AF00016A11148FDF7A7FC21A10F48FDF7A3FC83
:102B000031460D48FDF79FFC1FA10B48FDF79BFCCC
:102B10001EA10948FDF797FC002408E08DF800008D
:102B200001231A4669461A48FFF7F4F8641C285D29
:102B30000028F3D1BDE8F88F800200202564000052
:102B40007B2254454D50223A22000000222C0000E6
:102B50002248554D223A2200225750223A220000A4
:102B6000225744223A2200002254656D704B69744A
:102B7000223A22002248756D4B6974223A220000E5
:102B80002251223A22000000227D00000A000000AB
:102B90007001002010B5332000F02AF8322000F038
:102BA00027F83220FDF70CFF282000F021F8322012
:102BB000FDF706FF012000F01BF83220FDF700FFB3
:102BC000062000F015F83220FDF7FAFE0C2000F088
:102BD0000FF83220FDF7F4FE022000F009F8322051
:102BE000FDF7EEFEBDE81040802000F001B80000C7
:102BF0001CB500F0F00141F00C028DF8042041F00A
:102C0000080100018DF8051040F00C018DF8061048
:102C100040F008008DF8070064200090042301AA0A
:102C20004E210248FEF79EF81CBD000070000020F7
:102C30008CB0FEF781F9FFF7E4FDFFF7BBFCFFF76F
:102C40001DFD5D485B494FF4E13500240160C0E99A
:102C500001544FF00C08C460C0E904488461C461A9
:102C6000FEF7CFFF08B172B6FEE7FFF757FCFFF79C
:102C70007BFC53485149534F0160C0E901740E1465
:102C8000C0E9034644618461C4610462FDF7A6FFA4
:102C900008B172B6FEE74A484B4954300160C0E9BA
:102CA0000174C0E9034644618461C4610462FDF7B4
:102CB00095FF08B172B6FEE73F48444948300160CD
:102CC000C0E90154C460C0E904488461C461FEF7EE
:102CD00098FF08B172B6FEE7684600F097F83648EC
:102CE0002C2269469030FDF7BAFB3349394A5839EE
:102CF00001F1E8008161364902C0102120F8041B6F
:102D0000012104C0018042600422028140F2B1121C
:102D100042610722027642768176FF21817778210F
:102D2000C1770A21818324489030FFF7AFFA224807
:102D30009030FFF7FEF9FFF72DFF1F489030FFF7A7
:102D40006DFB1D4824A1BC30FDF746FA1A48BC3083
:102D5000FDF75AFB184982B24FF47A742346BC310E
:102D60001548FEF7D7FF144823A1FC30FDF734FACD
:102D700065102348FFF732FE21492B46643964224F
:102D8000A1F18000FFF74DFB1D4A1EA1643AA2F19C
:102D90005400FDF721FA1A48B838FDF735FB1849F9
:102DA00082B22346B8390448FEF7B4FF2046FDF747
:102DB00007FEDEE7003801407001002000540040AB
:102DC00070000020A0860100005800400044004030
:102DD00000080140000C0140446F6E6520636F6E77
:102DE0006669677572696E67204C6F52614D6F64DA
:102DF000756C650D0A0000004C4F4F440000000048
:102E0000E402002025730D0A0000000000B58BB01D
:102E100040F2B111089107218DF824108DF825108A
:102E200001218DF82610FF218DF82A1064218DF8DC
:102E30002B100821ADF828102C226946FDF70FFB56
:102E40000BB000BD2DE9C04130B4DFF8A0C23CEAB0
:102E5000111418BF3CEA131400F0EC8081EA03055A
:102E60001CEA111444EAD57418BF1CEA131500F0CB
:102E7000C780A4EB05044FF0004545EAC12145EAAF
:102E8000C32341EA505143EA525304F17F749942FB
:102E900004F500344FEAC0204FEAC22208BF904236
:102EA00000F09C804FEA13650FF24016765D4FEA02
:102EB000134506FB05F7C7F1807706FB07F74FEAD6
:102EC000D737A7FB03687642C8F58038A7FB06CE44
:102ED00038BFA8F1010807FB08E64FF0000EA6FB7B
:102EE000028CE6FB03CEDCF1000CCEF1004E38BFC5
:102EF000AEF1010EA6FB0C584FF000074FF0000595
:102F0000E6FB0E87A1FB08C6A0FB07CE16EB0E065C
:102F100045F10005E1FB076515F1E04E7EBFA4F524
:102F200080345FEA46066D4116F1800745F10005E1
:102F30004FEA17274FEA066647EA0567A6F1DE461D
:102F4000B6F1805F4FEA15251FD9384624F0010CF1
:102F500005EBC471BCF1FE6F01EB0C1102D8F0BCA3
:102F6000BDE8008124425CBF01F5801E9EEAC47F5B
:102F700002D4F0BCBDE80081244238D4F0BCA1F1F9
:102F8000C041BDE8004100F049B94FEAD22242EA0F
:102F900043524FEAD323A7FB02864FEAD02040EAF0
:102FA000415007FB03661EEA0E0F4FEAD12105FBD5
:102FB000026658BFA6EB0056B6EB00564FEA520E1B
:102FC0004EEAC37E18EB0E0E56EB530EBDD518EB32
:102FD00002085E417F1C55F10005B6E74FF48015ED
:102FE0004FF000074FF000064FF00008ADE7F0BCCF
:102FF0004FF0000001F1C04101F00041BDE8008147
:1030000011EA0C1F0CEA131500D00CE013EA0C1F98
:1030100000F025804FF00000F0BC81EA030101F0D0
:103020000041BDE80081F0BCBDE8004181EA030138
:1030300000F0F4B8F0BCBDE8004170B500F0A0F8B5
:10304000097EFC3E00F007B881EA03014FF0000062
:1030500001F00041704781EA030100F0DFB8F0BCE5
:10306000BDE800414FF0000021497047FFFDFBF92A
:10307000F7F5F4F2F0EEEDEBE9E8E6E4E3E1E0DEAB
:10308000DDDBDAD8D7D5D4D3D1D0CFCDCCCBCAC81D
:10309000C7C6C5C4C2C1C0BFBEBDBCBBBAB9B8B744
:1030A000B6B5B4B3B2B1B0AFAEADACABAAA9A8A837
:1030B000A7A6A5A4A3A3A2A1A09F9F9E9D9C9C9B05
:1030C0009A999998979796959594939392919190B0
:1030D0008F8F8E8E8D8C8C8B8B8A89898888878741
:1030E0008685858484838382828181800000FF07B6
:1030F0000000F87F4FEA41034FEA5353A3F5806382
:10310000D3F11E03C8BFD3F1210C0CDD4FF00042F8
:1031100042EAC12242EA505232FA03FC8CEAE17CD4
:10312000ACEBE1707047102BC4BF0020704703F573
:10313000787CBCF1FF3F04D06FF0004282EA2100AE
:10314000704770B500F01CF8499224800020704749
:10315000F2E710F0004248BF4042B0FA80F310FAA4
:1031600003F10AD0C3F11D0303F580634FEA415018
:1031700002EB035202EBD12170474FF00000704781
:103180000EF1020E2EF0030E5EF8046B364205D4EB
:10319000012A43EB030515F5001F12D8012841EB66
:1031A000010C1CF5001F0CD80ED14FEAD17C15F58F
:1031B000001F0CEB4C0C0CF1020C08BF4CEBD37C49
:1031C00004E04FF0080C01E04FEAD37C0CEB4C0517
:1031D00026FA05F606F00706B6F1040C06D20EEB49
:1031E000860CBDE870404CF0010C6047DFE80CF045
:1031F000090B02024FF000414FF00000A1F5002141
:1032000070BD19461046012851EB010418BFD4F5D2
:10321000001484BF002001F0004170BD0808A0F533
:1032200000114FEA3101704701020203040506074D
:1032300008090A0B0C0D0E0F101000000000000012
:103240000000010203040607080900000000010253
:1032500003040000000000003333333333331F40D6
:10326000CDCCCCCCCCCC24403333333333332F4090
:10327000CDCCCCCCCCCC34400000000000403F4052
:103280009A99999999D944400000000000404F4014
:103290000000000000405F400000000000406F4060
:1032A0000000000000407F40040000080000000013
:1032B000000000020001000010000000DC320008E5
:1032C000000000201000000028010008EC32000877
:1032D00010000020A00900004401000801000000C7
:0C32E00010000000000000000024F400BA
:04000005080000ED02
:00000001FF
