:020000040800F2
:10000000A01F002059020008234E0008EB430008FF
:10001000214E000841260008395200080000000067
:10002000000000000000000000000000C101000806
:10003000432600080000000005020008594F000890
:1000400073020008730200087302000873020008BC
:1000500073020008730200087302000873020008AC
:10006000730200087302000873020008730200089C
:10007000730200087302000873020008730200088C
:10008000730200087302000873020008730200087C
:100090007302000873020008730200084D2600086E
:1000A000730200087302000873020008730200085C
:1000B0007302000873020008015000087302000870
:1000C000730200087302000873020008730200083C
:1000D000730200087302000873020008730200082C
:1000E00045260008730200087302000800F002F8B9
:1000F00000F057F80AA090E8000C82448344AAF16B
:100100000107DA4501D100F04CF8AFF2090EBAE868
:100110000F0013F0010F18BFFB1A43F0010318473B
:10012000448D0000648D0000103A24BF78C878C167
:10013000FAD8520724BF30C830C144BF04680C60ED
:10014000704700000023002400250026103A28BF35
:1001500078C1FBD8520728BF30C148BF0B60704739
:10016000662908F04585642900F09681732900F01E
:10017000D086002070471FB59DE8030000F0FCFB0F
:1001800001F0BEF904000020002107F0C9FC401C6A
:1001900060600020002107F0D9FCE0601FBD10B5B1
:1001A00010BD01F0D7FA1146FFF7E5FF05F0D0FBCF
:1001B00001F02AFD03B4FFF7F2FF03BC01F05AFD82
:1001C000224B19680868B0E8F00F80F30988BFF384
:1001D0006F8F4FF0000080F311884EF00D0E7047C6
:1001E0000000000006480068006880F3088862B6D6
:1001F00061B6BFF34F8FBFF36F8F00DF00BF00BF4B
:1002000008ED00E0EFF30980BFF36F8F0F4B1A6822
:1002100020E9F00F106008B54FF0500080F311880E
:10022000BFF34F8FBFF36F8F06F01EFF4FF000003C
:1002300080F31188BDE8084019680868B0E8F00F3D
:1002400080F30988BFF36F8F704700BF6400002000
:10025000EFF30580704700000948804709480047D0
:10026000FEE7FEE7FEE7FEE7FEE7FEE7FEE7FEE766
:10027000FEE7FEE704480549054A064B70470000C3
:10028000FD4F0008ED000008A0190020A01F00206D
:10029000A01B0020A01B002070B5064600F050FBFC
:1002A000056806F10B0020F00704B4429CBF002053
:1002B00070BD2B466A68BAB11068A04210D304F131
:1002C000080188423CBF5068586007D35168101934
:1002D00041601168091B016058601460101D70BDF9
:1002E00013465268002AE7D12146284600F030FB29
:1002F0000028DED170BD70B50446051F00F020FB5C
:100300000068002C14BF446870BD002C18BFAC42BC
:100310003CBF20466468F8D301680A18AA4218BF97
:10032000456003D12A6805461144016028684119D7
:10033000A1421CBF6C6070BD61686960216808449F
:10034000286070BD70B50D460646041F00F0F8FA2F
:10035000D0F800C0C5B1E6B105F10B0020F00703ED
:10036000AB423CBF002070BD2068984238BFDCF82B
:10037000042013D3C11A08292FD3E01840F8041B16
:100380002360FFF7B8FF28E03046FFF7B4FF0020F6
:1003900070BD2846BDE87040FFF77EBF002A18BF39
:1003A000A2423CBF94465268F8D30119914216D13B
:1003B00011680844984212D3C11A08293CBF206032
:1003C000506808D35168E0184160216812681144F0
:1003D000C91A01602360CCF80400201D70BD181FED
:1003E000FFF75AFF050007D021680A1F211D00F002
:1003F00002FA201DFFF77FFF284670BD10B50446A6
:1004000000F096FA0068005DC00602D504F12000F5
:1004100010BD204610BD00000FB41CB5084B06AA45
:100420007B4469460090059800F049FD0446002091
:10043000694600F057FD20461CBC5DF814FB000027
:10044000C10A000070B50C460546012A05D028787F
:10045000800600D5EA69002302E0012305E05B1C69
:10046000934202D2E05C0028F9D1A869E618C01ACC
:10047000A861286A184428622846AFF3008004E087
:10048000D5E9012114F8010B9047B442F8D328466E
:10049000AFF3008070BD00002DE9F0410646002456
:1004A00010687529314616A510D0AFF300800028DA
:1004B00002DA404213A507E031688A0701D512A588
:1004C00002E0490704D511A5012401E0AFF3008043
:1004D00000210A2206F1240709E0B0FBF2FCB0FB80
:1004E000F2F302FB1C00303078541846491C0028F7
:1004F000F3D123462A463046BDE8F04100F072BAF7
:10050000000000002D0000002B0000002000000073
:100510002DE9F05F894604464FF0000ADFF824B168
:10052000FB44C0F820A02046E168884700287DD021
:10053000252806D0D4E901219047206A401C20627A
:10054000F1E700255F462046E168884720280646F7
:1005500007DB312E05D2B81910F8200C08B105437D
:10056000F1E7A80701D525F00405C4F81CA0002771
:10057000C4F818A02A2E09D0304604F002FF38B380
:1005800004EB8708303EC8F8186019E059F8041BDE
:10059000204604EB87029161E1688847012F0646F7
:1005A00018D1E069002820DA25F020051DE0D8F8F0
:1005B000180000EB800006EB40003038C8F8180047
:1005C0002046E1688847064604F0DBFE0028EED1AD
:1005D000012F0AD02E2E08D12046E16888477F1CC3
:1005E0000646022F45F02005C4DBA069002803DA87
:1005F000404245F00105A061E80701D025F0100553
:10060000A6B1A6F14100192802D8203645F40065AC
:100610004A463146204625604D46FFF7A1FD60B1B0
:10062000012807D0ED1D25F0070000E007E000F1EC
:10063000080978E705F1040975E730467AE7206A8A
:10064000BDE8F09F84880000401ECAB210F8011F68
:100650008A4202D00029F9D10020704710B5431E0C
:1006600013F8014F002CFBD105E011F8014B002CD1
:1006700003F8014B03D0521EF7D20021197010BDB0
:1006800010B5431C02E010F8011B71B18107FAD1CB
:100690004FF0013202C88C1A8C4314EAC211F9D00F
:1006A000C01A0A0603D0C01E10BDC01A10BD0A042D
:1006B00001D0801E10BD0902FCD0401E10BD40EAD2
:1006C000010370B59B072ED14FF00136042A2AD3BF
:1006D00008C810C99D1B9D43121F15EAC61517D0E7
:1006E000D8B2E1B2401A50EA056110D198B2A1B275
:1006F000401A50EA05410AD123F07F4024F07F419F
:10070000401A50EA052102D1180EA0EB146070BD0A
:10071000A342DBD018BA21BA884201D9012070BDAA
:100720004FF0FF3070BD0AB9002070BD10F8013BDA
:1007300011F8014B63B1A3420AD1521E08D010F840
:10074000013B11F8014B1BB1A34201D1521EEDD167
:10075000181B70BD421E12F8013F002BFBD111F88F
:10076000013B002B02F8013BF9D17047032A40F20C
:10077000308010F0030C00F0158011F8013BBCF143
:10078000020F624498BF11F801CB00F8013B38BF5B
:1007900011F8013BA2F1040298BF00F801CB38BF69
:1007A00000F8013B11F0030300F02580083AC0F087
:1007B000088051F8043B083A51F804CBA0E808102F
:1007C000F5E7121D5CBF51F8043B40F8043BAFF362
:1007D0000080D20724BF11F8013B11F801CB48BFBC
:1007E00011F8012B24BF00F8013B00F801CB48BFF2
:1007F00000F8012B704710B5203AC0F00B80B1E82B
:100800001850203AA0E81850B1E81850A0E8185045
:10081000BFF4F5AF5FEA027C24BFB1E81850A0E84E
:10082000185044BF18C918C0BDE810405FEA827C68
:1008300024BF51F8043B40F8043B08BF7047D2077F
:1008400028BF31F8023B48BF11F8012B28BF20F820
:10085000023B48BF00F8012B70474FF0000200B583
:10086000134694469646203922BFA0E80C50A0E8D3
:100870000C50B1F12001BFF4F7AF090728BFA0E881
:100880000C5048BF0CC05DF804EB890028BF40F84D
:10089000042B08BF704748BF20F8022B11F0804F8F
:1008A00018BF00F8012B70474FF0013C50F8042BA3
:1008B00051F8043B9A4221D1A2EB0C03934313EA73
:1008C000CC1317D150F8042B51F8043B9A4215D1A0
:1008D000A2EB0C03934313EACC130BD150F8042B77
:1008E00051F8043B9A4209D1A2EB0C03934313EA5B
:1008F000CC13DBD04FF00000704700BFD01A01BA14
:10090000B1FA81F101F0180122FA01F0CB40C1F1F6
:100910002001DBB2C0B2C01A2CFA01F3D11A914304
:1009200011EAC311E6D17047704770477047000065
:1009300010B500F0E5FD001D10BD00BFE571000021
:10094000004870474819002070477047704770474B
:1009500038B504460A4600206946AFF300800028F7
:1009600008BF38BD02460099204600F0D1FD0120A5
:1009700038BD012000F0E6BEF8B5AFF300800546B3
:1009800000200C46102000BF0646A819A0420DD931
:10099000324669460020AFF30080070008BF00F030
:1009A000D1FE0098A04218BF0546C419FFF7C8FF42
:1009B00005600746F01D20F007004619284600F0A4
:1009C0000AF8B44208BFF8BDA21B31463868BDE83A
:1009D000F84000F09DBD00210160C0E901107047A2
:1009E000102070472DE9F0470D469946924604467F
:1009F00000F124080168880604D5E06921F010019F
:100A0000216000E00120A84201DD471B00E0002733
:100A1000A1697A1902EB0900081AA0612078C006C2
:100A200002D42046AFF30080002608E0D4E901217B
:100A30001AF806009047206A401C761C20624E453A
:100A4000F4DB2078C0060AD52046AFF3008006E02C
:100A5000D4E9012130209047206A401C2062381ED2
:100A6000A7F10107F4DC07E0D4E9012118F805003B
:100A70009047206A401C2062281EA5F10105F3DC86
:100A80002046AFF300802078000602D50220BDE8A2
:100A9000F0870120FBE770472DE9FF4F0C461E460B
:100AA0004FF0FF378BB0D2E90001DDF860800A908B
:100AB0008A46C1F30A5505B93D46002108464FF064
:100AC0000000BAF1000F00F4400005DA00EB8000EE
:100AD0004FF4400101EA50004FEA9059B9F1010F7B
:100AE00000DDB9460A9850EA4A000ED044F610508C
:100AF000A5F2FF3545432F14B8F1000F1ED0754203
:100B0000291E1EDDC9F100021CE0B8F1010F4FF0F3
:100B1000000001D0302103E0F24305E02154401CE5
:100B2000B042FBDB30460022002121540B99C1F872
:100B30000880C1E900200FB0BDE8F08FBD1B6D1C1F
:100B4000DEE74A4600DA694206A800F089FD06ABF6
:100B500093E8070003AB83E8070050460A9901F0C9
:100B6000D0F88DE80700A0F500501F3800900398DA
:100B7000002D0ADD42F21F014A460844002303A962
:100B80000390684601F07CFB09E0A0F500504A465E
:100B90001F38002303A90390684601F09BFB8DE8F2
:100BA00007000004000C03D04FF0FF30410800E0C4
:100BB0001046B8F1000F03D00022009215461EE047
:100BC000751E05D400F0BEFC303262556D1EF9D59D
:100BD000B3460122084302D000227F1C04E02078A3
:100BE000302801D100227F1E002A099784D01DE001
:100BF000112D07DA00F0A6FC303262556D1C50EA68
:100C00000102F5D1084302D00098C8B10EE00021DE
:100C1000681E05E0235C625C63542254401E491C3C
:100C20008142F7DBAB46A81B401E0990002004F868
:100C30000B000B98099AC0F80880C0E9002B7AE7EE
:100C400011264FF0000857E72DE9F04F884604467B
:100C5000D21D22F0070191B0D1E90001CDE90A01CE
:100C600004F0EBFA02460B98C00F01D02D2007E0EC
:100C70002068810701D52B2002E0202101EAC00075
:100C8000032A099001D0072A05DB03464146204686
:100C900000F0A6FC0BE12078800601D5E06900E0B9
:100CA0000620B8F1650F814606D0B8F1660F18D05E
:100CB000B8F1670F70D131E00020B9F1110F009049
:100CC00001DB112301E009F101030AAA01A90CA823
:100CD000FFF7E2FEDDE90C70002609F1010583460D
:100CE00047E001204B4600904FF000470AAA01A9B7
:100CF0000CA8FFF7D1FEDDE90DB00C995D4600268A
:100D000010B909F101000D18B9EB050003D4C0F1C9
:100D1000FF3609F10105A5EB09002BE0B9F1010F40
:100D200001DA4FF001090020B9F1110F0090484697
:100D300001DD112300E003460AAA01A90CA8FFF770
:100D4000ABFEDDE90C704D46002683462078000797
:100D50000AD4AB4500DA5D4601A8012D04DD411936
:100D600011F8011C302907D04F4502DA17F1040FA2
:100D700004DA012082460FE06D1EEEE7002F02DC50
:100D8000ED1B3E4403E0781CA84200DD7D1CB81B2F
:100D900000F1010A4FF000472078000703D4AA456C
:100DA00001DB4FF0FF3A0021B7F1004F0DF143088E
:100DB0008DF8431024D002202B23002F01DA7F422C
:100DC0002D230A21021EA0F1010000DC5FB197FB78
:100DD000F1FC97FBF1F201FB1C7C17460CF1300C87
:100DE00008F801CDEEE7A8F101000370218809059C
:100DF00001D5452100E06521A0F1010800F8011CA2
:100E000009980FA9A1EB0807FF1D00B101204119A6
:100E100001EBEA70A1693844081A401EA0612078ED
:100E2000C00602D42046AFF30080099828B1D4E967
:100E300001219047206A401C20622078C00622D5FC
:100E40002046AFF300801EE0002E04DBB34502DD38
:100E500001A8805D00E03020D4E901219047206A9C
:100E6000401C2062761CAAF101005FEA000A0AD148
:100E700000F046FBC0680168405CD4E9012190475E
:100E8000206A401C2062281EA5F10105DCDC07E079
:100E9000D4E9012118F8010B9047206A401C206218
:100EA000381EA7F10107F3DC2046AFF300800320D2
:100EB00011B041E601694A1C02610878704700B52B
:100EC0008FB0CDE901310021059105497944CDE983
:100ED000031011466846FFF71BFB0FB000BD000072
:100EE000E5FFFFFF0A6802F8010B0A60704710B5C2
:100EF000436913B1AFF3008001E0FFF7A3FA0120CB
:100F000010BD127800F124010A7000224A700122FB
:100F1000EDE711684FF0FF32E9E700002DE9FF4FE0
:100F200006468BB00878FF2806D0491C2D2805D02E
:100F300000244FF0000908E000200CE00124F8E74D
:100F400009EB8903491C00EB43090878FF28F7D116
:100F500014B1C9F100008146107800252C46AA463C
:100F600029462D2801D02B2804D1521C2D2813D01E
:100F7000002082468B461078FF280FD04FF0000CDF
:100F80000A21521CA5FB017804FB018105FB0C1111
:100F9000C5194BEB0104EEE70120EAE70021084602
:100FA0004FF00000BAF1000F02D000EB80004008C3
:100FB000C0F38157012F01DD4FF0FF370E9955EA3D
:100FC000040009EB01080BD04FF0020918F5FA7F75
:100FD00016DA4FEACA70002F706008DD012007E0C2
:100FE0004FEACA70C6E900B00FB0BDE8F08F00202C
:100FF000306000F089FAC0F800901821084616E029
:10100000B8F5FA7F18DD002F02DAF748784401E0DE
:10101000F6487844D0E90010C6E9001040EACA70EA
:10102000706000F071FAC0F80090142108460FB00B
:10103000BDE8F04F07F0D9BD002108464FF0000091
:10104000B8F10001099002DAC7F1000200E03A4667
:1010500001DAC8F1000106A800F002FB06AB93E834
:10106000070003AB83E8070044F23E005BEA04019B
:101070000090584604D144F21E012C465D46009172
:10108000210C0904014306D10099240444EA1544C3
:101090002D041039009104F07F41014306D10099DD
:1010A000240244EA15642D020839009104F07041CD
:1010B000014306D10099240144EA15742D01091F4A
:1010C000009104F04041014306D10099A40044EA94
:1010D0009574AD00891E009104F00041084304D1CD
:1010E00000986D196441401E00904FF001033A468C
:1010F0006846B8F1000FCDE9014503A902DD01F012
:10110000FEF801E001F0D1F8BAF1000F04460D46F7
:1011100001D084F00044002108464FF000000999F6
:1011200040F2FF77484010F00C0F07D124F0004048
:10113000284303D0C4F30A50B84212D100F0E4F9B6
:10114000C0F80090C4F30A50B8420AD1A8487844C5
:10115000D0E90010C6E9001004F0004108437060B7
:1011600042E7C6E900543FE72DE9FF4F1F464FF025
:10117000000A4FF0FF38454691B0D7E90146CDF857
:101180003CA000F0BDF9C0680168405C1090B969EE
:1011900012986D1C8847396A814688470028F6D125
:1011A000B9F1FF3F0AD0002E24F4D06411DDB9F16B
:1011B0002B0F08D0B9F12D0F0BD102E0404615B02E
:1011C00013E744F48064B96912986D1C8847761E51
:1011D0008146600504A901D52D2000E02B20002EBA
:1011E00001F1010B0DF130088DF810003FDDB9F170
:1011F000690F08D0B9F1490F05D0B9F16E0F02D0CF
:10120000B9F14E0F1CD13B4601A8009580E8500271
:10121000DDE912126FF0020007F050FDC11CCED1C3
:101220000EE0B96912986D1C884781461398761EA6
:1012300044F4007405600F98401C002E0F9016DDDA
:10124000B9F1300FEDD0B9F1780F02D0B9F1580FE4
:101250000DD10F9801280AD13B46CDE90054DDE9B4
:101260001212001F029607F027FDC11CA7D110998A
:1012700089453ED144F0800406E01399681CAAF128
:10128000010A44F400740860B9696D1C1298761E56
:10129000884730288146F0D02BE01099894505D148
:1012A000200603D4761E44F0800418E0484604F07B
:1012B00068F808B3761E0DF123018B4544F40074E1
:1012C00008D2A9F130000BF8010B200607D5AAF1CE
:1012D000010003E0200602D40AF101008246A005C5
:1012E00002D51399681C0860B96912986D1C88476B
:1012F0008146002ED1DC53E0002E51DDB9F1650F9F
:1013000002D0B9F1450F4BD1A00549D5B9696D1C83
:101310001298761E24F440748847002E81460CDD16
:101320002B2804D0B9F12D0F07D144F48074B9698A
:1013300012986D1C8847761E8146E00501D52D2147
:1013400000E02B2108F8011BCDF8008021E0761E7B
:101350000DF13901884544F400740CD2A9F1300034
:1013600010F0FF0088F8000002D10099884509D9E3
:1013700008F1010806E0E00501D51E4801E042F24F
:101380000F708246B96912986D1C88478146139880
:101390000560002E04DD484603F0F3FF0028D6D197
:1013A000F96912988847FF2053468BF8000088F8A7
:1013B000000000200A900B9004AA0CA90AA8FFF7CD
:1013C000ADFDA00502D46FF00100F8E614F0240F83
:1013D00012D0E0071CD13868DDE90A12031D3B601A
:1013E0000068C0E9001213E07C7E00006E7E000001
:1013F000327D0000F1D8FFFF0AA9684603F050FFD4
:10140000E00705D13868009A011D39600068026064
:101410002846D4E6426842B1016811F8013B23B185
:10142000521EC0E90012184670470121C160881E93
:10143000704742685AB1C368016843B983688B42F8
:1014400005D0491E521CC0E90012002070474FF021
:10145000FF3070470FB4002300B589B00CA900918C
:101460000B99CB60214B7B440693214B7B44079324
:1014700004236FF00042CDE901321E4A7A446B46E4
:1014800008920246002007F015FC09B05DF814FB35
:1014900070B506464FF0FF3015460C46324686B012
:1014A0000091CDE9010169460020049004A8FFF7EE
:1014B000D1FF02460498211825B108B1084600E082
:1014C00020462860049800280DD0002A02DD0098EC
:1014D000884208D03246081B69460094CDE90104D1
:1014E00004A8FFF7B7FF06B070BD0000ABFFFFFF19
:1014F000C3FFFFFF4F010000004870474019002064
:1015000000487047601900200048704740190020CB
:10151000034640688C46002818BF88423CBF0346FB
:101520004068F8D318681844884207D00CF10300CB
:1015300020F00700001D411A521A0146081D0A60DA
:10154000FEF7D9BE30B5B0F10A024FEA900E71F144
:1015500000034EEA817EB0EB0E0061EB91014FEA91
:10156000101E4EEA017E10EB0E0041EB11114FEA06
:10157000102E4EEA016E10EB0E0041EB11214FEAE6
:10158000104E4EEA014E10EB0E0041EB1141401897
:1015900041F100014FEAD00040EA41704FEAD10129
:1015A00010EB80054FEA810444EA907444EB010497
:1015B0006D1944EB0404521BA3414FF0000348BFD4
:1015C0000A3200D530BD401C41F1000130BD10B5DC
:1015D0000446FFF7ADF90068005D00F0010010BDA2
:1015E0002DE9F0411F46044603260168072A01F44D
:1015F000006004DB08B116A505E016A503E008B1FC
:1016000015A500E015A521F010002060A069C01EFE
:10161000A0610FB1401EA0612046AFF300804FB122
:10162000D4E9012138469047206A401C2062C01C42
:10163000206206E0206AFAE7D4E9012115F8010BDF
:101640009047761EF8D22046AFF30080BDE8F081C7
:101650004E414E006E616E00494E4600696E660056
:101660002DE9F047814616468AB0354878440DC8C2
:101670008DE80D0032487844801C03AC0DC884E826
:101680000D0041F69B300844372190FBF1F290FBAE
:10169000F1F5A5F1800501FB12041B3C02D5644263
:1016A000012000E00020DFF898A080460027FA44DF
:1016B000AAF1BE0A0EE0E0070AD03246684607EB00
:1016C000470101230AEB810100F004FE8DE80700C9
:1016D00064107F1C002CEED1194F7F44AE3F19E0FF
:1016E000E80715D007EB04100DF1180A90E80E007A
:1016F0008AE80E00C068F04201D19819089032467D
:10170000012306A903A800F0E5FD03AB83E8070069
:101710006D10641C002DE3D14FF001033246694681
:10172000B8F1000F03A802D000F0AAFD01E000F01C
:10173000D1FDC9E90001C9F808200AB0BDE8F08769
:10174000C877000010B500F06DFABDE8104000F059
:1017500064BA70477546FFF7CFFEAE46050069468E
:10176000534620F00700854618B020B5FEF782FDED
:10177000BDE820404FF000064FF000074FF0000892
:101780004FF0000B21F00701AC46ACE8C009ACE813
:10179000C009ACE8C009ACE8C0098D46704710B577
:1017A000FFF7B2FE006810BD10B50446FFF7ACFEAF
:1017B000046010BD2DE9FF4F1F464FF03C0987B074
:1017C0004FF00042DDE9141001F10108DDF858A0E6
:1017D00002EA4050039000200590834605460446E7
:1017E0000490B969461E08988847AAF1010A029038
:1017F000BAF1000F3BDD02982E2815D0102100F021
:1018000052FA00282EDB4FF0010B0599014317D047
:10181000B9F1000F0BDB4A46C11700F031FA05435E
:101820000C43A9F1040905E0012004900BE008B184
:1018300045F0010501200590049820B9361D02E00D
:10184000049800B1361FB969089808F10108884763
:10185000BBF1000FAAF1010A0290C9D00999C1F8A1
:101860000080C5E70298702808D0502806D0F96992
:1018700008988847BBF1000F14D04FE00020029079
:101880000120BBF1000F049009D0B969089808F154
:1018900001088847AAF10109B9F1000F07DCF969CD
:1018A000089888476FF001000BB0BDE8F08F2B2837
:1018B00004D02D280CD14FF0FF300490B96908985E
:1018C00008F101088847A9F10109B9F1000FE6DD27
:1018D000411CE4D00A2100F0E6F90028DFDB029980
:1018E00008F1010801EB810100EB41000290B969A8
:1018F000089888470A2100F0D6F9099AA9F1010948
:10190000B9F1000FC2F8008001DD0028E7DAF969BB
:10191000089888470499029800FB016655EA04007C
:1019200004D004F04041090002D006E0039898E09A
:10193000A40044EA9574AD00B61E04F0004108000E
:1019400002D16D196441761E159810F0240F03D052
:101950004FF00B095C4803E04FF028096FF07D0061
:101960008246564507DAAAEB06018944B9F1410FD0
:1019700001DD4FF0410901200021A9F1010200F031
:101980007FF9024628400B462140084301D001213F
:1019900000E00021501E029143F1FF312840214018
:1019A000084301D0012000E000200299834651EA5B
:1019B0000B014FD0002108464FF00000039900F4BE
:1019C000400039B100EB80004FF4400100EBD070D3
:1019D00001EA60008015012802DD4FF0FF3000E0D1
:1019E00013D0401C36D0029860B3BBF1000F0CD16D
:1019F0004A460120002100F043F9284021400843D5
:101A000001D0012000E00020E0B101204A46002181
:101A100000F036F9034640190A4661412D1A8C41FF
:101A200011D3B9F1400F09DD159810F0240F02D041
:101A3000AAF1340603E0AAF1170600E0761C00259F
:101A40004FF0004406E05B1E42F1FF3220EA03053E
:101A500021EA0204CAF10100B04206DA1B490398E8
:101A600008430190002000900EE0039AC4F3D321B4
:101A7000E80A0A43164940EA44500A433146CDE990
:101A80000002684603F072FC159810F0240F0BD08A
:101A90001598C00715D13868DDE90012031D3B60B9
:101AA0000068C0E900120CE002A8694603F0F8FBE8
:101AB0001598C00705D13868029A011D3960006881
:101AC00002604046F0E6000002FCFFFF0000F07FED
:101AD0000000F03F2DE9FF4F92461D4685B04FF0C4
:101AE0000041DDE9124BDDE914727F1E01EA4B5023
:101AF000414940F0FF4940EA0108002122F020005E
:101B00004928049102D04E2828D04CE03BA0012661
:101B100007C88DE80700A9690698641C88477F1EDE
:101B2000014606D41DF8060018B121F020018142BB
:101B30000BD0E96906988847032E34D0082E32D09E
:101B40006FF0010009B0BDE8F08F761C032E01D0C4
:101B5000082EE0D1601CCAF80000DCE7A9690698ED
:101B6000641C88477F1E2AD420F02000412826D1FB
:101B7000A9690698641C88477F1E20D420F02000A5
:101B80004E281CD1A9690698641C88477F1E48F41A
:101B9000002849F48009CAF8004001D4282806D05A
:101BA000E969069888475FEACB7012D022E0A969FC
:101BB0000698641C88477F1E01D4002803DAE9696F
:101BC00006988847BCE72928F1D1641CCAF8004070
:101BD000E9E71BF0240F07D028680499031D2B6048
:101BE0000068C0E9001805E02868021D2A60006846
:101BF000C0F800902046A5E70000F07F494E464916
:101C00004E4954590000000010B50446AFF300805F
:101C10002046BDE81040FEF7CDBA002801D000F004
:101C200029B8704710B5012805D0002103A000F0A5
:101C300048F8012010BD09A1F8E7000053494752B8
:101C4000544D454D3A204F7574206F66206865618C
:101C500070206D656D6F7279000000003A20486554
:101C60006170206D656D6F727920636F727275702F
:101C70007465640001491820ABBEFEE7260002002F
:101C8000B2F120030AD5C2F1200301FA02F120FAD1
:101C900003F300FA02F041EA0301704700FA03F18E
:101CA0004FF0000070473A2800D2303820F0200270
:101CB000412A01D3A2F13700884201D34FF0FF300F
:101CC000704770B505460C460A2000E06D1C00F018
:101CD00011F835B128780028F8D102E0641C00F032
:101CE00009F814B120780028F8D1BDE870400A2026
:101CF000AFF3008008B569468DF800000320ABBE45
:101D000008BD5FEA400C08BF91F0000F4FEA8C233A
:101D10004FEAC12243EA51514FEA1C5018BF00F567
:101D2000F0404FEA300018BF41F000415FEA6C5CC0
:101D300000F02980BCF1FF3F08BF40F080407047B1
:101D4000130C06BF12044FF0100C4FF0000C130ED2
:101D500004BF12020CF1080C130F04BF12010CF1A6
:101D6000040C930F04BF92000CF1020CD30F04BFBC
:101D700052000CF1010C11464FF00002A0F11F00BF
:101D8000A0EB0C00704711F0004F08BF704731F016
:101D900000413FF4D5AF0B0C06BF09044FF0100C07
:101DA0004FF0000C0B0E04BF09020CF1080C0B0FD6
:101DB00004BF09010CF1040C8B0F04BF89000CF166
:101DC000020CCB0F04BF49000CF1010CCCF1200335
:101DD000A0EB0C0022FA03F302FA0CF241EA030131
:101DE00000F10100704720F07F4C80EA030023F0EF
:101DF0007F47ACEB070303F57C5300F0004003F191
:101E0000FF032DE980494FEA154B09B44FEA14430B
:101E100025EA0B4E24EA03480FF2042606EB1327AB
:101E200049083E785FEA320203FB0667C7F5000700
:101E300007FB06F64FEA54374FEAD64606F102068C
:101E400007FB066CCCF1005C4FEA1C472CEA074C00
:101E500007FB06F40CFB06F504EB15464FEA961655
:101E600034BF00204FF000404FEAD13706FB07FC9B
:101E70004FEA1C4C0CFB0BF7D21B03FB0CF761EB7E
:101E800007010CFB0EF7B0EB074072EB17420CFB9F
:101E900008F734BFA2EB0742B2EB074261EB1741F0
:101EA0004FEA0C444FEA910706FB07FC4FEA1C4C33
:101EB0000CFB0BF7B0EBC74072EB573203FB0CF790
:101EC00034BFA2EBC742B2EBC74261EB57310CFB08
:101ED0000EF7B0EBC70072EB57720CFB08F734BF7C
:101EE000A2EBC702B2EBC70261EB5771039F4FEA47
:101EF000816141EA921104EBCC044FEAD1374FEAF9
:101F0000826206FB07FC42EA90124FEA80604FEAC9
:101F10001C4C0CFB0BF7D21B03FB0CF761EB07010E
:101F20000CFB0EF7B0EB074072EB17420CFB08F707
:101F300034BFA2EB0742B2EB074261EB17414FEA15
:101F40008C554FEA910704EB9C2406FB07FC4FEAF3
:101F50001C4C0CFB0BF7B0EBC74072EB573203FB8A
:101F60000CF734BFA2EBC742B2EBC74261EB57316B
:101F70000CFB0EF7B0EBC70072EB57720CFB08F7C7
:101F800034BFA2EBC702B2EBC70261EB577115EB8E
:101F90004C254FEA816141EA92114FEA82624FEA91
:101FA000D13742EA901206FB07FC44F100044FEAE5
:101FB00080604FEA1C4C0CFB0BF7D21B03FB0CF7A9
:101FC00061EB07010CFB0EF7B0EB074072EB174219
:101FD0000CFB08F734BFA2EB0742B2EB074261EB00
:101FE000174115EB1C154FEA813141EA92414FEA46
:101FF000823242EA90424FEA80304FEA0C7644F156
:10200000000448EA03434EEA0B484FF0000EB2EBDF
:10201000080C71EB030724BF624639464EEB0E0EE7
:102020004FF0000B0018524149414BEB0B0BB2EB48
:10203000080C71EB03077BF1000B24BF62463946A5
:102040004EEB0E0E4FF0000B0018524149414BEB86
:102050000B0BB2EB080C71EB03077BF1000B24BFF9
:10206000624639464EEB0E0E51EA020718BF46F0A3
:10207000010616EB0E7655F1000254F1000103D56E
:10208000BDE88901BDE80088BDE88901BDE80048D8
:10209000B619524141EB0101A3F101037047808061
:1020A0007F7E7D7C7B7A79787776767574737271B2
:1020B00071706F6E6E6D6C6C6B6A6A69686867666A
:1020C00066656464636362616160605F5F5E5E5DFC
:1020D0005D5C5C5B5B5A5A59595858575756565570
:1020E00055555454535352525251515050504F4FD2
:1020F0004F4E4E4D4D4D4C4C4C4B4B4B4A4A4A4922
:102100004949484848474747474646464545454464
:10211000444444434343434242424241414100001C
:1021200046EA0646A3F570534FEA164646EA42567B
:102130004FEAD22242EA415210B54FEAD121A3F12F
:10214000010300F02FF820F0004000F1020C00F035
:10215000004701EB00501146BCF5006F40EA070054
:1021600000D210BDBAF1000F0AD01CB503B44FF075
:1021700004004FF004014FF000000FBCBDE8104018
:102180004FF00001BBF1010FB9BF04484FF0FF3120
:102190000348002140EA070010BD00BFFFFFEF7FAA
:1021A0000000F07F002B9C4630D477002BD01CB56C
:1021B0004FEA370703B44FF010004FF01001BAF1A7
:1021C000000F06D0BCF1000FDCBF40F0080040F06B
:1021D00008014FF000000FBCBDE810400BF1010BEF
:1021E000BBF1010F08BF5FEA170722BF12F101021E
:1021F00011F101014FF0004143F1000300F00040F4
:1022000043EA00007047F9D35708D0E746EA06468C
:1022100013F1400F4FEA16461FDD13F1200FDFBF09
:1022200016430A46002120335B42BED0C3F120078B
:1022300046EA064602FA07F74FEA164646EA070656
:10224000C3F1200722FA03F201FA07F721FA03F19A
:102250004FF0000342EA0702A7E746EA020646EA11
:1022600006464FEA164646EA0106BCBF46EA06465F
:10227000360C4FF000034FF000024FF0000194E7DE
:102280002DE9804C9A46934670B491E8380007C80F
:1022900031EA400C48BF34EA430C03D5FFF7A3FDF5
:1022A000FFF780FFF0BCBDE8008C2DE9804C9A461A
:1022B000934670B491E8380007C831EA400C48BF33
:1022C00034EA430C03D5FFF78EFDFFF729FFF0BC7E
:1022D000BDE8008C2DE9804C9A46934670B491E895
:1022E000380007C810F0804F08BF13F0804F03D1AB
:1022F00000F01AF8FFF756FFF0BCBDE8008C2DE99E
:10230000804C9A46934670B491E8380007C810F0A4
:10231000804F08BF13F0804F03D100F005F8FFF79E
:10232000FFFEF0BCBDE8008C20F07F4780EA030090
:1023300023F07F4C07EB0C03A3F57C5300F0004027
:10234000A3F1FE0392F0000F00F0B38095F0000FB0
:1023500000F077802DE901494FEA11404FEA144619
:1023600021EA004800FB06FC24EA064708FB06F6C3
:1023700007FB08F800FB07F718EB06484CEB164C78
:102380004FEA124B18EB07484FEA15464CEB174043
:1023900022EA0B4E0BFB06FC25EA06470EFB06F66F
:1023A00007FB0EFE0BFB07F71EEB064E4CEB164C25
:1023B0004FF000061EEB074E4CEB174B18EB0B08CB
:1023C00040F1000018EB0E0B58EB000840F1000044
:1023D0008F1A4FF000013CBFC943661B14BFB5EB19
:1023E000040C00213CBFC943F61B4FEA17444EEAD8
:1023F0008E0E27EA04454FEA1C4704FB07622CEACD
:10240000074C05FB07F70CFB05F604FB0CFC16EB71
:10241000074642EB174216EB0C4642EB1C421BEB05
:10242000060658EB0202414146EA9E0601D5BDE888
:102430000189B619524141EB0101A3F10103BDE845
:1024400001894FEA14454FEA114724EA054621EA7B
:10245000074C05FB07F406FB07F70CFB06F105FB31
:102460000CFC11EB074144EB17444FEA124711EB08
:102470000C4144EB1C4422EA074C05FB07F206FB27
:1024800007F70CFB06F605FB0CFC16EB074642EBC8
:10249000174216EB0C4642EB1C456A1854F100013A
:1024A00048BF7047B619524141EB0101A3F1010346
:1024B000704795F0000F37D04FEA11424FEA1447AA
:1024C00021EA024624EA074C02FB07F106FB07F764
:1024D0000CFB06F402FB0CFC14EB074441EB174128
:1024E0004FEA154714EB0C4441EB1C4125EA074C1D
:1024F00002FB07F506FB07F70CFB06F602FB0CFCDC
:1025000016EB074645EB174516EB0C4645EB1C4210
:10251000121951F1000148BF7047B619524141EB01
:102520000101A3F1010370474FEA14454FEA114737
:1025300024EA054621EA074C05FB07F106FB07F7ED
:102540000CFB06F24FF0000605FB0CFC12EB0742F9
:1025500041EB174112EB0C4251EB1C4148BF704755
:10256000921841EB0101A3F10103704770B50446D5
:1025700000688168C943C90717D1816821F001014A
:10258000816000F0B1FB05460AE000BF00F0ACFB43
:10259000401B022804D920688068C043C00706D0C9
:1025A00020688068C043C007F0D0002070BDA06ADA
:1025B00040F01000A062E06A40F00100E0620120FB
:1025C00070BD0000F8B500260446009600688168DA
:1025D000C943C9072DD0816841F0010181601648C7
:1025E00016490068B0FBF1F000E0401E00900028A2
:1025F000FBD100F079FB054616E000BF00F074FB4C
:10260000401B022810D920688068C043C0070BD047
:10261000A06A40F01000A062E06A40F00100E062B1
:1026200084F824600120F8BD20688068C043C0079A
:10263000E4D10020F8BD00004C00002040420F0013
:10264000FEE770474FF4004000F04CBA202000F045
:1026500049BA0000F8B50024009490F824202546DB
:10266000012A12D0012280F824204A681F23072A59
:102670000DD20668776B521E02EB820293409F4395
:102680000B6893401F43776319E00220F8BD06688A
:102690000D2A0AD2376BD21F02EB820293409F436E
:1026A0000B6893401F43376309E0F76A0D3A02EB6A
:1026B000820293409F430B6893401F43F7620A686E
:1026C000072306680A2A0AD3F7680A3A02EB42028D
:1026D00093409F438B6893401F43F76008E037693E
:1026E00002EB420293409F438B6893401F43376144
:1026F0000A68102A01D0112A20D1124B02689A428E
:1027000017D193681B0219D4936843F400039360B4
:102710000968102912D10C490C4A0968B1FBF2F181
:1027200001EB8101490000E0491E00910029FBD125
:1027300004E0816A41F020018162012480F8245084
:102740002046F8BD002401404C00002040420F000C
:102750000068C06C704700002DE9F0414FF00007A1
:1027600004003D467ED0A06A002628B9E66284F8BF
:102770002460204600F07EF82046FFF7F7FEA16AAD
:10278000C90600D420B1A06A40F01000A06269E040
:10279000A16A21F4885141F00201A1626268E169F5
:1027A000237B0A4347EA43010A43A1684FF4807739
:1027B000B94209D0012907D05FF0000194F814C094
:1027C000BCF1010F02D00AE03946F7E7F3B1A36A82
:1027D00043F02003A362E36A43F00103E36223684A
:1027E000D3F804C02CF4694C4CEA010CC3F804C0C3
:1027F00021688B68DFF870C003EA0C0313438B6019
:10280000A168B9420BD0012909D00CE0DFF85CC007
:10281000A3690CEB43330B4343F40061DFE7218AE8
:102820000D05A5F580152168CB6A23F470032B43B1
:10283000CB62216889680E4B1940914208D1E6624B
:10284000A16A21F0020141F00101A162BDE8F0811D
:10285000A06A20F0020040F01000A062E06A40F0A0
:102860000100E0620120F1E7FDF7E1FF00E0FFFF7A
:10287000FE0E1FFF10B586B000210091019102915C
:1028800003911B4C03681B4802210322A34214D16D
:10289000836943F400738361836903F400730493D1
:1028A000836943F0040383618069CDE9001200F07D
:1028B000040004906946104816E0104CA34215D15C
:1028C000836943F480638361836903F480630493C1
:1028D000836943F0080383618069CDE9001200F049
:1028E000080004906946064800F008F906B010BDDB
:1028F000002401400010024000080140002801406F
:10290000000C014070B5044690F8240001280DD059
:10291000012084F824002046FFF754FE02004FF007
:10292000000005D084F82400104670BD022070BD60
:10293000A16A40F20123994341F48071A1621F4DC5
:1029400023681F49AB4218D10E6816F4702F14D0BB
:10295000A66A46F48016A6620E68760505D5A66AB4
:1029600026F4005646F48056A662A66AF6040AD5F6
:10297000E66A26F00606E66206E0A66A26F48016F7
:10298000A6625E68E9E7E06284F824006FF0020066
:10299000186020688368C3F34243072B05D1A8421F
:1029A00008D1096811F4702F04D0816841F48011B6
:1029B0008160B9E7816841F4A001F9E7002801408E
:1029C0000424014010B5044690F82400012807D0E3
:1029D000012084F824002046FFF7C8FD10B107E06D
:1029E000022010BDA16A21F4885141F00101A162C9
:1029F000002184F8241010BD70B5044600F074F96D
:102A00000546601C02D004480078044400F06CF9CC
:102A1000401BA042FAD370BD4000002070B50546AF
:102A20002448254C808AA84234D12249C822EC315E
:102A3000204801F04FFF1F4801F066FEE0631D488B
:102A40001EA1EC30FDF730FF70B31A48EC3003F0F4
:102A500021FD1848EC30FDF713FE0246154819A178
:102A6000AC30FDF7D9FC1348AC30FDF709FE114935
:102A700082B2AC314FF47A73A1F59E7001F068FC1C
:102A80000C48EC3002F0D7FCA06288B10FA000BF68
:102A900003F000FDB5F5004F05D1A06B03F0ECF994
:102AA0006068401C606070BD606B03F0E5F9F1E7A1
:102AB00009A0EDE7F4060020000000204E4437395D
:102AC0003730000025640D0A000000004A534F4EC5
:102AD000204F4B21000000004A534F4E20455252D8
:102AE0004F522100044910B50A68024202D0086022
:102AF000FFF794FF10BD0000140401402DE9F84FCA
:102B0000DFF8B8910024A9F1040B23460F2709F13F
:102B1000040AABF1040EC9E00125A5402A40AA42EF
:102B20007DD1674ED1F804C0ACEB0608B44532D075
:102B300014DCBCF1030F3AD009DCBCF1000F2AD041
:102B4000BCF1010F1CD0BCF1020F31D11DE0BCF172
:102B5000110F17D0BCF1120F2AD119E0B8F5881F58
:102B600019D006DCB8F5803F15D0B8F5801F1FD10D
:102B700011E0B8F5001F0ED0B8F5041F18D10AE017
:102B8000CB6815E0CB681B1D12E0CB6808330FE063
:102B9000CB680C330CE08B682BB1012B4FF0080392
:102BA00003D0456104E0042302E0056100E0002356
:102BB000FF2A01D8064601E000F104064FEA840529
:102BC00001D9A5F12005D6F8008007FA05FC28EA0E
:102BD0000C0803FA05F548EA0508C6F800804D68B8
:102BE000ED0062D5374DAE6946F00106AE61AD69C4
:102BF00024F0030605F001050095334D06EB050CA6
:102C0000DCF80850A607360F07FA06F825EA08058B
:102C1000DFF8B880404503D14FF0000817E044E0EA
:102C2000DFF8AC80404502D14FF001080FE0DFF83B
:102C3000A480404502D14FF0020808E0DFF89880F8
:102C4000404502D14FF0030801E04FF0040808FAB4
:102C500006F848EA0508CCF808804D68D9F8006005
:102C6000ED024D4601D5164300E096432E604D68B7
:102C7000DAF80060AD02554601D5164300E09643F0
:102C80002E604D68DBF80060AD035D4601D516434C
:102C900000E096432E604D68DEF80060ED03754657
:102CA00001D5164300E096432E60641C0D682A4649
:102CB000E5407FF431AFBDE8F88F00000804014023
:102CC0000000111000100240000001400008014007
:102CD000000C014000100140001401400AB10161E4
:102CE00070470904FBE70000014880687047000056
:102CF0004000002070B5040025D094F83D00002568
:102D000020B984F83C50204600F04EF9242084F885
:102D10003D002068016821F0010101602068016820
:102D200041F4004101602068016821F40041016024
:102D300000F07CFB4D4A6168914201D84C4900E0AB
:102D40004C49884201D2012070BD4B492368B0FB39
:102D5000F1F15E6826F03F060E435E6063689342C1
:102D600006D94FF4967359434FF47A73B1FBF3F1DC
:102D70002368491C1E6A26F03F06314319626168C8
:102D8000914210D84900401EB0FBF1F2521CC2F330
:102D90000B02042A01D2042022E0B0FBF1F0401C17
:102DA000C0F30B001CE0A268F2B301EBC10303EB1C
:102DB0000116431EB3FBF6F35B1C43F480431B0573
:102DC00049D092B301EBC10202EB0111401EB0FBEE
:102DD000F1F0401CC0F30B0040F4804040F4004090
:102DE0002168CA694CF6FF739A431043C861D4E95D
:102DF000071001432068026822F0C00211430160FD
:102E0000D4E9030101432068826848F2FF339A4302
:102E100011438160D4E9050108432168CA6822F0A2
:102E2000FF021043C86001E00EE016E02068016870
:102E300041F0010101602564202084F83D002563F4
:102E400084F83E50002070BD01EB4106431EB3FBE9
:102E5000F6F35B1CB3E70120C2E701EB4101401E22
:102E6000B0FBF1F0401CC0F30B00B7E7A0860100F7
:102E700080841E0000093D0040420F002DE9F84FFC
:102E80001F4690468A460446DDF82890FFF72CFF3F
:102E9000054694F83D0020287FD11923012240499E
:102EA0002046009501F034FB002876D194F83C00D0
:102EB000012872D0012084F83C0020680168C9070D
:102EC00003D1016841F0010101602068016821F42B
:102ED00000610160212084F83D00102084F83E004C
:102EE00000262664C4F824806785608D20852D48DF
:102EF000E0622B464A465146204601F08FFA90B9CF
:102F0000206841698069009036E02A46494620469B
:102F100001F0A4FB50B1206C042804D120680168A2
:102F200041F4007101600120BDE8F88F606A2168FA
:102F300000780861606A401C6062618D491E61858D
:102F4000218D491E89B2218522685369DB435B07C5
:102F50000BD451B100781061606A401C6062608DD2
:102F6000401E6085208D401E20852A464946204609
:102F700001F0A2FA0028CED1208D0028C5D154F846
:102F80003D0B016841F400710160202004F81E0926
:102F9000E67766770020C7E7FFE70220C4E7000076
:102FA000020010000000FFFF30B585B00021009145
:102FB0000191029103911E4D03681E4C12210322C0
:102FC0001D48AB4216D1A36943F00803A361A3696E
:102FD000039203F008030493C023CDE9003169464E
:102FE000FFF78CFDE06940F40010E061E06900F457
:102FF000001019E0114DAB4217D1A36943F008034B
:10300000A361A369039203F0080304934FF44063A0
:10301000CDE900316946FFF771FDE06940F48000B9
:10302000E061E06900F48000049005B030BD00006C
:103030000054004000100240000C014000580040C5
:103040000248816802781144816070474000002086
:10305000074810B5016841F010010160032000F03D
:10306000A7F80F2000F006F800F050F8002010BD7F
:103070000020024030B505461F4887B0C16941F0C5
:103080000401C161C06906A900F00400009001A814
:1030900000F0ACF90498B0B100F0C8F9400017494D
:1030A000174AB0FBF1F11748491E0260416040F237
:1030B000E7320021C0E903218160816100F0B0FEA8
:1030C000040003D015E000F0B1F9E8E70D4800F086
:1030D000D5FE04000DD11E2000F03CF8102D07D2C3
:1030E000002229461E2000F043F80748056000E052
:1030F000012407B0204630BD0010024040420F00BE
:1031000000080040080C0020440000200F4808B5CB
:10311000816941F001018161816901F00101009142
:10312000C16941F08051C161C069002200F0805046
:1031300000900F21901E00F01BF80548416821F017
:10314000E06141F00071416008BD000000100240E4
:1031500000000140002809DB00F01F02012191401E
:103160004009800000F1E020C0F800117047000025
:10317000F0B40E4B1B680C46C3F30223C3F10705E2
:10318000042D00D90425191D072901D2002300E0D0
:10319000DB1E012606FA05F1491E214099409E409A
:1031A000761E16403143F0BC02F05BB80CED00E037
:1031B000064900F0070208684FF6FF03184040EA8E
:1031C0000220034A10430860704700000CED00E045
:1031D0000000FA052DE9F84305460078354CC00794
:1031E00054D0E0690026C00008D4E06940F0805067
:1031F000E061E069012600F0805000902E480168EF
:10320000C90512D40168804641F480710160FFF75E
:103210006BFD074605E000BFFFF766FDC01B642895
:1032200023D8D8F80000C005F6D5206A10F4407005
:1032300021D0A98801F4407181421CD0206A1F4925
:10324000012220F440700A6000220A602062C00758
:1032500011D0FFF749FD074641F2883808E000BF6A
:10326000FFF742FDC11B414502D90320BDE8F883A9
:10327000206A8007F4D5206A696820F4407008430A
:1032800020621EB1E06920F08050E061287880075C
:1032900005D56068A96820F440400843606028783C
:1032A000C00605D56068E96820F4800008436060C6
:1032B0000020DBE700100240007000404004424262
:1032C0002DE9F0470F46050061D0434E306800F00D
:1032D0000700B84209D2306820F007003843306058
:1032E000306800F00700B84251D128683B4C810794
:1032F00012D5400703D5606840F4E060606028782C
:10330000000703D5606840F4605060606068A96899
:1033100020F0F000084360602878C00728D0686873
:10332000012810D02168022810D0890700292EDA40
:10333000616821F0030101436160FFF7D5FC80461D
:1033400041F288390DE021688903EFE78901EDE753
:10335000FFF7CAFCA0EB0801494502D90320BDE8EC
:10336000F0876068696800F00C00B0EB810FEFD166
:10337000306800F00700B8420BD9306820F0070031
:1033800038433060306800F00700B84201D00120B7
:10339000E5E72878400705D56068E96820F4E06033
:1033A000084360602878000706D56068296920F422
:1033B000605040EAC100606000F058F86168084A57
:1033C000C1F30311515CC840064908600648006813
:1033D000FFF750FE0020C2E700200240001002402C
:1033E0003A8D00084C000020440000200F220260AB
:1033F0000C4A536803F003034360536803F0F0037F
:103400008360536803F4E063C36052684FF4E06381
:1034100003EAD20202610448006800F00700086075
:103420007047000000100240002002400448054997
:1034300000684968044AC1F30221515CC8407047E2
:103440004C000020001002404A8D00080448054945
:1034500000684968044AC1F3C221515CC840704702
:103460004C000020001002404A8D00080E4A5168AE
:103470000E4801F00C03042B11D0082B0FD10C487F
:10348000C1F38343C903C05C0AD55168084AC1F33C
:103490004041921E515C054A5043B0FBF1F0704729
:1034A00004494843704700000010024000127A00AF
:1034B0002A8D000800093D002DE9F84F040070D066
:1034C0002078C04DC00749D06868C0F3810001284A
:1034D00007D06868C0F38100022809D16868C0037A
:1034E00006D52868800339D560680028E7D035E024
:1034F0006068B0F5803F0BD010B1B0F5A02F11D0AF
:10350000286820F480302860286820F4802002E0B9
:10351000286840F480302860606890B1FFF7E4FBD1
:1035200006460AE0286840F480202860F0E700BFE3
:10353000FFF7DAFB801B642873D828688003F7D56F
:103540000CE0FFF7D1FB064605E000BFFFF7CCFB20
:10355000801B6428F0D828688003F7D420789A4E1E
:1035600080074FF001094FF0000839D5686810F066
:103570000C0F07D06868C0F38100022809D1686881
:10358000C00306D42868800714D52069012808D113
:1035900010E02069B0B1C6F80090FFF7A5FB074620
:1035A00005E00AE1FFF7A0FBC01B0228C4D8286889
:1035B0008007F7D52868616920F0F80040EAC1006B
:1035C00028600DE0C6F80080FFF78EFB074604E098
:1035D000FFF78AFBC01B022823D828688007F7D48E
:1035E000207800072CD57948A169D9B1C0F800909E
:1035F000FFF77AFB074604E0FFF776FBC01B0228C3
:103600000FD8686A8007F7D571484FF4FA510068FF
:10361000B0FBF1F0009000BF0098411E0091FAD27B
:103620000EE080E0C0F80080FFF75EFB074604E094
:10363000FFF75AFBC01B022875D8686A8007F7D4C9
:103640002078400760D5E8690027C00008D4E86901
:1036500040F08050E861E869012700F08050009058
:103660005C480168C90513D40168834641F4807140
:103670000160FFF739FB824606E000BFFFF734FB2D
:10368000A0EB0A0064284ED8DBF80000C005F5D591
:10369000E06801280AD008B1052813D0286A20F074
:1036A00001002862286A20F0040002E0286A40F045
:1036B00001002862E06841F2883B98B1FFF714FBF3
:1036C00082460BE0286A40F004002862EEE700BF63
:1036D000FFF70AFBA0EB0A0159455AD8286A800770
:1036E000F6D50CE0FFF700FB824605E0FFF7FCFA99
:1036F000A0EB0A0159454CD8286A8007F6D41FB1BF
:10370000E86920F08050E861E06988B36968C1F336
:103710008101022944D00228C6F8608004D0FFF756
:10372000E3FA044638E034E0FFF7DEFA074604E047
:10373000FFF7DAFAC01B02282BD828688001F7D4DB
:10374000206AB0F5803F05D16868A16820F4003098
:1037500008436860D4E908010843696821F47411DA
:1037600008436860C6F86090FFF7BEFA044606E0BA
:1037700025E000BFFFF7B8FA001B022809D8286827
:103780008001F7D51BE000BFFFF7AEFA001B02284F
:1037900002D90320BDE8F88F28688001F4D40EE038
:1037A0000128F7D06868226A00F48031914204D180
:1037B000616A00F47010884201D00120EAE700201D
:1037C000E8E700000010024000004242800442424C
:1037D0004C0000200070004090F85100704770B518
:1037E000040009D0606A002540B125616561A562C9
:1037F00094F8510040B10CE0012070BD6068B0F554
:10380000827FF4D0E561F2E784F85050204600F062
:103810003FF8022084F851002068016821F040013F
:103820000160A088218900F4827001F404410843FA
:10383000A18901F400610843217C01F002010843E1
:10384000217D01F001010843218B01F4007108433F
:10385000217F01F03801084394F8201001F0800125
:103860000843218D01F40051084321680860A069D4
:10387000042101EA1040216848602068C16921F4F0
:103880000061C1616565012084F85100002070BDB0
:1038900030B585B00024009401940294039400682C
:1038A0001449884223D11448816941F480518161CF
:1038B000816901F480510491816941F004018161C1
:1038C00080690E4D00F004000490A02000900220BA
:1038D00001900320039069462846FFF70FF9402026
:1038E000CDE90004694628460294FFF707F905B0C0
:1038F00030BD0000003001400010024000080140CF
:103900002DE9F84F044690F85100984616460F46A8
:103910000025012801D0022598E060684FF0040BD3
:10392000B0F5827F01D1A068F8B194F85000012869
:1039300026D04FF0010984F85090FFF7D5F9824660
:10394000002F7FD0002E7DD084F851B0002060651C
:10395000A763A687E6872063A086E086206460646C
:10396000A068B0F5004F0DD016E084F851B01346B2
:103970000A462046CDF8008000F024F9BDE8F88F13
:103980000220FBE72068016821F040010160206807
:10399000016821F48041016020680168490603D470
:1039A000016841F040010160E068D8B13BE0206867
:1039B0008168C90709D0007BA16B0870A06B401C0F
:1039C000A063E08F401EE0870CE0FFF78DF9A0EBCD
:1039D0000A01414503D3B8F1FF3F03D006E0B8F137
:1039E000000F03D0E08F0028E1D11FE003252BE07A
:1039F00020688168C90709D0C068A16B0880A06BE6
:103A0000801CA063E08F401EE0870CE0FFF76CF99C
:103A1000A0EB0A01414503D3B8F1FF3F03D0E5E72E
:103A2000B8F1000FE2D0E08F0028E1D152464146C4
:103A3000204601F0F7F908B120206065606D00E0D4
:103A400000E008B1012501E084F85190002084F8DD
:103A50005000284692E72DE9F84F044690F85000B0
:103A60000026984615468A4601280CD0012784F87E
:103A70005070FFF739F9814694F85100B346012898
:103A800004D002269AE00220BDE8F88FBAF1000FB8
:103A90006FD0002D6DD0032084F85100C4F854B0CD
:103AA000C4F830A0A586E586C4F838B0A4F83CB0C8
:103AB000A4F83EB0C4F844B0C4F840B0A068B0F573
:103AC000004F09D12068016821F0400101602068A1
:103AD000016841F48041016020680168490603D40F
:103AE000016841F040010160E068B0F5006F606876
:103AF00003D058B3012D29D049E008B1012D1FD1C1
:103B0000206B21680088C86006E02068816889070A
:103B100009D5216B0988C160206B801C2063E08E71
:103B2000401EE0860CE0FFF7DFF8A0EB09014145FD
:103B300003D3B8F1FF3F03D006E0B8F1000F03D084
:103B4000E08E0028E1D125E0032635E0206B2168D6
:103B50000078087306E02068816889070AD5216B20
:103B600009780173206B401C2063E08E401EE086C4
:103B70000DE01FE0FFF7B8F8A0EB0901414503D3C2
:103B8000B8F1FF3F03D0DFE7B8F1000FDCD0E08EE3
:103B90000028E0D14A464146204601F071F908B1BB
:103BA00020206065A06818B92068C168806800900E
:103BB000606D08B1012601E084F8517084F850B0BE
:103BC000304661E72DE9FF4F81B0044690F8500080
:103BD00000260E9F1D4693464FF0010901280FD085
:103BE0004FF0010A84F850A0FFF77EF8804694F861
:103BF0005100616801280DD0B1F5827F08D103E042
:103C0000022005B0BDE8F08FA16809B9042801D0F1
:103C10000226C9E00298002865D0BBF1000FFBD056
:103C2000002DF9D094F85100042802D0052084F822
:103C3000510000206065C4F838B0E587A587029977
:103C40002163E586A58620646064206801684906D2
:103C500003D4016841F040010160E068B0F5006FF5
:103C6000606803D0F0B3012D47D081E008B1012D89
:103C70003CD1206B21680088C860206B801C2063C9
:103C8000E08E401EE08631E02068816889070FD50C
:103C9000E18E69B1B9F1010F0AD1216B0988C160C8
:103CA000206B801C2063E08E401EE0864FF00009F0
:103CB00020688168C9070CD0E18F51B1C068A16B41
:103CC0000880A06B801CA063E08F401EE0874FF04F
:103CD0000109FFF709F8A0EB0800B84206D3781CE9
:103CE00004D001E009E05BE003265BE0E08E002801
:103CF000CAD1E08F0028C7D140E0206B216800784E
:103D00000873206B401C2063E08E401EE0862FE08D
:103D10002068816889070FD5E18E69B1B9F1010F7B
:103D20000AD1216B09780173206B401C2063E08E5F
:103D3000401EE0864FF0000920688168C9070CD05A
:103D4000E18F51B1C068A16B0870A06B401CA063EB
:103D5000E08F401EE0874FF00109FEF7C5FFA0EBA2
:103D60000800B84202D3781C02D0BAE7002FB8D0BE
:103D7000E08E0028CCD1E08F0028C9D142463946D8
:103D8000204601F07DF818B10126202060650BE087
:103D9000A06818B92068C16880680090606D08B19B
:103DA000012601E084F851A0002084F8500030463C
:103DB00027E770477047000070B590F83C20012A53
:103DC00026D0012480F83C40022280F83D20036880
:103DD0005A689D6822F070060A6832435A600D4B9B
:103DE00002689A4208D0B2F1804F05D00A4B9A423D
:103DF00002D00A4B9A4204D1496825F08003194346
:103E0000916080F83D40002180F83C10084670BD6C
:103E1000022070BD002C014000040040000800405A
:103E200010B5040003D094F83D0010B107E0012064
:103E300010BD002084F83C00204600F01EF802204F
:103E400084F83D00211D206801F0E0F8012084F88D
:103E5000460084F83E0084F83F0084F8400084F86F
:103E6000410084F8420084F8430084F8440084F858
:103E7000450084F83D00002010BD704790F83D10CB
:103E8000012901D001207047022180F83D1001680E
:103E9000CA6842F00102CA6000680B49884208D033
:103EA000B0F1804F05D00949884202D008498842C4
:103EB00004D1816801F00701062903D0016841F0AF
:103EC0000101016000207047002C01400004004007
:103ED0000008004070472DE9F041054690F83C008D
:103EE00000260C46012810D0012085F83C0072B154
:103EF000042A1CD0082A2CD00C2A50D001260020DD
:103F000085F83C003046BDE8F0810220FBE7D4E9AB
:103F10000012E368286801F0AFF82868816921F091
:103F20000C01816128688169A26811430FE0D4E91E
:103F30000012E368286801F0CBF82868816921F451
:103F40004061816128688169A26841EA022181613A
:103F5000D5E72868D4E9002C277B036A016A21F49D
:103F600080710162C16923F4007321F0030141EA09
:103F70000C0121F0F00C39074FF400774CEA116185
:103F800007EA02221A43C16102622868C16921F06E
:103F90000C01C1612868C169A26811432BE028683F
:103FA000D4E90021E768036AD0F820C02CF4805CD3
:103FB000C0F820C0D0F81CC023F400532CF4407C7F
:103FC0004CEA012121F4704C4FF6FF7101EA0731F0
:103FD0004FF4005741EA0C0107EA02321A43C1616B
:103FE00002622868C16921F44061C1612868C16921
:103FF000A26841EA0221C16181E710B5040003D043
:1040000094F83D0010B107E0012010BD002084F8B5
:104010003C00204600F01EF8022084F83D00211DDF
:10402000206800F0F3FF012084F8460084F83E0089
:1040300084F83F0084F8400084F8410084F842008E
:1040400084F8430084F8440084F8450084F83D0077
:10405000002010BD00B585B00021009101910291B2
:1040600003910068B0F1804F1FD11148C16941F040
:104070000101C161C16901F001010491816941F04F
:10408000080181618069694600F0080004900820F9
:1040900000900848FEF732FD0748416821F440715E
:1040A00041F0E06141F48071416005B000BD000065
:1040B00000100240000C01400000014070B50446B1
:1040C000006801694FF00005C943890715D4C1682C
:1040D000C943890711D4E91E0161012020772068B6
:1040E00080698007204602D0FFF7F4FE04E000F06C
:1040F00098F8204600F096F8257720680169C943B2
:10410000490717D4C168C943490713D46FF00401A4
:104110000161022020772068806910F4407F2046EA
:1041200002D0FFF7D7FE04E000F07BF8204600F055
:1041300079F8257720680169C943090716D4C16851
:10414000C943090712D46FF00801016104202077E8
:104150002068C0698007204602D0FFF7BBFE04E05C
:1041600000F05FF8204600F05DF8257720680169CF
:10417000C943C90617D4C168C943C90613D46FF02F
:1041800010010161082020772068C06910F4407F89
:10419000204602D0FFF79EFE04E000F042F82046E1
:1041A00000F040F8257720680169C943C90708D1A4
:1041B000C168C943C90704D1891E0161204600F0C6
:1041C00033F820680169C943090609D4C168C943A5
:1041D000090605D46FF0800101612046FFF7E9FD73
:1041E00020680169C943490609D4C168C943490621
:1041F00005D46FF040010161204600F01FF82068EF
:104200000169C94389060BD4C168C943890607D42B
:104210006FF0200101612046BDE87040FFF7CABD84
:1042200070BD70477047000000680349884201D1A3
:10423000FEF706BF7047000000080040704770B5E9
:10424000040004D094F84100002510B106E00120DC
:1042500070BD84F84050204600F024F8242084F8F3
:1042600041002068C16821F40051C160204600F07F
:104270004BFF2068016921F4904101612068416988
:1042800021F02A0141612068C16841F40051C160F8
:104290006564202084F8410084F8420065630020B2
:1042A00070BD000070B586B00024009401940294A3
:1042B0000394234E0368234902200322224DB34274
:1042C00019D18B6943F480438B618B6903F480437C
:1042D00004938B6943F004038B618969039201F0B5
:1042E000040104910102CDE9001069462846FEF759
:1042F00005FC28151BE0154EB3421FD1CB6943F4D2
:104300000033CB61CB6903F4003304938B6943F032
:1043100004038B618969039201F004010491042173
:10432000CDE9001069462846FEF7E8FB0820CDE9F4
:104330000004694628460294FEF7E0FB06B070BD13
:1043400000380140001002400008014000440040D5
:104350002DE9F843044690F841001F4616460D46E5
:10436000202802D00220BDE8F8837DB176B100207C
:104370006064212084F84100FEF7B6FCA6848046E4
:10438000E684A068B0F5805F02D003E00120EAE790
:10439000206910B12E4600250EE000260CE0802199
:1043A000204600F00DFFA0B9AEB116F8010B216850
:1043B0004860E08C401EE084E08C43464FF00002F1
:1043C00000970028EBD14FF04001204600F0F8FEA6
:1043D00030B10320C7E735F8020BC0F30800E6E769
:1043E000202084F841000020BDE7FEE701684A690B
:1043F000D24352050FD46FF480624A61002140F825
:10440000301F202242738173026942F0040202616C
:10441000017301207047002070470000F8B5044682
:10442000C06A1E460D461746082807D0012805D049
:1044300010F5803F02D0206B122804D1206801685B
:1044400041F480710160134600224FF001112046B3
:10445000009600F05DF840B120680068C00502D504
:104460004FF4007020640320F8BD2069B0F5804F40
:104470000ED00620216800EAD51040F0F000086157
:1044800033463A460B49204600F08AF878B902E0F4
:1044900005F0FE0000E0E8B22168086105493346F6
:1044A0003A46891F204600F07BF80028DCD0012026
:1044B000F8BD00000800010070B516460D46044620
:1044C0001EE02046FFF792FF08B1012070BD681C76
:1044D00016D0FEF709FC801BA84200D885B92068D9
:1044E0004069C04340070BD5002044F8300F20211D
:1044F0006173A073216941F0200121612073E4E719
:1045000020684069C0434007DBD4002070BD000034
:104510002DE9F047984617460D460446C1F3074675
:10452000DDF820902AE000BFB8F1FF3F26D0FEF76B
:10453000DBFBA0EB0901414502D8B8F1000F1DD10A
:104540002068012E16D0806925EA00000004000CC6
:1045500012D00020B84211D1002044F8300F2021A1
:104560006173A073216941F0200121612073012052
:10457000BDE8F0874069E7E70120EBE72068012EFE
:104580000AD0806925EA00000004000C06D0002053
:10459000B842C9D00020EBE74069F3E70120F7E714
:1045A0002DE9F047984616460D4604464FF000099F
:1045B0004FF0200AC1F3074723E020684069C04359
:1045C000400515D42068016841F40071016021683C
:1045D0006FF480604861C4F8309084F83DA084F89E
:1045E0003E90216C41F00401216484F83C9021E06C
:1045F000701C06D0FEF778FBA0EB0800B04203D891
:1046000016B1012F1FD021E02068012F15D080693D
:1046100025EA00000004000C18D000BF44F8309FC9
:1046200084F80DA084F80E90216941F020012161E9
:1046300084F80C900120BDE8F087406925EA00006D
:104640000004000CEAD12068406901E0206880691C
:1046500025EA00000004000CAFD1ECE770B5164667
:104660000D4604461EE02046FFF7C0FE08B10120BB
:1046700070BD681C16D0FEF737FB801BA84200D81F
:1046800085B920684069C04300060BD5002044F876
:10469000300F20216173A073216941F02001216155
:1046A0002073E4E720684069C0430006DBD40020A3
:1046B00070BDF8B5044641F080008DF80000174643
:1046C0001E46A18800222068FEF708FB4FF4FA6519
:1046D0002B4601226946A069FFF7BDF9A069FFF7E3
:1046E0007BF80128FAD12B4632463946A069FFF7FC
:1046F000B2F9A069FFF770F80128FAD1A188012268
:104700002068FEF7EBFAF8BD10B51A2100F0A7F803
:10471000A43810BD70B50C460546012100F09FF885
:10472000024644B1012C0BD0032C0FD0052C13D022
:10473000062C17D01BE0002002F0F802E86116E01A
:10474000012002F0F802521CE86110E0032002F0A0
:10475000F802D21CE8610AE0052002F0F802521DBE
:10476000E86104E0062002F0F802921DE8612846A4
:10477000BDE87040012100F0F8B970B50446002191
:10478000FFF7C8FF0A20FEF737F90121204600F0A5
:1047900066F805460A20FEF72FF945F08002012150
:1047A000204600F0E2F96420FEF726F92046216A4F
:1047B00000F008F994F82A10204600F057F994F810
:1047C0002B10204600F033F923220C21204600F064
:1047D000CCF9204600F074F994F82410204600F03B
:1047E0004FF9FF221F21204600F0BFF994F8250061
:1047F00094F82610000100EB4100C2B21D212046B2
:1048000000F0B3F9204600F0B7F8208D2021020A0D
:10481000204600F0AAF994F828202121204600F033
:10482000A4F94021204600F01AF840F03F02402150
:10483000204600F09AF901212046FFF76BFF012086
:10484000E0610A20FEF7D8F84221204600F007F880
:10485000122802D04FF4CA7070BDC82070BD0EB5CA
:1048600001F07F018DF8081001210A46009101AB8B
:1048700002A900F003F89DF804000EBD2DE9F047F1
:104880000E461546044681889846DDF8209000685B
:104890000022FEF723FA4FF4FA673B462A463146D8
:1048A000A069FFF7D8F8A069FEF796FF0128FAD1B2
:1048B0003B464A464146A069FFF722F8A069FEF749
:1048C0008BFF0128FAD1A1882068BDE8F0470122BA
:1048D000FEF704BA2DE9F04100250E4607461446BE
:1048E0002846294601E03154401CA042FBDB01214F
:1048F0003846FFF70FFF12213846FFF7B0FF40069A
:104900001FD5FF221221384600F02FF91321384617
:10491000FFF7A5FF054610213846FFF7A0FF024626
:104920000D21384600F021F9AC4200D22546002482
:1049300005E000213846FFF792FF3055641CAC4279
:10494000F7DB05213846FFF7E5FE2846BDE8F08194
:1049500010B50446818980680022FEF7BFF9012066
:10496000FEF74AF8A1890122A068FEF7B7F9BDE871
:1049700010406420FEF740B810B594B004465022B1
:104980000F496846FBF737FF94F824100120884050
:1049900003F0A3FB94F825206B4603EBC203D3E995
:1049A000002303F0D7F903F069FB102801DD012192
:1049B00000E00021204600F025F814B010BD0000F2
:1049C000588D000870B50546C8044411C4F3074269
:1049D0000621284600F0C9F80520FEF70DF8C4F3BB
:1049E00007220721284600F0C0F80520FEF704F84A
:1049F000E2B20821284600F0B8F8BDE87040052072
:104A0000FDF7FABF70B50C4605462621FFF727FFD4
:104A100014B140F0080201E000F0F7022621284618
:104A200000F0A3F8BDE870400A20FDF7E5BF10B51F
:104A30002D2901D22D2105E0F02901D9F02106E030
:104A4000782904D805222D3991FBF2F103E00A22DE
:104A50001E31B1FBF2F1C9B22031CAB20B2100F014
:104A600084F8BDE810400A20FDF7C6BF10B50A461D
:104A7000092100F07AF8BDE810400A20FDF7BCBF1C
:104A800070B50C4606460C2901DD0C2402E0072C0B
:104A900000DA07241E21FFF7E2FE05460A20FDF793
:104AA000ABFF64F31F15EAB21E21304600F05DF83B
:104AB0000A20FDF7A1FF3046BDE87040FFF75CBF5C
:104AC00010B504461E21FFF7CAFE40F007021E2162
:104AD000204600F04AF8BDE810400A20FDF78CBFE0
:104AE0000521FFF717BE2DE9F0410F461C4616467B
:104AF00080460121C569FFF70DFE0E214046FFF7F4
:104B0000AEFE02460D21404600F02FF8324622212B
:104B1000404600F02AF833463A4600214046FFF767
:104B2000C8FD03214046FFF7F5FD12214046FFF77F
:104B300096FE00070BD5FF221221404600F015F823
:104B400029464046FFF7E6FD0120BDE8F081641EDE
:104B50002404240C03D00120FDF74EFFE5E729468D
:104B60004046FFF7D7FD0020EFE70EB541F080018A
:104B70008DF8081001218DF804200A46009101AB40
:104B800002A900F001F80EBD2DE9F0470E461546CA
:104B9000044681889846DDF8209000680022FEF7E0
:104BA0009DF84FF4FA673B462A463146A069FEF766
:104BB00052FFA069FEF710FE0128FAD13B464A4693
:104BC0004146A069FEF747FFA069FEF705FE0128F0
:104BD000FAD1A1882068BDE8F0470122FEF77EB82F
:104BE0003EB5002410480094019402940D4984605D
:104BF000016004730475012505614FF46021446070
:104C0000C161FDF7A9FD08B172B6FEE70095CDE9D7
:104C1000015469460448FDF71DFD002801D072B615
:104C2000FEE73EBD00240140BC0400203EB5002448
:104C300011480094019402940E4984600160047349
:104C40000475012505614FF460214460C161FDF7E1
:104C500083FD08B172B6FEE70920CDE9000569467B
:104C600002940548FDF7F6FC002801D072B6FEE775
:104C70003EBD000000280140EC0400202DE9F04179
:104C800086B000243748009401940294039481690B
:104C900041F020018161816901F020010491816965
:104CA00041F004018161816901F00401049181698D
:104CB00041F00801816180692B4F00F008000490E9
:104CC000012210213846FEF709F8DFF8A080012202
:104CD00011464046FEF702F800224FF4604140467C
:104CE000FDF7FCFF0022B9153846FDF7F7FF4FF43A
:104CF00088700126CDE90006022569463846CDE9CF
:104D00000245FDF7FBFE4EF20100CDE900066946C3
:104D10004046CDE90245FDF7F1FE154EA803CDE969
:104D20000006694602953846FDF7E8FE2020CDE9E9
:104D30000006694602944046FDF7E0FE00220E217F
:104D40001720FEF715FA1720FEF704FA00220621B5
:104D50002820FEF70DFA2820FEF7FCF906B0BDE882
:104D6000F08100000010024000080140000C0140EA
:104D7000000011100F4810B50D4901604FF4827109
:104D8000416000218160C1604FF400720161C0E99F
:104D900005121022C0E90721416281620A21C16225
:104DA000FEF71DFD002801D072B6FEE710BD000021
:104DB00000300140C405002010B586B0002417481B
:104DC000059404940094019402944FF0804103945C
:104DD000C0E900144FF6FF71C0E90241046184612B
:104DE000FFF70BF908B172B6FEE7049404A90B486B
:104DF0000594FEF7E1FF08B172B6FEE70120CDE9A8
:104E0000004002940422694604480394FFF763F8C3
:104E1000002801D072B6FEE706B010BD1C060020C7
:104E2000FEE7FEE7F8B5044640684FF48273984207
:104E300017D1A0684FF48065B0F5004F01D0A842AB
:104E40000FD12068066826F0400606606068984228
:104E500007D1A068A84204D100920B46002201218C
:104E600003E000920B4600228021204600F018F853
:104E7000002804D0606D40F0200060650320F8BD7C
:104E800038B50B46009204460022802100F008F855
:104E9000002804D0606D40F020006065032038BD1C
:104EA0002DE9F8431E46914688460446089DFDF7C5
:104EB0001BFF401B351AFDF717FF07462548006802
:104EC000C0F3CB30684338E0701C37D0FDF70CFFDF
:104ED000C01BA84203D215B1009860B32CE0206833
:104EE000416821F0E00141606068B0F5827F0BD13C
:104EF000A068B0F5004F02D0B0F5806F04D12068F3
:104F0000016821F040010160A06AB0F5005F09D19D
:104F10002068016821F4005101602068016841F4B3
:104F200000510160012084F85100002084F85000F5
:104F30000320BDE8F8830025401E009020688168AA
:104F400038EA010004D000214945BDD10020F0E736
:104F50000121F9E74C00002010B5502080F31188A2
:104F6000BFF34F8FBFF36F8F02F044FC18B10449B9
:104F70004FF080500860002080F3118810BD0000C1
:104F800004ED00E030B593B028216846FBF765FCDE
:104F900014210AA8FBF761FC002501200F9510954C
:104FA0001195010412958DE8230004904FF4E01050
:104FB000CDE90810022407946846FEF77DFA08B18F
:104FC00072B6FEE70AA90F2081E831004FF4806035
:104FD000CDE90D0502210AA8FEF772F908B172B6F3
:104FE000FEE74FF4004011900F940FA8FEF7F2F87F
:104FF000002801D072B6FEE713B030BD7047000044
:105000000148FFF75BB80000080C0020F0B502680B
:10501000164B174C174D4FF08047984205D0B842B9
:1050200003D0A04201D0A84203D122F070064A6802
:105030003243984205D0B84203D0A04201D0A842E2
:1050400003D122F44074CA6822434C6922F08002E2
:10505000224302608A68C2620A688262984201D171
:105060000969016301214161F0BD0000002C01408C
:10507000000400400008004070B5056A046A24F08E
:105080000104046284690F4EB04208D0B0F1804F31
:1050900005D00D4EB04202D00C4EB04203D124F0E8
:1050A0000304144301E044F001041A0724F0F0045F
:1050B00044EA126225F00A0301F00A0119438261F1
:1050C000016270BD002C0140000400400008004057
:1050D00030B5046A056A25F010050562856925F476
:1050E000407545EA022222F470454FF6FF7202EA4B
:1050F000033224F0A0032A43A02404EA0111194337
:105100008261016230BD000070B50446006801692B
:10511000E26821F44051114301612169A06808430C
:10512000616908432168CA6841F20C639A430243EB
:10513000CA6020684169A26921F44071114341614C
:105140001E492068884202D1FEF780F901E0FEF78F
:105150006DF900EBC00101EB001260686421800072
:10516000B2FBF0F3B3FBF1F36FF018067343B2FB3D
:10517000F0F5B2FBF0F605EB8305322303EB0515E2
:10518000B5FBF1F5B6FBF1F605F0F00505EB0615FC
:10519000B2FBF0F6B2FBF0F0B0FBF1F06FF01802EA
:1051A000504306EB800003EB0010B0FBF1F02168E8
:1051B00000F00F002844886070BD000000380140F6
:1051C0002DE9F041984617460E460446069D27E015
:1051D000681C25D02DB1FDF787FDA0EB0800A84283
:1051E0001ED920680C3050E8001F21F4D07140E82F
:1051F0000012002AF5D12068143050E8001F21F079
:10520000010140E80012002AF5D1202084F8410075
:1052100084F84200002084F840000320BDE8F081BB
:105220002068006836EA000004D00020B842CFD0E1
:105230000020F3E70120F9E7FEE7490050EAC1202A
:1052400018BF04204A0D18BF40F0010040F2FF7261
:10525000B2EB515F08BF40F00200012808BF0520F3
:1052600070470907090E002804DB00F1E02080F8F0
:105270000014704700F00F0000F1E02080F8141DCA
:10528000704740F2013200204FF0E04103F0E4BCEF
:10529000024A0020110703F0DFBC000001FDFFFF00
:1052A00010B50446D1E9000100F002F8206010BDFD
:1052B000F8B504460D466A4600F0D2F900987E30F3
:1052C000009000281EDC002213462046294602F0EA
:1052D00099FE17D0002140F608004FF00000064666
:1052E0002046294602F048FC044640F6080006EA3B
:1052F00000014FF0000034F0004004BF0220FCF732
:1053000053FA29E00098FF2828DB002108464FF0D7
:10531000000000F44006002213462046294603F010
:105320002DF88CBF002501250220FCF73DFA4FF037
:10533000FF4446B1002D0CBF4FF400004FF4800035
:10534000B04218BF084C042108464FF00000002D61
:1053500004BF84F00040F8BD2046F8BD2046294631
:10536000BDE8F84002F008BCFFFF7F7F10B504469F
:105370000A46D4E90003194600F0B0FAC4E9000176
:1053800010BD30380A2801D2012070470020704734
:1053900010B530B1036823B1D0E90121914201D2A7
:1053A00004E0002010BD491C816020B1914202D26E
:1053B0005C5C202CF7D99142F4D1491E816010BD6C
:1053C00070B504460F4E19E0A0892568C0050AD4BF
:1053D000A06820B1FFF7F4FFA089C00503D42069BD
:1053E00008B171688847A089800503D4206A08B194
:1053F000716888477168204688472C46002CE3D1A5
:1054000070BD000058000020012200F0A1B9002862
:1054100003D0007B102801D0002070470120704786
:1054200010B5016828208847040002D02821FBF726
:1054300014FA204610BD0022114600F06FB800009B
:105440002DE9F04788B00F4604469A4616461C21BF
:105450006846FBF702FA2F480025002C05604560DE
:1054600055D08146E7B3CDE900470295D9E902124C
:10547000D9F810000491CDE9052009F10800FFF7E3
:10548000CFFF5FEA00082BD000986F4608B1029862
:1054900008B100270BE00198042808D903221EA1B7
:1054A0000098FBF70CF910B90298C01C029038461E
:1054B000FFF76EFF0146404600F06EFF68B1BAF19B
:1054C000000F13D06846FFF763FFDDE90101814259
:1054D00003D202990098405C40B14046FFF770FF4C
:1054E000DDE9011088420AD205460BE01EB102999F
:1054F000009808443060404608B0BDE8F087081EB8
:1055000000D0451E0EB160193060C9E90045002089
:10551000F2E7000050000020EFBBBF0070B5154659
:105520000E46040009D0FBF7ABF8411C2B4632466F
:105530002046BDE87040FFF783BF002070BD00002B
:1055400010B503F03BF802460B460448044902F04C
:1055500001FCBDE8104002F00FBB0000713D0AD70E
:10556000A31AA24010B503F029F80F4A0F4B02F01E
:10557000F1FB0F4A0F4B02F031FB0F4A0F4B02F0C9
:10558000E9FB4FF0FF3203F067FB02F0F5FA0C493C
:1055900003F0B6FA03F012F80A4A0B4B02F0DAFBFA
:1055A000BDE8104002F0E8BAABAAAAAAAAAA304005
:1055B00025068195438BCC3F213EB0E3BF40203F81
:1055C00000007A44CDCCCCCCCCCC0E4010B5FA2126
:1055D0001748FBF742F9164C0A21FC34201DFBF753
:1055E0003CF9206802F0EAFF02460B4611A1201D9B
:1055F000FAF712FF11A10E48FBF7ACF811A10C4805
:10560000FBF7A8F811A10A48FBF7A4F810A1084875
:10561000FBF7A0F8211D0648FBF79CF80BA10448F6
:10562000FBF798F8BDE810400CA10148FBF792B8D1
:10563000A808002025302E32660000007B22494455
:10564000223A22004E443739373000002200000051
:105650002C2253414C223A22000000007D00000021
:1056600010B5144600222260114A21F000439342F3
:10567000A8BF10BD53EA000208BF10BDB3F5801FDC
:10568000A8BF226807DA362203F0E6FA6FF0350287
:1056900021F000432260DFF81CC06FF31E510CEBB9
:1056A00023531A4441F0FF5141F00051226010BDD4
:1056B0000000F07F02FCFFFF2DE9F04105461C4889
:1056C0000E46806802F07AFF07460C4619492846C4
:1056D00003F018F902F072FF0022174B02F03AFBB8
:1056E0000022164B02F036FB3A46234602F048FDF4
:1056F00002F042FA0446304602F060FF0022104BEE
:1057000002F072FE0F4A104B02F03AFD00220F4BDE
:1057100002F064FA06460D46204602F04FFF32467C
:105720002B4602F017FBBDE8F04102F025BA00005D
:10573000000000200050C34700A0894000006940DD
:10574000000039407B14AE47E17A943F0000F03FFF
:105750002DE9F0418846A8B3B8F1000F33D0846832
:105760000AB90AE024686CB3216A59B34046FBF7D2
:105770009BF80028F6D120E024681CB3266A5FEA73
:105780000805F9D0002EF7D0B54218D002E098B144
:105790006D1C761C2878FAF731FE07463078FAF748
:1057A0002DFE87422878F2D0FAF728FE0546307899
:1057B000FAF724FE8542DFD124B1206A10B12046D9
:1057C000BDE8F081FFE70020FAE7EFF3058000284D
:1057D00000D001207047012805D04031C8B240F008
:1057E000800000F031B88031C8B2FAE710B533203C
:1057F00000F02AF8322000F027F83220FDF7FCF8FC
:10580000282000F021F83220FDF7F6F8012000F002
:105810001BF83220FDF7F0F8062000F015F83220D2
:10582000FDF7EAF80C2000F00FF83220FDF7E4F85D
:10583000022000F009F83220FDF7DEF8BDE8104044
:10584000802000F001B800001CB500F0F00141F02C
:105850000C028DF8042041F0080100018DF80510BC
:1058600040F00C018DF8061040F008008DF807009C
:1058700064200090042301AA4E210248FDF7FEFA9D
:105880001CBD00001C0500201CB500F0F00141F01B
:105890000D028DF8042041F0090100018DF805107A
:1058A00040F00D018DF8061040F009008DF807005A
:1058B00064200090042301AA4E210248FDF7DEFA7D
:1058C0001CBD00001C05002010B5044602E0641C4D
:1058D000FFF7DAFF20780028F9D110BD2DE9F0415B
:1058E00006460C4640F2FF75174635EA14502BD099
:1058F00000221346304602F085FB25D03A4630465A
:10590000214603F0A9F906460C4635EA145010D09A
:1059100000221346304602F075FB15D10220FBF73A
:1059200043FFFFF7B5FC0A46214662F31E01BDE8BE
:10593000F0810220FBF738FFFFF7A3FC0A4621465F
:1059400062F31E01BDE8F08130462146BDE8F081DA
:105950009CB06A48684900244160816068490460DD
:10596000C160FDF775FBFFF70DFBFFF787F9FFF748
:1059700001FA654863494FF4E1350160C0E901541B
:105980004FF00C08C460C0E904488461C461FEF7AC
:1059900056FC08B172B6FEE7FFF722F95C485B4996
:1059A0005C4F0160C0E901740E14C0E90346446114
:1059B0008461C4610462FDF79DF908B172B6FEE727
:1059C0005348554954300160C0E90174C0E90346A9
:1059D00044618461C4610462FDF78CF908B172B658
:1059E000FEE749484D4948300160C0E90154C460B0
:1059F000C0E9044884614546C461FEF720FC08B153
:105A000072B6FEE7FFF7D8F9FFF710F9684600F025
:105A1000EBF93D482C2269469030FAF7ECFE3A4902
:105A20000122A03901F5987081613D4902C0102121
:105A300020F8041B3B4902C0028041602021018103
:105A400040F2B11141610576072141768276FF214E
:105A500081777821C1770A2181832B489030FEF726
:105A600077FF29489030FEF788FE0546264890309B
:105A7000FFF736F8C82D35D02BA000BF00F00AFD87
:105A8000FFF7B4FE0022134630A13448FAF7C4FCF5
:105A900000210120FFF79FFE3048FFF715FF199402
:105AA000012119A81A9400F0C7F92D4C1C222D4988
:105AB00060630BA8FAF79FFE00210BA800F036FAEE
:105AC0002849E0621C221C3112A8FAF794FE00213A
:105AD00012A800F02BFA2063606B00F0CDF900F003
