:020000040800F2
:1000000080070020910100089B19000803140008D4
:1000100099190008830400086D1C00080000000006
:10002000000000000000000000000000D51A0008D9
:1000300085040008000000009D190008D71A000878
:10004000AB010008AB010008AB010008AB010008E0
:10005000AB010008AB010008AB010008AB010008D0
:10006000AB010008AB010008AB010008AB010008C0
:10007000AB010008AB010008AB010008AB010008B0
:10008000AB010008AB010008AB010008AB010008A0
:10009000AB010008AB010008AB010008AB01000890
:1000A000AB010008AB010008AB010008AB01000880
:1000B000AB010008AB010008AB010008AB01000870
:1000C000AB010008AB010008AB010008AB01000860
:1000D000AB010008AB010008AB010008AB01000850
:1000E000AB010008AB010008AB01000800F002F80A
:1000F00000F03FF80AA090E8000C82448344AAF183
:100100000107DA4501D100F034F8AFF2090EBAE880
:100110000F0013F0010F18BFFB1A43F0010318473B
:100120005021000070210000103A24BF78C878C127
:10013000FAD8520724BF30C830C144BF04680C60ED
:10014000704700000023002400250026103A28BF35
:1001500078C1FBD8520728BF30C148BF0B60704739
:10016000732900F05081002070471FB51FBD10B5E6
:1001700010BD00F04CF91146FFF7F7FF01F088FDC4
:1001800000F06AF903B4FFF7F2FF03BC00F072F964
:100190000948804709480047FEE7FEE7FEE7FEE71B
:1001A000FEE7FEE7FEE7FEE7FEE7FEE70448054957
:1001B000054A064B70470000391B0008ED00000897
:1001C00080010020800700208003002080030020A1
:1001D0000FB41CB5074B06AA7B44694600900598EE
:1001E00000F0E7F80020694600F0F6F81CBC5DF866
:1001F00014FB0000FD0100002DE9F0410E4604460D
:10020000002020622046E168884730B3252805D0C9
:10021000D4E901219047206A401CF2E7E1682046BA
:1002200000278847050018D0A5F14100192802D8F9
:1002300020354FF400673246294620462760FFF7F5
:100240008FFF40B1012804D0F61D26F007060836BE
:10025000D8E7361DD6E72846DAE7206ABDE8F08100
:1002600070B50C460546012A05D02878800600D5D1
:10027000EA69002302E0012305E05B1C934202D2FD
:10028000E05C0028F9D1A869E618C01AA861286ABC
:10029000184428622846AFF3008004E0D5E9012124
:1002A00014F8010B9047B442F8D32846AFF300800E
:1002B00070BD10B5431C02E010F8011B71B181073D
:1002C000FAD14FF0013202C88C1A8C4314EAC211E1
:1002D000F9D0C01A0A0603D0C01E10BDC01A10BD46
:1002E0000A0401D0801E10BD0902FCD0401E10BDC2
:1002F00010B5203AC0F00B80B1E81850203AA0E8C1
:100300001850B1E81850A0E81850BFF4F5AF5FEAF4
:10031000027C24BFB1E81850A0E8185044BF18C9A7
:1003200018C0BDE810405FEA827C24BF51F8043B4E
:1003300040F8043B08BF7047D20728BF31F8023BA2
:1003400048BF11F8012B28BF20F8023B48BF00F836
:10035000012B70474FF0000200B5134694469646B5
:10036000203922BFA0E80C50A0E80C50B1F12001C8
:10037000BFF4F7AF090728BFA0E80C5048BF0CC076
:100380005DF804EB890028BF40F8042B08BF7047D4
:1003900048BF20F8022B11F0804F18BF00F8012B46
:1003A000704770477047704701694A1C02610878BE
:1003B000704700B58FB0CDE90131002105910549A5
:1003C0007944CDE9031011466846FFF715FF0FB0D9
:1003D00000BD0000E5FFFFFF0A6802F8010B0A609C
:1003E000704710B5436913B1AFF3008001E0FFF728
:1003F00037FF012010BD127800F124010A7000229D
:100400004A700122EDE711684FF0FF32E9E77546C7
:1004100000F02CF8AE4605006946534620F0070070
:10042000854618B020B5FFF7C1FEBDE820404FF06B
:1004300000064FF000074FF000084FF0000B21F0CE
:100440000701AC46ACE8C009ACE8C009ACE8C0099B
:10045000ACE8C0098D46704710B50446AFF3008084
:100460002046BDE81040FFF78DBE000000487047F1
:100470001C01002001491820ABBEFEE72600020047
:100480007047FEE77047000070B5044600F004F9BD
:100490000546601C02D004480078044400F0FCF8D3
:1004A000401BA042FAD370BD000000202DE9F84F98
:1004B000DFF8B8910024A9F1040B23460F2709F1B6
:1004C000040AABF1040EC9E00125A5402A40AA4266
:1004D0007DD1674ED1F804C0ACEB0608B44532D0EC
:1004E00014DCBCF1030F3AD009DCBCF1000F2AD0B8
:1004F000BCF1010F1CD0BCF1020F31D11DE0BCF1E9
:10050000110F17D0BCF1120F2AD119E0B8F5881FCE
:1005100019D006DCB8F5803F15D0B8F5801F1FD183
:1005200011E0B8F5001F0ED0B8F5041F18D10AE08D
:10053000CB6815E0CB681B1D12E0CB6808330FE0D9
:10054000CB680C330CE08B682BB1012B4FF0080308
:1005500003D0456104E0042302E0056100E00023CC
:10056000FF2A01D8064601E000F104064FEA84059F
:1005700001D9A5F12005D6F8008007FA05FC28EA84
:100580000C0803FA05F548EA0508C6F800804D682E
:10059000ED0062D5374DAE6946F00106AE61AD693A
:1005A00024F0030605F001050095334D06EB050C1C
:1005B000DCF80850A607360F07FA06F825EA080502
:1005C000DFF8B880404503D14FF0000817E044E061
:1005D000DFF8AC80404502D14FF001080FE0DFF8B2
:1005E000A480404502D14FF0020808E0DFF898806F
:1005F000404502D14FF0030801E04FF0040808FA2B
:1006000006F848EA0508CCF808804D68D9F800607B
:10061000ED024D4601D5164300E096432E604D682D
:10062000DAF80060AD02554601D5164300E0964366
:100630002E604D68DBF80060AD035D4601D51643C2
:1006400000E096432E604D68DEF80060ED037546CD
:1006500001D5164300E096432E60641C0D682A46BF
:10066000E5407FF431AFBDE8F88F00000804014099
:10067000000011100010024000000140000801407D
:10068000000C014000100140001401400AB101615A
:1006900070470904FBE700000148806870470000CC
:1006A0000000002002488168027811448160704790
:1006B00000000020074810B5016841F010010160FA
:1006C000032000F067F80F2000F006F800F024F88F
:1006D000002010BD0020024070B50D4D04464FF4BF
:1006E0007A712878B1FBF0F00A490968B1FBF0F0A3
:1006F00000F0BBFD48B9102C07D200222146501E45
:1007000000F028F800206C6070BD012070BD000072
:10071000000000200C0000200C4808B5816941F061
:1007200001018161816901F001010091C16941F01C
:100730008051C161C06900F0805000900448416858
:1007400021F0E06141F00071416008BD00100240FD
:1007500000000140F0B40E4B1B680C46C3F30223AB
:10076000C3F10705042D00D90425191D072901D25D
:10077000002300E0DB1E012606FA05F1491E214098
:1007800099409E40761E16403143F0BC01F06FBA8E
:100790000CED00E0064900F0070208684FF6FF0381
:1007A000184040EA0220034A1043086070470000E6
:1007B0000CED00E00000FA052DE9F0470F460500BA
:1007C00061D0434E306800F00700B84209D230686B
:1007D00020F0070038433060306800F00700B8426E
:1007E00051D128683B4C810712D5400703D560687A
:1007F00040F4E06060602878000703D5606840F44A
:10080000605060606068A96820F0F0000843606094
:100810002878C00728D06868012810D021680228ED
:1008200010D0890700292EDA616821F00301014305
:100830006160FFF731FF804641F288390DE02168A1
:100840008903EFE78901EDE7FFF726FFA0EB080139
:10085000494502D90320BDE8F0876068696800F067
:100860000C00B0EB810FEFD1306800F00700B84208
:100870000BD9306820F0070038433060306800F052
:100880000700B84201D00120E5E72878400705D5E8
:100890006068E96820F4E060084360602878000739
:1008A00006D56068296920F4605040EAC1006060A4
:1008B00000F038F86168084AC1F30311515CC84080
:1008C0000649086006480068FFF706FF0020C2E7F7
:1008D0000020024000100240022200080C0000200C
:1008E000040000200448054900684968044AC1F32F
:1008F0000221515CC84070470C00002000100240EB
:10090000122200080448054900684968044AC1F3F6
:10091000C221515CC84070470C000020001002400A
:10092000122200080E4A51680E4801F00C03042BF5
:1009300011D0082B0FD10C48C1F38343C903C05C0D
:100940000AD55168084AC1F34041921E515C054ADC
:100950005043B0FBF1F07047044948437047000032
:100960000010024000127A00F221000800093D0048
:100970002DE9F84F040070D02078C04DC00749D051
:100980006868C0F38100012807D06868C0F381005F
:10099000022809D16868C00306D52868800339D5C4
:1009A00060680028E7D035E06068B0F5803F0BD084
:1009B00010B1B0F5A02F11D0286820F48030286045
:1009C000286820F4802002E0286840F48030286005
:1009D000606890B1FFF760FE06460AE0286840F4C0
:1009E00080202860F0E700BFFFF756FE801B6428D8
:1009F00073D828688003F7D50CE0FFF74DFE064654
:100A000005E000BFFFF748FE801B6428F0D8286887
:100A10008003F7D420789A4E80074FF001094FF0F9
:100A2000000839D5686810F00C0F07D06868C0F36B
:100A30008100022809D16868C00306D428688007AD
:100A400014D52069012808D110E02069B0B1C6F89A
:100A50000090FFF721FE074605E00AE1FFF71CFEC4
:100A6000C01B0228C4D828688007F7D528686169A8
:100A700020F0F80040EAC10028600DE0C6F80080D0
:100A8000FFF70AFE074604E0FFF706FEC01B022838
:100A900023D828688007F7D4207800072CD5794818
:100AA000A169D9B1C0F80090FFF7F6FD074604E050
:100AB000FFF7F2FDC01B02280FD8686A8007F7D540
:100AC00071484FF4FA510068B0FBF1F0009000BF9C
:100AD0000098411E0091FAD20EE080E0C0F800803C
:100AE000FFF7DAFD074604E0FFF7D6FDC01B02283A
:100AF00075D8686A8007F7D42078400760D5E86920
:100B00000027C00008D4E86940F08050E861E86937
:100B1000012700F0805000905C480168C90513D49B
:100B20000168834641F480710160FFF7B5FD82469C
:100B300006E000BFFFF7B0FDA0EB0A0064284ED826
:100B4000DBF80000C005F5D5E06801280AD008B13F
:100B5000052813D0286A20F001002862286A20F0B6
:100B6000040002E0286A40F001002862E06841F2D7
:100B7000883B98B1FFF790FD82460BE0286A40F071
:100B800004002862EEE700BFFFF786FDA0EB0A0134
:100B900059455AD8286A8007F6D50CE0FFF77CFD46
:100BA000824605E0FFF778FDA0EB0A0159454CD8D5
:100BB000286A8007F6D41FB1E86920F08050E86108
:100BC000E06988B36968C1F38101022944D0022831
:100BD000C6F8608004D0FFF75FFD044638E034E0DB
:100BE000FFF75AFD074604E0FFF756FDC01B022839
:100BF0002BD828688001F7D4206AB0F5803F05D152
:100C00006868A16820F4003008436860D4E90801EE
:100C10000843696821F4741108436860C6F860905D
:100C2000FFF73AFD044606E025E000BFFFF734FD7C
:100C3000001B022809D828688001F7D51BE000BFF7
:100C4000FFF72AFD001B022802D90320BDE8F88F18
:100C500028688001F4D40EE00128F7D06868226A81
:100C600000F48031914204D1616A00F4701088422E
:100C700001D00120EAE70020E8E700000010024070
:100C800000004242800442420C00002000700040FC
:100C900090F85100704770B5040009D0606A0025D3
:100CA00040B125616561A56294F8510040B10CE046
:100CB000012070BD6068B0F5827FF4D0E561F2E795
:100CC00084F85050204600F03FF8022084F851008C
:100CD0002068016821F040010160A088218900F4AA
:100CE000827001F404410843A18901F400610843C2
:100CF000217C01F002010843217D01F0010108433C
:100D0000218B01F400710843217F01F03801084371
:100D100094F8201001F080010843218D01F4005166
:100D2000084321680860A069042101EA1040216895
:100D300048602068C16921F40061C16165650120D6
:100D400084F85100002070BD30B585B000240094B7
:100D500001940294039400681449884223D11448F2
:100D6000816941F480518161816901F4805104916C
:100D7000816941F00401816180690E4D00F0040039
:100D80000490A02000900220019003200390694667
:100D90002846FFF78BFB4020CDE900046946284632
:100DA0000294FFF783FB05B030BD00000030014026
:100DB00000100240000801402DE9F84F044690F869
:100DC0005100984616460F460025012801D00225FD
:100DD00098E060684FF0040BB0F5827F01D1A06805
:100DE000F8B194F85000012826D04FF0010984F89A
:100DF0005090FFF751FC8246002F7FD0002E7DD00F
:100E000084F851B000206065A763A687E687206359
:100E1000A086E08620646064A068B0F5004F0DD025
:100E200016E084F851B013460A462046CDF80080FB
:100E300000F024F9BDE8F88F0220FBE72068016884
:100E400021F0400101602068016821F480410160C7
:100E500020680168490603D4016841F0400101603F
:100E6000E068D8B13BE020688168C90709D0007B01
:100E7000A16B0870A06B401CA063E08F401EE08750
:100E80000CE0FFF709FCA0EB0A01414503D3B8F1E0
:100E9000FF3F03D006E0B8F1000F03D0E08F002839
:100EA000E1D11FE003252BE020688168C90709D044
:100EB000C068A16B0880A06B801CA063E08F401EFF
:100EC000E0870CE0FFF7E8FBA0EB0A01414503D304
:100ED000B8F1FF3F03D0E5E7B8F1000FE2D0E08FB3
:100EE0000028E1D152464146204600F058FD08B1A5
:100EF00020206065606D00E000E008B1012501E0A0
:100F000084F85190002084F85000284692E72DE99B
:100F1000F84F044690F850000026984615468A4639
:100F200001280CD0012784F85070FFF7B5FB8146EB
:100F300094F85100B346012804D002269AE002201A
:100F4000BDE8F88FBAF1000F6FD0002D6DD00320EF
:100F500084F85100C4F854B0C4F830A0A586E586E2
:100F6000C4F838B0A4F83CB0A4F83EB0C4F844B01B
:100F7000C4F840B0A068B0F5004F09D120680168FE
:100F800021F0400101602068016841F48041016066
:100F900020680168490603D4016841F040010160FE
:100FA000E068B0F5006F606803D058B3012D29D018
:100FB00049E008B1012D1FD1206B21680088C8606D
:100FC00006E020688168890709D5216B0988C1601E
:100FD000206B801C2063E08E401EE0860CE0FFF753
:100FE0005BFBA0EB0901414503D3B8F1FF3F03D000
:100FF00006E0B8F1000F03D0E08E0028E1D125E033
:10100000032635E0206B21680078087306E020682D
:10101000816889070AD5216B09780173206B401C10
:101020002063E08E401EE0860DE01FE0FFF734FBFA
:10103000A0EB0901414503D3B8F1FF3F03D0DFE73F
:10104000B8F1000FDCD0E08E0028E0D14A464146DE
:10105000204600F0D2FC08B120206065A06818B9D5
:101060002068C16880680090606D08B1012601E0C9
:1010700084F8517084F850B0304661E72DE9FF4F95
:1010800081B0044690F8500000260E9F1D469346FE
:101090004FF0010901280FD04FF0010A84F850A049
:1010A000FFF7FAFA804694F85100616801280DD0E4
:1010B000B1F5827F08D103E0022005B0BDE8F08FD2
:1010C000A16809B9042801D00226C9E002980028C5
:1010D00065D0BBF1000FFBD0002DF9D094F8510082
:1010E000042802D0052084F8510000206065C4F86F
:1010F00038B0E587A58702992163E586A586206437
:10110000606420680168490603D4016841F0400129
:101110000160E068B0F5006F606803D0F0B3012DA6
:1011200047D081E008B1012D3CD1206B21680088B7
:10113000C860206B801C2063E08E401EE08631E09A
:101140002068816889070FD5E18E69B1B9F1010F77
:101150000AD1216B0988C160206B801C2063E08E5E
:10116000401EE0864FF0000920688168C9070CD056
:10117000E18F51B1C068A16B0880A06B801CA06397
:10118000E08F401EE0874FF00109FFF785FAA0EBE2
:101190000800B84206D3781C04D001E009E05BE007
:1011A00003265BE0E08E0028CAD1E08F0028C7D17B
:1011B00040E0206B216800780873206B401C20639E
:1011C000E08E401EE0862FE02068816889070FD5F9
:1011D000E18E69B1B9F1010F0AD1216B0978017370
:1011E000206B401C2063E08E401EE0864FF000091B
:1011F00020688168C9070CD0E18F51B1C068A16B2C
:101200000870A06B401CA063E08F401EE0874FF089
:101210000109FFF741FAA0EB0800B84202D3781C9D
:1012200002D0BAE7002FB8D0E08E0028CCD1E08FF2
:101230000028C9D142463946204600F0DEFB18B1ED
:101240000126202060650BE0A06818B92068C168FD
:1012500080680090606D08B1012601E084F851A01B
:10126000002084F85000304627E710B5401EB0F14A
:10127000807F01D3012010BD4FF0E02460610F2179
:10128000601700F0F4FC0020A0610720206100201E
:1012900010BD70B5040004D094F84100002510B1D1
:1012A00006E0012070BD84F84050204600F024F88C
:1012B000242084F841002068C16821F40051C160F5
:1012C000204600F03BFC2068016921F49041016157
:1012D0002068416921F02A0141612068C16841F418
:1012E0000051C1606564202084F8410084F8420008
:1012F0006563002070BD000030B585B00024009407
:1013000001940294039400681449884224D114483B
:10131000816941F480418161816901F480410491D6
:10132000816941F00401816180690E4D00F0040083
:1013300004904FF40070009002200190032003906D
:1013400069462846FFF7B2F82815CDE9000469463A
:1013500028460294FFF7AAF805B030BD00380140D6
:1013600000100240000801402DE9F843044690F8BF
:1013700041001F4616460D46202802D00220BDE837
:10138000F8837DB176B100206064212084F84100AB
:10139000FFF782F9A6848046E684A068B0F5805FF6
:1013A00002D003E00120EAE7206910B12E460025B3
:1013B0000EE000260CE08021204600F01BFCA0B9C6
:1013C000AEB116F8010B21684860E08C401EE08445
:1013D000E08C43464FF0000200970028EBD14FF01D
:1013E0004001204600F006FC30B10320C7E735F885
:1013F000020BC0F30800E6E7202084F8410000203B
:10140000BDE7FEE7F8B5044641F080008DF8000026
:1014100017461E46A18800222068FFF737F94FF4CF
:10142000FA652B4601226946A069FFF770FDA069A5
:10143000FFF72EFC0128FAD12B4632463946A06927
:10144000FFF765FDA069FFF723FC0128FAD1A18809
:1014500001222068FFF71AF9F8BD70B50C46054661
:10146000012100F09FF8024644B1012C0BD0032C5F
:101470000FD0052C13D0062C17D01BE0002002F053
:10148000F802E86116E0012002F0F802521CE8615F
:1014900010E0032002F0F802D21CE8610AE0052007
:1014A00002F0F802521DE86104E0062002F0F802A2
:1014B000921DE8612846BDE87040012100F0BBB9EB
:1014C00070B504460021FFF7C8FF0A20FEF7DCFFD5
:1014D0000121204600F066F805460A20FEF7D4FFF9
:1014E00045F080020121204600F0A5F96420FEF7B6
:1014F000CBFF2046216A00F0CBF894F82A10204652
:1015000000F01AF994F82B10204600F0F6F8232288
:101510000C21204600F08FF9204600F037F994F8AE
:101520002410204600F012F9FF221F21204600F06F
:1015300082F994F8250094F82610000100EB410090
:10154000C2B21D21204600F076F9204600F07AF85C
:10155000208D2021020A204600F06DF994F8282001
:101560002121204600F067F94021204600F01AF8BA
:1015700040F03F024021204600F05DF90121204665
:10158000FFF76BFF0120E0610A20FEF77DFF42219B
:10159000204600F007F8122802D04FF4CA7070BD40
:1015A000C82070BD0EB501F07F018DF80810012133
:1015B0000A46009101AB02A900F003F89DF804006F
:1015C0000EBD2DE9F0470E46154604468188984623
:1015D000DDF8209000680022FFF758F84FF4FA6712
:1015E0003B462A463146A069FFF791FCA069FFF708
:1015F0004FFB0128FAD13B464A464146A069FFF716
:10160000DBFBA069FFF744FB0128FAD1A188206821
:10161000BDE8F0470122FFF739B810B504468189CB
:1016200080680022FFF732F80120FEF72DFFA18924
:101630000122A068FFF72AF8BDE810406420FEF7F9
:1016400023BF000010B594B0044650220F496846ED
:10165000FEF74EFE94F824100120884000F05DFD56
:1016600094F825206B4603EBC203D3E9002300F076
:10167000CDFB00F023FD102801DD012100E0002159
:10168000204600F025F814B010BD0000202200080C
:1016900070B50546C8044411C4F307420621284624
:1016A00000F0C9F80520FEF7EFFEC4F3072207217A
:1016B000284600F0C0F80520FEF7E6FEE2B2082159
:1016C000284600F0B8F8BDE870400520FEF7DCBE03
:1016D00070B50C4605462621FFF764FF14B140F0B3
:1016E000080201E000F0F7022621284600F0A3F8E6
:1016F000BDE870400A20FEF7C7BE10B52D2901D203
:101700002D2105E0F02901D9F02106E0782904D83F
:1017100005222D3991FBF2F103E00A221E31B1FBC3
:10172000F2F1C9B22031CAB20B2100F084F8BDE851
:1017300010400A20FEF7A8BE10B50A46092100F0A5
:101740007AF8BDE810400A20FEF79EBE70B50C4640
:1017500006460C2901DD0C2402E0072C00DA0724E0
:101760001E21FFF71FFF05460A20FEF78DFE64F3DA
:101770001F15EAB21E21304600F05DF80A20FEF780
:1017800083FE3046BDE87040FFF75CBF10B50446ED
:101790001E21FFF707FF40F007021E21204600F040
:1017A0004AF8BDE810400A20FEF76EBE0521FFF79B
:1017B00054BE2DE9F0410F461C46164680460121D5
:1017C000C569FFF74AFE0E214046FFF7EBFE0246D1
:1017D0000D21404600F02FF832462221404600F00D
:1017E0002AF833463A4600214046FFF70BFE032114
:1017F0004046FFF732FE12214046FFF7D3FE0007B6
:101800000BD5FF221221404600F015F8294640462C
:10181000FFF723FE0120BDE8F081641E2404240CA0
:1018200003D00120FEF730FEE5E729464046FFF7EA
:1018300014FE0020EFE70EB541F080018DF808108E
:1018400001218DF804200A46009101AB02A900F0A5
:1018500001F80EBD2DE9F0470E4615460446818875
:101860009846DDF8209000680022FEF70FFF4FF445
:10187000FA673B462A463146A069FFF748FBA06954
:10188000FFF706FA0128FAD13B464A464146A069CD
:10189000FFF73DFBA069FFF7FBF90128FAD1A1880A
:1018A0002068BDE8F0470122FEF7F0BE2DE9F041C7
:1018B00086B0002423480094019402940394816923
:1018C00041F020018161816901F020010491816969
:1018D00041F004018161816901F004010491816991
:1018E00041F0080181618069174F00F00800049001
:1018F000012210213846FEF7C9FEDFF85080012290
:1019000011464046FEF7C2FE022511480095CDE97A
:10191000010469463846FEF7C9FD10200126CDE9CD
:10192000000669463846CDE90245FEF7BFFD009640
:10193000694640460196CDE90245FEF7B7FD06B07F
:10194000BDE8F0810010024000080140000C014099
:10195000000011100F4810B50D4901604FF482715D
:10196000416000218160C1604FF400720161C0E9F3
:1019700005121022C0E90721416281620A21C16279
:10198000FFF789F9002801D072B6FEE710BD00000C
:101990000030014010000020FEE7FEE77047F8B578
:1019A000044640684FF48273984217D1A0684FF400
:1019B0008065B0F5004F01D0A8420FD120680668BD
:1019C00026F0400606606068984207D1A068A842E9
:1019D00004D100920B460022012103E000920B4645
:1019E00000228021204600F019F8002804D0606D04
:1019F00040F0200060650320F8BD38B50B4600922A
:101A000004460022802100F009F8002804D0606D0F
:101A100040F020006065032038BD00002DE9F84348
:101A20001E46914688460446089DFEF735FE401B3B
:101A3000351AFEF731FE074625480068C0F3CB3063
:101A4000684338E0701C37D0FEF726FEC01BA84262
:101A500003D215B1009860B32CE02068416821F0F2
:101A6000E00141606068B0F5827F0BD1A068B0F5FD
:101A7000004F02D0B0F5806F04D12068016821F0DA
:101A800040010160A06AB0F5005F09D120680168DB
:101A900021F4005101602068016841F400510160A7
:101AA000012084F85100002084F850000320BDE894
:101AB000F8830025401E00902068816838EA010004
:101AC00004D000214945BDD10020F0E70121F9E70C
:101AD0000C0000207047FEF7E5BD30B58FB028211F
:101AE0006846FEF737FC14210AA8FEF733FC0121F3
:101AF0000804CDE900100024029402250491CDE9E8
:101B000007504FF4E01009906846FEF731FF08B126
:101B100072B6FEE70F20CDE90A054FF48060CDE9EB
:101B20000C4002210AA80E94FEF746FE002801D0C0
:101B300072B6FEE70FB030BD7047000070B50446C6
:101B400000680169E26821F4405111430161216993
:101B5000A0680843616908432168CA6841F20C63C0
:101B60009A430243CA6020684169A26921F4407126
:101B7000114341611E492068884202D1FEF7C2FE2E
:101B800001E0FEF7AFFE00EBC00101EB0012606860
:101B900064218000B2FBF0F3B3FBF1F36FF01806A1
:101BA0007343B2FBF0F5B2FBF0F605EB830532238D
:101BB00003EB0515B5FBF1F5B6FBF1F605F0F00505
:101BC00005EB0615B2FBF0F6B2FBF0F0B0FBF1F05E
:101BD0006FF01802504306EB800003EB0010B0FBDF
:101BE000F1F0216800F00F002844886070BD00000B
:101BF000003801402DE9F041984617460E4604464C
:101C0000069D27E0681C25D02DB1FEF745FDA0EB11
:101C10000800A8421ED920680C3050E8001F21F4AB
:101C2000D07140E80012002AF5D12068143050E845
:101C3000001F21F0010140E80012002AF5D1202008
:101C400084F8410084F84200002084F8400003201A
:101C5000BDE8F0812068006836EA000004D000206A
:101C6000B842CFD00020F3E70120F9E7FEE70907EB
:101C7000090E002804DB00F1E02080F80014704712
:101C800000F00F0000F1E02080F8141D7047000004
:101C900090B0FEF70FFDFFF720FFFFF707FEFFF7FD
:101CA00059FE3D483B490C2201604FF4E13141604F
:101CB00000218160C160C0E904128161C161FFF748
:101CC000E8FA08B172B6FEE7684600F083F83248D9
:101CD0002C2269464830FEF70BFB2F491022583959
:101CE00001F1A00081612D4902C020F8042B2C4A8B
:101CF00004C00122028041600221018140F2B11141
:101D000041610721017641768276FF218177782132
:101D1000C1770A21818320484830FFF77EFC1E48A6
:101D20004830FFF7CDFB1C484830FFF73FFD1A480D
:101D30001CA17430FEF74CFA17487430FEF7B9FA5C
:101D4000154982B24FF47A74234674311248FFF772
:101D50000BFB1CA10BA8FEF73BFA65100E482B46A7
:101D600080220BA94830FFF724FD0B480BAA17A1CE
:101D70007430FEF72DFA08487430FEF79AFA0649D7
:101D800082B2234674310448FFF7EEFA2046FEF78C
:101D90007BFBE3E7003801406800002000080140B9
:101DA000000C0140446F6E6520636F6E6669677555
:101DB00072696E67204C6F52614D6F64756C650D72
:101DC0000A0000004C4F4F330000000025730D0A3D
:101DD0000000000000B58BB040F2B111089107215E
:101DE0008DF824108DF8251001218DF82610FF2183
:101DF0008DF82A1064218DF82B100821ADF82810D9
:101E00002C226946FEF774FA0BB000BD2DE9C041E3
:101E100030B4DFF8A0C23CEA111418BF3CEA131436
:101E200000F0EC8081EA03051CEA111444EAD57441
:101E300018BF1CEA131500F0C780A4EB05044FF08F
:101E4000004545EAC12145EAC32341EA505143EA2E
:101E5000525304F17F74994204F500344FEAC020D4
:101E60004FEAC22208BF904200F09C804FEA1365FF
:101E70000FF24016765D4FEA134506FB05F7C7F1F2
:101E8000807706FB07F74FEAD737A7FB0368764250
:101E9000C8F58038A7FB06CE38BFA8F1010807FBBC
:101EA00008E64FF0000EA6FB028CE6FB03CEDCF149
:101EB000000CCEF1004E38BFAEF1010EA6FB0C585F
:101EC0004FF000074FF00005E6FB0E87A1FB08C6A8
:101ED000A0FB07CE16EB0E0645F10005E1FB0765FA
:101EE00015F1E04E7EBFA4F580345FEA46066D41F1
:101EF00016F1800745F100054FEA17274FEA0666FD
:101F000047EA0567A6F1DE46B6F1805F4FEA152580
:101F10001FD9384624F0010C05EBC471BCF1FE6FEB
:101F200001EB0C1102D8F0BCBDE8008124425CBF7B
:101F300001F5801E9EEAC47F02D4F0BCBDE800819A
:101F4000244238D4F0BCA1F1C041BDE8004100F00A
:101F500049B94FEAD22242EA43524FEAD323A7FBC0
:101F600002864FEAD02040EA415007FB03661EEA92
:101F70000E0F4FEAD12105FB026658BFA6EB0056B3
:101F8000B6EB00564FEA520E4EEAC37E18EB0E0E29
:101F900056EB530EBDD518EB02085E417F1C55F180
:101FA0000005B6E74FF480154FF000074FF000062C
:101FB0004FF00008ADE7F0BC4FF0000001F1C04168
:101FC00001F00041BDE8008111EA0C1F0CEA131575
:101FD00000D00CE013EA0C1F00F025804FF0000049
:101FE000F0BC81EA030101F00041BDE80081F0BCD2
:101FF000BDE8004181EA030100F0F4B8F0BCBDE89F
:10200000004170B500F0A0F8097EFC3E00F007B872
:1020100081EA03014FF0000001F00041704781EABE
:10202000030100F0DFB8F0BCBDE800414FF0000054
:1020300021497047FFFDFBF9F7F5F4F2F0EEEDEB07
:10204000E9E8E6E4E3E1E0DEDDDBDAD8D7D5D4D3B6
:10205000D1D0CFCDCCCBCAC8C7C6C5C4C2C1C0BF02
:10206000BEBDBCBBBAB9B8B7B6B5B4B3B2B1B0AF08
:10207000AEADACABAAA9A8A8A7A6A5A4A3A3A2A1EC
:10208000A09F9F9E9D9C9C9B9A99999897979695A7
:1020900095949393929191908F8F8E8E8D8C8C8B43
:1020A0008B8A8989888887878685858484838382CB
:1020B000828181800000FF070000F87F4FEA410322
:1020C0004FEA5353A3F58063D3F11E03C8BFD3F186
:1020D000210C0CDD4FF0004242EAC12242EA50528C
:1020E00032FA03FC8CEAE17CACEBE1707047102B18
:1020F000C4BF0020704703F5787CBCF1FF3F04D0DB
:102100006FF0004282EA2100704770B500F01CF8C1
:102110004992248000207047F2E710F0004248BF47
:102120004042B0FA80F310FA03F10AD0C3F11D0364
:1021300003F580634FEA415002EB035202EBD121D9
:1021400070474FF0000070470EF1020E2EF0030EA4
:102150005EF8046B364205D4012A43EB030515F5FE
:10216000001F12D8012841EB010C1CF5001F0CD8F0
:102170000ED14FEAD17C15F5001F0CEB4C0C0CF185
:10218000020C08BF4CEBD37C04E04FF0080C01E0DC
:102190004FEAD37C0CEB4C0526FA05F606F0070651
:1021A000B6F1040C06D20EEB860CBDE870404CF084
:1021B000010C6047DFE80CF0090B02024FF0004110
:1021C0004FF00000A1F5002170BD1946104601280E
:1021D00051EB010418BFD4F5001484BF002001F0B6
:1021E000004170BD0808A0F500114FEA31017047A9
:1021F000010202030405060708090A0B0C0D0E0F65
:102200001010000000000000000001020304060797
:1022100008090000000001020304000000000000A3
:102220003333333333331F40CDCCCCCCCCCC2440F0
:102230003333333333332F40CDCCCCCCCCCC3440C0
:102240000000000000403F409A99999999D9444074
:102250000000000000404F400000000000405F40D0
:102260000000000000406F400000000000407F4080
:102270009022000800000020100000002801000843
:10228000A022000810000020700700004401000890
:102290000100000010000000000000000024F40015
:04000005080000ED02
:00000001FF
