:020000040800F2
:10000000481A002031020008672B00085F21000811
:10001000652B000813080008F12F000800000000FD
:10002000000000000000000000000000990100082E
:100030001508000800000000DD010008312D00084F
:100040004B0200084B0200084B0200084B0200085C
:100050004B0200084B0200084B0200084B0200084C
:100060004B0200084B0200084B0200084B0200083C
:100070004B0200084B0200084B0200084B0200082C
:100080004B0200084B0200084B0200084B0200081C
:100090004B0200084B0200084B020008170800083A
:1000A0004B0200084B0200084B0200084B020008FC
:1000B0004B0200084B0200084B0200084B020008EC
:1000C0004B0200084B0200084B0200084B020008DC
:1000D0004B0200084B0200084B0200084B020008CC
:1000E0004B0200084B0200084B02000800F002F827
:1000F00000F042F80AA090E8000C82448344AAF180
:100100000107DA4501D100F037F8AFF2090EBAE87D
:100110000F0013F0010F18BFFB1A43F0010318473B
:10012000C0420000E0420000103A24BF78C878C105
:10013000FAD8520724BF30C830C144BF04680C60ED
:10014000704700000023002400250026103A28BF35
:1001500078C1FBD8520728BF30C148BF0B60704739
:10016000642900F0C580732900F0E98200207047FF
:100170001FB51FBD10B510BD00F0EBFA1146FFF71B
:10018000F7FF03F079F800F009FB03B4FFF7F2FF83
:1001900003BC00F00DFB0000224B19680868B0E8B2
:1001A000F00F80F30988BFF36F8F4FF0000080F3EA
:1001B00011884EF00D0E70470000000006480068E0
:1001C000006880F3088862B661B6BFF34F8FBFF353
:1001D0006F8F00DF00BF00BF08ED00E0EFF3098084
:1001E000BFF36F8F0F4B1A6820E9F00F106008B54E
:1001F0004FF0500080F31188BFF34F8FBFF36F8F24
:1002000003F0DCFC4FF0000080F31188BDE80840EB
:1002100019680868B0E8F00F80F30988BFF36F8FA2
:10022000704700BF14000020EFF305807047000006
:100230000948804709480047FEE7FEE7FEE7FEE77A
:10024000FEE7FEE7FEE7FEE7FEE7FEE704480549B6
:10025000054A064B70470000C12D0008ED0000085C
:1002600048140020481A0020481600204816002094
:100270000FB41CB5084B06AA7B446946009005984C
:1002800000F033FA04460020694600F041FA2046A7
:100290001CBC5DF814FB00009504000070B50C4612
:1002A0000546012A05D02878800600D5EA69002392
:1002B00002E0012305E05B1C934202D2E05C0028CF
:1002C000F9D1A869E618C01AA861286A18442862FA
:1002D0002846AFF3008004E0D5E9012114F8010BB2
:1002E0009047B442F8D32846AFF3008070BD0000B9
:1002F0002DE9F0410646002410687529314616A5FF
:1003000010D0AFF30080002802DA404213A507E0C6
:1003100031688A0701D512A502E0490704D511A565
:10032000012401E0AFF3008000210A2206F1240736
:1003300009E0B0FBF2FCB0FBF2F302FB1C00303032
:1003400078541846491C0028F3D123462A463046E3
:10035000BDE8F04100F06BB9000000002D00000086
:100360002B000000200000002DE9F05F89460446C4
:100370004FF0000ADFF824B1FB44C0F820A020466B
:10038000E168884700287DD0252806D0D4E90121DE
:100390009047206A401C2062F1E700255F46204616
:1003A000E16888472028064607DB312E05D2B819B8
:1003B00010F8200C08B10543F1E7A80701D525F096
:1003C0000405C4F81CA00027C4F818A02A2E09D0E0
:1003D000304602F01EFE38B304EB8708303EC8F802
:1003E000186019E059F8041B204604EB870291615C
:1003F000E1688847012F064618D1E069002820DA15
:1004000025F020051DE0D8F8180000EB800006EB71
:1004100040003038C8F818002046E1688847064692
:1004200002F0F7FD0028EED1012F0AD02E2E08D1C0
:100430002046E16888477F1C0646022F45F02005CC
:10044000C4DBA069002803DA404245F00105A06141
:10045000E80701D025F01005A6B1A6F14100192842
:1004600002D8203645F400654A46314620462560CC
:100470004D46FFF775FE60B1012807D0ED1D25F050
:10048000070000E007E000F1080978E705F104093A
:1004900075E730467AE7206ABDE8F09F44400000E7
:1004A00010B5431C02E010F8011B71B18107FAD1AD
:1004B0004FF0013202C88C1A8C4314EAC211F9D0F1
:1004C000C01A0A0603D0C01E10BDC01A10BD0A040F
:1004D00001D0801E10BD0902FCD0401E10BD421E7E
:1004E00012F8013F002BFBD111F8013B002B02F861
:1004F000013BF9D1704710B5203AC0F00B80B1E84C
:100500001850203AA0E81850B1E81850A0E8185048
:10051000BFF4F5AF5FEA027C24BFB1E81850A0E851
:10052000185044BF18C918C0BDE810405FEA827C6B
:1005300024BF51F8043B40F8043B08BF7047D20782
:1005400028BF31F8023B48BF11F8012B28BF20F823
:10055000023B48BF00F8012B70474FF0000200B586
:10056000134694469646203922BFA0E80C50A0E8D6
:100570000C50B1F12001BFF4F7AF090728BFA0E884
:100580000C5048BF0CC05DF804EB890028BF40F850
:10059000042B08BF704748BF20F8022B11F0804F92
:1005A00018BF00F8012B70474FF0013C50F8042BA6
:1005B00051F8043B9A4221D1A2EB0C03934313EA76
:1005C000CC1317D150F8042B51F8043B9A4215D1A3
:1005D000A2EB0C03934313EACC130BD150F8042B7A
:1005E00051F8043B9A4209D1A2EB0C03934313EA5E
:1005F000CC13DBD04FF00000704700BFD01A01BA17
:10060000B1FA81F101F0180122FA01F0CB40C1F1F9
:100610002001DBB2C0B2C01A2CFA01F3D11A914307
:1006200011EAC311E6D170477047704770472DE952
:10063000F0470D4699469246044600F124080168A9
:10064000880604D5E06921F01001216000E0012056
:10065000A84201DD471B00E00027A1697A1902EBDF
:100660000900081AA0612078C00602D42046AFF322
:100670000080002608E0D4E901211AF8060090471E
:10068000206A401C761C20624E45F4DB2078C006B0
:100690000AD52046AFF3008006E0D4E901213020DE
:1006A0009047206A401C2062381EA7F10107F4DC45
:1006B00007E0D4E9012118F805009047206A401CA2
:1006C0002062281EA5F10105F3DC2046AFF300806F
:1006D0002078000602D50220BDE8F0870120FBE764
:1006E00001694A1C02610878704700B58FB0CDE9F6
:1006F00001310021059105497944CDE903101146E6
:100700006846FFF731FE0FB000BD0000E5FFFFFFB8
:100710000A6802F8010B0A60704710B5436913B10B
:10072000AFF3008001E0FFF7B9FD012010BD1278A2
:1007300000F124010A7000224A700122EDE71168DD
:100740004FF0FF32E9E7000000487047E413002053
:1007500070477546FFF7F8FFAE46050069465346F9
:1007600020F00700854618B020B5FFF76FFDBDE803
:1007700020404FF000064FF000074FF000084FF008
:10078000000B21F00701AC46ACE8C009ACE8C00999
:10079000ACE8C009ACE8C0098D46704710B5044606
:1007A000AFF300802046BDE81040FFF7EEBC00002C
:1007B00001491820ABBEFEE72600020070B50446D2
:1007C00000688168C943C90717D1816821F0010118
:1007D000816000F099FA05460AE000BF00F094FA43
:1007E000401B022804D920688068C043C00706D097
:1007F00020688068C043C007F0D0002070BDA06AA8
:1008000040F01000A062E06A40F00100E0620120C8
:1008100070BDFEE77047202000F074B9F8B50024E1
:10082000009490F824202546012A12D0012280F855
:1008300024204A681F23072A0DD20668776B521EB0
:1008400002EB820293409F430B6893401F43776300
:1008500019E00220F8BD06680D2A0AD2376BD21FB4
:1008600002EB820293409F430B6893401F43376320
:1008700009E0F76A0D3A02EB820293409F430B684E
:1008800093401F43F7620A68072306680A2A0AD3BF
:10089000F7680A3A02EB420293409F438B68934009
:1008A0001F43F76008E0376902EB420293409F4321
:1008B0008B6893401F4337610A68102A01D0112AC0
:1008C00020D1124B02689A4217D193681B0219D4A7
:1008D000936843F4000393600968102912D10C490E
:1008E0000C4A0968B1FBF2F101EB8101490000E01B
:1008F000491E00910029FBD104E0816A41F02001EA
:100900008162012480F824502046F8BD0024014073
:100910001000002040420F002DE9F0414FF0000789
:1009200004003D467ED0A06A002628B9E66284F81D
:100930002460204600F07EF82046FFF73FFFA16AC2
:10094000C90600D420B1A06A40F01000A06269E09E
:10095000A16A21F4885141F00201A1626268E16953
:10096000237B0A4347EA43010A43A1684FF4807797
:10097000B94209D0012907D05FF0000194F814C0F2
:10098000BCF1010F02D00AE03946F7E7F3B1A36AE0
:1009900043F02003A362E36A43F00103E3622368A8
:1009A000D3F804C02CF4694C4CEA010CC3F804C021
:1009B00021688B68DFF870C003EA0C0313438B6077
:1009C000A168B9420BD0012909D00CE0DFF85CC066
:1009D000A3690CEB43330B4343F40061DFE7218A47
:1009E0000D05A5F580152168CB6A23F470032B4310
:1009F000CB62216889680E4B1940914208D1E662AA
:100A0000A16A21F0020141F00101A162BDE8F0817B
:100A1000A06A20F0020040F01000A062E06A40F0FE
:100A20000100E0620120F1E7FDF7E1FF00E0FFFFD8
:100A3000FE0E1FFF30B585B000210091019102919B
:100A40000391214B026821490324214802259A423F
:100A500020D18A6942F400728A618A6902F40072C4
:100A600004928A6942F004028A618A6902F00402EF
:100A700004928A6942F008028A61896901F00801DA
:100A800004910121CDE90014694600F047F8694658
:100A9000104813E0104B9A4214D18A6942F48062E4
:100AA0008A618A6902F4806204928A6942F00402CF
:100AB0008A61896901F0040104916946CDE9005415
:100AC00000F02CF805B030BD0024014000100240B9
:100AD00000080140000C01400028014070B50446A8
:100AE00000F012F90546601C02D004480078044466
:100AF00000F00AF9401BA042FAD370BD04000020A8
:100B000070470000044910B50A68024202D008602C
:100B1000FFF7F6FF10BD0000140401402DE9F84F67
:100B2000DFF8B8910024A9F1040B23460F2709F13F
:100B3000040AABF1040EC9E00125A5402A40AA42EF
:100B40007DD1674ED1F804C0ACEB0608B44532D075
:100B500014DCBCF1030F3AD009DCBCF1000F2AD041
:100B6000BCF1010F1CD0BCF1020F31D11DE0BCF172
:100B7000110F17D0BCF1120F2AD119E0B8F5881F58
:100B800019D006DCB8F5803F15D0B8F5801F1FD10D
:100B900011E0B8F5001F0ED0B8F5041F18D10AE017
:100BA000CB6815E0CB681B1D12E0CB6808330FE063
:100BB000CB680C330CE08B682BB1012B4FF0080392
:100BC00003D0456104E0042302E0056100E0002356
:100BD000FF2A01D8064601E000F104064FEA840529
:100BE00001D9A5F12005D6F8008007FA05FC28EA0E
:100BF0000C0803FA05F548EA0508C6F800804D68B8
:100C0000ED0062D5374DAE6946F00106AE61AD69C3
:100C100024F0030605F001050095334D06EB050CA5
:100C2000DCF80850A607360F07FA06F825EA08058B
:100C3000DFF8B880404503D14FF0000817E044E0EA
:100C4000DFF8AC80404502D14FF001080FE0DFF83B
:100C5000A480404502D14FF0020808E0DFF89880F8
:100C6000404502D14FF0030801E04FF0040808FAB4
:100C700006F848EA0508CCF808804D68D9F8006005
:100C8000ED024D4601D5164300E096432E604D68B7
:100C9000DAF80060AD02554601D5164300E09643F0
:100CA0002E604D68DBF80060AD035D4601D516434C
:100CB00000E096432E604D68DEF80060ED03754657
:100CC00001D5164300E096432E60641C0D682A4649
:100CD000E5407FF431AFBDE8F88F00000804014023
:100CE0000000111000100240000001400008014007
:100CF000000C014000100140001401400AB10161E4
:100D000070470904FBE70000014880687047000055
:100D10000400002070B5040025D094F83D000025A3
:100D200020B984F83C50204600F04EF9242084F885
:100D30003D002068016821F0010101602068016820
:100D400041F4004101602068016821F40041016024
:100D500000F030FB4D4A6168914201D84C4900E0F7
:100D60004C49884201D2012070BD4B492368B0FB39
:100D7000F1F15E6826F03F060E435E6063689342C1
:100D800006D94FF4967359434FF47A73B1FBF3F1DC
:100D90002368491C1E6A26F03F06314319626168C8
:100DA000914210D84900401EB0FBF1F2521CC2F330
:100DB0000B02042A01D2042022E0B0FBF1F0401C17
:100DC000C0F30B001CE0A268F2B301EBC10303EB1C
:100DD0000116431EB3FBF6F35B1C43F480431B0573
:100DE00049D092B301EBC10202EB0111401EB0FBEE
:100DF000F1F0401CC0F30B0040F4804040F4004090
:100E00002168CA694CF6FF739A431043C861D4E95C
:100E1000071001432068026822F0C00211430160FC
:100E2000D4E9030101432068826848F2FF339A4302
:100E300011438160D4E9050108432168CA6822F0A2
:100E4000FF021043C86001E00EE016E02068016870
:100E500041F0010101602564202084F83D002563F4
:100E600084F83E50002070BD01EB4106431EB3FBE9
:100E7000F6F35B1CB3E70120C2E701EB4101401E22
:100E8000B0FBF1F0401CC0F30B00B7E7A0860100F7
:100E900080841E0000093D0040420F002DE9F84FFC
:100EA0001F4690468A460446DDF82890FFF72CFF3F
:100EB000054694F83D0020287FD11923012240499E
:100EC0002046009501F0DEF9002876D194F83C0028
:100ED000012872D0012084F83C0020680168C9070D
:100EE00003D1016841F0010101602068016821F42B
:100EF00000610160212084F83D00102084F83E004C
:100F000000262664C4F824806785608D20852D48DE
:100F1000E0622B464A465146204601F039F990B925
:100F2000206841698069009036E02A46494620469B
:100F300001F04EFA50B1206C042804D120680168F9
:100F400041F4007101600120BDE8F88F606A2168FA
:100F500000780861606A401C6062618D491E61858D
:100F6000218D491E89B2218522685369DB435B07C5
:100F70000BD451B100781061606A401C6062608DD2
:100F8000401E6085208D401E20852A464946204609
:100F900001F04CF90028CED1208D0028C5D154F89D
:100FA0003D0B016841F400710160202004F81E0926
:100FB000E67766770020C7E7FFE70220C4E7000076
:100FC000020010000000FFFF30B585B00021009145
:100FD0000191029103911E4D03681E4C12210322C0
:100FE0001D48AB4216D1A36943F00803A361A3696E
:100FF000039203F008030493C023CDE9003169464E
:10100000FFF78CFDE06940F40010E061E06900F456
:10101000001019E0114DAB4217D1A36943F008034A
:10102000A361A369039203F0080304934FF44063A0
:10103000CDE900316946FFF771FDE06940F48000B9
:10104000E061E06900F48000049005B030BD00006C
:101050000054004000100240000C014000580040C5
:1010600002488168027811448160704704000020C2
:10107000074810B5016841F010010160032000F03D
:101080007BF80F2000F006F800F024F8002010BDD7
:101090000020024070B50D4D04464FF47A71287857
:1010A000B1FBF0F00A490968B1FBF0F000F045FE31
:1010B00048B9102C07D200222146501E00F03CF8FF
:1010C00000206C6070BD012070BD00000400002095
:1010D000100000200F4808B5816941F001018161CD
:1010E000816901F001010091C16941F08051C16144
:1010F000C069002200F0805000900F21901E00F087
:101100001BF80548416821F0E06141F00071416041
:1011100008BD00000010024000000140002809DB6B
:1011200000F01F02012191404009800000F1E02001
:10113000C0F8001170470000F0B40E4B1B680C465D
:10114000C3F30223C3F10705042D00D90425191D9B
:10115000072901D2002300E0DB1E012606FA05F173
:10116000491E214099409E40761E16403143F0BCF6
:1011700001F03FBF0CED00E0064900F007020868EF
:101180004FF6FF03184040EA0220034A104308606C
:10119000704700000CED00E00000FA052DE9F8436F
:1011A00005460078354CC00754D0E0690026C000E1
:1011B00008D4E06940F08050E061E069012600F069
:1011C000805000902E480168C90512D401688046FD
:1011D00041F480710160FFF797FD074605E000BF0D
:1011E000FFF792FDC01B642823D8D8F80000C00583
:1011F000F6D5206A10F4407021D0A98801F440711E
:1012000081421CD0206A1F49012220F440700A60EC
:1012100000220A602062C00711D0FFF775FD074663
:1012200041F2883808E000BFFFF76EFDC11B414561
:1012300002D90320BDE8F883206A8007F4D5206A2C
:10124000696820F44070084320621EB1E06920F014
:101250008050E0612878800705D56068A96820F48F
:101260004040084360602878C00605D56068E9689A
:1012700020F48000084360600020DBE7001002409B
:1012800000700040400442422DE9F0470F4605003F
:1012900061D0434E306800F00700B84209D2306890
:1012A00020F0070038433060306800F00700B84293
:1012B00051D128683B4C810712D5400703D560689F
:1012C00040F4E06060602878000703D5606840F46F
:1012D000605060606068A96820F0F00008436060BA
:1012E0002878C00728D06868012810D02168022813
:1012F00010D0890700292EDA616821F0030101432B
:101300006160FFF701FD804641F288390DE02168F8
:101310008903EFE78901EDE7FFF7F6FCA0EB080191
:10132000494502D90320BDE8F0876068696800F08C
:101330000C00B0EB810FEFD1306800F00700B8422D
:101340000BD9306820F0070038433060306800F077
:101350000700B84201D00120E5E72878400705D50D
:101360006068E96820F4E06008436060287800075E
:1013700006D56068296920F4605040EAC1006060C9
:1013800000F038F86168084AC1F30311515CC840A5
:101390000649086006480068FFF77CFE0020C2E7A7
:1013A00000200240001002405643000810000020B8
:1013B000080000200448054900684968044AC1F350
:1013C0000221515CC840704710000020001002400C
:1013D000664300080448054900684968044AC1F3A7
:1013E000C221515CC840704710000020001002402C
:1013F000664300080E4A51680E4801F00C03042BA6
:1014000011D0082B0FD10C48C1F38343C903C05C32
:101410000AD55168084AC1F34041921E515C054A01
:101420005043B0FBF1F07047044948437047000057
:101430000010024000127A004643000800093D00F7
:101440002DE9F84F040070D02078C04DC00749D076
:101450006868C0F38100012807D06868C0F3810084
:10146000022809D16868C00306D52868800339D5E9
:1014700060680028E7D035E06068B0F5803F0BD0A9
:1014800010B1B0F5A02F11D0286820F4803028606A
:10149000286820F4802002E0286840F4803028602A
:1014A000606890B1FFF730FC06460AE0286840F417
:1014B00080202860F0E700BFFFF726FC801B64282F
:1014C00073D828688003F7D50CE0FFF71DFC0646AB
:1014D00005E000BFFFF718FC801B6428F0D82868DF
:1014E0008003F7D420789A4E80074FF001094FF01F
:1014F000000839D5686810F00C0F07D06868C0F391
:101500008100022809D16868C00306D428688007D2
:1015100014D52069012808D110E02069B0B1C6F8BF
:101520000090FFF7F1FB074605E00AE1FFF7ECFB4F
:10153000C01B0228C4D828688007F7D528686169CD
:1015400020F0F80040EAC10028600DE0C6F80080F5
:10155000FFF7DAFB074604E0FFF7D6FBC01B0228C3
:1015600023D828688007F7D4207800072CD579483D
:10157000A169D9B1C0F80090FFF7C6FB074604E0A7
:10158000FFF7C2FBC01B02280FD8686A8007F7D597
:1015900071484FF4FA510068B0FBF1F0009000BFC1
:1015A0000098411E0091FAD20EE080E0C0F8008061
:1015B000FFF7AAFB074604E0FFF7A6FBC01B0228C3
:1015C00075D8686A8007F7D42078400760D5E86945
:1015D0000027C00008D4E86940F08050E861E8695D
:1015E000012700F0805000905C480168C90513D4C1
:1015F0000168834641F480710160FFF785FB8246F4
:1016000006E000BFFFF780FBA0EB0A0064284ED87D
:10161000DBF80000C005F5D5E06801280AD008B164
:10162000052813D0286A20F001002862286A20F0DB
:10163000040002E0286A40F001002862E06841F2FC
:10164000883B98B1FFF760FB82460BE0286A40F0C8
:1016500004002862EEE700BFFFF756FBA0EB0A018B
:1016600059455AD8286A8007F6D50CE0FFF74CFB9D
:10167000824605E0FFF748FBA0EB0A0159454CD82C
:10168000286A8007F6D41FB1E86920F08050E8612D
:10169000E06988B36968C1F38101022944D0022856
:1016A000C6F8608004D0FFF72FFB044638E034E032
:1016B000FFF72AFB074604E0FFF726FBC01B0228C2
:1016C0002BD828688001F7D4206AB0F5803F05D177
:1016D0006868A16820F4003008436860D4E9080114
:1016E0000843696821F4741108436860C6F8609083
:1016F000FFF70AFB044606E025E000BFFFF704FB06
:10170000001B022809D828688001F7D51BE000BF1C
:10171000FFF7FAFA001B022802D90320BDE8F88F70
:1017200028688001F4D40EE00128F7D06868226AA6
:1017300000F48031914204D1616A00F47010884253
:1017400001D00120EAE70020E8E700000010024095
:10175000000042428004424210000020007000401D
:1017600090F85100704770B5040009D0606A0025F8
:1017700040B125616561A56294F8510040B10CE06B
:10178000012070BD6068B0F5827FF4D0E561F2E7BA
:1017900084F85050204600F03FF8022084F85100B1
:1017A0002068016821F040010160A088218900F4CF
:1017B000827001F404410843A18901F400610843E7
:1017C000217C01F002010843217D01F00101084361
:1017D000218B01F400710843217F01F03801084397
:1017E00094F8201001F080010843218D01F400518C
:1017F000084321680860A069042101EA10402168BB
:1018000048602068C16921F40061C16165650120FB
:1018100084F85100002070BD30B585B000240094DC
:1018200001940294039400681449884223D1144817
:10183000816941F480518161816901F48051049191
:10184000816941F00401816180690E4D00F004005E
:101850000490A0200090022001900320039069468C
:101860002846FFF75BF94020CDE900046946284689
:101870000294FFF753F905B030BD0000003001407D
:1018800000100240000801402DE9F84F044690F88E
:101890005100984616460F460025012801D0022522
:1018A00098E060684FF0040BB0F5827F01D1A0682A
:1018B000F8B194F85000012826D04FF0010984F8BF
:1018C0005090FFF721FA8246002F7FD0002E7DD066
:1018D00084F851B000206065A763A687E68720637F
:1018E000A086E08620646064A068B0F5004F0DD04B
:1018F00016E084F851B013460A462046CDF8008021
:1019000000F024F9BDE8F88F0220FBE720680168A9
:1019100021F0400101602068016821F480410160EC
:1019200020680168490603D4016841F04001016064
:10193000E068D8B13BE020688168C90709D0007B26
:10194000A16B0870A06B401CA063E08F401EE08775
:101950000CE0FFF7D9F9A0EB0A01414503D3B8F138
:10196000FF3F03D006E0B8F1000F03D0E08F00285E
:10197000E1D11FE003252BE020688168C90709D069
:10198000C068A16B0880A06B801CA063E08F401E24
:10199000E0870CE0FFF7B8F9A0EB0A01414503D35B
:1019A000B8F1FF3F03D0E5E7B8F1000FE2D0E08FD8
:1019B0000028E1D152464146204601F0D5F808B151
:1019C00020206065606D00E000E008B1012501E0C5
:1019D00084F85190002084F85000284692E72DE9C1
:1019E000F84F044690F850000026984615468A465F
:1019F00001280CD0012784F85070FFF785F9814643
:101A000094F85100B346012804D002269AE002203F
:101A1000BDE8F88FBAF1000F6FD0002D6DD0032014
:101A200084F85100C4F854B0C4F830A0A586E58607
:101A3000C4F838B0A4F83CB0A4F83EB0C4F844B040
:101A4000C4F840B0A068B0F5004F09D12068016823
:101A500021F0400101602068016841F4804101608B
:101A600020680168490603D4016841F04001016023
:101A7000E068B0F5006F606803D058B3012D29D03D
:101A800049E008B1012D1FD1206B21680088C86092
:101A900006E020688168890709D5216B0988C16043
:101AA000206B801C2063E08E401EE0860CE0FFF778
:101AB0002BF9A0EB0901414503D3B8F1FF3F03D057
:101AC00006E0B8F1000F03D0E08E0028E1D125E058
:101AD000032635E0206B21680078087306E0206853
:101AE000816889070AD5216B09780173206B401C36
:101AF0002063E08E401EE0860DE01FE0FFF704F952
:101B0000A0EB0901414503D3B8F1FF3F03D0DFE764
:101B1000B8F1000FDCD0E08E0028E0D14A46414603
:101B2000204601F04FF808B120206065A06818B980
:101B30002068C16880680090606D08B1012601E0EE
:101B400084F8517084F850B0304661E72DE9FF4FBA
:101B500081B0044690F8500000260E9F1D46934623
:101B60004FF0010901280FD04FF0010A84F850A06E
:101B7000FFF7CAF8804694F85100616801280DD03B
:101B8000B1F5827F08D103E0022005B0BDE8F08FF7
:101B9000A16809B9042801D00226C9E002980028EA
:101BA00065D0BBF1000FFBD0002DF9D094F85100A7
:101BB000042802D0052084F8510000206065C4F894
:101BC00038B0E587A58702992163E586A58620645C
:101BD000606420680168490603D4016841F040014F
:101BE0000160E068B0F5006F606803D0F0B3012DCC
:101BF00047D081E008B1012D3CD1206B21680088DD
:101C0000C860206B801C2063E08E401EE08631E0BF
:101C10002068816889070FD5E18E69B1B9F1010F9C
:101C20000AD1216B0988C160206B801C2063E08E83
:101C3000401EE0864FF0000920688168C9070CD07B
:101C4000E18F51B1C068A16B0880A06B801CA063BC
:101C5000E08F401EE0874FF00109FFF755F8A0EB39
:101C60000800B84206D3781C04D001E009E05BE02C
:101C700003265BE0E08E0028CAD1E08F0028C7D1A0
:101C800040E0206B216800780873206B401C2063C3
:101C9000E08E401EE0862FE02068816889070FD51E
:101CA000E18E69B1B9F1010F0AD1216B0978017395
:101CB000206B401C2063E08E401EE0864FF0000940
:101CC00020688168C9070CD0E18F51B1C068A16B51
:101CD0000870A06B401CA063E08F401EE0874FF0AF
:101CE0000109FFF711F8A0EB0800B84202D3781CF5
:101CF00002D0BAE7002FB8D0E08E0028CCD1E08F18
:101D00000028C9D142463946204600F05BFF18B191
:101D10000126202060650BE0A06818B92068C16822
:101D200080680090606D08B1012601E084F851A040
:101D3000002084F85000304627E710B5401EB0F16F
:101D4000807F01D3012010BD4FF0E02460610F219E
:101D5000601701F04EF90020A061072020610020EB
:101D600010BD000070B590F83C20012A26D0012457
:101D700080F83C40022280F83D2003685A689D6844
:101D800022F070060A6832435A600D4B02689A428C
:101D900008D0B2F1804F05D00A4B9A4202D00A4BCC
:101DA0009A4204D1496825F080031943916080F874
:101DB0003D40002180F83C10084670BD022070BDF7
:101DC000002C014000040040000800402DE9F041D3
:101DD000054690F83C0000260C46012810D0012052
:101DE00085F83C0072B1042A1CD0082A2CD00C2A99
:101DF00050D00126002085F83C003046BDE8F08137
:101E00000220FBE7D4E90012E368286801F010F82B
:101E10002868816921F00C01816128688169A268C4
:101E200011430FE0D4E90012E368286801F02CF8B0
:101E30002868816921F44061816128688169A2680C
:101E400041EA02218161D5E72868D4E9002C277B8B
:101E5000036A016A21F480710162C16923F400738D
:101E600021F0030141EA0C0121F0F00C39074FF495
:101E700000774CEA116107EA02221A43C16102624B
:101E80002868C16921F00C01C1612868C169A26894
:101E900011432BE02868D4E90021E768036AD0F8F1
:101EA00020C02CF4805CC0F820C0D0F81CC023F403
:101EB00000532CF4407C4CEA012121F4704C4FF685
:101EC000FF7101EA07314FF4005741EA0C0107EABC
:101ED00002321A43C16102622868C16921F440617B
:101EE000C1612868C169A26841EA0221C16181E734
:101EF00010B5040003D094F83D0010B107E00120B4
:101F000010BD002084F83C00204600F01FF802209D
:101F100084F83D00211D206800F054FF012084F862
:101F2000460084F83E0084F83F0084F8400084F8BE
:101F3000410084F8420084F8430084F8440084F8A7
:101F4000450084F83D00002010BD000000B585B0BC
:101F5000002100910191029103910068B0F1804F3E
:101F60001FD11148C16941F00101C161C16901F08E
:101F700001010491816941F008018161806969462C
:101F800000F008000490082000900848FEF7C6FD05
:101F90000748416821F4407141F0E06141F48071EB
:101FA000416005B000BD000000100240000C01407F
:101FB0000000014070B5040004D094F841000025F1
:101FC00010B106E0012070BD84F84050204600F0BA
:101FD00023F8242084F841002068C16821F40051CE
:101FE000C160204600F06CFF2068016921F4904137
:101FF00001612068416921F02A0141612068C168BE
:1020000041F40051C1606564202084F8410084F8E7
:1020100042006563002070BD70B586B00024009456
:10202000019402940394234E03682349022003225F
:10203000224DB34219D18B6943F480438B618B6984
:1020400003F4804304938B6943F004038B61896933
:10205000039201F0040104910102CDE900106946E8
:102060002846FEF75BFD28151BE0154EB3421FD135
:10207000CB6943F40033CB61CB6903F400330493A1
:102080008B6943F004038B618969039201F00401B9
:1020900004910421CDE9001069462846FEF73EFD73
:1020A0000820CDE90004694628460294FEF736FD73
:1020B00006B070BD00380140001002400008014029
:1020C000004400402DE9F843044690F841001F46C3
:1020D00016460D46202802D00220BDE8F8837DB1C7
:1020E00076B100206064212084F84100FEF70CFEE8
:1020F000A6848046E684A068B0F5805F02D003E045
:102100000120EAE7206910B12E4600250EE00026E6
:102110000CE08021204600F02FFFA0B9AEB116F8E8
:10212000010B21684860E08C401EE084E08C43464F
:102130004FF0000200970028EBD14FF040012046FD
:1021400000F01AFF30B10320C7E735F8020BC0F3E7
:102150000800E6E7202084F841000020BDE7FEE704
:1021600001684A69D24352050FD46FF480624A6114
:10217000002140F8301F202242738173026942F02F
:1021800004020261017301207047002070470000C3
:10219000F8B50446C06A1E460D461746082807D003
:1021A000012805D010F5803F02D0206B122804D101
:1021B0002068016841F480710160134600224FF0ED
:1021C00001112046009600F05DF840B120680068DB
:1021D000C00502D54FF4007020640320F8BD2069CB
:1021E000B0F5804F0ED00620216800EAD51040F0EF
:1021F000F000086133463A460B49204600F08AF861
:1022000078B902E005F0FE0000E0E8B2216808615C
:10221000054933463A46891F204600F07BF80028DE
:10222000DCD00120F8BD00000800010070B51646A2
:102230000D4604461EE02046FFF792FF08B101203C
:1022400070BD681C16D0FEF75FFD801BA84200D849
:1022500085B920684069C04340070BD5002044F889
:10226000300F20216173A073216941F020012161A9
:102270002073E4E720684069C0434007DBD40020B6
:1022800070BD00002DE9F047984617460D460446FC
:10229000C1F30746DDF820902AE000BFB8F1FF3F08
:1022A00026D0FEF731FDA0EB0901414502D8B8F177
:1022B000000F1DD12068012E16D0806925EA00008C
:1022C0000004000C12D00020B84211D1002044F8C4
:1022D000300F20216173A073216941F02001216139
:1022E00020730120BDE8F0874069E7E70120EBE7B4
:1022F0002068012E0AD0806925EA00000004000C45
:1023000006D00020B842C9D00020EBE74069F3E7CF
:102310000120F7E72DE9F047984616460D4604469A
:102320004FF000094FF0200AC1F3074723E020686F
:102330004069C043400515D42068016841F400712C
:10234000016021686FF480604861C4F8309084F8BF
:102350003DA084F83E90216C41F00401216484F892
:102360003C9021E0701C06D0FEF7CEFCA0EB0800EC
:10237000B04203D816B1012F1FD021E02068012FF1
:1023800015D0806925EA00000004000C18D000BFB9
:1023900044F8309F84F80DA084F80E90216941F034
:1023A0002001216184F80C900120BDE8F08740698C
:1023B00025EA00000004000CEAD12068406901E031
:1023C0002068806925EA00000004000CAFD1ECE72A
:1023D00070B516460D4604461EE02046FFF7C0FEC7
:1023E00008B1012070BD681C16D0FEF78DFC801B63
:1023F000A84200D885B920684069C04300060BD5C3
:10240000002044F8300F20216173A073216941F04E
:10241000200121612073E4E720684069C043000681
:10242000DBD4002070BDF8B5044641F080008DF883
:10243000000017461E46A18800222068FEF75EFCB9
:102440004FF4FA652B4601226946A069FFF7C7FAE7
:10245000A069FFF785F90128FAD12B4632463946A3
:10246000A069FFF7BCFAA069FFF77AF90128FAD151
:10247000A18801222068FEF741FCF8BD70B50C462A
:102480000546012100F09FF8024644B1012C0BD013
:10249000032C0FD0052C13D0062C17D01BE00020E6
:1024A00002F0F802E86116E0012002F0F802521C86
:1024B000E86110E0032002F0F802D21CE8610AE0B3
:1024C000052002F0F802521DE86104E0062002F047
:1024D000F802921DE8612846BDE87040012100F035
:1024E000F8B970B504460021FFF7C8FF0A20FEF7CF
:1024F000F5FA0121204600F066F805460A20FEF7AD
:10250000EDFA45F080020121204600F0E2F9642056
:10251000FEF7E4FA2046216A00F008F994F82A1040
:10252000204600F057F994F82B10204600F033F9BC
:1025300023220C21204600F0CCF9204600F074F94B
:1025400094F82410204600F04FF9FF221F21204666
:1025500000F0BFF994F8250094F82610000100EB74
:102560004100C2B21D21204600F0B3F9204600F020
:10257000B7F8208D2021020A204600F0AAF994F82D
:1025800028202121204600F0A4F94021204600F017
:102590001AF840F03F024021204600F09AF901214C
:1025A0002046FFF76BFF0120E0610A20FEF796FA54
:1025B0004221204600F007F8122802D04FF4CA70DA
:1025C00070BDC82070BD0EB501F07F018DF80810F8
:1025D00001210A46009101AB02A900F003F89DF821
:1025E00004000EBD2DE9F0470E46154604468188CD
:1025F0009846DDF8209000680022FEF77FFB4FF43C
:10260000FA673B462A463146A069FFF7E8F9A06918
:10261000FFF7A6F80128FAD13B464A464146A06991
:10262000FFF732F9A069FFF79BF80128FAD1A188DA
:102630002068BDE8F0470122FEF760BB2DE9F041BC
:1026400000250E46074614462846294601E0315427
:10265000401CA042FBDB01213846FFF70FFF12218F
:102660003846FFF7B0FF40061FD5FF22122138463B
:1026700000F02FF913213846FFF7A5FF054610217A
:102680003846FFF7A0FF02460D21384600F021F939
:10269000AC4200D22546002405E000213846FFF771
:1026A00092FF3055641CAC42F7DB05213846FFF73A
:1026B000E5FE2846BDE8F08110B5044681898068B2
:1026C0000022FEF71BFB0120FEF708FAA189012278
:1026D000A068FEF713FBBDE810406420FEF7FEB9CA
:1026E00010B594B0044650220F496846FDF703FF29
:1026F00094F824100120884001F0ABFD94F82520C7
:102700006B4603EBC203D3E9002301F01BFC01F08D
:1027100071FD102801DD012100E00021204600F0BC
:1027200025F814B010BD00007043000870B50546D0
:10273000C8044411C4F307420621284600F0C9F832
:102740000520FEF7CBF9C4F307220721284600F045
:10275000C0F80520FEF7C2F9E2B20821284600F0D1
:10276000B8F8BDE870400520FEF7B8B970B50C4662
:1027700005462621FFF727FF14B140F0080201E0CB
:1027800000F0F7022621284600F0A3F8BDE87040CB
:102790000A20FEF7A3B910B52D2901D22D2105E09D
:1027A000F02901D9F02106E0782904D805222D3935
:1027B00091FBF2F103E00A221E31B1FBF2F1C9B242
:1027C0002031CAB20B2100F084F8BDE810400A2085
:1027D000FEF784B910B50A46092100F07AF8BDE881
:1027E00010400A20FEF77AB970B50C4606460C294F
:1027F00001DD0C2402E0072C00DA07241E21FFF77C
:10280000E2FE05460A20FEF769F964F31F15EAB2F5
:102810001E21304600F05DF80A20FEF75FF93046D1
:10282000BDE87040FFF75CBF10B504461E21FFF7FE
:10283000CAFE40F007021E21204600F04AF8BDE81B
:1028400010400A20FEF74AB90521FFF717BE2DE90F
:10285000F0410F461C46164680460121C569FFF728
:102860000DFE0E214046FFF7AEFE02460D2140460A
:1028700000F02FF832462221404600F02AF8334675
:102880003A4600214046FFF7CEFD03214046FFF7C0
:10289000F5FD12214046FFF796FE00070BD5FF22FB
:1028A0001221404600F015F829464046FFF7E6FDA4
:1028B0000120BDE8F081641E2404240C03D0012013
:1028C000FEF70CF9E5E729464046FFF7D7FD002063
:1028D000EFE70EB541F080018DF8081001218DF869
:1028E00004200A46009101AB02A900F001F80EBDD8
:1028F0002DE9F0470E461546044681889846DDF8D6
:10290000209000680022FEF7F9F94FF4FA673B4681
:102910002A463146A069FFF762F8A069FEF720FF5A
:102920000128FAD13B464A464146A069FFF757F8CD
:10293000A069FEF715FF0128FAD1A1882068BDE83B
:10294000F0470122FEF7DAB93EB5002410480094A2
:10295000019402940D49846001600473047501259B
:1029600005614FF460214460C161FDF7D5FF08B1F6
:1029700072B6FEE7CDE90045694605480294FDF7C9
:102980004DFF002801D072B6FEE73EBD0024014095
:10299000740000203EB50024104800940194029475
:1029A0000D498460016004730475012505614FF4CD
:1029B00060214460C161FDF7AFFF08B172B6FEE768
:1029C0000095CDE9015469460448FDF727FF00282A
:1029D00001D072B6FEE73EBD00280140A4000020F1
:1029E0002DE9F04186B000242F4800940194029410
:1029F0000394816941F020018161816901F0200126
:102A00000491816941F004018161816901F004014F
:102A10000491816941F0080181618069234F00F0D0
:102A200008000490012210213846FEF767F9DFF80C
:102A30008080012211464046FEF760F900224FF4E3
:102A400060414046FEF75AF90022B9153846FEF7B4
:102A500055F94FF4887001250226CDE90005CDE92E
:102A6000024669463846FEF759F84EF20100CDE9B4
:102A70000005CDE9024669464046FEF74FF82020A2
:102A800000900C48CDE9010469464046FEF746F83F
:102A9000002211461720FEF74FFB1720FEF73EFBE2
:102AA00006B0BDE8F08100000010024000080140BF
:102AB000000C0140000011100F4810B50D490160D5
:102AC0004FF48271416000218160C1604FF4007257
:102AD0000161C0E905121022C0E90721416281624B
:102AE0000A21C162FEF73FFE002801D072B6FEE760
:102AF00010BD0000003001407C01002010B586B000
:102B000000241748059404940094019402944FF013
:102B100080410394C0E900144FF6FF71C0E90241FF
:102B200004618461FFF7E4F908B172B6FEE704942A
:102B300004A90B480594FFF715F908B172B6FEE732
:102B40000120CDE900400294042269460448039420
:102B5000FFF73CF9002801D072B6FEE706B010BDC1
:102B6000D4010020FEE7FEE7F8B5044640684FF4C4
:102B70008273984217D1A0684FF48065B0F5004F7A
:102B800001D0A8420FD12068066826F040060660F2
:102B90006068984207D1A068A84204D100920B4611
:102BA0000022012103E000920B46002280212046F2
:102BB00000F018F8002804D0606D40F02000606537
:102BC0000320F8BD38B50B46009204460022802150
:102BD00000F008F8002804D0606D40F02000606527
:102BE000032038BD2DE9F8431E4691468846044629
:102BF000089DFEF789F8401B351AFEF785F8074651
:102C000025480068C0F3CB30684338E0701C37D0EB
:102C1000FEF77AF8C01BA84203D215B1009860B342
:102C20002CE02068416821F0E00141606068B0F567
:102C3000827F0BD1A068B0F5004F02D0B0F5806F55
:102C400004D12068016821F040010160A06AB0F55C
:102C5000005F09D12068016821F4005101602068FB
:102C6000016841F400510160012084F85100002006
:102C700084F850000320BDE8F8830025401E009032
:102C80002068816838EA010004D000214945BDD19F
:102C90000020F0E70121F9E7100000204FF4FA745A
:102CA000650041F288361C4800F0BAF91A4914222E
:102CB0007839A1F58070FFF7C1FC174817A1783863
:102CC000FDF772FC20BB14486438FDF7E9FB12499C
:102CD000C2B264392346A1F58A70FFF7B8FD0E4AE7
:102CE00010A1643AA2F16800FDF7C2FA0A48CC3894
:102CF000FDF7D6FB084982B2CC392B46A1F59E7070
:102D0000FFF7E0F9044808A208A17838FDF7B0FA07
:102D1000304600F0D5FBC6E7240400204E44373986
:102D20003639000025730D0A0000000025730000ED
:102D300010B5FEF795F901F031F8012803D0BDE890
:102D4000104000F0BDBF10BD30B593B028216846DB
:102D5000FDF703FC14210AA8FDF7FFFB0025012065
:102D60000F9510951195010412958DE8230004909C
:102D70004FF4E010CDE90810022407946846FEF7EE
:102D80005FFB08B172B6FEE70AA90F2081E83100A7
:102D90004FF48060CDE90D0502210AA8FEF774FA10
:102DA00008B172B6FEE74FF4404011900F940FA89F
:102DB000FEF7F4F9002801D072B6FEE713B030BD7B
:102DC00070470000F0B50268164B174C174D4FF0D6
:102DD0008047984205D0B84203D0A04201D0A84213
:102DE00003D122F070064A683243984205D0B842B7
:102DF00003D0A04201D0A84203D122F44074CA6893
:102E000022434C6922F08002224302608A68C26237
:102E10000A688262984201D1096901630121416116
:102E2000F0BD0000002C01400004004000080040FC
:102E300070B5056A046A24F00104046284690F4EC7
:102E4000B04208D0B0F1804F05D00D4EB04202D054
:102E50000C4EB04203D124F00304144301E044F0CB
:102E600001041A0724F0F00444EA126225F00A0370
:102E700001F00A0119438261016270BD002C01401A
:102E8000000400400008004030B5046A056A25F0DF
:102E900010050562856925F4407545EA022222F491
:102EA00070454FF6FF7202EA033224F0A0032A4372
:102EB000A02404EA011119438261016230BD0000BF
:102EC00070B5044600680169E26821F4405111437D
:102ED00001612169A0680843616908432168CA68E3
:102EE00041F20C639A430243CA6020684169A269B7
:102EF00021F44071114341611E492068884202D18A
:102F0000FEF768FA01E0FEF755FA00EBC00101EBAD
:102F10000012606864218000B2FBF0F3B3FBF1F3B0
:102F20006FF018067343B2FBF0F5B2FBF0F605EB59
:102F30008305322303EB0515B5FBF1F5B6FBF1F67E
:102F400005F0F00505EB0615B2FBF0F6B2FBF0F06C
:102F5000B0FBF1F06FF01802504306EB800003EB7A
:102F60000010B0FBF1F0216800F00F0028448860E9
:102F700070BD0000003801402DE9F0419846174629
:102F80000E460446069D27E0681C25D02DB1FDF7AE
:102F9000BBFEA0EB0800A8421ED920680C3050E808
:102FA000001F21F4D07140E80012002AF5D12068FA
:102FB000143050E8001F21F0010140E80012002AFF
:102FC000F5D1202084F8410084F84200002084F8E4
:102FD00040000320BDE8F0812068006836EA000068
:102FE00004D00020B842CFD00020F3E70120F9E759
:102FF000FEE70907090E002804DB00F1E02080F855
:103000000014704700F00F0000F1E02080F8141D5C
:10301000704730380A2801D20120704700207047DD
:103020002DE9F05F04460022544B1046A118985435
:103030000872087681F8440081F84E0081F8580043
:1030400081F86200521C81F870000A2AEEDB04F15C
:1030500008004BA183466268FDF70AF904F11800E5
:1030600047A182466269FDF703F904F1440044A1D7
:103070008146626BFDF7FCF804F14E0040A18046EA
:10308000A26BFDF7F5F804F158003DA10746E26B8D
:10309000FDF7EEF804F1620039A10646226CFDF757
:1030A000E7F804F1700036A10546E26EFDF7E0F89E
:1030B00034A13248FDF713FA30482168FDF70FFAC2
:1030C00032A12E48FDF70BFA31A12C48FDF707FA83
:1030D00059462A48FDF703FA2CA12848FDF7FFF9C5
:1030E0002EA12648FDF7FBF951462448FDF7F7F9D4
:1030F00026A12248FDF7F3F92AA12048FDF7EFF9B0
:1031000049461E48FDF7EBF920A11C48FDF7E7F9F9
:1031100026A11A48FDF7E3F941461848FDF7DFF903
:103120001AA11648FDF7DBF922A11448FDF7D7F9DB
:1031300039461248FDF7D3F914A11048FDF7CFF92D
:103140001FA10E48FDF7CBF931460C48FDF7C7F932
:103150000EA10A48FDF7C3F91CA10848FDF7BFF905
:1031600029460648FDF7BBF91AA10448FDF7B7F94F
:10317000BDE8F05F18A10148FDF7B1B9C003002018
:10318000256400007B224944223A2200222C0000C0
:103190002254454D50223A22000000002248554D4D
:1031A000223A2200225750223A220000225744227B
:1031B0003A2200002254656D704B6974223A220055
:1031C0002248756D4B6974223A2200002251223A3E
:1031D00022000000227D00000A00000010B533200C
:1031E00000F02AF8322000F027F83220FDF776FCB4
:1031F000282000F021F83220FDF770FC012000F0BB
:103200001BF83220FDF76AFC062000F015F832208A
:10321000FDF764FC0C2000F00FF83220FDF75EFC97
:10322000022000F009F83220FDF758FCBDE81040FC
:10323000802000F001B800001CB500F0F00141F062
:103240000C028DF8042041F0080100018DF80510F2
:1032500040F00C018DF8061040F008008DF80700D2
:1032600064200090042301AA4E210248FDF716FEB7
:103270001CBD0000D400002092B0FDF7F9FEFFF75E
:1032800063FDFFF7ADFBFFF717FC5D485B494FF4AB
:10329000E13500240160C0E901544FF00C08C4601E
:1032A000C0E904488461C461FEF784FE08B172B6C7
:1032B000FEE7FFF749FBFFF76DFB53485149534FBA
:1032C0000160C0E901740E14C0E9034644618461E1
:1032D000C4610462FDF71EFD08B172B6FEE74A48FC
:1032E0004B4954300160C0E90174C0E903464461B0
:1032F0008461C4610462FDF70DFD08B172B6FEE79A
:103300003F48444948300160C0E90154C460C0E905
:1033100004488461C461FEF74DFE08B172B6FEE751
:10332000FFF7ECFB684600F0AFF835482C22694601
:103330009030FDF7E0F83249384AA03901F598702D
:103340008161354902C0102120F8041B012104C00D
:10335000018042602022028140F2B11242610722C4
:10336000027642768176FF2181777821C1770A2122
:10337000818323489030FFF79FF9FFF72FFF204804
:103380009030FFF7AEF804461D489030FFF75CFA26
:103390004FF47A75C82C24D0224621A12A48FCF784
:1033A00067FF2948FDF77CF882B22B46264914486E
:1033B000FEF788FE244825A14030FCF759FF22493A
:1033C00024A0CC311C22086024490BA8FDF793F8F7
:1033D00000210BA800F080F82149086000F077F880
:1033E000FEE720A11848FCF743FF17496423803902
:1033F0007822A1F12C00FFF72AFAD2E70038014029
:103400001C02002000540040D4000020A0860100CF
:10341000005800400044004000080140000C0140FA
:103420000A0D204C6F5261206661696C6564203A18
:1034300028200A0D204572726F7220636F64653A0E
:10344000202564200A0D0000580300204C4F4F44F3
:10345000000000004E443739363900002843000888
:10346000000000204C6F52612069732072756E6EEF
:10347000696E672E2E2E0A0D000000000146002006
:10348000842900D0C81C704700B58BB040F2B11140
:10349000089107218DF824108DF8251001218DF851
:1034A0002610FF218DF82A1064218DF82B10082199
:1034B000ADF828102C226946FDF71DF80BB000BDB1
:1034C00010B500B9012000F015FB002010BD10B5AB
:1034D00000F036FB002010BD7FB50D460446416963
:1034E000B0F9080081B1A16971B1FFF7C7FFD4E954
:1034F00005128DE80700D4E900102B46226900F080
:1035000022FC039004B070BDFFF7B8FF03A9CDE91A
:103510000001208A2B4682B2D4E9001000F0E6FBBD
:10352000012801D00020EDE70398EBE72DE9F041F9
:10353000184C0F46054666692068001D00F016FA13
:1035400038B9206890F82C1001208840A169814387
:10355000A161681C07D137B12168BDE8F0410E4870
:10356000091D00F047BA20683544B542456021681E
:1035700005D2A068BDE8F041091D00F023BA6068DB
:10358000091D00F01FFA206B854200D22563BDE8BB
:10359000F081000014000020D00700202DE9F04148
:1035A000054600F033FA2E4C2069401C206120684B
:1035B0002C4F10B1E06940B32DE02560206901284F
:1035C00029D1002606EB860007EB800000F0ECF91D
:1035D000761C072EF6D323488C3000F0E5F92148FD
:1035E000A03000F0E1F91F48B43000F0DDF91D48CB
:1035F000C83000F0D9F91B48DC3000F0D5F9194883
:103600008C3060601430A06005E02068E96AC06A10
:10361000884200D82560E06A401CE062E96A012027
:10362000A26988401043A06101EB810007EB800094
:10363000291D00F0DFF900F009FAE06900280CD03C
:103640002068E96AC06A884207D207494FF0805073
:103650000860BFF34F8FBFF36F8FBDE8F0810000AC
:1036600014000020F406002004ED00E010B504462C
:1036700090F8510058B101280CD002280FD05020EA
:1036800080F31188BFF34F8FBFF36F8FFEE7206B7E
:1036900000F0F0F92046BDE8104000F0EBB910BD95
:1036A00010484FF44061420706D0C01D0D4920F07C
:1036B0000700411AC1F540610B4A00230144C2E9E9
:1036C00000030839103A21F0070111604B600B60CC
:1036D0000B1AC0E9001393604FF000405360D060B4
:1036E00070470000E407002060000020144E154CD5
:1036F000A6F1C8074FF08058DFF84C9012E000BFE9
:1037000000F084F9F068C568281D00F02FF92069E1
:10371000401E2061E068401EE06000F097F92846F6
:10372000FFF7A4FFE0680028EAD138680128F9D93A
:10373000C9F80080BFF34F8FBFF36F8FF2E700002F
:10374000BC0700201400002004ED00E02DE9F04744
:103750009A46DDE9098481466FF00303206B03EB91
:1037600082021044089D20F00706700707D0502001
:1037700080F31188BFF34F8FBFF36F8FFEE72318DD
:103780000A5C83F834200A5C12B1401C1028F6D37E
:10379000002784F84370072D00D30625E562C4E9AD
:1037A0001157201D00F00BF904F1180000F007F983
:1037B0002461C5F107006462A061E76484F8507079
:1037C00052464946304600F0BFF82060B8F1000F7D
:1037D00001D0C8F80040BDE8F087000030B51149BD
:1037E00000E011460A688242FBD34B685C188442B1
:1037F00003D1406818444860084643681C18944246
:1038000009D1084C103C2468A24209D052681A44DD
:1038100042600A6812680260814200D0086030BDD0
:103820000460F9E76000002006484168096829B192
:103830004168C968C9684968016370474FF0FF3142
:10384000FAE700001400002008484068401C4FF0D0
:10385000500080F3118804D0BFF34F8FBFF36F8FF8
:10386000FEE7BFF34F8FBFF36F8FFEE768000020C6
:103870002DE9F0410546002700F098F9314E3068F7
:1038800008B9FFF70DFFF06805424BD1C5B3083505
:1038900068070ED005F00700C0F10800054468076E
:1038A00007D0502080F31188BFF34F8FBFF36F8F85
:1038B000FEE72DB37068854234D8224810300146A7
:1038C0000C6801E020460C466168A94202D22168DA
:1038D0000029F7D131688C4224D007682168016043
:1038E00060680837411B10290FD96019420708D0BA
:1038F000502080F31188BFF34F8FBFF36F8FFEE727
:1039000010E041606560FFF769FF61687068401A08
:103910007060B268904200D2B060F068014300204D
:10392000C4E9000100F0ACFA780707D0502080F31A
:103930001188BFF34F8FBFF36F8FFEE73846BDE8A6
:10394000F08100005000002010B5031F4FF080747C
:103950001C601B1F21F001011960191F024B0B6035
:10396000143940380A6010BD49380008D0E90132E6
:1039700001699A60D0E901235A604A68824201D104
:1039800082684A60002202610868401E0860086878
:1039900070470000034B036003F15400086080206F
:1039A00010607047A004002000F108014FF0FF32C2
:1039B000C0E90112C160016100210160704700216E
:1039C0000161704730B50B685A1C02D000F1080243
:1039D00002E0026904E02246546825689D42FAD953
:1039E00053684B6099608A60516008610168491CA6
:1039F000016030BD42684A6093688B60936859608B
:103A0000916008610168491C01607047502080F393
:103A10001188BFF34F8FBFF36F8F0A494868401C6E
:103A2000486001280CD10848006810F0FF0F07D04B
:103A3000502080F31188BFF34F8FBFF36F8FFEE7E5
:103A4000704700006800002004ED00E00849486865
:103A500028B1401E486001D180F311887047502082
:103A600080F31188BFF34F8FBFF36F8FFEE7000025
:103A70006800002070B5002827D0144DA0F108047C
:103A80006168E868014207D1502080F31188BFF3D4
:103A90004F8FBFF36F8FFEE722683AB1502080F35B
:103AA0001188BFF34F8FBFF36F8FFEE781436160D3
:103AB00000F07CF860686968084468602046FFF799
:103AC0008DFEBDE8704000F0DBB970BD50000020F5
:103AD0004FF0E02000210161816105494FF47A72C5
:103AE0000968B1FBF2F1491E41610721016170478C
:103AF0001000002010B5020014D00F48806B38B1C0
:103B0000502080F31188BFF34F8FBFF36F8FFEE714
:103B100000F04CF800211046FFF708FD00F0B0F966
:103B2000002807D105494FF080500860BFF34F8F40
:103B3000BFF36F8F10BD00001400002004ED00E003
:103B400010B586B00024039405AA04A903A8049420
:103B5000FFF720FFDDE903010094CDE90110002308
:103B60000EA11048059A00F0EEF80F4900284863AE
:103B700011D0502080F31188BFF34F8FBFF36F8FA8
:103B80004FF0FF3008630120C8614C6106B0BDE80A
:103B9000104000F041B806B010BD000049444C454B
:103BA00000000000ED360008140000200248816B80
:103BB000491C816370470000140000201448816B89
:103BC00011B1012141627047002141628169B1FA5E
:103BD00081F1C1F11F0101EB81020E4951F8223040
:103BE0006BB101EB820101F108034A6852684A6037
:103BF0009A4201D152684A60D168016070475020F2
:103C000080F31188BFF34F8FBFF36F8FFEE7000083
:103C100014000020F40600201CB526490878019005
:103C2000FF20087008788DF800009DF800009DF8CE
:103C3000002000F0F000904207D0502080F311885F
:103C4000BFF34F8FBFF36F8FFEE79DF800001A4B55
:103C500000F0500018700720986005E09DF80020E3
:103C600052008DF80020401E9DF800201206F5D469
:103C70009860032807D0502080F31188BFF34F8F3E
:103C8000BFF36F8FFEE74FF44070986001980870A3
:103C90000A48016841F470010160016841F0704117
:103CA0000160FFF715FF00205860FCF787FA00203D
:103CB0001CBD000000E400E06800002020ED00E0F2
:103CC00010B5502080F31188BFF34F8FBFF36F8F73
:103CD00000F072F818B104494FF0805008600020DD
:103CE00080F3118810BD000004ED00E02DE9FF5FB6
:103CF0008346DDE90E87994616468A469000FFF70F
:103D0000B7FD05001CD05420FFF7B2FD040014D00D
:103D10000020256384F85100CDE90240CDE90087F9
:103D20004B46324651465846FFF710FD2046FFF7F6
:103D300035FC012004B0BDE8F09F2846FFF79AFE4D
:103D40004FF0FF30F6E7F0B585B0DDE90B640A9D72
:103D5000A6B1DCB1542700972663022684F851608F
:103D6000002604AFCDE90246CDE90057FFF7EEFC8F
:103D70002046FFF713FC049805B0F0BD502080F3F7
:103D80001188BFF34F8FBFF36F8FFEE7502080F392
:103D90001188BFF34F8FBFF36F8FFEE70548C169EE
:103DA00019B1806B18B100207047012070470220C4
:103DB00070470000140000202DE9F0412E4C002730
:103DC000A06B40B1206A401C2062606A00B10127EC
:103DD0003846BDE8F0816669761C666113D160687B
:103DE000006838B1502080F31188BFF34F8FBFF3C4
:103DF0006F8FFEE76068A1686160A060A06A401CE8
:103E0000A062FFF711FD206BDFF87080864209D3B6
:103E10006068006880B16068C068C568686886428C
:103E20000DD220632068C06A00EB800158F82100A1
:103E30000128CAD90127C8E74FF0FF30F1E7281D54
:103E4000FFF794FDA86A18B105F11800FFF78EFD81
:103E5000E86A0121A26981401143A16100EB800160
:103E600008EB8100291DFFF7C5FDE86A2168C96AD2
:103E70008842CDD30127CBE714000020F4060020B0
:103E80002DE9F0472C4D00242746A86B38B1FFF7E9
:103E9000BDFDA86B401EA863A86B40B146E0502052
:103EA00080F31188BFF34F8FBFF36F8FFEE729694F
:103EB000224E0120D1B3A6F1B40980463068E8B1A2
:103EC000F068C46804F11800FFF750FD201DFFF7EB
:103ED0004DFDE06AAA6908FA00F11143A96100EBFF
:103EE000800109EB8100211DFFF784FDE06A29684C
:103EF000C96A8842E2D3C5F82480DFE70CB1FFF736
:103F000093FC2C6A44B14646FFF756FF00B16E623F
:103F1000641EF9D100202862686A38B10849012777
:103F200038070860BFF34F8FBFF36F8FFFF78EFD29
:103F30003846BDE8F087000014000020A8070020E4
:103F400004ED00E02DE9C04130B4DFF8A0C23CEA46
:103F5000111418BF3CEA131400F0EC8081EA030549
:103F60001CEA111444EAD57418BF1CEA131500F0BA
:103F7000C780A4EB05044FF0004545EAC12145EA9E
:103F8000C32341EA505143EA525304F17F749942EA
:103F900004F500344FEAC0204FEAC22208BF904225
:103FA00000F09C804FEA13650FF24016765D4FEAF1
:103FB000134506FB05F7C7F1807706FB07F74FEAC5
:103FC000D737A7FB03687642C8F58038A7FB06CE33
:103FD00038BFA8F1010807FB08E64FF0000EA6FB6A
:103FE000028CE6FB03CEDCF1000CCEF1004E38BFB4
:103FF000AEF1010EA6FB0C584FF000074FF0000584
:10400000E6FB0E87A1FB08C6A0FB07CE16EB0E064B
:1040100045F10005E1FB076515F1E04E7EBFA4F513
:1040200080345FEA46066D4116F1800745F10005D0
:104030004FEA17274FEA066647EA0567A6F1DE460C
:10404000B6F1805F4FEA15251FD9384624F0010CE0
:1040500005EBC471BCF1FE6F01EB0C1102D8F0BC92
:10406000BDE8008124425CBF01F5801E9EEAC47F4A
:1040700002D4F0BCBDE80081244238D4F0BCA1F1E8
:10408000C041BDE8004100F049B94FEAD22242EAFE
:1040900043524FEAD323A7FB02864FEAD02040EADF
:1040A000415007FB03661EEA0E0F4FEAD12105FBC4
:1040B000026658BFA6EB0056B6EB00564FEA520E0A
:1040C0004EEAC37E18EB0E0E56EB530EBDD518EB21
:1040D00002085E417F1C55F10005B6E74FF48015DC
:1040E0004FF000074FF000064FF00008ADE7F0BCBE
:1040F0004FF0000001F1C04101F00041BDE8008136
:1041000011EA0C1F0CEA131500D00CE013EA0C1F87
:1041100000F025804FF00000F0BC81EA030101F0BF
:104120000041BDE80081F0BCBDE8004181EA030127
:1041300000F0F4B8F0BCBDE8004170B500F0A0F8A4
:10414000097EFC3E00F007B881EA03014FF0000051
:1041500001F00041704781EA030100F0DFB8F0BCD4
:10416000BDE800414FF0000021497047FFFDFBF919
:10417000F7F5F4F2F0EEEDEBE9E8E6E4E3E1E0DE9A
:10418000DDDBDAD8D7D5D4D3D1D0CFCDCCCBCAC80C
:10419000C7C6C5C4C2C1C0BFBEBDBCBBBAB9B8B733
:1041A000B6B5B4B3B2B1B0AFAEADACABAAA9A8A826
:1041B000A7A6A5A4A3A3A2A1A09F9F9E9D9C9C9BF4
:1041C0009A9999989797969595949393929191909F
:1041D0008F8F8E8E8D8C8C8B8B8A89898888878730
:1041E0008685858484838382828181800000FF07A5
:1041F0000000F87F4FEA41034FEA5353A3F5806371
:10420000D3F11E03C8BFD3F1210C0CDD4FF00042E7
:1042100042EAC12242EA505232FA03FC8CEAE17CC3
:10422000ACEBE1707047102BC4BF0020704703F562
:10423000787CBCF1FF3F04D06FF0004282EA21009D
:10424000704770B500F01CF8499224800020704738
:10425000F2E710F0004248BF4042B0FA80F310FA93
:1042600003F10AD0C3F11D0303F580634FEA415007
:1042700002EB035202EBD12170474FF00000704770
:104280000EF1020E2EF0030E5EF8046B364205D4DA
:10429000012A43EB030515F5001F12D8012841EB55
:1042A000010C1CF5001F0CD80ED14FEAD17C15F57E
:1042B000001F0CEB4C0C0CF1020C08BF4CEBD37C38
:1042C00004E04FF0080C01E04FEAD37C0CEB4C0506
:1042D00026FA05F606F00706B6F1040C06D20EEB38
:1042E000860CBDE870404CF0010C6047DFE80CF034
:1042F000090B02024FF000414FF00000A1F5002130
:1043000070BD19461046012851EB010418BFD4F5C1
:10431000001484BF002001F0004170BD0808A0F522
:1043200000114FEA31017047D44300089D2C00086A
:1043300000000000000000008000000000000000FD
:1043400000000000010202030405060708090A0B29
:104350000C0D0E0F10100000000000000000010204
:10436000030406070809000000000102030400001E
:104370003333333333331F40CDCCCCCCCCCC24407F
:104380003333333333332F40CDCCCCCCCCCC34404F
:104390000000000000403F409A99999999D9444003
:1043A0000000000000404F400000000000405F405F
:1043B0000000000000406F400000000000407F400F
:1043C00004000008000000000000000200010000DE
:1043D0001000000073656E64546F476174650000DF
:1043E00000440008000000207400000028010008BC
:1043F0007444000874000020D4190000440100082F
:10440000000000000100000010000000000000009B
:104410000024F40000000000000000000000000084
:10442000000000000000000000000000000000008C
:10443000000000000000000000000000000000007C
:10444000000000000000000000000000000000006C
:10445000000000000000000000000000000000005C
:10446000000000000000000000000000AAAAAAAAA4
:044470000000000048
:04000005080000ED02
:00000001FF
