:020000040800F2
:10000000E8060020890100087F100008DD0F0008C5
:100010007D100008650300080311000800000000BF
:100020000000000000000000000000008310000835
:100030006703000800000000811000088510000818
:10004000A3010008A3010008A3010008A301000800
:10005000A3010008A3010008A3010008A3010008F0
:10006000A3010008A3010008A3010008A3010008E0
:10007000A3010008A3010008A3010008A3010008D0
:10008000A3010008A3010008A3010008A3010008C0
:10009000A3010008A3010008A3010008A3010008B0
:1000A000A3010008A3010008A3010008A3010008A0
:1000B000A3010008A3010008A3010008A301000890
:1000C000A3010008A3010008A3010008A301000880
:1000D000A3010008A3010008A3010008A301000870
:1000E000A3010008A3010008A301000800F002F822
:1000F00000F03AF80AA090E8000C82448344AAF188
:100100000107DA4501D100F02FF8AFF2090EBAE885
:100110000F0013F0010F18BFFB1A43F0010318473B
:10012000C8200000E8200000103A24BF78C878C139
:10013000FAD8520724BF30C830C144BF04680C60ED
:10014000704700000023002400250026103A28BF35
:1001500078C1FBD8520728BF30C148BF0B60704739
:100160001FB51FBD10B510BD00F058F81146FFF7C0
:10017000F7FF01F069F800F076F803B4FFF7F2FF3B
:1001800003BC00F07DF8000009488047094800479B
:10019000FEE7FEE7FEE7FEE7FEE7FEE7FEE7FEE737
:1001A000FEE7FEE704480549054A064B7047000094
:1001B00001110008ED000008E8000020E80600201A
:1001C000E8020020E80200204FF0000200B51346CC
:1001D00094469646203922BFA0E80C50A0E80C5067
:1001E000B1F12001BFF4F7AF090728BFA0E80C5018
:1001F00048BF0CC05DF804EB890028BF40F8042B11
:1002000008BF704748BF20F8022B11F0804F18BF7D
:1002100000F8012B7047704770477047754600F033
:100220002BF8AE4605006946534620F00700854688
:1002300018B020B5FFF7B6FFBDE820404FF000062C
:100240004FF000074FF000084FF0000B21F00701BE
:10025000AC46ACE8C009ACE8C009ACE8C009ACE801
:10026000C0098D46704710B50446AFF300802046A4
:10027000BDE81040FFF781BF0048704788000020AC
:1002800001491820ABBEFEE72600020070470000BF
:1002900070B5044600688168C943C90717D18168F1
:1002A00021F00101816000F033FB05460AE000BF48
:1002B00000F02EFB401B022804D920688068C04350
:1002C000C00706D020688068C043C007F0D0002077
:1002D00070BDA06A40F01000A062E06A40F001002A
:1002E000E062012070BD0000F8B5002604460096CB
:1002F00000688168C943C9072DD0816841F00101B8
:100300008160164816490068B0FBF1F000E0401E1D
:1003100000900028FBD100F0FBFA054616E000BF74
:1003200000F0F6FA401B022810D920688068C0430C
:10033000C0070BD0A06A40F01000A062E06A40F055
:100340000100E06284F824600120F8BD2068806824
:10035000C043C007E4D10020F8BD00002400002005
:1003600040420F00FEE77047F8B50024009490F873
:1003700024202546012A12D0012280F824204A6830
:100380001F23072A0DD20668776B521E02EB8202EA
:1003900093409F430B6893401F43776319E002200B
:1003A000F8BD06680D2A0AD2376BD21F02EB820213
:1003B00093409F430B6893401F43376309E0F76AFC
:1003C0000D3A02EB820293409F430B6893401F4318
:1003D000F7620A68072306680A2A0AD3F7680A3A06
:1003E00002EB420293409F438B6893401F43F760A8
:1003F00008E0376902EB420293409F438B689340C9
:100400001F4337610A68102A01D0112A20D1124BEC
:1004100002689A4217D193681B0219D4936843F477
:10042000000393600968102912D10C490C4A09682D
:10043000B1FBF2F101EB8101490000E0491E00919E
:100440000029FBD104E0816A41F02001816201248E
:1004500080F824502046F8BD0024014024000020EC
:1004600040420F000068C06C704700002DE9F04169
:100470004FF0000704003D467ED0A06A002628B950
:10048000E66284F82460204600F07EF82046FFF7FC
:10049000FFFEA16AC90600D420B1A06A40F0100096
:1004A000A06269E0A16A21F4885141F00201A162D1
:1004B0006268E169237B0A4347EA43010A43A16872
:1004C0004FF48077B94209D0012907D05FF00001CD
:1004D00094F814C0BCF1010F02D00AE03946F7E7E6
:1004E000F3B1A36A43F02003A362E36A43F001037C
:1004F000E3622368D3F804C02CF4694C4CEA010C85
:10050000C3F804C021688B68DFF870C003EA0C03ED
:1005100013438B60A168B9420BD0012909D00CE0CC
:10052000DFF85CC0A3690CEB43330B4343F4006179
:10053000DFE7218A0D05A5F580152168CB6A23F434
:1005400070032B43CB62216889680E4B194091429E
:1005500008D1E662A16A21F0020141F00101A16225
:10056000BDE8F081A06A20F0020040F01000A06217
:10057000E06A40F00100E0620120F1E7FDF7E1FFF1
:1005800000E0FFFFFE0E1FFF10B586B000210091B6
:100590000191029103911B4C03681B480221032225
:1005A000A34214D1836943F400738361836903F424
:1005B00000730493836943F0040383618069CDE988
:1005C000001200F0040004906946104816E0104C38
:1005D000A34215D1836943F480638361836903F483
:1005E00080630493836943F0080383618069CDE9E4
:1005F000001200F0080004906946064800F098F8E0
:1006000006B010BD00240140001002400008014067
:1006100000280140000C014070B5044690F8240009
:1006200001280DD0012084F824002046FFF75CFE4D
:1006300002004FF0000005D084F82400104670BD81
:10064000022070BDA16A40F20123994341F48071F8
:10065000A1621F4D23681F49AB4218D10E6816F4E2
:10066000702F14D0A66A46F48016A6620E6876052E
:1006700005D5A66A26F4005646F48056A662A66AF8
:10068000F6040AD5E66A26F00606E66206E0A66AE1
:1006900026F48016A6625E68E9E7E06284F824002A
:1006A0006FF00200186020688368C3F34243072B91
:1006B00005D1A84208D1096811F4702F04D08168CF
:1006C00041F480118160B9E7816841F4A001F9E744
:1006D000002801400424014010B5044690F824008D
:1006E000012807D0012084F824002046FFF7D0FD20
:1006F00010B107E0022010BDA16A21F4885141F039
:100700000101A162002184F8241010BD70B50446D7
:1007100000F0FEF80546601C02D00448007804444E
:1007200000F0F6F8401BA042FAD370BD180000207C
:100730002DE9F84FDFF8B8910024A9F1040B234606
:100740000F2709F1040AABF1040EC9E00125A54009
:100750002A40AA427DD1674ED1F804C0ACEB06080E
:10076000B44532D014DCBCF1030F3AD009DCBCF143
:10077000000F2AD0BCF1010F1CD0BCF1020F31D107
:100780001DE0BCF1110F17D0BCF1120F2AD119E0F6
:10079000B8F5881F19D006DCB8F5803F15D0B8F53C
:1007A000801F1FD111E0B8F5001F0ED0B8F5041F4F
:1007B00018D10AE0CB6815E0CB681B1D12E0CB68AE
:1007C00008330FE0CB680C330CE08B682BB1012BA6
:1007D0004FF0080303D0456104E0042302E0056103
:1007E00000E00023FF2A01D8064601E000F10406DC
:1007F0004FEA840501D9A5F12005D6F8008007FA53
:1008000005FC28EA0C0803FA05F548EA0508C6F8CD
:1008100000804D68ED0062D5374DAE6946F00106A7
:10082000AE61AD6924F0030605F001050095334D76
:1008300006EB050CDCF80850A607360F07FA06F899
:1008400025EA0805DFF8B880404503D14FF00008DD
:1008500017E044E0DFF8AC80404502D14FF00108DA
:100860000FE0DFF8A480404502D14FF0020808E015
:10087000DFF89880404502D14FF0030801E04FF0C7
:10088000040808FA06F848EA0508CCF808804D681C
:10089000D9F80060ED024D4601D5164300E09643BD
:1008A0002E604D68DAF80060AD02554601D516435A
:1008B00000E096432E604D68DBF80060AD035D46B6
:1008C00001D5164300E096432E604D68DEF80060C7
:1008D000ED03754601D5164300E096432E60641C77
:1008E0000D682A46E5407FF431AFBDE8F88F00007F
:1008F00008040140000011100010024000000140F7
:1009000000080140000C01400010014000140140AB
:100910000148806870470000180000200248816884
:10092000027811448160704718000020074810B514
:10093000016841F010010160032000F067F80F200A
:1009400000F006F800F024F8002010BD002002405E
:1009500070B50D4D04464FF47A712878B1FBF0F074
:100960000A490968B1FBF0F000F024FB48B9102CEB
:1009700007D200222146501E00F028F800206C60AB
:1009800070BD012070BD0000180000202400002070
:100990000C4808B5816941F001018161816901F06C
:1009A00001010091C16941F08051C161C06900F04D
:1009B000805000900448416821F0E06141F00071EE
:1009C000416008BD0010024000000140F0B40E4B31
:1009D0001B680C46C3F30223C3F10705042D00D99D
:1009E0000425191D072901D2002300E0DB1E012682
:1009F00006FA05F1491E214099409E40761E164098
:100A00003143F0BC00F07EBB0CED00E0064900F085
:100A1000070208684FF6FF03184040EA0220034A25
:100A200010430860704700000CED00E00000FA057C
:100A30002DE9F84305460078354CC00754D0E069ED
:100A40000026C00008D4E06940F08050E061E06911
:100A5000012600F0805000902E480168C90512D48C
:100A60000168804641F480710160FFF751FF07463D
:100A700005E000BFFFF74CFFC01B642823D8D8F85F
:100A80000000C005F6D5206A10F4407021D0A98876
:100A900001F4407181421CD0206A1F49012220F4D8
:100AA00040700A6000220A602062C00711D0FFF780
:100AB0002FFF074641F2883808E000BFFFF728FF04
:100AC000C11B414502D90320BDE8F883206A800795
:100AD000F4D5206A696820F44070084320621EB192
:100AE000E06920F08050E0612878800705D56068D3
:100AF000A96820F44040084360602878C00605D506
:100B00006068E96820F48000084360600020DBE74B
:100B10000010024000700040400442422DE9F047BE
:100B20000F46050061D0434E306800F00700B84220
:100B300009D2306820F0070038433060306800F098
:100B40000700B84251D128683B4C810712D54007B5
:100B500003D5606840F4E06060602878000703D542
:100B6000606840F4605060606068A96820F0F00040
:100B7000084360602878C00728D06868012810D032
:100B80002168022810D0890700292EDA616821F037
:100B9000030101436160FFF7BBFE804641F28839E3
:100BA0000DE021688903EFE78901EDE7FFF7B0FE6B
:100BB000A0EB0801494502D90320BDE8F087606831
:100BC000696800F00C00B0EB810FEFD1306800F0E5
:100BD0000700B8420BD9306820F007003843306076
:100BE000306800F00700B84201D00120E5E728781E
:100BF000400705D56068E96820F4E060084360605C
:100C00002878000706D56068296920F4605040EA1A
:100C1000C100606000F018F86168084AC1F3031170
:100C2000515CC8400649086006480068FFF790FE1E
:100C30000020C2E70020024000100240D821000836
:100C4000240000201C0000200E4A51680E4801F0CC
:100C50000C03042B11D0082B0FD10C48C1F3834394
:100C6000C903C05C0AD55168084AC1F34041921ECD
:100C7000515C054A5043B0FBF1F0704704494843CA
:100C8000704700000010024000127A00C8210008DE
:100C900000093D002DE9F84F040070D02078C04DC8
:100CA000C00749D06868C0F38100012807D0686890
:100CB000C0F38100022809D16868C00306D52868FE
:100CC000800339D560680028E7D035E06068B0F56A
:100CD000803F0BD010B1B0F5A02F11D0286820F4C0
:100CE00080302860286820F4802002E0286840F4E2
:100CF00080302860606890B1FFF70AFE06460AE07F
:100D0000286840F480202860F0E700BFFFF700FE6D
:100D1000801B642873D828688003F7D50CE0FFF7A0
:100D2000F7FD064605E000BFFFF7F2FD801B6428D3
:100D3000F0D828688003F7D420789A4E80074FF0C7
:100D400001094FF0000839D5686810F00C0F07D082
:100D50006868C0F38100022809D16868C00306D41E
:100D60002868800714D52069012808D110E020697F
:100D7000B0B1C6F80090FFF7CBFD074605E00AE1E9
:100D8000FFF7C6FDC01B0228C4D828688007F7D526
:100D90002868616920F0F80040EAC10028600DE091
:100DA000C6F80080FFF7B4FD074604E0FFF7B0FD8A
:100DB000C01B022823D828688007F7D420780007B2
:100DC0002CD57948A169D9B1C0F80090FFF7A0FDF2
:100DD000074604E0FFF79CFDC01B02280FD8686A95
:100DE0008007F7D571484FF4FA510068B0FBF1F075
:100DF000009000BF0098411E0091FAD20EE080E002
:100E0000C0F80080FFF784FD074604E0FFF780FD8F
:100E1000C01B022875D8686A8007F7D4207840077D
:100E200060D5E8690027C00008D4E86940F0805028
:100E3000E861E869012700F0805000905C48016893
:100E4000C90513D40168834641F480710160FFF73E
:100E50005FFD824606E000BFFFF75AFDA0EB0A00E7
:100E600064284ED8DBF80000C005F5D5E0680128FD
:100E70000AD008B1052813D0286A20F001002862A2
:100E8000286A20F0040002E0286A40F0010028628D
:100E9000E06841F2883B98B1FFF73AFD82460BE0EB
:100EA000286A40F004002862EEE700BFFFF730FD3B
:100EB000A0EB0A0159455AD8286A8007F6D50CE0FC
:100EC000FFF726FD824605E0FFF722FDA0EB0A01B1
:100ED00059454CD8286A8007F6D41FB1E86920F03C
:100EE0008050E861E06988B36968C1F38101022933
:100EF00044D00228C6F8608004D0FFF709FD0446FC
:100F000038E034E0FFF704FD074604E0FFF700FD9A
:100F1000C01B02282BD828688001F7D4206AB0F5BE
:100F2000803F05D16868A16820F4003008436860FC
:100F3000D4E908010843696821F474110843686022
:100F4000C6F86090FFF7E4FC044606E025E000BF29
:100F5000FFF7DEFC001B022809D828688001F7D5BE
:100F60001BE000BFFFF7D4FC001B022802D90320BE
:100F7000BDE8F88F28688001F4D40EE00128F7D08E
:100F80006868226A00F48031914204D1616A00F4F9
:100F90007010884201D00120EAE70020E8E7000055
:100FA000001002400000424280044242240000201F
:100FB0000070004010B5401EB0F1807F01D30120C9
:100FC00010BD4FF0E02460610F21601700F09AF827
:100FD0000020A06107202061002010BDFEE7000076
:100FE0003EB5002410480094019402940D49846099
:100FF000016004730475012505614FF460214460AC
:10100000C161FFF733FA08B172B6FEE70095CDE98A
:10101000015469460448FFF7A7F9002801D072B6C9
:10102000FEE73EBD00240140280000203EB500241C
:1010300011480094019402940E4984600160047385
:101040000475012505614FF460214460C161FFF71B
:101050000DFA08B172B6FEE70920CDE90005694630
:1010600002940548FFF780F9002801D072B6FEE728
:101070003EBD00000028014058000020FEE7FEE7CA
:1010800070477047FFF74ABC30B593B028216846D7
:10109000FFF79AF814210AA8FFF796F80025012017
:1010A0000F9510951195010412958DE82300049079
:1010B0004FF4E010CDE90810022407946846FFF7CA
:1010C000E9FD08B172B6FEE70AA90F2081E83100F8
:1010D0004FF48060CDE90D0502210AA8FFF71EFD3F
:1010E00008B172B6FEE74FF4004011900F940FA8BC
:1010F000FFF79EFC002801D072B6FEE713B030BDAA
:101100007047FEE70907090E002804DB00F1E02024
:1011100080F80014704700F00F0000F1E02080F824
:10112000141D704710B500F031FD02460B4604480F
:10113000044900F0EBF9BDE8104000F005B90000EB
:10114000713D0AD7A31AA24010B500F01FFD0F4A47
:101150000F4B00F0DBF90F4A0F4B00F027F90F4A55
:101160000F4B00F0D3F94FF0FF3200F0E6FF00F034
:10117000EBF80C4900F03AFF00F008FD0A4A0B4B6F
:1011800000F0C4F9BDE8104000F0DEB8ABAAAAAA8E
:10119000AAAA304025068195438BCC3F213EB0E37F
:1011A000BF40203F00007A44CDCCCCCCCCCC0E400C
:1011B0002DE9F04105461C480E46006800F0E6FCAB
:1011C00007460C461949284600F044FE00F0DEFCB4
:1011D0000022174B00F09AF90022164B00F096F906
:1011E0003A46234600F0EAFA00F0AEF804463046EC
:1011F00000F0CCFC0022104B00F0DEFB0F4A104B3D
:1012000000F0DCFA00220F4B00F0D0F806460D4645
:10121000204600F0BBFC32462B4600F077F9BDE8D3
:10122000F04100F091B80000000000200050C347DA
:1012300000A0894000006940000039407B14AE479F
:10124000E17A943F0000F03F08B5FFF76FFBFFF72E
:101250001BFF3048816941F020018161816901F003
:1012600020010091816941F004018161816901F0EF
:1012700004010091816941F008018161806900F0F9
:1012800008000090FFF7ACFEFFF7D0FE2248FFF702
:1012900049FF00F04BF8214C214E224F40F6FF75DC
:1012A0002148FFF7B9F90120FFF730FA1E48FFF790
:1012B000D9F840F6E4414843B0FBF5F000F0B6FD44
:1012C00060601948FFF708FA1748E6603038FFF702
:1012D000A3F90120FFF71AFA13483038FFF7C2F8D4
:1012E00040F6E4414843B0FBF5F000F09FFDA060FC
:1012F0000D483038FFF7F0F93946A06800F0D4FC0B
:10130000FFF722FF014620616068FFF751FF60612F
:10131000C6E7000000100240D5A0574B0000002097
:1013200000C0434400007A4458000020A0F17C51E2
:10133000B1F5400F03D80349086001207047002031
:10134000704700000000002021F00042A2F160522E
:10135000B2F5801F01F0004328BFD2F17F6C0BD99A
:101360005FEA001C43EAC20242EB507018BF7047AC
:1013700028BF20F001007047B2F5801FBCBF18469F
:1013800070474FEA410C1CF5001F02D2084600F0DE
:1013900028BE70B500F0BCFA00000089FFF7F6BF68
:1013A0004FF00040A0F580007047000010B591EAB2
:1013B000030F48BF83F0004300F10683841A71EBEA
:1013C000030C05D2121943EB0C03001B61EB0C015B
:1013D000DFF824E14FEA1154A4EB135C1EEA430F3B
:1013E00018BF9EEA445F73D023EA0E03DCF1200E9F
:1013F00021EA045143F4801332D322FA0CFE10EB9D
:101400000E0023FA0CFE41EB0E01CCF1200E03FA84
:101410000EFE10EB0E0051F10001B1F5801FCCF172
:10142000200E32D201EB045112FA0EF2BDE8104048
:1014300058BF7047401C38BF5FEA420218BF704770
:10144000002814BF20F0010041F100014FEA4103E0
:1014500013F5001F38BF7047A1F1C04100F0A6BAD4
:10146000012A43EB0302ACF1200CDCF11F0E32BF6A
:101470004FF0000E23FA0CF310EB030041EB045184
:10148000B4EB115FD0D0A1EB045101F580114908F4
:101490005FEA300001EB04510ED350F1000038BF79
:1014A00012FA0EFE08D1BDE81040C9E7401C38BF53
:1014B0005FEA4202CAD1C3E7BDE810404FEA4103E8
:1014C00013F5001F38BF7047A1F1C04100F06EBA9C
:1014D0009EEA445F08D011EA5E0FBDE8104004BFE9
:1014E00001F0004100207047BDE8104070B500F0E9
:1014F0000FFA00BF64FBBE3E0000E0FF02494FF060
:10150000000000F0E8BD00BF0000F87F2DE9C041F9
:1015100030B4DFF8A0C23CEA111418BF3CEA13143F
:1015200000F0EC8081EA03051CEA111444EAD5744A
:1015300018BF1CEA131500F0C780A4EB05044FF098
:10154000004545EAC12145EAC32341EA505143EA37
:10155000525304F17F74994204F500344FEAC020DD
:101560004FEAC22208BF904200F09C804FEA136508
:101570000FF24016765D4FEA134506FB05F7C7F1FB
:10158000807706FB07F74FEAD737A7FB0368764259
:10159000C8F58038A7FB06CE38BFA8F1010807FBC5
:1015A00008E64FF0000EA6FB028CE6FB03CEDCF152
:1015B000000CCEF1004E38BFAEF1010EA6FB0C5868
:1015C0004FF000074FF00005E6FB0E87A1FB08C6B1
:1015D000A0FB07CE16EB0E0645F10005E1FB076503
:1015E00015F1E04E7EBFA4F580345FEA46066D41FA
:1015F00016F1800745F100054FEA17274FEA066606
:1016000047EA0567A6F1DE46B6F1805F4FEA152589
:101610001FD9384624F0010C05EBC471BCF1FE6FF4
:1016200001EB0C1102D8F0BCBDE8008124425CBF84
:1016300001F5801E9EEAC47F02D4F0BCBDE80081A3
:10164000244238D4F0BCA1F1C041BDE8004100F013
:10165000ADB94FEAD22242EA43524FEAD323A7FB65
:1016600002864FEAD02040EA415007FB03661EEA9B
:101670000E0F4FEAD12105FB026658BFA6EB0056BC
:10168000B6EB00564FEA520E4EEAC37E18EB0E0E32
:1016900056EB530EBDD518EB02085E417F1C55F189
:1016A0000005B6E74FF480154FF000074FF0000635
:1016B0004FF00008ADE7F0BC4FF0000001F1C04171
:1016C00001F00041BDE8008111EA0C1F0CEA13157E
:1016D00000D00CE013EA0C1F00F025804FF0000052
:1016E000F0BC81EA030101F00041BDE80081F0BCDB
:1016F000BDE8004181EA030100F058B9F0BCBDE843
:10170000004170B500F004F9097EFC3E00F007B816
:1017100081EA03014FF0000001F00041704781EAC7
:10172000030100F043B9F0BCBDE800414FF00000F8
:1017300021497047FFFDFBF9F7F5F4F2F0EEEDEB10
:10174000E9E8E6E4E3E1E0DEDDDBDAD8D7D5D4D3BF
:10175000D1D0CFCDCCCBCAC8C7C6C5C4C2C1C0BF0B
:10176000BEBDBCBBBAB9B8B7B6B5B4B3B2B1B0AF11
:10177000AEADACABAAA9A8A8A7A6A5A4A3A3A2A1F5
:10178000A09F9F9E9D9C9C9B9A99999897979695B0
:1017900095949393929191908F8F8E8E8D8C8C8B4C
:1017A0008B8A8989888887878685858484838382D4
:1017B000828181800000FF070000F87FDFF848C1C8
:1017C00070B51CEA111E1EBF1CEA13159EEA0C0F11
:1017D00095EA0C0F00F06F8081EA030423EA4C13B2
:1017E0004EEAD47E21EA4C1141F4801143F4801377
:1017F000AE44A1FB024CA0FB0365AEF17F7E36191F
:1018000055EB0C05A1FB034C4CF10003A0FB021CA3
:1018100016EB0C06654153F10003094218BF46F070
:10182000010613F4007F0BD14FEA03314FEA053074
:10183000340341EA155140EA16506FF003020AE002
:101840004FEAC3214FEAC520F40241EA555140EA6C
:1018500056506FF0020202EB2E4201EB025585EA70
:10186000CE710AD05FEA440C18BF24F0004450F156
:10187000000041F1000120EAD47040F2FE7C624594
:1018800000D270BDA84214BF4FF080444FF04044D6
:10189000002E08BF0024BEF1806FA8BFA1F1C04197
:1018A000BDE8704080F282804FF0000001F1C0413D
:1018B00001F0004170479EEA0C0F0CEA131518BFA7
:1018C00095EA0C0F06D04FF0000081EA030E0EF0EF
:1018D000004170BD00F01CF88900013E00F007B81F
:1018E00000F009B84FEA430C5FEA5C5C08D081EA7B
:1018F000030100F05BB84FEA410C5FEA5C5CF6D193
:101900004FF00000014970470000FF070000F87F1A
:101910000EF1020E2EF0030E5EF8046B364205D473
:10192000012A43EB030515F5001F12D8012841EBEE
:10193000010C1CF5001F0CD80ED14FEAD17C15F517
:10194000001F0CEB4C0C0CF1020C08BF4CEBD37CD1
:1019500004E04FF0080C01E04FEAD37C0CEB4C059F
:1019600026FA05F606F00706B6F1040C06D20EEBD1
:10197000860CBDE870404CF0010C6047DFE80CF0CD
:10198000090B02024FF000414FF00000A1F50021C9
:1019900070BD19461046012851EB010418BFD4F55B
:1019A000001484BF002001F0004170BD0808A0F5BC
:1019B00000114FEA3101704710B591EA030F48BF9B
:1019C00083F000433FF5FAAC841A71EB030C07D2A5
:1019D00012198CF0004C43EB0C03001B61EB0C0163
:1019E000DFF8A4E14FEA1154A4EB135C1EEA430FA5
:1019F00018BF9EEA445F00F0B08023EA6E035242B3
:101A000021EA0451C3EB6E0338BF5B1EDCF1200EEC
:101A100025D322FA0CFE10EB0E0043FA0CFE41EB2C
:101A20000E01CCF1200E03FA0EFE10EB0E0051F168
:101A30000001CCF1200E29D412FA0EF201EB045170
:101A4000BDE8104058BF7047401C1CBFB2F1004FAA
:101A5000704700280CBF491C20F00100704712EBB2
:101A6000020E43EB030218BF4FF0010E4EEA420292
:101A7000ACF1200CDCF11E0E54D943FA0CFE10EB35
:101A80000E0051F1FF31CCF11E0ED5D50EF1010E35
:101A900012FA0EFE404141EB010101EB445C5FEAAA
:101AA0005C5C10D910EBDE7001EB045138BFBEF165
:101AB000004FBDE8104018BF704700280CBF491CFC
:101AC00020F00100704730D24FEAD42C11F50011FC
:101AD00024F400641BD0B1FA81F20B3AA41AA41EBC
:101AE000D2F12003914030FA03F31943904001EB07
:101AF000CC71002C01EB0451BDE81040A8BF704729
:101B000001F1C0414FF0000001F000417047B0FA10
:101B100080F310FA03F100D110BDE41A173C480518
:101B2000C90AE4E701EB045110BD491001EB04516F
:101B3000BDE810404FEA300002E04FF0000170476E
:101B40004A0008BF0042F8D0B2F5001F28BF704716
:101B500001F000414FF0000070479EEA445F07D05B
:101B600011EA5E0FBDE8104004BF0021002070475D
:101B7000BDE8104070B5FFF7CBFE00BF40DFF63E7A
:101B800083F00041104670470000E0FF43004FEA39
:101B9000D30C4FEA3C0C43401FBF40070CF160518F
:101BA00013F0FE4F70471CF0006F03D100200CF0C3
:101BB000004170470CF0004343EA507010B540EA12
:101BC000CC0000F0C8F900BF000000924FEA00010D
:101BD000FFF7ECBE4FF000414FF00000A1F50021EF
:101BE0007047000090EA010F48BF81F0004100F10A
:101BF0000482421A3CBF801A89184FEAD0524FF033
:101C00007F4C1CEA410FA2EBD15318BF9CEA026F34
:101C100000F03B804FF0004C4CEA00204CEA0121E0
:101C200021FA03FC10EB0C0C1ED202F1FF325FEA2A
:101C30001C2040EBC25038BF70471CF07F0F4FEAAA
:101C4000400C18BFBCF17F4F38BF7047C3F1200371
:101C5000994008BF20F00100BCF17F4F38BF7047AA
:101C6000A0F1C04000F0BDB94FEA3C00000A40EBD3
:101C7000C25028BF1CF0FF0F4FEA400CE6D018BF3F
:101C8000BCF17F4F38BF7047EAE79CEA026F05D08E
:101C900010EA5C0F08BF00F00040704710B500F07C
:101CA0005AF900BF64FBBE3E4FF47F0C1CEAD01211
:101CB0001EBF1CEAD11392EA0C0F93EA0C0F00F03E
:101CC000858090EA010F48BF42F4807240F4000C16
:101CD00041F400002CF07F4120F07F4000B58142AC
:101CE000A2EB03020FF2081CACEB504EC0F1000057
:101CF0009EF800E04FEA4E0E00FB0EFC38BF490094
:101D00004FEA2C1C02F5FA020CFB0EF34FEACE1E32
:101D10004FEA112C4FEAC1210EEB635E42EB2242E7
:101D20000EFB0CFC4FEA1C5300FB03114FEA112C75
:101D30004FEA01310EFB0CFC4FEADC4C00FB0C11AE
:101D4000C14228BF09184CEB03335DF804EB10EBDC
:101D5000410143EBC250B2F57C0F38BF704729D523
:101D600012F0F00F1CBF00F1C04000F000407047BF
:101D7000008182838485868788898B8C8D8E8F9164
:101D80009293959697999A9C9D9FA0A2A3A5A7A888
:101D9000AAACAEB0B2B3B5B7B9BCBEC0C2C5C7C9B4
:101DA000CCCED1D4D7D9DCDFE2E6E9ECF0F3F7FA18
:101DB000FE0000004FEA400C0CF1807CBCF17E4F2D
:101DC00028BF7047B0F1C04000F00BB990EA010F96
:101DD0000CEAD11348BF42F48072624538BF6345B4
:101DE00007D213F47F0F16D080EA010000F0004004
:101DF000704710B500F0AFF8097EFC3E00F005B862
:101E000080EA010000F00040704780EA010000F025
:101E1000004000F0E6B812F47F0F04BF024870479C
:101E200080EA010000F0DDB80000C07FB0FA80F366
:101E300010FA03F2C3F19D030AD0D90501EB122079
:101E4000530638BF704700F1010008BF20F00100C1
:101E5000704700004FF47F0C1CEAD0121EBF1CEA32
:101E6000D11392EA0C0F93EA0C0F00F0478090EA2E
:101E7000010F48BF42F480724FF0004C4CEA002042
:101E80004CEA012102EB0302A0FB0113A2F50002C0
:101E9000002918BF43F001035B0028BF4FEA33035A
:101EA00042EB22425FEA132C4CEBC2502EBFBCEB3C
:101EB000436FB2F57C0F70474FEA036CBCF1004FE3
:101EC00008BF20F00100B2F57C0F38BF70470BD57A
:101ED00082F0FF0212F5803FC8BF704700F1C0409A
:101EE000D8BF00F00040704700F5000C5FEA4C0CD2
:101EF00048BF7047B0F1C04000F073B890EA010FDE
:101F00000CEAD11348BF42F48072624538BF634582
:101F100004D280EA010000F00040704710B500F0E4
:101F20001AF800BF8900013E00F007B800F009B8B8
:101F30005FEA410C5FEA1C6C08D080EA010000F007
:101F400050B85FEA400C5FEA1C6CF6D14FF00040DD
:101F5000A0F5800070470EF1020E2EF0030E5EF821
:101F6000044B244204D44FEA4102B2F17F4F11D80E
:101F70004FEA4003B3F17F4F0CD80ED14FEAD07C2B
:101F8000B2F17F4F0CEB4C0C0CF1020C08BF4CEB88
:101F9000D17C04E04FF0080C01E04FEAD17C0CEB5F
:101FA0004C0324FA03F404F00704B4F1040C06D241
:101FB0000EEB840CBDE810404CF0010C6047DFE8EC
:101FC0000CF0070802024FF00040A0F5800010BDA1
:101FD0000846420018BFD2F1807288BF00F000406E
:101FE00010BDFF2141EAD050C005704790EA010FB3
:101FF00048BF81F000413FF5FCAD421A04D882F0A1
:102000000042A0EB020011444FEAD0524FF07F4C47
:102010001CEA410FA2EBD15318BF9CEA026F4AD0D1
:102020004FF0004C4CEA00204CEA012121FA03FC5D
:10203000B0EB0C0C0FD412F0FE0F36D05FEA4C0060
:102040001DD5001240EBC25038BF70471CF03F0F47
:1020500018BF70470BE0A2F101025FEA1C2040EBC1
:10206000C25038BF70471CF07F0F18BF7047C3F1D4
:102070002003994014BF401E20F0010070478008E3
:102080004FEA122308BF7047B0FA80FCA2EB0C02A3
:10209000CCF1280C60FA0CF093EA122F04BF00EB8D
:1020A000C25070474FEAC3707047130A5FEADC10F2
:1020B00008BF7047F6E79CEA026F04D010EA5C0F95
:1020C00008BF0020704710B5FFF745FF40DFF63E20
:1020D00081F0004070470CF00F03092B08BF082067
:1020E00000F059800A2B0BD0082B18BF704708BF8F
:1020F0001CF0400F0AD04FF000004FF00001704775
:102100001CF0400F18BF4FF0004070471CF0100F3C
:1021100008D020F0704300F07F4242EAD3014FEA3A
:102120004370704700F0604021F07F4242EA0002B5
:1021300001F07F4040EA727070474FF0FF0C4CF4A2
:10214000E06C1CEA11531CBF9CEA030C9445C2BF0F
:10215000DA4201EB02517047002B0DD0BCF1000FA9
:102160000FD0002A01F00041A4BF41F0E04141F04E
:102170007F614FF00000704701F000414FF0000018
:10218000704750EA01334FF09B0C18BF4CF0806C45
:102190007FF4B4A970471CF4801F11D01CF4E02F09
:1021A00003D06FEACC31490070474FF04050EFF355
:1021B000008222F0704242EA000282F300887047F7
:1021C0004FF00000704701020203040506070809EA
:1021D0000A0B0C0D0E0F1010000000000000000094
:1021E0000102030406070809082200080000002075
:1021F00028000000280100083022000828000020E4
:10220000C0060000440100080000803F00000000FC
:1022100000000000000000000000000000000000BE
:102220000100000010000000000000000024F40085
:04000005080000ED02
:00000001FF
