:020000040800F2
:10000000300700208901000835140008111000088D
:10001000331400088F0200089F140008000000003D
:10002000000000000000000000000000391400087B
:100030009102000800000000371400083B1400087B
:10004000A3010008A3010008A3010008A301000800
:10005000A3010008A3010008A3010008A3010008F0
:10006000A3010008A3010008A3010008A3010008E0
:10007000A3010008A3010008A3010008A3010008D0
:10008000A3010008A3010008A3010008A3010008C0
:10009000A3010008A3010008A3010008A3010008B0
:1000A000A3010008A3010008A3010008A3010008A0
:1000B000A3010008A3010008A3010008A301000890
:1000C000A3010008A3010008A3010008A301000880
:1000D000A3010008A3010008A3010008A301000870
:1000E000A3010008A3010008A301000800F002F822
:1000F00000F03AF80AA090E8000C82448344AAF188
:100100000107DA4501D100F02FF8AFF2090EBAE885
:100110000F0013F0010F18BFFB1A43F0010318473B
:10012000DC190000FC190000103A24BF78C878C11F
:10013000FAD8520724BF30C830C144BF04680C60ED
:10014000704700000023002400250026103A28BF35
:1001500078C1FBD8520728BF30C148BF0B60704739
:100160001FB51FBD10B510BD00F058F81146FFF7C0
:10017000F7FF01F0A5F900F076F803B4FFF7F2FFFE
:1001800003BC00F07DF8000009488047094800479B
:10019000FEE7FEE7FEE7FEE7FEE7FEE7FEE7FEE737
:1001A000FEE7FEE704480549054A064B7047000094
:1001B0009D140008ED0000083001002030070020E9
:1001C00030030020300300204FF0000200B513463A
:1001D00094469646203922BFA0E80C50A0E80C5067
:1001E000B1F12001BFF4F7AF090728BFA0E80C5018
:1001F00048BF0CC05DF804EB890028BF40F8042B11
:1002000008BF704748BF20F8022B11F0804F18BF7D
:1002100000F8012B7047704770477047754600F033
:100220002BF8AE4605006946534620F00700854688
:1002300018B020B5FFF7B6FFBDE820404FF000062C
:100240004FF000074FF000084FF0000B21F00701BE
:10025000AC46ACE8C009ACE8C009ACE8C009ACE801
:10026000C0098D46704710B50446AFF300802046A4
:10027000BDE81040FFF781BF00487047CC00002068
:1002800001491820ABBEFEE7260002007047FEE7DA
:10029000704700002DE9F84FDFF8B8910024A9F16C
:1002A000040B23460F2709F1040AABF1040EC9E041
:1002B0000125A5402A40AA427DD1674ED1F804C04D
:1002C000ACEB0608B44532D014DCBCF1030F3AD0D5
:1002D00009DCBCF1000F2AD0BCF1010F1CD0BCF12D
:1002E000020F31D11DE0BCF1110F17D0BCF1120F7C
:1002F0002AD119E0B8F5881F19D006DCB8F5803F7F
:1003000015D0B8F5801F1FD111E0B8F5001F0ED031
:10031000B8F5041F18D10AE0CB6815E0CB681B1DA7
:1003200012E0CB6808330FE0CB680C330CE08B682D
:100330002BB1012B4FF0080303D0456104E00423E7
:1003400002E0056100E00023FF2A01D8064601E033
:1003500000F104064FEA840501D9A5F12005D6F87D
:10036000008007FA05FC28EA0C0803FA05F548EABC
:100370000508C6F800804D68ED0062D5374DAE69BE
:1003800046F00106AE61AD6924F0030605F00105F3
:100390000095334D06EB050CDCF80850A607360F28
:1003A00007FA06F825EA0805DFF8B880404503D1CA
:1003B0004FF0000817E044E0DFF8AC80404502D180
:1003C0004FF001080FE0DFF8A480404502D14FF064
:1003D000020808E0DFF89880404502D14FF003089A
:1003E00001E04FF0040808FA06F848EA0508CCF8DE
:1003F00008804D68D9F80060ED024D4601D51643DE
:1004000000E096432E604D68DAF80060AD02554674
:1004100001D5164300E096432E604D68DBF800607E
:10042000AD035D4601D5164300E096432E604D684E
:10043000DEF80060ED03754601D5164300E09643F3
:100440002E60641C0D682A46E5407FF431AFBDE89C
:10045000F88F000008040140000011100010024055
:100460000000014000080140000C01400010014064
:10047000001401400148806870470000140000200B
:1004800070B5040025D094F83D00002520B984F80B
:100490003C50204600F076FA242084F83D00206885
:1004A000016821F0010101602068016841F4004108
:1004B00001602068016821F40041016000F0CEFB7A
:1004C0004D4A6168914201D84C4900E04C4988424C
:1004D00001D2012070BD4B492368B0FBF1F15E6889
:1004E00026F03F060E435E606368934206D94FF4E0
:1004F000967359434FF47A73B1FBF3F12368491CA7
:100500001E6A26F03F06314319626168914210D895
:100510004900401EB0FBF1F2521CC2F30B02042A48
:1005200001D2042022E0B0FBF1F0401CC0F30B002C
:100530001CE0A268F2B301EBC10303EB0116431EFA
:10054000B3FBF6F35B1C43F480431B0549D092B325
:1005500001EBC10202EB0111401EB0FBF1F0401CA7
:10056000C0F30B0040F4804040F400402168CA69A9
:100570004CF6FF739A431043C861D4E90710014356
:100580002068026822F0C00211430160D4E903012F
:1005900001432068826848F2FF339A431143816027
:1005A000D4E9050108432168CA6822F0FF0210431C
:1005B000C86001E00EE016E02068016841F001012A
:1005C00001602564202084F83D00256384F83E50B6
:1005D000002070BD01EB4106431EB3FBF6F35B1C2C
:1005E000B3E70120C2E701EB4101401EB0FBF1F08F
:1005F000401CC0F30B00B7E7A086010080841E00FA
:1006000000093D0040420F002DE9F84F0025DDF8BC
:100610002890984617468A4604460095FFF72AFF19
:10062000064694F83D0020287AD1192301228649F4
:100630002046009600F0F4FD0028F5D194F83C0027
:1006400001286DD0012084F83C0020680168C907AA
:1006500003D1016841F0010101602068016821F4C3
:1006600000610160222084F83D00102084F83E00E3
:1006700025646762A4F82A80608D20857348E06253
:1006800033464A465146204600F0DAFC00287CD129
:10069000208DDFF8BC81202768B1012814D0022802
:1006A000206801681ED041F48061016020684169C2
:1006B00080690090BBE02068416981690091016810
:1006C00041F400710160B2E02068016821F48061AA
:1006D000016072B62068416981690091016841F446
:1006E00000710AE041F40061016072B6206841695E
:1006F00081690091016821F48061016062B696E031
:10070000032865D801280CD002284B464FF0000280
:100710004146204600960BD000F082FDA8BB0CE0BD
:1007200090E032464946204600F020FE68BB71E06A
:1007300000F076FD48BB72B633E02068016821F412
:100740008061016072B620680069616A0870606A41
:10075000401C6062208D401E2085608D401E60859B
:100760003C4846F2A8110068B0FBF1F0C0EBC000B5
:1007700000EB80000090401E009007D02068406988
:10078000C04340070DD50098F5E727E044F8305FF7
:100790006773A573206940F02000206162B625735D
:1007A0001CE02068016841F4007101602068006964
:1007B000616A0870606A401C6062218D491E218553
:1007C000618D491E618562B621680969017025E065
:1007D00032464946204600F0C9FD10B10120BDE86F
:1007E000F88F20680069616A0870606A401C606266
:1007F000208D401E81B22185608D401E608520685D
:100800004269D243520712D4032903D1016821F46B
:100810008061016020680069616A0870606A401C3C
:100820006062208D401E2085608D401E6085208D79
:1008300000287FF465AF84F83D7084F83E5084F85A
:100840003C50CCE70220CAE7020010000000FFFF86
:1008500004000100200000202DE9F84F1F469046BB
:100860008A460446DDF82890FFF704FE054694F812
:100870003D0020287FD119230122404920460095C0
:1008800000F0CEFC002876D194F83C00012872D00C
:10089000012084F83C0020680168C90703D1016881
:1008A00041F0010101602068016821F400610160EC
:1008B000212084F83D00102084F83E0000262664A4
:1008C000C4F824806785608D20852D48E0622B4622
:1008D0004A465146204600F029FC90B920684169FB
:1008E0008069009036E02A464946204600F076FDB1
:1008F00050B1206C042804D12068016841F40071D3
:1009000001600120BDE8F88F606A21680078086105
:10091000606A401C6062618D491E6185218D491E9F
:1009200089B2218522685369DB435B070BD451B13F
:1009300000781061606A401C6062608D401E6085B6
:10094000208D401E20852A464946204600F03CFC6A
:100950000028CED1208D0028C5D154F83D0B016868
:1009600041F400710160202004F81E09E6776677E3
:100970000020C7E7FFE70220C4E7000002001000E4
:100980000000FFFF30B585B0002100910191029178
:1009900003911E4D03681E4C122103221D48AB42D9
:1009A00016D1A36943F00803A361A369039203F07E
:1009B00008030493C023CDE900316946FFF76AFCC0
:1009C000E06940F40010E061E06900F4001019E013
:1009D000114DAB4217D1A36943F00803A361A3698A
:1009E000039203F0080304934FF44063CDE9003110
:1009F0006946FFF74FFCE06940F48000E061E06980
:100A000000F48000049005B030BD000000540040A8
:100A100000100240000C014000580040024881686C
:100A2000027811448160704714000020074810B517
:100A3000016841F010010160032000F067F80F2009
:100A400000F006F800F024F8002010BD002002405D
:100A500070B50D4D04464FF47A712878B1FBF0F073
:100A60000A490968B1FBF0F000F0BEFA48B9102C51
:100A700007D200222146501E00F028F800206C60AA
:100A800070BD012070BD0000140000202000002077
:100A90000C4808B5816941F001018161816901F06B
:100AA00001010091C16941F08051C161C06900F04C
:100AB000805000900448416821F0E06141F00071ED
:100AC000416008BD0010024000000140F0B40E4B30
:100AD0001B680C46C3F30223C3F10705042D00D99C
:100AE0000425191D072901D2002300E0DB1E012681
:100AF00006FA05F1491E214099409E40761E164097
:100B00003143F0BC00F0CCBC0CED00E0064900F035
:100B1000070208684FF6FF03184040EA0220034A24
:100B200010430860704700000CED00E00000FA057B
:100B30002DE9F0470F46050061D0434E306800F0C4
:100B40000700B84209D2306820F00700384330600F
:100B5000306800F00700B84251D128683B4C81074B
:100B600012D5400703D5606840F4E06060602878E3
:100B7000000703D5606840F4605060606068A96851
:100B800020F0F000084360602878C00728D068682B
:100B9000012810D02168022810D0890700292EDAF8
:100BA000616821F0030101436160FFF763FC804647
:100BB00041F288390DE021688903EFE78901EDE70B
:100BC000FFF758FCA0EB0801494502D90320BDE816
:100BD000F0876068696800F00C00B0EB810FEFD11E
:100BE000306800F00700B8420BD9306820F00700E9
:100BF00038433060306800F00700B84201D001206F
:100C0000E5E72878400705D56068E96820F4E060EA
:100C1000084360602878000706D56068296920F4D9
:100C2000605040EAC100606000F028F86168084A3E
:100C3000C1F30311515CC8400649086006480068CA
:100C4000FFF706FF0020C2E700200240001002402C
:100C5000E41A00082000002018000020044805497C
:100C600000684968044AC1F30221515CC8407047DA
:100C70002000002000100240F41A00080E4A5168BB
:100C80000E4801F00C03042B11D0082B0FD10C4897
:100C9000C1F38343C903C05C0AD55168084AC1F354
:100CA0004041921E515C054A5043B0FBF1F0704741
:100CB00004494843704700000010024000127A00C7
:100CC000D41A000800093D002DE9F84F040070D047
:100CD0002078C04DC00749D06868C0F38100012862
:100CE00007D06868C0F38100022809D16868C00392
:100CF00006D52868800339D560680028E7D035E03C
:100D00006068B0F5803F0BD010B1B0F5A02F11D0C6
:100D1000286820F480302860286820F4802002E0D1
:100D2000286840F480302860606890B1FFF7A2FB2B
:100D300006460AE0286840F480202860F0E700BFFB
:100D4000FFF798FB801B642873D828688003F7D5C9
:100D50000CE0FFF78FFB064605E000BFFFF78AFBBC
:100D6000801B6428F0D828688003F7D420789A4E36
:100D700080074FF001094FF0000839D5686810F07E
:100D80000C0F07D06868C0F38100022809D1686899
:100D9000C00306D42868800714D52069012808D12B
:100DA00010E02069B0B1C6F80090FFF763FB07467A
:100DB00005E00AE1FFF75EFBC01B0228C4D82868E3
:100DC0008007F7D52868616920F0F80040EAC10083
:100DD00028600DE0C6F80080FFF74CFB074604E0F2
:100DE000FFF748FBC01B022823D828688007F7D4E8
:100DF000207800072CD57948A169D9B1C0F80090B6
:100E0000FFF738FB074604E0FFF734FBC01B02285E
:100E10000FD8686A8007F7D571484FF4FA51006817
:100E2000B0FBF1F0009000BF0098411E0091FAD293
:100E30000EE080E0C0F80080FFF71CFB074604E0EE
:100E4000FFF718FBC01B022875D8686A8007F7D423
:100E50002078400760D5E8690027C00008D4E86919
:100E600040F08050E861E869012700F08050009070
:100E70005C480168C90513D40168834641F4807158
:100E80000160FFF7F7FA824606E000BFFFF7F2FACB
:100E9000A0EB0A0064284ED8DBF80000C005F5D5A9
:100EA000E06801280AD008B1052813D0286A20F08C
:100EB00001002862286A20F0040002E0286A40F05D
:100EC00001002862E06841F2883B98B1FFF7D2FA4E
:100ED00082460BE0286A40F004002862EEE700BF7B
:100EE000FFF7C8FAA0EB0A0159455AD8286A8007CB
:100EF000F6D50CE0FFF7BEFA824605E0FFF7BAFA36
:100F0000A0EB0A0159454CD8286A8007F6D41FB1D6
:100F1000E86920F08050E861E06988B36968C1F34E
:100F20008101022944D00228C6F8608004D0FFF76E
:100F3000A1FA044638E034E0FFF79CFA074604E0E3
:100F4000FFF798FAC01B02282BD828688001F7D435
:100F5000206AB0F5803F05D16868A16820F40030B0
:100F600008436860D4E908010843696821F47411F2
:100F700008436860C6F86090FFF77CFA044606E014
:100F800025E000BFFFF776FA001B022809D8286881
:100F90008001F7D51BE000BFFFF76CFA001B0228A9
:100FA00002D90320BDE8F88F28688001F4D40EE050
:100FB0000128F7D06868226A00F48031914204D198
:100FC000616A00F47010884201D00120EAE7002035
:100FD000E8E7000000100240000042428004424264
:100FE000200000200070004010B5401EB0F1807F4E
:100FF00001D3012010BD4FF0E02460610F21601784
:1010000000F04EFA0020A06107202061002010BDF2
:10101000FEE701684A69D24352050FD46FF480623B
:101020004A61002140F8301F202242738173026917
:1010300042F00402026101730120704700207047F2
:101040002DE9F84F0446C06A1E4693460D462168B6
:101050000A6842F480620A60082807D0012805D097
:1010600010F5803F02D0206B112804D12068016860
:1010700041F4807101604FF001195B46002249463E
:101080002046009600F0CCF84FF4007840B120687C
:101090000068C00501D5C4F840800320BDE8F88F82
:1010A0002069DFF884A0B0F5804F0FD006202168BA
:1010B00000EAD51747F0F000086133465A460AF1B6
:1010C0000601204600F0F4F858BB03E0E8B240F017
:1010D00001001CE02168E8B2086133465A465146D7
:1010E000204600F0E5F8E0B9206841698169009187
:1010F000016841F4807101605B4600224946204648
:10110000009600F08DF80028C1D147F0F100216869
:10111000086133465A465146204600F0C9F8002877
:10112000BCD00120BAE7000002000100F8B5044677
:10113000C06A1E460D461746082807D0012805D06C
:1011400010F5803F02D0206B122804D1206801687E
:1011500041F480710160134600224FF001112046D6
:10116000009600F05DF840B120680068C00502D527
:101170004FF4007020640320F8BD2069B0F5804F63
:101180000ED00620216800EAD51040F0F00008617A
:1011900033463A460B49204600F08AF878B902E017
:1011A00005F0FE0000E0E8B2216808610549334619
:1011B0003A46891F204600F07BF80028DCD0012049
:1011C000F8BD00000800010070B516460D46044643
:1011D0001EE02046FFF71DFF08B1012070BD681C0E
:1011E00016D0FFF747F9801BA84200D885B92068C0
:1011F0004069C04340070BD5002044F8300F202140
:101200006173A073216941F0200121612073E4E73B
:1012100020684069C0434007DBD4002070BD000057
:101220002DE9F047984617460D460446C1F3074698
:10123000DDF820902AE000BFB8F1FF3F26D0FFF78D
:1012400019F9A0EB0901414502D8B8F1000F1DD1F1
:101250002068012E16D0806925EA00000004000CE9
:1012600012D00020B84211D1002044F8300F2021C4
:101270006173A073216941F0200121612073012075
:10128000BDE8F0874069E7E70120EBE72068012E21
:101290000AD0806925EA00000004000C06D0002076
:1012A000B842C9D00020EBE74069F3E70120F7E737
:1012B0002DE9F047984616460D4604464FF00009C2
:1012C0004FF0200AC1F3074723E020684069C0437C
:1012D000400515D42068016841F40071016021685F
:1012E0006FF480604861C4F8309084F83DA084F8C1
:1012F0003E90216C41F00401216484F83C9021E08F
:10130000701C06D0FFF7B6F8A0EB0800B04203D877
:1013100016B1012F1FD021E02068012F15D0806960
:1013200025EA00000004000C18D000BF44F8309FEC
:1013300084F80DA084F80E90216941F0200121610C
:1013400084F80C900120BDE8F087406925EA000090
:101350000004000CEAD12068406901E0206880693F
:1013600025EA00000004000CAFD1ECE72DE9F041C4
:10137000002590460E460446202728E04069C043D9
:10138000C0060CD454F8301B6FF01000486144F8CC
:1013900010596777A577206A2062257714E0FFF758
:1013A00069F8A0EB0800B04200D886B9206840690F
:1013B000C04340060BD544F8305F6773A5732069BE
:1013C00040F02000206125730120BDE8F0812068F5
:1013D0004169C9434906D1D40020F6E770B51646E5
:1013E0000D4604461EE02046FFF713FE08B101201B
:1013F00070BD681C16D0FFF73DF8801BA84200D8CE
:1014000085B920684069C04300060BD5002044F828
:10141000300F20216173A073216941F02001216107
:101420002073E4E720684069C0430006DBD4002055
:1014300070BDFEE7FEE770477047FFF7EFBA30B5C3
:101440008FB028216846FEF7BFFE14210AA8FEF7D8
:10145000BBFE01210804CDE90010002402940225FE
:101460000491CDE907504FF4E01009906846FFF76A
:101470002BFC08B172B6FEE70F20CDE90A054FF448
:101480008060CDE90C4002210AA80E94FFF750FBC2
:10149000002801D072B6FEE70FB030BD7047FEE7FE
:1014A0000907090E002804DB00F1E02080F8001491
:1014B000704700F00F0000F1E02080F8141D704725
:1014C00008B5FFF7B3FAFFF7BAFF3B48816941F06F
:1014D00020018161816901F020010091816941F061
:1014E00008018161816901F008010091816941F081
:1014F000040181618069314900F0040000903048A6
:10150000304D00240160C0E901540E14C0E90346C7
:1015100044618461C4610462FEF7B2FF08B172B62F
:10152000FEE72748284954380160C0E90154C0E962
:10153000034644618461C4610462FEF7A1FF08B1FF
:1015400072B6FEE7DFF88480DFF88490214FDFF881
:1015500088A0DFF888B0C826A8F10C051B4A1848F7
:1015600002230C3A882154380096FFF775F9144885
:101570000623164A882154380096FFF745F8B8F834
:101580000000B8F8031040BA4CBA00F04DF94946D3
:1015900000F05EF9394600F085F8514600F020F879
:1015A0006860204600F040F9594600F051F939468C
:1015B00000F078F8A860D1E7001002400058004021
:1015C00078000020A0860100005400400C0000209C
:1015D00000002F4300FF7F47000034C20000C842D4
:1015E00090EA010F48BF81F0004100F10482421AE5
:1015F0003CBF801A89184FEAD0524FF07F4C1CEA4A
:10160000410FA2EBD15318BF9CEA026F00F03B8060
:101610004FF0004C4CEA00204CEA012121FA03FC77
:1016200010EB0C0C1ED202F1FF325FEA1C2040EBE3
:10163000C25038BF70471CF07F0F4FEA400C18BFF4
:10164000BCF17F4F38BF7047C3F12003994008BFFA
:1016500020F00100BCF17F4F38BF7047A0F1C040BF
:1016600000F0BDB94FEA3C00000A40EBC25028BF71
:101670001CF0FF0F4FEA400CE6D018BFBCF17F4FC3
:1016800038BF7047EAE79CEA026F05D010EA5C0FAA
:1016900008BF00F00040704710B500F05AF900BFD5
:1016A00064FBBE3E4FF47F0C1CEAD0121EBF1CEA46
:1016B000D11392EA0C0F93EA0C0F00F0858090EAA8
:1016C000010F48BF42F4807240F4000C41F4000066
:1016D0002CF07F4120F07F4000B58142A2EB030255
:1016E0000FF2081CACEB504EC0F100009EF800E079
:1016F0004FEA4E0E00FB0EFC38BF49004FEA2C1C8F
:1017000002F5FA020CFB0EF34FEACE1E4FEA112C43
:101710004FEAC1210EEB635E42EB22420EFB0CFC52
:101720004FEA1C5300FB03114FEA112C4FEA013121
:101730000EFB0CFC4FEADC4C00FB0C11C14228BF35
:1017400009184CEB03335DF804EB10EB410143EB5C
:10175000C250B2F57C0F38BF704729D512F0F00F98
:101760001CBF00F1C04000F0004070470081828340
:101770008485868788898B8C8D8E8F9192939596A0
:1017800097999A9C9D9FA0A2A3A5A7A8AAACAEB02A
:10179000B2B3B5B7B9BCBEC0C2C5C7C9CCCED1D42F
:1017A000D7D9DCDFE2E6E9ECF0F3F7FAFE0000005F
:1017B0004FEA400C0CF1807CBCF17E4F28BF704793
:1017C000B0F1C04000F00BB990EA010F0CEAD11360
:1017D00048BF42F48072624538BF634507D213F4B4
:1017E0007F0F16D080EA010000F00040704710B56E
:1017F00000F0AFF8097EFC3E00F005B880EA010079
:1018000000F00040704780EA010000F0004000F066
:10181000E6B812F47F0F04BF0248704780EA010067
:1018200000F0DDB80000C07FB0FA80F310FA03F2D8
:10183000C3F19D030AD0D90501EB1220530638BF2E
:10184000704700F1010008BF20F001007047000060
:101850004FF47F0C1CEAD0121EBF1CEAD11392EA8F
:101860000C0F93EA0C0F00F0478090EA010F48BF7D
:1018700042F480724FF0004C4CEA00204CEA012107
:1018800002EB0302A0FB0113A2F50002002918BF1E
:1018900043F001035B0028BF4FEA330342EB2242CF
:1018A0005FEA132C4CEBC2502EBFBCEB436FB2F57A
:1018B0007C0F70474FEA036CBCF1004F08BF20F06B
:1018C0000100B2F57C0F38BF70470BD582F0FF02E4
:1018D00012F5803FC8BF704700F1C040D8BF00F08C
:1018E0000040704700F5000C5FEA4C0C48BF7047A1
:1018F000B0F1C04000F073B890EA010F0CEAD113C8
:1019000048BF42F48072624538BF634504D280EA22
:10191000010000F00040704710B500F01AF800BF59
:101920008900013E00F007B800F009B85FEA410CF9
:101930005FEA1C6C08D080EA010000F050B85FEA52
:10194000400C5FEA1C6CF6D14FF00040A0F580001F
:1019500070470EF1020E2EF0030E5EF8044B244287
:1019600004D44FEA4102B2F17F4F11D84FEA40034D
:10197000B3F17F4F0CD80ED14FEAD07CB2F17F4F3C
:101980000CEB4C0C0CF1020C08BF4CEBD17C04E0CE
:101990004FF0080C01E04FEAD17C0CEB4C0324FA29
:1019A00003F404F00704B4F1040C06D20EEB840C2B
:1019B000BDE810404CF0010C6047DFE80CF0070870
:1019C00002024FF00040A0F5800010BD0846420022
:1019D00018BFD2F1807288BF00F0004010BDFF2117
:1019E00041EAD050C005704790EA010F48BF81F02E
:1019F00000413FF5FCAD421A04D882F00042A0EB52
:101A0000020011444FEAD0524FF07F4C1CEA410FC4
:101A1000A2EBD15318BF9CEA026F4AD04FF0004CA2
:101A20004CEA00204CEA012121FA03FCB0EB0C0C3B
:101A30000FD412F0FE0F36D05FEA4C001DD5001215
:101A400040EBC25038BF70471CF03F0F18BF7047C3
:101A50000BE0A2F101025FEA1C2040EBC25038BF4C
:101A600070471CF07F0F18BF7047C3F120039940E7
:101A700014BF401E20F00100704780084FEA122377
:101A800008BF7047B0FA80FCA2EB0C02CCF1280C26
:101A900060FA0CF093EA122F04BF00EBC2507047BB
:101AA0004FEAC3707047130A5FEADC1008BF704743
:101AB000F6E79CEA026F04D010EA5C0F08BF002032
:101AC000704710B5FFF745FF40DFF63E81F000405C
:101AD0007047010202030405060708090A0B0C0DF2
:101AE0000E0F1010000000000000000001020304AF
:101AF0000607080900000000010203041C1B00087F
:101B0000000000202400000028010008401B0008FD
:101B1000240000200C070000440100082C060000EF
:101B200000000000000000000000000000000000B5
:101B30000100000010000000000000000024F4007C
:04000005080000ED02
:00000001FF
